{
  "contractName": "AnyNFTCollectionFactory",
  "abi": [
    {
      "anonymous": false,
      "inputs": [
        {
          "indexed": false,
          "internalType": "address",
          "name": "renter",
          "type": "address"
        },
        {
          "indexed": false,
          "internalType": "string",
          "name": "renterCollectionName",
          "type": "string"
        },
        {
          "indexed": false,
          "internalType": "string",
          "name": "renterCollectionSymbol",
          "type": "string"
        },
        {
          "indexed": false,
          "internalType": "address",
          "name": "renterCollectionAddress",
          "type": "address"
        },
        {
          "indexed": false,
          "internalType": "uint256",
          "name": "timestamp",
          "type": "uint256"
        }
      ],
      "name": "NFTCollectionCreated",
      "type": "event"
    },
    {
      "anonymous": false,
      "inputs": [
        {
          "indexed": true,
          "internalType": "address",
          "name": "previousOwner",
          "type": "address"
        },
        {
          "indexed": true,
          "internalType": "address",
          "name": "newOwner",
          "type": "address"
        }
      ],
      "name": "OwnershipTransferred",
      "type": "event"
    },
    {
      "inputs": [],
      "name": "owner",
      "outputs": [
        {
          "internalType": "address",
          "name": "",
          "type": "address"
        }
      ],
      "stateMutability": "view",
      "type": "function",
      "constant": true
    },
    {
      "inputs": [],
      "name": "renounceOwnership",
      "outputs": [],
      "stateMutability": "nonpayable",
      "type": "function"
    },
    {
      "inputs": [
        {
          "internalType": "address",
          "name": "newOwner",
          "type": "address"
        }
      ],
      "name": "transferOwnership",
      "outputs": [],
      "stateMutability": "nonpayable",
      "type": "function"
    },
    {
      "inputs": [
        {
          "internalType": "address",
          "name": "_renter",
          "type": "address"
        },
        {
          "internalType": "string",
          "name": "_renterCollectionName",
          "type": "string"
        },
        {
          "internalType": "string",
          "name": "_renterCollectionSymbol",
          "type": "string"
        }
      ],
      "name": "createAnyNFTCollection",
      "outputs": [
        {
          "internalType": "address",
          "name": "collectionAddress",
          "type": "address"
        }
      ],
      "stateMutability": "nonpayable",
      "type": "function"
    }
  ],
  "bytecode": "0x608060405234801561001057600080fd5b5061001a3361001f565b61006f565b600080546001600160a01b038381166001600160a01b0319831681178455604051919092169283917f8be0079c531659141344cd1fd0a4f28419497f9722a3daafe3b4186f6b6457e09190a35050565b613ce18061007e6000396000f3fe60806040523480156200001157600080fd5b5060043610620000525760003560e01c8063715018a614620000575780637999edd214620000635780638da5cb5b1462000096578063f2fde38b14620000a8575b600080fd5b62000061620000bf565b005b6200007a620000743660046200058d565b620000d7565b6040516001600160a01b03909116815260200160405180910390f35b6000546001600160a01b03166200007a565b62000061620000b93660046200060a565b6200038c565b620000c96200040b565b620000d5600062000467565b565b6000620000e36200040b565b6001600160a01b0384166200013f5760405162461bcd60e51b815260206004820152601960248201527f61646472657373207a65726f206973206e6f742076616c69640000000000000060448201526064015b60405180910390fd5b604080516020808201909252600090528351908401207fc5d2460186f7233c927e7db2dcc703c0e500b653ca82273b7bfad8045d85a47003620001c55760405162461bcd60e51b815260206004820152601e60248201527f636f6c6c656374696f6e206e616d652063616e277420626520656d7074790000604482015260640162000136565b604080516020808201909252600090528251908301207fc5d2460186f7233c927e7db2dcc703c0e500b653ca82273b7bfad8045d85a470036200024b5760405162461bcd60e51b815260206004820181905260248201527f636f6c6c656374696f6e2073796d626f6c2063616e277420626520656d707479604482015260640162000136565b600083836040516200025d90620004b7565b6200026a92919062000677565b604051809103906000f08015801562000287573d6000803e3d6000fd5b5090507fbd6a0cb2cc43300f5337ae96695cf21f13aeb0f35b48539e72ae96722cd9d2938585858542604051620002c3959493929190620006a9565b60405180910390a16040516383c17c5560e01b81523360048201526001600160a01b038216906383c17c5590602401600060405180830381600087803b1580156200030d57600080fd5b505af115801562000322573d6000803e3d6000fd5b505060405163f2fde38b60e01b81526001600160a01b0388811660048301528416925063f2fde38b9150602401600060405180830381600087803b1580156200036a57600080fd5b505af11580156200037f573d6000803e3d6000fd5b5092979650505050505050565b620003966200040b565b6001600160a01b038116620003fd5760405162461bcd60e51b815260206004820152602660248201527f4f776e61626c653a206e6577206f776e657220697320746865207a65726f206160448201526564647265737360d01b606482015260840162000136565b620004088162000467565b50565b6000546001600160a01b03163314620000d55760405162461bcd60e51b815260206004820181905260248201527f4f776e61626c653a2063616c6c6572206973206e6f7420746865206f776e6572604482015260640162000136565b600080546001600160a01b038381166001600160a01b0319831681178455604051919092169283917f8be0079c531659141344cd1fd0a4f28419497f9722a3daafe3b4186f6b6457e09190a35050565b6135b480620006f883390190565b80356001600160a01b0381168114620004dd57600080fd5b919050565b634e487b7160e01b600052604160045260246000fd5b600082601f8301126200050a57600080fd5b813567ffffffffffffffff80821115620005285762000528620004e2565b604051601f8301601f19908116603f01168101908282118183101715620005535762000553620004e2565b816040528381528660208588010111156200056d57600080fd5b836020870160208301376000602085830101528094505050505092915050565b600080600060608486031215620005a357600080fd5b620005ae84620004c5565b9250602084013567ffffffffffffffff80821115620005cc57600080fd5b620005da87838801620004f8565b93506040860135915080821115620005f157600080fd5b506200060086828701620004f8565b9150509250925092565b6000602082840312156200061d57600080fd5b6200062882620004c5565b9392505050565b6000815180845260005b81811015620006575760208185018101518683018201520162000639565b506000602082860101526020601f19601f83011685010191505092915050565b6040815260006200068c60408301856200062f565b8281036020840152620006a081856200062f565b95945050505050565b600060018060a01b03808816835260a06020840152620006cd60a08401886200062f565b8381036040850152620006e181886200062f565b959091166060840152505060800152939250505056fe60806040523480156200001157600080fd5b50604051620035b4380380620035b4833981016040819052620000349162000328565b81818181600062000046838262000421565b50600162000055828262000421565b5050505050620000746200006e6200020d60201b60201c565b62000211565b620000b06040518060c0016040528060008152602001600081526020016000151581526020016060815260200160608152602001606081525090565b6000808252602080830182815260408051808201825260078082526667656e6573697360c81b82860181905260608801928352835180850185529182528186015260808701528151938401825284845260a08601939093528401838152600b8054600181018255945284517f0175b7a638427703f0dbe7bb9bbf987a2551717b34e79f33b5b1008d1fa01db9600690950294850190815591517f0175b7a638427703f0dbe7bb9bbf987a2551717b34e79f33b5b1008d1fa01dba850155517f0175b7a638427703f0dbe7bb9bbf987a2551717b34e79f33b5b1008d1fa01dbb8401805460ff1916911515919091179055905183927f0175b7a638427703f0dbe7bb9bbf987a2551717b34e79f33b5b1008d1fa01dbc0190620001d3908262000421565b5060808201516004820190620001ea908262000421565b5060a0820151600582019062000201908262000421565b505050505050620004ed565b3390565b600880546001600160a01b038381166001600160a01b0319831681179093556040519116919082907f8be0079c531659141344cd1fd0a4f28419497f9722a3daafe3b4186f6b6457e090600090a35050565b634e487b7160e01b600052604160045260246000fd5b600082601f8301126200028b57600080fd5b81516001600160401b0380821115620002a857620002a862000263565b604051601f8301601f19908116603f01168101908282118183101715620002d357620002d362000263565b81604052838152602092508683858801011115620002f057600080fd5b600091505b83821015620003145785820183015181830184015290820190620002f5565b600093810190920192909252949350505050565b600080604083850312156200033c57600080fd5b82516001600160401b03808211156200035457600080fd5b620003628683870162000279565b935060208501519150808211156200037957600080fd5b50620003888582860162000279565b9150509250929050565b600181811c90821680620003a757607f821691505b602082108103620003c857634e487b7160e01b600052602260045260246000fd5b50919050565b601f8211156200041c57600081815260208120601f850160051c81016020861015620003f75750805b601f850160051c820191505b81811015620004185782815560010162000403565b5050505b505050565b81516001600160401b038111156200043d576200043d62000263565b62000455816200044e845462000392565b84620003ce565b602080601f8311600181146200048d5760008415620004745750858301515b600019600386901b1c1916600185901b17855562000418565b600085815260208120601f198616915b82811015620004be578886015182559484019460019091019084016200049d565b5085821015620004dd5787850151600019600388901b60f8161c191681555b5050505050600190811b01905550565b6130b780620004fd6000396000f3fe608060405234801561001057600080fd5b50600436106101c45760003560e01c806395d89b41116100f9578063c87b56dd11610097578063e985e9c511610071578063e985e9c5146103d4578063f2fde38b146103e7578063fcd3533c146103fa578063ffc56a391461040d57600080fd5b8063c87b56dd1461039b578063ced5ed5c146103ae578063e030565e146103c157600080fd5b8063a8902856116100d3578063a89028561461034f578063b88d4fde14610362578063c2f1f14a14610375578063c45a01551461038857600080fd5b806395d89b411461032c5780639aff336f14610334578063a22cb4651461033c57600080fd5b80636352211e116101665780637c455b8b116101405780637c455b8b146102c257806383c17c55146102d75780638da5cb5b146102ea5780638fc88c48146102fb57600080fd5b80636352211e1461028657806370a0823114610299578063715018a6146102ba57600080fd5b8063095ea7b3116101a2578063095ea7b31461023157806323b872dd1461024657806326a0a5ae1461025957806342842e0e1461027357600080fd5b806301ffc9a7146101c957806306fdde03146101f1578063081812fc14610206575b600080fd5b6101dc6101d73660046126c9565b61042d565b60405190151581526020015b60405180910390f35b6101f9610458565b6040516101e89190612736565b610219610214366004612749565b6104ea565b6040516001600160a01b0390911681526020016101e8565b61024461023f366004612779565b610511565b005b6102446102543660046127a3565b61062b565b610261606481565b60405160ff90911681526020016101e8565b6102446102813660046127a3565b61065c565b610219610294366004612749565b610677565b6102ac6102a73660046127df565b6106d7565b6040519081526020016101e8565b61024461075d565b6102ca610771565b6040516101e8919061286b565b6102446102e53660046127df565b6109b5565b6008546001600160a01b0316610219565b6102ac610309366004612749565b600090815260076020526040902054600160a01b900467ffffffffffffffff1690565b6101f96109df565b600b546102ac565b61024461034a3660046128cd565b6109ee565b6102ac61035d3660046129b5565b6109fd565b610244610370366004612a87565b610ed5565b610219610383366004612749565b610f0d565b600a54610219906001600160a01b031681565b6101f96103a9366004612749565b610f5d565b6102446103bc366004612b1b565b61106d565b6102446103cf366004612b68565b6111db565b6101dc6103e2366004612ba4565b6112ce565b6102446103f53660046127df565b6112fc565b610244610408366004612bd7565b611375565b61042061041b366004612749565b61165d565b6040516101e89190612bfa565b60006001600160e01b03198216632b424ad760e21b1480610452575061045282611b3d565b92915050565b60606000805461046790612c0d565b80601f016020809104026020016040519081016040528092919081815260200182805461049390612c0d565b80156104e05780601f106104b5576101008083540402835291602001916104e0565b820191906000526020600020905b8154815290600101906020018083116104c357829003601f168201915b5050505050905090565b60006104f582611b8d565b506000908152600460205260409020546001600160a01b031690565b600061051c82610677565b9050806001600160a01b0316836001600160a01b03160361058e5760405162461bcd60e51b815260206004820152602160248201527f4552433732313a20617070726f76616c20746f2063757272656e74206f776e656044820152603960f91b60648201526084015b60405180910390fd5b336001600160a01b03821614806105aa57506105aa81336112ce565b61061c5760405162461bcd60e51b815260206004820152603d60248201527f4552433732313a20617070726f76652063616c6c6572206973206e6f7420746f60448201527f6b656e206f776e6572206f7220617070726f76656420666f7220616c6c0000006064820152608401610585565b6106268383611bec565b505050565b6106353382611c5a565b6106515760405162461bcd60e51b815260040161058590612c47565b610626838383611cb8565b61062683838360405180602001604052806000815250610ed5565b6000818152600260205260408120546001600160a01b0316806104525760405162461bcd60e51b8152602060048201526018602482015277115490cdcc8c4e881a5b9d985b1a59081d1bdad95b88125160421b6044820152606401610585565b60006001600160a01b0382166107415760405162461bcd60e51b815260206004820152602960248201527f4552433732313a2061646472657373207a65726f206973206e6f7420612076616044820152683634b21037bbb732b960b91b6064820152608401610585565b506001600160a01b031660009081526003602052604090205490565b610765611e29565b61076f6000611e83565b565b6060600b805480602002602001604051908101604052809291908181526020016000905b828210156109ac57838290600052602060002090600602016040518060c001604052908160008201548152602001600182015481526020016002820160009054906101000a900460ff161515151581526020016003820180546107f790612c0d565b80601f016020809104026020016040519081016040528092919081815260200182805461082390612c0d565b80156108705780601f1061084557610100808354040283529160200191610870565b820191906000526020600020905b81548152906001019060200180831161085357829003601f168201915b5050505050815260200160048201805461088990612c0d565b80601f01602080910402602001604051908101604052809291908181526020018280546108b590612c0d565b80156109025780601f106108d757610100808354040283529160200191610902565b820191906000526020600020905b8154815290600101906020018083116108e557829003601f168201915b5050505050815260200160058201805461091b90612c0d565b80601f016020809104026020016040519081016040528092919081815260200182805461094790612c0d565b80156109945780601f1061096957610100808354040283529160200191610994565b820191906000526020600020905b81548152906001019060200180831161097757829003601f168201915b50505050508152505081526020019060010190610795565b50505050905090565b6109bd611e29565b600a80546001600160a01b0319166001600160a01b0392909216919091179055565b60606001805461046790612c0d565b6109f9338383611ed5565b5050565b60008133610a136008546001600160a01b031690565b6001600160a01b03161480610a5f5750806001600160a01b0316610a3f6008546001600160a01b031690565b6001600160a01b0316148015610a5f5750600a546001600160a01b031633145b610a7b5760405162461bcd60e51b815260040161058590612c94565b600b54606411610acd5760405162461bcd60e51b815260206004820152601f60248201527f4d6178696d756d206e756d626572206f6620746f6f6c732072656163686564006044820152606401610585565b610b1a88888080601f016020809104026020016040519081016040528093929190818152602001838380828437600092018290525060408051602081019091529081529250611fa3915050565b15610b675760405162461bcd60e51b815260206004820152601860248201527f746f6b656e205552492063616e277420626520656d70747900000000000000006044820152606401610585565b604080516020808201909252600090528551908601207fc5d2460186f7233c927e7db2dcc703c0e500b653ca82273b7bfad8045d85a47003610be25760405162461bcd60e51b81526020600482015260146024820152737469746c652063616e277420626520656d70747960601b6044820152606401610585565b604080516020808201909252600090528451908501207fc5d2460186f7233c927e7db2dcc703c0e500b653ca82273b7bfad8045d85a47003610c665760405162461bcd60e51b815260206004820152601a60248201527f6465736372697074696f6e2063616e277420626520656d7074790000000000006044820152606401610585565b610c74600980546001019055565b6000610c7f60095490565b9050610cbc6040518060c0016040528060008152602001600081526020016000151581526020016060815260200160608152602001606081525090565b8181526020808201899052606082018890526080820187905260408051601f8c018390048302810183019091528a8152908b908b9081908401838280828437600092018290525060a08601949094525050600160408401818152600b8054928301815590935283517f0175b7a638427703f0dbe7bb9bbf987a2551717b34e79f33b5b1008d1fa01db9600690920291820190815560208501517f0175b7a638427703f0dbe7bb9bbf987a2551717b34e79f33b5b1008d1fa01dba83015592517f0175b7a638427703f0dbe7bb9bbf987a2551717b34e79f33b5b1008d1fa01dbb8201805460ff19169115159190911790556060840151849392507f0175b7a638427703f0dbe7bb9bbf987a2551717b34e79f33b5b1008d1fa01dbc90910190610de59082612d2b565b5060808201516004820190610dfa9082612d2b565b5060a08201516005820190610e0f9082612d2b565b505050610e2d610e276008546001600160a01b031690565b83611fb9565b610e6d828b8b8080601f01602080910402602001604051908101604052809392919081815260200183838082843760009201919091525061215292505050565b7fef4b2af7e88b309dc4d7dcc681a19050bf4542c4973eec501e3460b96905d0e4610ea06008546001600160a01b031690565b604080516001600160a01b03909216825260208201859052429082015260600160405180910390a15098975050505050505050565b610edf3383611c5a565b610efb5760405162461bcd60e51b815260040161058590612c47565b610f07848484846121e5565b50505050565b60008181526007602052604081205442600160a01b90910467ffffffffffffffff1610610f5057506000908152600760205260409020546001600160a01b031690565b506000919050565b919050565b6060610f6882611b8d565b60008281526006602052604081208054610f8190612c0d565b80601f0160208091040260200160405190810160405280929190818152602001828054610fad90612c0d565b8015610ffa5780601f10610fcf57610100808354040283529160200191610ffa565b820191906000526020600020905b815481529060010190602001808311610fdd57829003601f168201915b50505050509050600061101860408051602081019091526000815290565b9050805160000361102a575092915050565b81511561105c578082604051602001611044929190612deb565b60405160208183030381529060405292505050919050565b61106584612218565b949350505050565b80336110816008546001600160a01b031690565b6001600160a01b031614806110cd5750806001600160a01b03166110ad6008546001600160a01b031690565b6001600160a01b03161480156110cd5750600a546001600160a01b031633145b6110e95760405162461bcd60e51b815260040161058590612c94565b846110f360095490565b10156111115760405162461bcd60e51b815260040161058590612e1a565b600b858154811061112457611124612e47565b600091825260209091206002600690920201015460ff1661117f5760405162461bcd60e51b8152602060048201526015602482015274546f6f6c206973206e6f7420617661696c61626c6560581b6044820152606401610585565b61118a8585856111db565b60405167ffffffffffffffff841681526001600160a01b0385169086907f85d68432e09ec91928b8ec8b2c2337e2c9870d2268132024c8ea65c46eefeef89060200160405180910390a35050505050565b6111e53384611c5a565b61124c5760405162461bcd60e51b815260206004820152603260248201527f455243343930373a207472616e736665722063616c6c6572206973206e6f74206044820152711bdddb995c881b9bdc88185c1c1c9bdd995960721b6064820152608401610585565b60008381526007602090815260409182902080546001600160a01b0386166001600160e01b03199091168117600160a01b67ffffffffffffffff871690810291909117835593519384529092909186917f85d68432e09ec91928b8ec8b2c2337e2c9870d2268132024c8ea65c46eefeef891015b60405180910390a350505050565b6001600160a01b03918216600090815260056020908152604080832093909416825291909152205460ff1690565b611304611e29565b6001600160a01b0381166113695760405162461bcd60e51b815260206004820152602660248201527f4f776e61626c653a206e6577206f776e657220697320746865207a65726f206160448201526564647265737360d01b6064820152608401610585565b61137281611e83565b50565b80336113896008546001600160a01b031690565b6001600160a01b031614806113d55750806001600160a01b03166113b56008546001600160a01b031690565b6001600160a01b03161480156113d55750600a546001600160a01b031633145b6113f15760405162461bcd60e51b815260040161058590612c94565b6000838152600260205260409020546001600160a01b03166114555760405162461bcd60e51b815260206004820152601760248201527f546f6b656e20494420646f6573206e6f742065786973740000000000000000006044820152606401610585565b8261145f60095490565b101561147d5760405162461bcd60e51b815260040161058590612e1a565b6000805b600b548110156114d05784600b828154811061149f5761149f612e47565b906000526020600020906006020160000154036114be578091506114d0565b806114c881612e73565b915050611481565b50600b80546114e190600190612e8c565b815481106114f1576114f1612e47565b9060005260206000209060060201600b828154811061151257611512612e47565b60009182526020909120825460069092020190815560018083015490820155600280830154908201805460ff191660ff909216151591909117905560038082019061155f90840182612e9f565b5060048181019061157290840182612e9f565b5060058181019061158590840182612e9f565b50905050600b80548061159a5761159a612f7a565b6000828152602081206006600019909301928302018181556001810182905560028101805460ff19169055906115d36003830182612665565b6115e1600483016000612665565b6115ef600583016000612665565b505090556115fc8461228c565b7f9e4cd44a214c290e24a6167c728ce9a6e706dce33171779ea77807f9ab73cf8761162f6008546001600160a01b031690565b604080516001600160a01b03909216825260208201879052429082015260600160405180910390a150505050565b6116986040518060c0016040528060008152602001600081526020016000151581526020016060815260200160608152602001606081525090565b816116a260095490565b10156116c05760405162461bcd60e51b815260040161058590612e1a565b60005b600b548110156119235782600b82815481106116e1576116e1612e47565b9060005260206000209060060201600001540361191157600b818154811061170b5761170b612e47565b90600052602060002090600602016040518060c001604052908160008201548152602001600182015481526020016002820160009054906101000a900460ff1615151515815260200160038201805461176390612c0d565b80601f016020809104026020016040519081016040528092919081815260200182805461178f90612c0d565b80156117dc5780601f106117b1576101008083540402835291602001916117dc565b820191906000526020600020905b8154815290600101906020018083116117bf57829003601f168201915b505050505081526020016004820180546117f590612c0d565b80601f016020809104026020016040519081016040528092919081815260200182805461182190612c0d565b801561186e5780601f106118435761010080835404028352916020019161186e565b820191906000526020600020905b81548152906001019060200180831161185157829003601f168201915b5050505050815260200160058201805461188790612c0d565b80601f01602080910402602001604051908101604052809291908181526020018280546118b390612c0d565b80156119005780601f106118d557610100808354040283529160200191611900565b820191906000526020600020905b8154815290600101906020018083116118e357829003601f168201915b505050505081525050915050919050565b8061191b81612e73565b9150506116c3565b50600b60008154811061193857611938612e47565b90600052602060002090600602016040518060c001604052908160008201548152602001600182015481526020016002820160009054906101000a900460ff1615151515815260200160038201805461199090612c0d565b80601f01602080910402602001604051908101604052809291908181526020018280546119bc90612c0d565b8015611a095780601f106119de57610100808354040283529160200191611a09565b820191906000526020600020905b8154815290600101906020018083116119ec57829003601f168201915b50505050508152602001600482018054611a2290612c0d565b80601f0160208091040260200160405190810160405280929190818152602001828054611a4e90612c0d565b8015611a9b5780601f10611a7057610100808354040283529160200191611a9b565b820191906000526020600020905b815481529060010190602001808311611a7e57829003601f168201915b50505050508152602001600582018054611ab490612c0d565b80601f0160208091040260200160405190810160405280929190818152602001828054611ae090612c0d565b8015611b2d5780601f10611b0257610100808354040283529160200191611b2d565b820191906000526020600020905b815481529060010190602001808311611b1057829003601f168201915b5050505050815250509050919050565b60006001600160e01b031982166380ac58cd60e01b1480611b6e57506001600160e01b03198216635b5e139f60e01b145b8061045257506301ffc9a760e01b6001600160e01b0319831614610452565b6000818152600260205260409020546001600160a01b03166113725760405162461bcd60e51b8152602060048201526018602482015277115490cdcc8c4e881a5b9d985b1a59081d1bdad95b88125160421b6044820152606401610585565b600081815260046020526040902080546001600160a01b0319166001600160a01b0384169081179091558190611c2182610677565b6001600160a01b03167f8c5be1e5ebec7d5bd14f71427d1e84f3dd0314c0f7b2291e5b200ac8c7c3b92560405160405180910390a45050565b600080611c6683610677565b9050806001600160a01b0316846001600160a01b03161480611c8d5750611c8d81856112ce565b806110655750836001600160a01b0316611ca6846104ea565b6001600160a01b031614949350505050565b826001600160a01b0316611ccb82610677565b6001600160a01b031614611cf15760405162461bcd60e51b815260040161058590612f90565b6001600160a01b038216611d535760405162461bcd60e51b8152602060048201526024808201527f4552433732313a207472616e7366657220746f20746865207a65726f206164646044820152637265737360e01b6064820152608401610585565b611d6083838360016122cc565b826001600160a01b0316611d7382610677565b6001600160a01b031614611d995760405162461bcd60e51b815260040161058590612f90565b600081815260046020908152604080832080546001600160a01b03199081169091556001600160a01b0387811680865260038552838620805460001901905590871680865283862080546001019055868652600290945282852080549092168417909155905184937fddf252ad1be2c89b69c2b068fc378daa952ba7f163c4a11628f55a4df523b3ef91a4505050565b6008546001600160a01b0316331461076f5760405162461bcd60e51b815260206004820181905260248201527f4f776e61626c653a2063616c6c6572206973206e6f7420746865206f776e65726044820152606401610585565b600880546001600160a01b038381166001600160a01b0319831681179093556040519116919082907f8be0079c531659141344cd1fd0a4f28419497f9722a3daafe3b4186f6b6457e090600090a35050565b816001600160a01b0316836001600160a01b031603611f365760405162461bcd60e51b815260206004820152601960248201527f4552433732313a20617070726f766520746f2063616c6c6572000000000000006044820152606401610585565b6001600160a01b03838116600081815260056020908152604080832094871680845294825291829020805460ff191686151590811790915591519182527f17307eab39ab6107e8899845ad3d59bd9653f200f220920489ca2b5937696c31910160405180910390a3505050565b8051602091820120825192909101919091201490565b6001600160a01b03821661200f5760405162461bcd60e51b815260206004820181905260248201527f4552433732313a206d696e7420746f20746865207a65726f20616464726573736044820152606401610585565b6000818152600260205260409020546001600160a01b0316156120745760405162461bcd60e51b815260206004820152601c60248201527f4552433732313a20746f6b656e20616c7265616479206d696e746564000000006044820152606401610585565b6120826000838360016122cc565b6000818152600260205260409020546001600160a01b0316156120e75760405162461bcd60e51b815260206004820152601c60248201527f4552433732313a20746f6b656e20616c7265616479206d696e746564000000006044820152606401610585565b6001600160a01b038216600081815260036020908152604080832080546001019055848352600290915280822080546001600160a01b0319168417905551839291907fddf252ad1be2c89b69c2b068fc378daa952ba7f163c4a11628f55a4df523b3ef908290a45050565b6000828152600260205260409020546001600160a01b03166121cd5760405162461bcd60e51b815260206004820152602e60248201527f45524337323155524953746f726167653a2055524920736574206f66206e6f6e60448201526d32bc34b9ba32b73a103a37b5b2b760911b6064820152608401610585565b60008281526006602052604090206106268282612d2b565b6121f0848484611cb8565b6121fc84848484612356565b610f075760405162461bcd60e51b815260040161058590612fd5565b606061222382611b8d565b600061223a60408051602081019091526000815290565b9050600081511161225a5760405180602001604052806000815250612285565b8061226484612457565b604051602001612275929190612deb565b6040516020818303038152906040525b9392505050565b612295816124ea565b600081815260066020526040902080546122ae90612c0d565b15905061137257600081815260066020526040812061137291612665565b826001600160a01b0316846001600160a01b03161415801561230457506000828152600760205260409020546001600160a01b031615155b15610f0757600082815260076020908152604080832080546001600160e01b03191690555182815284917f85d68432e09ec91928b8ec8b2c2337e2c9870d2268132024c8ea65c46eefeef891016112c0565b60006001600160a01b0384163b1561244c57604051630a85bd0160e11b81526001600160a01b0385169063150b7a029061239a903390899088908890600401613027565b6020604051808303816000875af19250505080156123d5575060408051601f3d908101601f191682019092526123d291810190613064565b60015b612432573d808015612403576040519150601f19603f3d011682016040523d82523d6000602084013e612408565b606091505b50805160000361242a5760405162461bcd60e51b815260040161058590612fd5565b805181602001fd5b6001600160e01b031916630a85bd0160e11b149050611065565b506001949350505050565b606060006124648361258d565b600101905060008167ffffffffffffffff81111561248457612484612909565b6040519080825280601f01601f1916602001820160405280156124ae576020820181803683370190505b5090508181016020015b600019016f181899199a1a9b1b9c1cb0b131b232b360811b600a86061a8153600a85049450846124b857509392505050565b60006124f582610677565b90506125058160008460016122cc565b61250e82610677565b600083815260046020908152604080832080546001600160a01b03199081169091556001600160a01b0385168085526003845282852080546000190190558785526002909352818420805490911690555192935084927fddf252ad1be2c89b69c2b068fc378daa952ba7f163c4a11628f55a4df523b3ef908390a45050565b60008072184f03e93ff9f4daa797ed6e38ed64bf6a1f0160401b83106125cc5772184f03e93ff9f4daa797ed6e38ed64bf6a1f0160401b830492506040015b6d04ee2d6d415b85acef810000000083106125f8576d04ee2d6d415b85acef8100000000830492506020015b662386f26fc10000831061261657662386f26fc10000830492506010015b6305f5e100831061262e576305f5e100830492506008015b612710831061264257612710830492506004015b60648310612654576064830492506002015b600a83106104525760010192915050565b50805461267190612c0d565b6000825580601f10612681575050565b601f01602090049060005260206000209081019061137291905b808211156126af576000815560010161269b565b5090565b6001600160e01b03198116811461137257600080fd5b6000602082840312156126db57600080fd5b8135612285816126b3565b60005b838110156127015781810151838201526020016126e9565b50506000910152565b600081518084526127228160208601602086016126e6565b601f01601f19169290920160200192915050565b602081526000612285602083018461270a565b60006020828403121561275b57600080fd5b5035919050565b80356001600160a01b0381168114610f5857600080fd5b6000806040838503121561278c57600080fd5b61279583612762565b946020939093013593505050565b6000806000606084860312156127b857600080fd5b6127c184612762565b92506127cf60208501612762565b9150604084013590509250925092565b6000602082840312156127f157600080fd5b61228582612762565b80518252602081015160208301526040810151151560408301526000606082015160c0606085015261282f60c085018261270a565b905060808301518482036080860152612848828261270a565b91505060a083015184820360a0860152612862828261270a565b95945050505050565b6000602080830181845280855180835260408601915060408160051b870101925083870160005b828110156128c057603f198886030184526128ae8583516127fa565b94509285019290850190600101612892565b5092979650505050505050565b600080604083850312156128e057600080fd5b6128e983612762565b9150602083013580151581146128fe57600080fd5b809150509250929050565b634e487b7160e01b600052604160045260246000fd5b600067ffffffffffffffff8084111561293a5761293a612909565b604051601f8501601f19908116603f0116810190828211818310171561296257612962612909565b8160405280935085815286868601111561297b57600080fd5b858560208301376000602087830101525050509392505050565b600082601f8301126129a657600080fd5b6122858383356020850161291f565b60008060008060008060a087890312156129ce57600080fd5b863567ffffffffffffffff808211156129e657600080fd5b818901915089601f8301126129fa57600080fd5b813581811115612a0957600080fd5b8a6020828501011115612a1b57600080fd5b60209283019850965090880135945060408801359080821115612a3d57600080fd5b612a498a838b01612995565b94506060890135915080821115612a5f57600080fd5b50612a6c89828a01612995565b925050612a7b60808801612762565b90509295509295509295565b60008060008060808587031215612a9d57600080fd5b612aa685612762565b9350612ab460208601612762565b925060408501359150606085013567ffffffffffffffff811115612ad757600080fd5b8501601f81018713612ae857600080fd5b612af78782356020840161291f565b91505092959194509250565b803567ffffffffffffffff81168114610f5857600080fd5b60008060008060808587031215612b3157600080fd5b84359350612b4160208601612762565b9250612b4f60408601612b03565b9150612b5d60608601612762565b905092959194509250565b600080600060608486031215612b7d57600080fd5b83359250612b8d60208501612762565b9150612b9b60408501612b03565b90509250925092565b60008060408385031215612bb757600080fd5b612bc083612762565b9150612bce60208401612762565b90509250929050565b60008060408385031215612bea57600080fd5b82359150612bce60208401612762565b60208152600061228560208301846127fa565b600181811c90821680612c2157607f821691505b602082108103612c4157634e487b7160e01b600052602260045260246000fd5b50919050565b6020808252602d908201527f4552433732313a2063616c6c6572206973206e6f7420746f6b656e206f776e6560408201526c1c881bdc88185c1c1c9bdd9959609a1b606082015260800190565b60208082526029908201527f596f7520617265206e6f7420746865206f776e6572206f66207468617420636f604082015268363632b1ba34b7b71760b91b606082015260800190565b601f82111561062657600081815260208120601f850160051c81016020861015612d045750805b601f850160051c820191505b81811015612d2357828155600101612d10565b505050505050565b815167ffffffffffffffff811115612d4557612d45612909565b612d5981612d538454612c0d565b84612cdd565b602080601f831160018114612d8e5760008415612d765750858301515b600019600386901b1c1916600185901b178555612d23565b600085815260208120601f198616915b82811015612dbd57888601518255948401946001909101908401612d9e565b5085821015612ddb5787850151600019600388901b60f8161c191681555b5050505050600190811b01905550565b60008351612dfd8184602088016126e6565b835190830190612e118183602088016126e6565b01949350505050565b602080825260139082015272151bdbdb08191bd95cc81b9bdd08195e1a5cdd606a1b604082015260600190565b634e487b7160e01b600052603260045260246000fd5b634e487b7160e01b600052601160045260246000fd5b600060018201612e8557612e85612e5d565b5060010190565b8181038181111561045257610452612e5d565b818103612eaa575050565b612eb48254612c0d565b67ffffffffffffffff811115612ecc57612ecc612909565b612eda81612d538454612c0d565b6000601f821160018114612f0e5760008315612ef65750848201545b600019600385901b1c1916600184901b178455612f73565b600085815260209020601f19841690600086815260209020845b83811015612f485782860154825560019586019590910190602001612f28565b5085831015612f665781850154600019600388901b60f8161c191681555b50505060018360011b0184555b5050505050565b634e487b7160e01b600052603160045260246000fd5b60208082526025908201527f4552433732313a207472616e736665722066726f6d20696e636f72726563742060408201526437bbb732b960d91b606082015260800190565b60208082526032908201527f4552433732313a207472616e7366657220746f206e6f6e20455243373231526560408201527131b2b4bb32b91034b6b83632b6b2b73a32b960711b606082015260800190565b6001600160a01b038581168252841660208201526040810183905260806060820181905260009061305a9083018461270a565b9695505050505050565b60006020828403121561307657600080fd5b8151612285816126b356fea2646970667358221220bf0c0ee9c41ef8172549bd90173625c51b7026b101550d1a3670b1d45b37221064736f6c63430008130033a26469706673582212203b99bdbc01e1acc0110c4fb62e058b8e21be6bfbfd94914e8097e72bf231faaa64736f6c63430008130033",
  "immutableReferences": {},
  "source": "// SPDX-License-Identifier: MIT\npragma solidity 0.8.19;\n\nimport \"./AnyNFTCollection.sol\";\nimport \"../node_modules/@openzeppelin/contracts/access/Ownable.sol\";\n\n\n/**\n * @title NFT Collection Factory\n * @author https://github.com/gbesset\n * @notice contract to instantiate and deploy a NFTs collection\n * @dev Instantiate and deploy NFT Collection \n */\ncontract AnyNFTCollectionFactory is Ownable{\n\n\n    event NFTCollectionCreated(address renter, string renterCollectionName, string renterCollectionSymbol, address renterCollectionAddress, uint timestamp);\n    \n\n   function createAnyNFTCollection(address _renter, string memory _renterCollectionName, string memory _renterCollectionSymbol) external onlyOwner returns (address collectionAddress) {\n        require(_renter != address(0), \"address zero is not valid\");\n        require(!Utils.isEqualString(_renterCollectionName,\"\"), \"collection name can't be empty\");\n        require(!Utils.isEqualString(_renterCollectionSymbol,\"\"), \"collection symbol can't be empty\");\n\n        AnyNFTCollection collectionCreated  = new AnyNFTCollection(_renterCollectionName, _renterCollectionSymbol);\n\n        emit NFTCollectionCreated(_renter, _renterCollectionName, _renterCollectionSymbol,  collectionAddress, block.timestamp);\n\n        collectionCreated.setFactoryAddress(msg.sender);\n        collectionCreated.transferOwnership(_renter);\n        return address(collectionCreated);\n    }\n\n}\n",
  "sourcePath": "/Users/gbesset/wks/learning/web3/alyra_projetFinal_LocaTool_AnythingNearYou/truffle/contracts/AnyNFTCollectionFactory.sol",
  "compiler": {
    "name": "solc",
    "version": "0.8.19+commit.7dd6d404.Emscripten.clang"
  },
  "schemaVersion": "3.4.11",
  "updatedAt": "2023-04-09T10:01:15.968Z",
  "networkType": "ethereum",
  "devdoc": {
    "author": "https://github.com/gbesset",
    "details": "Instantiate and deploy NFT Collection ",
    "kind": "dev",
    "methods": {
      "owner()": {
        "details": "Returns the address of the current owner."
      },
      "renounceOwnership()": {
        "details": "Leaves the contract without owner. It will not be possible to call `onlyOwner` functions anymore. Can only be called by the current owner. NOTE: Renouncing ownership will leave the contract without an owner, thereby removing any functionality that is only available to the owner."
      },
      "transferOwnership(address)": {
        "details": "Transfers ownership of the contract to a new account (`newOwner`). Can only be called by the current owner."
      }
    },
    "title": "NFT Collection Factory",
    "version": 1
  },
  "userdoc": {
    "kind": "user",
    "methods": {},
    "notice": "contract to instantiate and deploy a NFTs collection",
    "version": 1
  }
}