{
  "contractName": "AnyNFTCollectionFactory",
  "abi": [
    {
      "anonymous": false,
      "inputs": [
        {
          "indexed": false,
          "internalType": "address",
          "name": "renter",
          "type": "address"
        },
        {
          "indexed": false,
          "internalType": "string",
          "name": "renterCollectionName",
          "type": "string"
        },
        {
          "indexed": false,
          "internalType": "string",
          "name": "renterCollectionSymbol",
          "type": "string"
        },
        {
          "indexed": false,
          "internalType": "address",
          "name": "renterCollectionAddress",
          "type": "address"
        },
        {
          "indexed": false,
          "internalType": "uint256",
          "name": "timestamp",
          "type": "uint256"
        }
      ],
      "name": "NFTCollectionCreated",
      "type": "event"
    },
    {
      "anonymous": false,
      "inputs": [
        {
          "indexed": true,
          "internalType": "address",
          "name": "previousOwner",
          "type": "address"
        },
        {
          "indexed": true,
          "internalType": "address",
          "name": "newOwner",
          "type": "address"
        }
      ],
      "name": "OwnershipTransferred",
      "type": "event"
    },
    {
      "inputs": [],
      "name": "owner",
      "outputs": [
        {
          "internalType": "address",
          "name": "",
          "type": "address"
        }
      ],
      "stateMutability": "view",
      "type": "function",
      "constant": true
    },
    {
      "inputs": [],
      "name": "renounceOwnership",
      "outputs": [],
      "stateMutability": "nonpayable",
      "type": "function"
    },
    {
      "inputs": [
        {
          "internalType": "address",
          "name": "newOwner",
          "type": "address"
        }
      ],
      "name": "transferOwnership",
      "outputs": [],
      "stateMutability": "nonpayable",
      "type": "function"
    },
    {
      "inputs": [
        {
          "internalType": "address",
          "name": "_renter",
          "type": "address"
        },
        {
          "internalType": "string",
          "name": "_renterCollectionName",
          "type": "string"
        },
        {
          "internalType": "string",
          "name": "_renterCollectionSymbol",
          "type": "string"
        }
      ],
      "name": "createAnyNFTCollection",
      "outputs": [
        {
          "internalType": "address",
          "name": "collectionAddress",
          "type": "address"
        }
      ],
      "stateMutability": "nonpayable",
      "type": "function"
    }
  ],
  "bytecode": "0x608060405234801561001057600080fd5b5061001a3361001f565b61006f565b600080546001600160a01b038381166001600160a01b0319831681178455604051919092169283917f8be0079c531659141344cd1fd0a4f28419497f9722a3daafe3b4186f6b6457e09190a35050565b613c8a8061007e6000396000f3fe60806040523480156200001157600080fd5b5060043610620000525760003560e01c8063715018a614620000575780637999edd214620000635780638da5cb5b1462000096578063f2fde38b14620000a8575b600080fd5b62000061620000bf565b005b6200007a620000743660046200058d565b620000d7565b6040516001600160a01b03909116815260200160405180910390f35b6000546001600160a01b03166200007a565b62000061620000b93660046200060a565b6200038c565b620000c96200040b565b620000d5600062000467565b565b6000620000e36200040b565b6001600160a01b0384166200013f5760405162461bcd60e51b815260206004820152601960248201527f61646472657373207a65726f206973206e6f742076616c69640000000000000060448201526064015b60405180910390fd5b604080516020808201909252600090528351908401207fc5d2460186f7233c927e7db2dcc703c0e500b653ca82273b7bfad8045d85a47003620001c55760405162461bcd60e51b815260206004820152601e60248201527f636f6c6c656374696f6e206e616d652063616e277420626520656d7074790000604482015260640162000136565b604080516020808201909252600090528251908301207fc5d2460186f7233c927e7db2dcc703c0e500b653ca82273b7bfad8045d85a470036200024b5760405162461bcd60e51b815260206004820181905260248201527f636f6c6c656374696f6e2073796d626f6c2063616e277420626520656d707479604482015260640162000136565b600083836040516200025d90620004b7565b6200026a92919062000677565b604051809103906000f08015801562000287573d6000803e3d6000fd5b5090507fbd6a0cb2cc43300f5337ae96695cf21f13aeb0f35b48539e72ae96722cd9d2938585858542604051620002c3959493929190620006a9565b60405180910390a16040516383c17c5560e01b81523360048201526001600160a01b038216906383c17c5590602401600060405180830381600087803b1580156200030d57600080fd5b505af115801562000322573d6000803e3d6000fd5b505060405163f2fde38b60e01b81526001600160a01b0388811660048301528416925063f2fde38b9150602401600060405180830381600087803b1580156200036a57600080fd5b505af11580156200037f573d6000803e3d6000fd5b5092979650505050505050565b620003966200040b565b6001600160a01b038116620003fd5760405162461bcd60e51b815260206004820152602660248201527f4f776e61626c653a206e6577206f776e657220697320746865207a65726f206160448201526564647265737360d01b606482015260840162000136565b620004088162000467565b50565b6000546001600160a01b03163314620000d55760405162461bcd60e51b815260206004820181905260248201527f4f776e61626c653a2063616c6c6572206973206e6f7420746865206f776e6572604482015260640162000136565b600080546001600160a01b038381166001600160a01b0319831681178455604051919092169283917f8be0079c531659141344cd1fd0a4f28419497f9722a3daafe3b4186f6b6457e09190a35050565b61355d80620006f883390190565b80356001600160a01b0381168114620004dd57600080fd5b919050565b634e487b7160e01b600052604160045260246000fd5b600082601f8301126200050a57600080fd5b813567ffffffffffffffff80821115620005285762000528620004e2565b604051601f8301601f19908116603f01168101908282118183101715620005535762000553620004e2565b816040528381528660208588010111156200056d57600080fd5b836020870160208301376000602085830101528094505050505092915050565b600080600060608486031215620005a357600080fd5b620005ae84620004c5565b9250602084013567ffffffffffffffff80821115620005cc57600080fd5b620005da87838801620004f8565b93506040860135915080821115620005f157600080fd5b506200060086828701620004f8565b9150509250925092565b6000602082840312156200061d57600080fd5b6200062882620004c5565b9392505050565b6000815180845260005b81811015620006575760208185018101518683018201520162000639565b506000602082860101526020601f19601f83011685010191505092915050565b6040815260006200068c60408301856200062f565b8281036020840152620006a081856200062f565b95945050505050565b600060018060a01b03808816835260a06020840152620006cd60a08401886200062f565b8381036040850152620006e181886200062f565b959091166060840152505060800152939250505056fe60806040523480156200001157600080fd5b506040516200355d3803806200355d833981016040819052620000349162000311565b8181818160006200004683826200040a565b5060016200005582826200040a565b5050505050620000746200006e620001f660201b60201c565b620001fa565b620000b06040518060c0016040528060008152602001600081526020016060815260200160608152602001606081526020016000151581525090565b6000808252602080830182815260408051808201825260078082526667656e6573697360c81b828601819052838801928352835180850185529182528186015260608701528151938401909152838352608085019290925260a08401839052600b80546001810182559352835160069093027f0175b7a638427703f0dbe7bb9bbf987a2551717b34e79f33b5b1008d1fa01db9810193845590517f0175b7a638427703f0dbe7bb9bbf987a2551717b34e79f33b5b1008d1fa01dba82015590518392917f0175b7a638427703f0dbe7bb9bbf987a2551717b34e79f33b5b1008d1fa01dbb0190620001a290826200040a565b5060608201516003820190620001b990826200040a565b5060808201516004820190620001d090826200040a565b5060a091909101516005909101805460ff191691151591909117905550620004d6915050565b3390565b600880546001600160a01b038381166001600160a01b0319831681179093556040519116919082907f8be0079c531659141344cd1fd0a4f28419497f9722a3daafe3b4186f6b6457e090600090a35050565b634e487b7160e01b600052604160045260246000fd5b600082601f8301126200027457600080fd5b81516001600160401b03808211156200029157620002916200024c565b604051601f8301601f19908116603f01168101908282118183101715620002bc57620002bc6200024c565b81604052838152602092508683858801011115620002d957600080fd5b600091505b83821015620002fd5785820183015181830184015290820190620002de565b600093810190920192909252949350505050565b600080604083850312156200032557600080fd5b82516001600160401b03808211156200033d57600080fd5b6200034b8683870162000262565b935060208501519150808211156200036257600080fd5b50620003718582860162000262565b9150509250929050565b600181811c908216806200039057607f821691505b602082108103620003b157634e487b7160e01b600052602260045260246000fd5b50919050565b601f8211156200040557600081815260208120601f850160051c81016020861015620003e05750805b601f850160051c820191505b818110156200040157828155600101620003ec565b5050505b505050565b81516001600160401b038111156200042657620004266200024c565b6200043e816200043784546200037b565b84620003b7565b602080601f8311600181146200047657600084156200045d5750858301515b600019600386901b1c1916600185901b17855562000401565b600085815260208120601f198616915b82811015620004a75788860151825594840194600190910190840162000486565b5085821015620004c65787850151600019600388901b60f8161c191681555b5050505050600190811b01905550565b61307780620004e66000396000f3fe608060405234801561001057600080fd5b50600436106101c45760003560e01c806395d89b41116100f9578063c87b56dd11610097578063e985e9c511610071578063e985e9c5146103d4578063f2fde38b146103e7578063fcd3533c146103fa578063ffc56a391461040d57600080fd5b8063c87b56dd1461039b578063ced5ed5c146103ae578063e030565e146103c157600080fd5b8063a8902856116100d3578063a89028561461034f578063b88d4fde14610362578063c2f1f14a14610375578063c45a01551461038857600080fd5b806395d89b411461032c5780639aff336f14610334578063a22cb4651461033c57600080fd5b80636352211e116101665780637c455b8b116101405780637c455b8b146102c257806383c17c55146102d75780638da5cb5b146102ea5780638fc88c48146102fb57600080fd5b80636352211e1461028657806370a0823114610299578063715018a6146102ba57600080fd5b8063095ea7b3116101a2578063095ea7b31461023157806323b872dd1461024657806326a0a5ae1461025957806342842e0e1461027357600080fd5b806301ffc9a7146101c957806306fdde03146101f1578063081812fc14610206575b600080fd5b6101dc6101d7366004612685565b61042d565b60405190151581526020015b60405180910390f35b6101f9610458565b6040516101e891906126f2565b610219610214366004612705565b6104ea565b6040516001600160a01b0390911681526020016101e8565b61024461023f366004612735565b610511565b005b61024461025436600461275f565b61062b565b610261606481565b60405160ff90911681526020016101e8565b61024461028136600461275f565b61065c565b610219610294366004612705565b610677565b6102ac6102a736600461279b565b6106d7565b6040519081526020016101e8565b61024461075d565b6102ca610771565b6040516101e8919061282b565b6102446102e536600461279b565b6109ac565b6008546001600160a01b0316610219565b6102ac610309366004612705565b600090815260076020526040902054600160a01b900467ffffffffffffffff1690565b6101f96109d6565b600b546102ac565b61024461034a36600461288d565b6109e5565b6102ac61035d366004612975565b6109f4565b610244610370366004612a47565b610ea8565b610219610383366004612705565b610ee0565b600a54610219906001600160a01b031681565b6101f96103a9366004612705565b610f30565b6102446103bc366004612adb565b611040565b6102446103cf366004612b28565b6111ae565b6101dc6103e2366004612b64565b6112a1565b6102446103f536600461279b565b6112cf565b610244610408366004612b97565b611348565b61042061041b366004612705565b61162f565b6040516101e89190612bba565b60006001600160e01b03198216632b424ad760e21b1480610452575061045282611af9565b92915050565b60606000805461046790612bcd565b80601f016020809104026020016040519081016040528092919081815260200182805461049390612bcd565b80156104e05780601f106104b5576101008083540402835291602001916104e0565b820191906000526020600020905b8154815290600101906020018083116104c357829003601f168201915b5050505050905090565b60006104f582611b49565b506000908152600460205260409020546001600160a01b031690565b600061051c82610677565b9050806001600160a01b0316836001600160a01b03160361058e5760405162461bcd60e51b815260206004820152602160248201527f4552433732313a20617070726f76616c20746f2063757272656e74206f776e656044820152603960f91b60648201526084015b60405180910390fd5b336001600160a01b03821614806105aa57506105aa81336112a1565b61061c5760405162461bcd60e51b815260206004820152603d60248201527f4552433732313a20617070726f76652063616c6c6572206973206e6f7420746f60448201527f6b656e206f776e6572206f7220617070726f76656420666f7220616c6c0000006064820152608401610585565b6106268383611ba8565b505050565b6106353382611c16565b6106515760405162461bcd60e51b815260040161058590612c07565b610626838383611c74565b61062683838360405180602001604052806000815250610ea8565b6000818152600260205260408120546001600160a01b0316806104525760405162461bcd60e51b8152602060048201526018602482015277115490cdcc8c4e881a5b9d985b1a59081d1bdad95b88125160421b6044820152606401610585565b60006001600160a01b0382166107415760405162461bcd60e51b815260206004820152602960248201527f4552433732313a2061646472657373207a65726f206973206e6f7420612076616044820152683634b21037bbb732b960b91b6064820152608401610585565b506001600160a01b031660009081526003602052604090205490565b610765611de5565b61076f6000611e3f565b565b6060600b805480602002602001604051908101604052809291908181526020016000905b828210156109a357838290600052602060002090600602016040518060c001604052908160008201548152602001600182015481526020016002820180546107dc90612bcd565b80601f016020809104026020016040519081016040528092919081815260200182805461080890612bcd565b80156108555780601f1061082a57610100808354040283529160200191610855565b820191906000526020600020905b81548152906001019060200180831161083857829003601f168201915b5050505050815260200160038201805461086e90612bcd565b80601f016020809104026020016040519081016040528092919081815260200182805461089a90612bcd565b80156108e75780601f106108bc576101008083540402835291602001916108e7565b820191906000526020600020905b8154815290600101906020018083116108ca57829003601f168201915b5050505050815260200160048201805461090090612bcd565b80601f016020809104026020016040519081016040528092919081815260200182805461092c90612bcd565b80156109795780601f1061094e57610100808354040283529160200191610979565b820191906000526020600020905b81548152906001019060200180831161095c57829003601f168201915b50505091835250506005919091015460ff1615156020918201529082526001929092019101610795565b50505050905090565b6109b4611de5565b600a80546001600160a01b0319166001600160a01b0392909216919091179055565b60606001805461046790612bcd565b6109f0338383611e91565b5050565b60008133610a0a6008546001600160a01b031690565b6001600160a01b03161480610a565750806001600160a01b0316610a366008546001600160a01b031690565b6001600160a01b0316148015610a565750600a546001600160a01b031633145b610a725760405162461bcd60e51b815260040161058590612c54565b600b54606411610ac45760405162461bcd60e51b815260206004820152601f60248201527f4d6178696d756d206e756d626572206f6620746f6f6c732072656163686564006044820152606401610585565b610b1188888080601f016020809104026020016040519081016040528093929190818152602001838380828437600092018290525060408051602081019091529081529250611f5f915050565b15610b5e5760405162461bcd60e51b815260206004820152601860248201527f746f6b656e205552492063616e277420626520656d70747900000000000000006044820152606401610585565b604080516020808201909252600090528551908601207fc5d2460186f7233c927e7db2dcc703c0e500b653ca82273b7bfad8045d85a47003610bd95760405162461bcd60e51b81526020600482015260146024820152737469746c652063616e277420626520656d70747960601b6044820152606401610585565b604080516020808201909252600090528451908501207fc5d2460186f7233c927e7db2dcc703c0e500b653ca82273b7bfad8045d85a47003610c5d5760405162461bcd60e51b815260206004820152601a60248201527f6465736372697074696f6e2063616e277420626520656d7074790000000000006044820152606401610585565b610c6b600980546001019055565b6000610c7660095490565b9050610cb36040518060c0016040528060008152602001600081526020016060815260200160608152602001606081526020016000151581525090565b81815260208082018990526040808301899052606083018890528051601f8c018390048302810183019091528a8152908b908b9081908401838280828437600092018290525060808601949094525050600160a08401819052600b8054918201815590925250815160069091027f0175b7a638427703f0dbe7bb9bbf987a2551717b34e79f33b5b1008d1fa01db9810191825560208301517f0175b7a638427703f0dbe7bb9bbf987a2551717b34e79f33b5b1008d1fa01dba82015560408301518392917f0175b7a638427703f0dbe7bb9bbf987a2551717b34e79f33b5b1008d1fa01dbb0190610da49082612ceb565b5060608201516003820190610db99082612ceb565b5060808201516004820190610dce9082612ceb565b5060a091909101516005909101805460ff1916911515919091179055600854610e00906001600160a01b031683611f75565b610e40828b8b8080601f01602080910402602001604051908101604052809392919081815260200183838082843760009201919091525061210e92505050565b7fef4b2af7e88b309dc4d7dcc681a19050bf4542c4973eec501e3460b96905d0e4610e736008546001600160a01b031690565b604080516001600160a01b03909216825260208201859052429082015260600160405180910390a15098975050505050505050565b610eb23383611c16565b610ece5760405162461bcd60e51b815260040161058590612c07565b610eda848484846121a1565b50505050565b60008181526007602052604081205442600160a01b90910467ffffffffffffffff1610610f2357506000908152600760205260409020546001600160a01b031690565b506000919050565b919050565b6060610f3b82611b49565b60008281526006602052604081208054610f5490612bcd565b80601f0160208091040260200160405190810160405280929190818152602001828054610f8090612bcd565b8015610fcd5780601f10610fa257610100808354040283529160200191610fcd565b820191906000526020600020905b815481529060010190602001808311610fb057829003601f168201915b505050505090506000610feb60408051602081019091526000815290565b90508051600003610ffd575092915050565b81511561102f578082604051602001611017929190612dab565b60405160208183030381529060405292505050919050565b611038846121d4565b949350505050565b80336110546008546001600160a01b031690565b6001600160a01b031614806110a05750806001600160a01b03166110806008546001600160a01b031690565b6001600160a01b03161480156110a05750600a546001600160a01b031633145b6110bc5760405162461bcd60e51b815260040161058590612c54565b846110c660095490565b10156110e45760405162461bcd60e51b815260040161058590612dda565b600b85815481106110f7576110f7612e07565b600091825260209091206005600690920201015460ff166111525760405162461bcd60e51b8152602060048201526015602482015274546f6f6c206973206e6f7420617661696c61626c6560581b6044820152606401610585565b61115d8585856111ae565b60405167ffffffffffffffff841681526001600160a01b0385169086907f85d68432e09ec91928b8ec8b2c2337e2c9870d2268132024c8ea65c46eefeef89060200160405180910390a35050505050565b6111b83384611c16565b61121f5760405162461bcd60e51b815260206004820152603260248201527f455243343930373a207472616e736665722063616c6c6572206973206e6f74206044820152711bdddb995c881b9bdc88185c1c1c9bdd995960721b6064820152608401610585565b60008381526007602090815260409182902080546001600160a01b0386166001600160e01b03199091168117600160a01b67ffffffffffffffff871690810291909117835593519384529092909186917f85d68432e09ec91928b8ec8b2c2337e2c9870d2268132024c8ea65c46eefeef891015b60405180910390a350505050565b6001600160a01b03918216600090815260056020908152604080832093909416825291909152205460ff1690565b6112d7611de5565b6001600160a01b03811661133c5760405162461bcd60e51b815260206004820152602660248201527f4f776e61626c653a206e6577206f776e657220697320746865207a65726f206160448201526564647265737360d01b6064820152608401610585565b61134581611e3f565b50565b803361135c6008546001600160a01b031690565b6001600160a01b031614806113a85750806001600160a01b03166113886008546001600160a01b031690565b6001600160a01b03161480156113a85750600a546001600160a01b031633145b6113c45760405162461bcd60e51b815260040161058590612c54565b6000838152600260205260409020546001600160a01b03166114285760405162461bcd60e51b815260206004820152601760248201527f546f6b656e20494420646f6573206e6f742065786973740000000000000000006044820152606401610585565b8261143260095490565b10156114505760405162461bcd60e51b815260040161058590612dda565b6000805b600b548110156114a35784600b828154811061147257611472612e07565b90600052602060002090600602016000015403611491578091506114a3565b8061149b81612e33565b915050611454565b50600b80546114b490600190612e4c565b815481106114c4576114c4612e07565b9060005260206000209060060201600b82815481106114e5576114e5612e07565b906000526020600020906006020160008201548160000155600182015481600101556002820181600201908161151b9190612e5f565b5060038181019061152e90840182612e5f565b5060048181019061154190840182612e5f565b506005918201549101805460ff191660ff9092161515919091179055600b80548061156e5761156e612f3a565b600082815260208120600660001990930192830201818155600181018290559061159b6002830182612621565b6115a9600383016000612621565b6115b7600483016000612621565b50600501805460ff1916905590556115ce84612248565b7f9e4cd44a214c290e24a6167c728ce9a6e706dce33171779ea77807f9ab73cf876116016008546001600160a01b031690565b604080516001600160a01b03909216825260208201879052429082015260600160405180910390a150505050565b61166a6040518060c0016040528060008152602001600081526020016060815260200160608152602001606081526020016000151581525090565b8161167460095490565b10156116925760405162461bcd60e51b815260040161058590612dda565b60005b600b548110156118ea5782600b82815481106116b3576116b3612e07565b906000526020600020906006020160000154036118d857600b81815481106116dd576116dd612e07565b90600052602060002090600602016040518060c0016040529081600082015481526020016001820154815260200160028201805461171a90612bcd565b80601f016020809104026020016040519081016040528092919081815260200182805461174690612bcd565b80156117935780601f1061176857610100808354040283529160200191611793565b820191906000526020600020905b81548152906001019060200180831161177657829003601f168201915b505050505081526020016003820180546117ac90612bcd565b80601f01602080910402602001604051908101604052809291908181526020018280546117d890612bcd565b80156118255780601f106117fa57610100808354040283529160200191611825565b820191906000526020600020905b81548152906001019060200180831161180857829003601f168201915b5050505050815260200160048201805461183e90612bcd565b80601f016020809104026020016040519081016040528092919081815260200182805461186a90612bcd565b80156118b75780601f1061188c576101008083540402835291602001916118b7565b820191906000526020600020905b81548152906001019060200180831161189a57829003601f168201915b50505091835250506005919091015460ff1615156020909101529392505050565b806118e281612e33565b915050611695565b50600b6000815481106118ff576118ff612e07565b90600052602060002090600602016040518060c0016040529081600082015481526020016001820154815260200160028201805461193c90612bcd565b80601f016020809104026020016040519081016040528092919081815260200182805461196890612bcd565b80156119b55780601f1061198a576101008083540402835291602001916119b5565b820191906000526020600020905b81548152906001019060200180831161199857829003601f168201915b505050505081526020016003820180546119ce90612bcd565b80601f01602080910402602001604051908101604052809291908181526020018280546119fa90612bcd565b8015611a475780601f10611a1c57610100808354040283529160200191611a47565b820191906000526020600020905b815481529060010190602001808311611a2a57829003601f168201915b50505050508152602001600482018054611a6090612bcd565b80601f0160208091040260200160405190810160405280929190818152602001828054611a8c90612bcd565b8015611ad95780601f10611aae57610100808354040283529160200191611ad9565b820191906000526020600020905b815481529060010190602001808311611abc57829003601f168201915b50505091835250506005919091015460ff16151560209091015292915050565b60006001600160e01b031982166380ac58cd60e01b1480611b2a57506001600160e01b03198216635b5e139f60e01b145b8061045257506301ffc9a760e01b6001600160e01b0319831614610452565b6000818152600260205260409020546001600160a01b03166113455760405162461bcd60e51b8152602060048201526018602482015277115490cdcc8c4e881a5b9d985b1a59081d1bdad95b88125160421b6044820152606401610585565b600081815260046020526040902080546001600160a01b0319166001600160a01b0384169081179091558190611bdd82610677565b6001600160a01b03167f8c5be1e5ebec7d5bd14f71427d1e84f3dd0314c0f7b2291e5b200ac8c7c3b92560405160405180910390a45050565b600080611c2283610677565b9050806001600160a01b0316846001600160a01b03161480611c495750611c4981856112a1565b806110385750836001600160a01b0316611c62846104ea565b6001600160a01b031614949350505050565b826001600160a01b0316611c8782610677565b6001600160a01b031614611cad5760405162461bcd60e51b815260040161058590612f50565b6001600160a01b038216611d0f5760405162461bcd60e51b8152602060048201526024808201527f4552433732313a207472616e7366657220746f20746865207a65726f206164646044820152637265737360e01b6064820152608401610585565b611d1c8383836001612288565b826001600160a01b0316611d2f82610677565b6001600160a01b031614611d555760405162461bcd60e51b815260040161058590612f50565b600081815260046020908152604080832080546001600160a01b03199081169091556001600160a01b0387811680865260038552838620805460001901905590871680865283862080546001019055868652600290945282852080549092168417909155905184937fddf252ad1be2c89b69c2b068fc378daa952ba7f163c4a11628f55a4df523b3ef91a4505050565b6008546001600160a01b0316331461076f5760405162461bcd60e51b815260206004820181905260248201527f4f776e61626c653a2063616c6c6572206973206e6f7420746865206f776e65726044820152606401610585565b600880546001600160a01b038381166001600160a01b0319831681179093556040519116919082907f8be0079c531659141344cd1fd0a4f28419497f9722a3daafe3b4186f6b6457e090600090a35050565b816001600160a01b0316836001600160a01b031603611ef25760405162461bcd60e51b815260206004820152601960248201527f4552433732313a20617070726f766520746f2063616c6c6572000000000000006044820152606401610585565b6001600160a01b03838116600081815260056020908152604080832094871680845294825291829020805460ff191686151590811790915591519182527f17307eab39ab6107e8899845ad3d59bd9653f200f220920489ca2b5937696c31910160405180910390a3505050565b8051602091820120825192909101919091201490565b6001600160a01b038216611fcb5760405162461bcd60e51b815260206004820181905260248201527f4552433732313a206d696e7420746f20746865207a65726f20616464726573736044820152606401610585565b6000818152600260205260409020546001600160a01b0316156120305760405162461bcd60e51b815260206004820152601c60248201527f4552433732313a20746f6b656e20616c7265616479206d696e746564000000006044820152606401610585565b61203e600083836001612288565b6000818152600260205260409020546001600160a01b0316156120a35760405162461bcd60e51b815260206004820152601c60248201527f4552433732313a20746f6b656e20616c7265616479206d696e746564000000006044820152606401610585565b6001600160a01b038216600081815260036020908152604080832080546001019055848352600290915280822080546001600160a01b0319168417905551839291907fddf252ad1be2c89b69c2b068fc378daa952ba7f163c4a11628f55a4df523b3ef908290a45050565b6000828152600260205260409020546001600160a01b03166121895760405162461bcd60e51b815260206004820152602e60248201527f45524337323155524953746f726167653a2055524920736574206f66206e6f6e60448201526d32bc34b9ba32b73a103a37b5b2b760911b6064820152608401610585565b60008281526006602052604090206106268282612ceb565b6121ac848484611c74565b6121b884848484612312565b610eda5760405162461bcd60e51b815260040161058590612f95565b60606121df82611b49565b60006121f660408051602081019091526000815290565b905060008151116122165760405180602001604052806000815250612241565b8061222084612413565b604051602001612231929190612dab565b6040516020818303038152906040525b9392505050565b612251816124a6565b6000818152600660205260409020805461226a90612bcd565b15905061134557600081815260066020526040812061134591612621565b826001600160a01b0316846001600160a01b0316141580156122c057506000828152600760205260409020546001600160a01b031615155b15610eda57600082815260076020908152604080832080546001600160e01b03191690555182815284917f85d68432e09ec91928b8ec8b2c2337e2c9870d2268132024c8ea65c46eefeef89101611293565b60006001600160a01b0384163b1561240857604051630a85bd0160e11b81526001600160a01b0385169063150b7a0290612356903390899088908890600401612fe7565b6020604051808303816000875af1925050508015612391575060408051601f3d908101601f1916820190925261238e91810190613024565b60015b6123ee573d8080156123bf576040519150601f19603f3d011682016040523d82523d6000602084013e6123c4565b606091505b5080516000036123e65760405162461bcd60e51b815260040161058590612f95565b805181602001fd5b6001600160e01b031916630a85bd0160e11b149050611038565b506001949350505050565b6060600061242083612549565b600101905060008167ffffffffffffffff811115612440576124406128c9565b6040519080825280601f01601f19166020018201604052801561246a576020820181803683370190505b5090508181016020015b600019016f181899199a1a9b1b9c1cb0b131b232b360811b600a86061a8153600a850494508461247457509392505050565b60006124b182610677565b90506124c1816000846001612288565b6124ca82610677565b600083815260046020908152604080832080546001600160a01b03199081169091556001600160a01b0385168085526003845282852080546000190190558785526002909352818420805490911690555192935084927fddf252ad1be2c89b69c2b068fc378daa952ba7f163c4a11628f55a4df523b3ef908390a45050565b60008072184f03e93ff9f4daa797ed6e38ed64bf6a1f0160401b83106125885772184f03e93ff9f4daa797ed6e38ed64bf6a1f0160401b830492506040015b6d04ee2d6d415b85acef810000000083106125b4576d04ee2d6d415b85acef8100000000830492506020015b662386f26fc1000083106125d257662386f26fc10000830492506010015b6305f5e10083106125ea576305f5e100830492506008015b61271083106125fe57612710830492506004015b60648310612610576064830492506002015b600a83106104525760010192915050565b50805461262d90612bcd565b6000825580601f1061263d575050565b601f01602090049060005260206000209081019061134591905b8082111561266b5760008155600101612657565b5090565b6001600160e01b03198116811461134557600080fd5b60006020828403121561269757600080fd5b81356122418161266f565b60005b838110156126bd5781810151838201526020016126a5565b50506000910152565b600081518084526126de8160208601602086016126a2565b601f01601f19169290920160200192915050565b60208152600061224160208301846126c6565b60006020828403121561271757600080fd5b5035919050565b80356001600160a01b0381168114610f2b57600080fd5b6000806040838503121561274857600080fd5b6127518361271e565b946020939093013593505050565b60008060006060848603121561277457600080fd5b61277d8461271e565b925061278b6020850161271e565b9150604084013590509250925092565b6000602082840312156127ad57600080fd5b6122418261271e565b80518252602081015160208301526000604082015160c060408501526127df60c08501826126c6565b9050606083015184820360608601526127f882826126c6565b9150506080830151848203608086015261281282826126c6565b91505060a0830151151560a08501528091505092915050565b6000602080830181845280855180835260408601915060408160051b870101925083870160005b8281101561288057603f1988860301845261286e8583516127b6565b94509285019290850190600101612852565b5092979650505050505050565b600080604083850312156128a057600080fd5b6128a98361271e565b9150602083013580151581146128be57600080fd5b809150509250929050565b634e487b7160e01b600052604160045260246000fd5b600067ffffffffffffffff808411156128fa576128fa6128c9565b604051601f8501601f19908116603f01168101908282118183101715612922576129226128c9565b8160405280935085815286868601111561293b57600080fd5b858560208301376000602087830101525050509392505050565b600082601f83011261296657600080fd5b612241838335602085016128df565b60008060008060008060a0878903121561298e57600080fd5b863567ffffffffffffffff808211156129a657600080fd5b818901915089601f8301126129ba57600080fd5b8135818111156129c957600080fd5b8a60208285010111156129db57600080fd5b602092830198509650908801359450604088013590808211156129fd57600080fd5b612a098a838b01612955565b94506060890135915080821115612a1f57600080fd5b50612a2c89828a01612955565b925050612a3b6080880161271e565b90509295509295509295565b60008060008060808587031215612a5d57600080fd5b612a668561271e565b9350612a746020860161271e565b925060408501359150606085013567ffffffffffffffff811115612a9757600080fd5b8501601f81018713612aa857600080fd5b612ab7878235602084016128df565b91505092959194509250565b803567ffffffffffffffff81168114610f2b57600080fd5b60008060008060808587031215612af157600080fd5b84359350612b016020860161271e565b9250612b0f60408601612ac3565b9150612b1d6060860161271e565b905092959194509250565b600080600060608486031215612b3d57600080fd5b83359250612b4d6020850161271e565b9150612b5b60408501612ac3565b90509250925092565b60008060408385031215612b7757600080fd5b612b808361271e565b9150612b8e6020840161271e565b90509250929050565b60008060408385031215612baa57600080fd5b82359150612b8e6020840161271e565b60208152600061224160208301846127b6565b600181811c90821680612be157607f821691505b602082108103612c0157634e487b7160e01b600052602260045260246000fd5b50919050565b6020808252602d908201527f4552433732313a2063616c6c6572206973206e6f7420746f6b656e206f776e6560408201526c1c881bdc88185c1c1c9bdd9959609a1b606082015260800190565b60208082526029908201527f596f7520617265206e6f7420746865206f776e6572206f66207468617420636f604082015268363632b1ba34b7b71760b91b606082015260800190565b601f82111561062657600081815260208120601f850160051c81016020861015612cc45750805b601f850160051c820191505b81811015612ce357828155600101612cd0565b505050505050565b815167ffffffffffffffff811115612d0557612d056128c9565b612d1981612d138454612bcd565b84612c9d565b602080601f831160018114612d4e5760008415612d365750858301515b600019600386901b1c1916600185901b178555612ce3565b600085815260208120601f198616915b82811015612d7d57888601518255948401946001909101908401612d5e565b5085821015612d9b5787850151600019600388901b60f8161c191681555b5050505050600190811b01905550565b60008351612dbd8184602088016126a2565b835190830190612dd18183602088016126a2565b01949350505050565b602080825260139082015272151bdbdb08191bd95cc81b9bdd08195e1a5cdd606a1b604082015260600190565b634e487b7160e01b600052603260045260246000fd5b634e487b7160e01b600052601160045260246000fd5b600060018201612e4557612e45612e1d565b5060010190565b8181038181111561045257610452612e1d565b818103612e6a575050565b612e748254612bcd565b67ffffffffffffffff811115612e8c57612e8c6128c9565b612e9a81612d138454612bcd565b6000601f821160018114612ece5760008315612eb65750848201545b600019600385901b1c1916600184901b178455612f33565b600085815260209020601f19841690600086815260209020845b83811015612f085782860154825560019586019590910190602001612ee8565b5085831015612f265781850154600019600388901b60f8161c191681555b50505060018360011b0184555b5050505050565b634e487b7160e01b600052603160045260246000fd5b60208082526025908201527f4552433732313a207472616e736665722066726f6d20696e636f72726563742060408201526437bbb732b960d91b606082015260800190565b60208082526032908201527f4552433732313a207472616e7366657220746f206e6f6e20455243373231526560408201527131b2b4bb32b91034b6b83632b6b2b73a32b960711b606082015260800190565b6001600160a01b038581168252841660208201526040810183905260806060820181905260009061301a908301846126c6565b9695505050505050565b60006020828403121561303657600080fd5b81516122418161266f56fea26469706673582212207b2c777589e23beba768cabeaf70344d4dea6ab0d52015b294aee2d956633d9e64736f6c63430008130033a2646970667358221220c9b614dab96eec14996294b284bbfe2bfcf0b532ffaf66a800c8b767e8e41acd64736f6c63430008130033",
  "immutableReferences": {},
  "source": "pragma solidity 0.8.19;\n\nimport \"./AnyNFTCollection.sol\";\nimport \"../node_modules/@openzeppelin/contracts/access/Ownable.sol\";\n\ncontract AnyNFTCollectionFactory is Ownable{\n\n\n    event NFTCollectionCreated(address renter, string renterCollectionName, string renterCollectionSymbol, address renterCollectionAddress, uint timestamp);\n    \n\n   function createAnyNFTCollection(address _renter, string memory _renterCollectionName, string memory _renterCollectionSymbol) external onlyOwner returns (address collectionAddress) {\n        require(_renter != address(0), \"address zero is not valid\");\n        require(!Utils.isEqualString(_renterCollectionName,\"\"), \"collection name can't be empty\");\n        require(!Utils.isEqualString(_renterCollectionSymbol,\"\"), \"collection symbol can't be empty\");\n\n        AnyNFTCollection collectionCreated  = new AnyNFTCollection(_renterCollectionName, _renterCollectionSymbol);\n\n        emit NFTCollectionCreated(_renter, _renterCollectionName, _renterCollectionSymbol,  collectionAddress, block.timestamp);\n\n        collectionCreated.setFactoryAddress(msg.sender);\n        collectionCreated.transferOwnership(_renter);\n        return address(collectionCreated);\n    }\n\n}\n",
  "sourcePath": "/Users/gbesset/wks/learning/web3/alyra_projetFinal_LocaTool_AnythingNearYou/truffle/contracts/AnyNFTCollectionFactory.sol",
  "compiler": {
    "name": "solc",
    "version": "0.8.19+commit.7dd6d404.Emscripten.clang"
  },
  "schemaVersion": "3.4.11",
  "updatedAt": "2023-04-07T19:47:08.096Z",
  "networkType": "ethereum",
  "devdoc": {
    "kind": "dev",
    "methods": {
      "owner()": {
        "details": "Returns the address of the current owner."
      },
      "renounceOwnership()": {
        "details": "Leaves the contract without owner. It will not be possible to call `onlyOwner` functions anymore. Can only be called by the current owner. NOTE: Renouncing ownership will leave the contract without an owner, thereby removing any functionality that is only available to the owner."
      },
      "transferOwnership(address)": {
        "details": "Transfers ownership of the contract to a new account (`newOwner`). Can only be called by the current owner."
      }
    },
    "version": 1
  },
  "userdoc": {
    "kind": "user",
    "methods": {},
    "version": 1
  }
}