{
  "contractName": "AnyRental",
  "abi": [
    {
      "inputs": [
        {
          "internalType": "address",
          "name": "_anyNFTFactory",
          "type": "address"
        }
      ],
      "stateMutability": "nonpayable",
      "type": "constructor"
    },
    {
      "anonymous": false,
      "inputs": [
        {
          "indexed": false,
          "internalType": "address",
          "name": "renter",
          "type": "address"
        },
        {
          "indexed": false,
          "internalType": "string",
          "name": "renterCollectionName",
          "type": "string"
        },
        {
          "indexed": false,
          "internalType": "address",
          "name": "renterCollectionAddress",
          "type": "address"
        },
        {
          "indexed": false,
          "internalType": "uint256",
          "name": "timestamp",
          "type": "uint256"
        }
      ],
      "name": "NFTCollectionCreated",
      "type": "event"
    },
    {
      "anonymous": false,
      "inputs": [
        {
          "indexed": false,
          "internalType": "address",
          "name": "renter",
          "type": "address"
        },
        {
          "indexed": false,
          "internalType": "address",
          "name": "renterCollectionAddress",
          "type": "address"
        },
        {
          "indexed": false,
          "internalType": "uint256",
          "name": "timestamp",
          "type": "uint256"
        }
      ],
      "name": "NFTCollectionDeleted",
      "type": "event"
    },
    {
      "anonymous": false,
      "inputs": [
        {
          "indexed": false,
          "internalType": "address",
          "name": "renter",
          "type": "address"
        },
        {
          "indexed": false,
          "internalType": "address",
          "name": "renterCollectionAddress",
          "type": "address"
        },
        {
          "indexed": false,
          "internalType": "uint256",
          "name": "tokenId",
          "type": "uint256"
        },
        {
          "indexed": false,
          "internalType": "uint256",
          "name": "timestamp",
          "type": "uint256"
        }
      ],
      "name": "NFTToolAddedToCollection",
      "type": "event"
    },
    {
      "anonymous": false,
      "inputs": [
        {
          "indexed": true,
          "internalType": "address",
          "name": "previousOwner",
          "type": "address"
        },
        {
          "indexed": true,
          "internalType": "address",
          "name": "newOwner",
          "type": "address"
        }
      ],
      "name": "OwnershipTransferred",
      "type": "event"
    },
    {
      "anonymous": false,
      "inputs": [
        {
          "indexed": false,
          "internalType": "address",
          "name": "renter",
          "type": "address"
        },
        {
          "indexed": false,
          "internalType": "address",
          "name": "user",
          "type": "address"
        },
        {
          "indexed": false,
          "internalType": "address",
          "name": "renterCollectionAddress",
          "type": "address"
        },
        {
          "indexed": false,
          "internalType": "uint256",
          "name": "tokenId",
          "type": "uint256"
        },
        {
          "indexed": false,
          "internalType": "uint256",
          "name": "timestamp",
          "type": "uint256"
        }
      ],
      "name": "RentalAccepted",
      "type": "event"
    },
    {
      "anonymous": false,
      "inputs": [
        {
          "indexed": false,
          "internalType": "address",
          "name": "renter",
          "type": "address"
        },
        {
          "indexed": false,
          "internalType": "address",
          "name": "user",
          "type": "address"
        },
        {
          "indexed": false,
          "internalType": "address",
          "name": "renterCollectionAddress",
          "type": "address"
        },
        {
          "indexed": false,
          "internalType": "uint256",
          "name": "tokenId",
          "type": "uint256"
        },
        {
          "indexed": false,
          "internalType": "uint256",
          "name": "timestamp",
          "type": "uint256"
        }
      ],
      "name": "RentalCompletedByRenter",
      "type": "event"
    },
    {
      "anonymous": false,
      "inputs": [
        {
          "indexed": false,
          "internalType": "address",
          "name": "renter",
          "type": "address"
        },
        {
          "indexed": false,
          "internalType": "address",
          "name": "user",
          "type": "address"
        },
        {
          "indexed": false,
          "internalType": "address",
          "name": "renterCollectionAddress",
          "type": "address"
        },
        {
          "indexed": false,
          "internalType": "uint256",
          "name": "tokenId",
          "type": "uint256"
        },
        {
          "indexed": false,
          "internalType": "uint256",
          "name": "timestamp",
          "type": "uint256"
        }
      ],
      "name": "RentalCompletedByUser",
      "type": "event"
    },
    {
      "anonymous": false,
      "inputs": [
        {
          "indexed": false,
          "internalType": "address",
          "name": "renter",
          "type": "address"
        },
        {
          "indexed": false,
          "internalType": "address",
          "name": "user",
          "type": "address"
        },
        {
          "indexed": false,
          "internalType": "address",
          "name": "renterCollectionAddress",
          "type": "address"
        },
        {
          "indexed": false,
          "internalType": "uint256",
          "name": "tokenId",
          "type": "uint256"
        },
        {
          "indexed": false,
          "internalType": "string",
          "name": "dispute",
          "type": "string"
        },
        {
          "indexed": false,
          "internalType": "uint256",
          "name": "timestamp",
          "type": "uint256"
        }
      ],
      "name": "RentalDisputeCreated",
      "type": "event"
    },
    {
      "anonymous": false,
      "inputs": [
        {
          "indexed": false,
          "internalType": "address",
          "name": "renter",
          "type": "address"
        },
        {
          "indexed": false,
          "internalType": "address",
          "name": "user",
          "type": "address"
        },
        {
          "indexed": false,
          "internalType": "address",
          "name": "renterCollectionAddress",
          "type": "address"
        },
        {
          "indexed": false,
          "internalType": "uint256",
          "name": "tokenId",
          "type": "uint256"
        },
        {
          "indexed": false,
          "internalType": "string",
          "name": "disputeSolution",
          "type": "string"
        },
        {
          "indexed": false,
          "internalType": "uint256",
          "name": "timestamp",
          "type": "uint256"
        }
      ],
      "name": "RentalDisputeSolved",
      "type": "event"
    },
    {
      "anonymous": false,
      "inputs": [
        {
          "indexed": false,
          "internalType": "address",
          "name": "renter",
          "type": "address"
        },
        {
          "indexed": false,
          "internalType": "address",
          "name": "user",
          "type": "address"
        },
        {
          "indexed": false,
          "internalType": "address",
          "name": "renterCollectionAddress",
          "type": "address"
        },
        {
          "indexed": false,
          "internalType": "uint256",
          "name": "tokenId",
          "type": "uint256"
        },
        {
          "indexed": false,
          "internalType": "string",
          "name": "dispute",
          "type": "string"
        },
        {
          "indexed": false,
          "internalType": "uint256",
          "name": "timestamp",
          "type": "uint256"
        }
      ],
      "name": "RentalDisputelConfirmedByUser",
      "type": "event"
    },
    {
      "anonymous": false,
      "inputs": [
        {
          "indexed": false,
          "internalType": "address",
          "name": "renter",
          "type": "address"
        },
        {
          "indexed": false,
          "internalType": "address",
          "name": "user",
          "type": "address"
        },
        {
          "indexed": false,
          "internalType": "address",
          "name": "renterCollectionAddress",
          "type": "address"
        },
        {
          "indexed": false,
          "internalType": "uint256",
          "name": "tokenId",
          "type": "uint256"
        },
        {
          "indexed": false,
          "internalType": "uint256",
          "name": "timestamp",
          "type": "uint256"
        }
      ],
      "name": "RentalEnded",
      "type": "event"
    },
    {
      "anonymous": false,
      "inputs": [
        {
          "indexed": false,
          "internalType": "address",
          "name": "renter",
          "type": "address"
        },
        {
          "indexed": false,
          "internalType": "address",
          "name": "user",
          "type": "address"
        },
        {
          "indexed": false,
          "internalType": "address",
          "name": "renterCollectionAddress",
          "type": "address"
        },
        {
          "indexed": false,
          "internalType": "uint256",
          "name": "tokenId",
          "type": "uint256"
        },
        {
          "indexed": false,
          "internalType": "uint256",
          "name": "duration",
          "type": "uint256"
        },
        {
          "indexed": false,
          "internalType": "uint256",
          "name": "timestamp",
          "type": "uint256"
        }
      ],
      "name": "RentalExtended",
      "type": "event"
    },
    {
      "anonymous": false,
      "inputs": [
        {
          "indexed": false,
          "internalType": "address",
          "name": "renter",
          "type": "address"
        },
        {
          "indexed": false,
          "internalType": "address",
          "name": "user",
          "type": "address"
        },
        {
          "indexed": false,
          "internalType": "address",
          "name": "renterCollectionAddress",
          "type": "address"
        },
        {
          "indexed": false,
          "internalType": "uint256",
          "name": "tokenId",
          "type": "uint256"
        },
        {
          "indexed": false,
          "internalType": "uint256",
          "name": "timestamp",
          "type": "uint256"
        }
      ],
      "name": "RentalNFTToolDelegated",
      "type": "event"
    },
    {
      "anonymous": false,
      "inputs": [
        {
          "indexed": false,
          "internalType": "address",
          "name": "renter",
          "type": "address"
        },
        {
          "indexed": false,
          "internalType": "address",
          "name": "user",
          "type": "address"
        },
        {
          "indexed": false,
          "internalType": "address",
          "name": "renterCollectionAddress",
          "type": "address"
        },
        {
          "indexed": false,
          "internalType": "uint256",
          "name": "tokenId",
          "type": "uint256"
        },
        {
          "indexed": false,
          "internalType": "uint256",
          "name": "timestamp",
          "type": "uint256"
        }
      ],
      "name": "RentalReAvailable",
      "type": "event"
    },
    {
      "anonymous": false,
      "inputs": [
        {
          "indexed": false,
          "internalType": "address",
          "name": "renter",
          "type": "address"
        },
        {
          "indexed": false,
          "internalType": "address",
          "name": "user",
          "type": "address"
        },
        {
          "indexed": false,
          "internalType": "address",
          "name": "renterCollectionAddress",
          "type": "address"
        },
        {
          "indexed": false,
          "internalType": "uint256",
          "name": "tokenId",
          "type": "uint256"
        },
        {
          "indexed": false,
          "internalType": "uint256",
          "name": "timestamp",
          "type": "uint256"
        }
      ],
      "name": "RentalRejected",
      "type": "event"
    },
    {
      "anonymous": false,
      "inputs": [
        {
          "indexed": false,
          "internalType": "address",
          "name": "renter",
          "type": "address"
        },
        {
          "indexed": false,
          "internalType": "address",
          "name": "user",
          "type": "address"
        },
        {
          "indexed": false,
          "internalType": "address",
          "name": "renterCollectionAddress",
          "type": "address"
        },
        {
          "indexed": false,
          "internalType": "uint256",
          "name": "tokenId",
          "type": "uint256"
        },
        {
          "indexed": false,
          "internalType": "uint256",
          "name": "timestamp",
          "type": "uint256"
        }
      ],
      "name": "RentalRequested",
      "type": "event"
    },
    {
      "anonymous": false,
      "inputs": [
        {
          "indexed": false,
          "internalType": "address",
          "name": "renter",
          "type": "address"
        },
        {
          "indexed": false,
          "internalType": "uint256",
          "name": "rentalID",
          "type": "uint256"
        },
        {
          "indexed": false,
          "internalType": "uint256",
          "name": "tokenID",
          "type": "uint256"
        },
        {
          "indexed": false,
          "internalType": "string",
          "name": "title",
          "type": "string"
        },
        {
          "indexed": false,
          "internalType": "string",
          "name": "description",
          "type": "string"
        },
        {
          "indexed": false,
          "internalType": "string",
          "name": "tokenImgURI",
          "type": "string"
        },
        {
          "indexed": false,
          "internalType": "uint256",
          "name": "dayPrice",
          "type": "uint256"
        },
        {
          "indexed": false,
          "internalType": "uint256",
          "name": "caution",
          "type": "uint256"
        },
        {
          "indexed": false,
          "internalType": "uint256",
          "name": "timestamp",
          "type": "uint256"
        }
      ],
      "name": "ToolAddedToRentals",
      "type": "event"
    },
    {
      "anonymous": false,
      "inputs": [
        {
          "indexed": false,
          "internalType": "address",
          "name": "renter",
          "type": "address"
        },
        {
          "indexed": false,
          "internalType": "uint256",
          "name": "toolID",
          "type": "uint256"
        },
        {
          "indexed": false,
          "internalType": "uint256",
          "name": "timestamp",
          "type": "uint256"
        }
      ],
      "name": "ToolDeletedFromRentals",
      "type": "event"
    },
    {
      "anonymous": false,
      "inputs": [
        {
          "indexed": false,
          "internalType": "address",
          "name": "renter",
          "type": "address"
        },
        {
          "indexed": false,
          "internalType": "uint256",
          "name": "toolID",
          "type": "uint256"
        },
        {
          "indexed": false,
          "internalType": "uint256",
          "name": "timestamp",
          "type": "uint256"
        }
      ],
      "name": "ToolUpdatedFromRentals",
      "type": "event"
    },
    {
      "inputs": [],
      "name": "factory",
      "outputs": [
        {
          "internalType": "contract AnyNFTCollectionFactory",
          "name": "",
          "type": "address"
        }
      ],
      "stateMutability": "view",
      "type": "function",
      "constant": true
    },
    {
      "inputs": [],
      "name": "nbRentalMax",
      "outputs": [
        {
          "internalType": "uint256",
          "name": "",
          "type": "uint256"
        }
      ],
      "stateMutability": "view",
      "type": "function",
      "constant": true
    },
    {
      "inputs": [],
      "name": "owner",
      "outputs": [
        {
          "internalType": "address",
          "name": "",
          "type": "address"
        }
      ],
      "stateMutability": "view",
      "type": "function",
      "constant": true
    },
    {
      "inputs": [],
      "name": "renounceOwnership",
      "outputs": [],
      "stateMutability": "nonpayable",
      "type": "function"
    },
    {
      "inputs": [
        {
          "internalType": "address",
          "name": "",
          "type": "address"
        },
        {
          "internalType": "uint256",
          "name": "",
          "type": "uint256"
        }
      ],
      "name": "rentersRentals",
      "outputs": [
        {
          "internalType": "uint256",
          "name": "rentalID",
          "type": "uint256"
        },
        {
          "internalType": "uint64",
          "name": "dayPrice",
          "type": "uint64"
        },
        {
          "internalType": "uint64",
          "name": "caution",
          "type": "uint64"
        },
        {
          "internalType": "uint64",
          "name": "start",
          "type": "uint64"
        },
        {
          "internalType": "uint64",
          "name": "end",
          "type": "uint64"
        },
        {
          "internalType": "uint256",
          "name": "tokenID",
          "type": "uint256"
        },
        {
          "internalType": "address",
          "name": "renter",
          "type": "address"
        },
        {
          "internalType": "enum IAnyRental.RentalStatus",
          "name": "rentalStatus",
          "type": "uint8"
        },
        {
          "components": [
            {
              "internalType": "bool",
              "name": "isCautionDeposed",
              "type": "bool"
            },
            {
              "internalType": "bool",
              "name": "isNFTDelegated",
              "type": "bool"
            },
            {
              "internalType": "bool",
              "name": "isToolReturned",
              "type": "bool"
            },
            {
              "internalType": "bool",
              "name": "isReturnValidated",
              "type": "bool"
            },
            {
              "internalType": "bool",
              "name": "isDispute",
              "type": "bool"
            },
            {
              "internalType": "bool",
              "name": "isDisputeConfirmed",
              "type": "bool"
            },
            {
              "internalType": "bool",
              "name": "isRedeemed",
              "type": "bool"
            }
          ],
          "internalType": "struct IAnyRental.RentalData",
          "name": "rentalData",
          "type": "tuple"
        },
        {
          "components": [
            {
              "internalType": "address",
              "name": "collection",
              "type": "address"
            },
            {
              "internalType": "address",
              "name": "owner",
              "type": "address"
            },
            {
              "internalType": "string",
              "name": "name",
              "type": "string"
            },
            {
              "internalType": "string",
              "name": "symbol",
              "type": "string"
            }
          ],
          "internalType": "struct IAnyRental.CollectionNFT",
          "name": "collection",
          "type": "tuple"
        },
        {
          "internalType": "string",
          "name": "title",
          "type": "string"
        },
        {
          "internalType": "string",
          "name": "description",
          "type": "string"
        },
        {
          "internalType": "string",
          "name": "tokenImgURI",
          "type": "string"
        }
      ],
      "stateMutability": "view",
      "type": "function",
      "constant": true
    },
    {
      "inputs": [
        {
          "internalType": "address",
          "name": "newOwner",
          "type": "address"
        }
      ],
      "name": "transferOwnership",
      "outputs": [],
      "stateMutability": "nonpayable",
      "type": "function"
    },
    {
      "inputs": [
        {
          "internalType": "uint256",
          "name": "_nb",
          "type": "uint256"
        }
      ],
      "name": "setNbRentalMax",
      "outputs": [],
      "stateMutability": "nonpayable",
      "type": "function"
    },
    {
      "inputs": [
        {
          "internalType": "address",
          "name": "_owner",
          "type": "address"
        }
      ],
      "name": "getToolsCollection",
      "outputs": [
        {
          "components": [
            {
              "internalType": "uint256",
              "name": "tokenID",
              "type": "uint256"
            },
            {
              "internalType": "uint256",
              "name": "serialID",
              "type": "uint256"
            },
            {
              "internalType": "bool",
              "name": "isAvailable",
              "type": "bool"
            },
            {
              "internalType": "string",
              "name": "title",
              "type": "string"
            },
            {
              "internalType": "string",
              "name": "description",
              "type": "string"
            },
            {
              "internalType": "string",
              "name": "tokenURI",
              "type": "string"
            }
          ],
          "internalType": "struct Utils.Tool[]",
          "name": "",
          "type": "tuple[]"
        }
      ],
      "stateMutability": "view",
      "type": "function",
      "constant": true
    },
    {
      "inputs": [
        {
          "internalType": "address",
          "name": "_owner",
          "type": "address"
        }
      ],
      "name": "getToolsCollectionAddress",
      "outputs": [
        {
          "internalType": "address",
          "name": "",
          "type": "address"
        }
      ],
      "stateMutability": "view",
      "type": "function",
      "constant": true
    },
    {
      "inputs": [],
      "name": "getRentalsOwner",
      "outputs": [
        {
          "internalType": "address[]",
          "name": "",
          "type": "address[]"
        }
      ],
      "stateMutability": "view",
      "type": "function",
      "constant": true
    },
    {
      "inputs": [
        {
          "internalType": "address",
          "name": "_owner",
          "type": "address"
        }
      ],
      "name": "getRentalsByOwner",
      "outputs": [
        {
          "components": [
            {
              "internalType": "uint256",
              "name": "rentalID",
              "type": "uint256"
            },
            {
              "internalType": "uint64",
              "name": "dayPrice",
              "type": "uint64"
            },
            {
              "internalType": "uint64",
              "name": "caution",
              "type": "uint64"
            },
            {
              "internalType": "uint64",
              "name": "start",
              "type": "uint64"
            },
            {
              "internalType": "uint64",
              "name": "end",
              "type": "uint64"
            },
            {
              "internalType": "uint256",
              "name": "tokenID",
              "type": "uint256"
            },
            {
              "internalType": "address",
              "name": "renter",
              "type": "address"
            },
            {
              "internalType": "enum IAnyRental.RentalStatus",
              "name": "rentalStatus",
              "type": "uint8"
            },
            {
              "components": [
                {
                  "internalType": "bool",
                  "name": "isCautionDeposed",
                  "type": "bool"
                },
                {
                  "internalType": "bool",
                  "name": "isNFTDelegated",
                  "type": "bool"
                },
                {
                  "internalType": "bool",
                  "name": "isToolReturned",
                  "type": "bool"
                },
                {
                  "internalType": "bool",
                  "name": "isReturnValidated",
                  "type": "bool"
                },
                {
                  "internalType": "bool",
                  "name": "isDispute",
                  "type": "bool"
                },
                {
                  "internalType": "bool",
                  "name": "isDisputeConfirmed",
                  "type": "bool"
                },
                {
                  "internalType": "bool",
                  "name": "isRedeemed",
                  "type": "bool"
                }
              ],
              "internalType": "struct IAnyRental.RentalData",
              "name": "rentalData",
              "type": "tuple"
            },
            {
              "components": [
                {
                  "internalType": "address",
                  "name": "collection",
                  "type": "address"
                },
                {
                  "internalType": "address",
                  "name": "owner",
                  "type": "address"
                },
                {
                  "internalType": "string",
                  "name": "name",
                  "type": "string"
                },
                {
                  "internalType": "string",
                  "name": "symbol",
                  "type": "string"
                }
              ],
              "internalType": "struct IAnyRental.CollectionNFT",
              "name": "collection",
              "type": "tuple"
            },
            {
              "internalType": "string",
              "name": "title",
              "type": "string"
            },
            {
              "internalType": "string",
              "name": "description",
              "type": "string"
            },
            {
              "internalType": "string",
              "name": "tokenImgURI",
              "type": "string"
            }
          ],
          "internalType": "struct IAnyRental.Rental[]",
          "name": "",
          "type": "tuple[]"
        }
      ],
      "stateMutability": "view",
      "type": "function",
      "constant": true
    },
    {
      "inputs": [
        {
          "internalType": "address",
          "name": "_owner",
          "type": "address"
        },
        {
          "internalType": "uint256",
          "name": "_rentalId",
          "type": "uint256"
        }
      ],
      "name": "getRentalByOwnerAddressAndRentalID",
      "outputs": [
        {
          "components": [
            {
              "internalType": "uint256",
              "name": "rentalID",
              "type": "uint256"
            },
            {
              "internalType": "uint64",
              "name": "dayPrice",
              "type": "uint64"
            },
            {
              "internalType": "uint64",
              "name": "caution",
              "type": "uint64"
            },
            {
              "internalType": "uint64",
              "name": "start",
              "type": "uint64"
            },
            {
              "internalType": "uint64",
              "name": "end",
              "type": "uint64"
            },
            {
              "internalType": "uint256",
              "name": "tokenID",
              "type": "uint256"
            },
            {
              "internalType": "address",
              "name": "renter",
              "type": "address"
            },
            {
              "internalType": "enum IAnyRental.RentalStatus",
              "name": "rentalStatus",
              "type": "uint8"
            },
            {
              "components": [
                {
                  "internalType": "bool",
                  "name": "isCautionDeposed",
                  "type": "bool"
                },
                {
                  "internalType": "bool",
                  "name": "isNFTDelegated",
                  "type": "bool"
                },
                {
                  "internalType": "bool",
                  "name": "isToolReturned",
                  "type": "bool"
                },
                {
                  "internalType": "bool",
                  "name": "isReturnValidated",
                  "type": "bool"
                },
                {
                  "internalType": "bool",
                  "name": "isDispute",
                  "type": "bool"
                },
                {
                  "internalType": "bool",
                  "name": "isDisputeConfirmed",
                  "type": "bool"
                },
                {
                  "internalType": "bool",
                  "name": "isRedeemed",
                  "type": "bool"
                }
              ],
              "internalType": "struct IAnyRental.RentalData",
              "name": "rentalData",
              "type": "tuple"
            },
            {
              "components": [
                {
                  "internalType": "address",
                  "name": "collection",
                  "type": "address"
                },
                {
                  "internalType": "address",
                  "name": "owner",
                  "type": "address"
                },
                {
                  "internalType": "string",
                  "name": "name",
                  "type": "string"
                },
                {
                  "internalType": "string",
                  "name": "symbol",
                  "type": "string"
                }
              ],
              "internalType": "struct IAnyRental.CollectionNFT",
              "name": "collection",
              "type": "tuple"
            },
            {
              "internalType": "string",
              "name": "title",
              "type": "string"
            },
            {
              "internalType": "string",
              "name": "description",
              "type": "string"
            },
            {
              "internalType": "string",
              "name": "tokenImgURI",
              "type": "string"
            }
          ],
          "internalType": "struct IAnyRental.Rental",
          "name": "",
          "type": "tuple"
        }
      ],
      "stateMutability": "view",
      "type": "function",
      "constant": true
    },
    {
      "inputs": [
        {
          "internalType": "uint256",
          "name": "_rentalId",
          "type": "uint256"
        }
      ],
      "name": "getRentalByRentalID",
      "outputs": [
        {
          "components": [
            {
              "internalType": "uint256",
              "name": "rentalID",
              "type": "uint256"
            },
            {
              "internalType": "uint64",
              "name": "dayPrice",
              "type": "uint64"
            },
            {
              "internalType": "uint64",
              "name": "caution",
              "type": "uint64"
            },
            {
              "internalType": "uint64",
              "name": "start",
              "type": "uint64"
            },
            {
              "internalType": "uint64",
              "name": "end",
              "type": "uint64"
            },
            {
              "internalType": "uint256",
              "name": "tokenID",
              "type": "uint256"
            },
            {
              "internalType": "address",
              "name": "renter",
              "type": "address"
            },
            {
              "internalType": "enum IAnyRental.RentalStatus",
              "name": "rentalStatus",
              "type": "uint8"
            },
            {
              "components": [
                {
                  "internalType": "bool",
                  "name": "isCautionDeposed",
                  "type": "bool"
                },
                {
                  "internalType": "bool",
                  "name": "isNFTDelegated",
                  "type": "bool"
                },
                {
                  "internalType": "bool",
                  "name": "isToolReturned",
                  "type": "bool"
                },
                {
                  "internalType": "bool",
                  "name": "isReturnValidated",
                  "type": "bool"
                },
                {
                  "internalType": "bool",
                  "name": "isDispute",
                  "type": "bool"
                },
                {
                  "internalType": "bool",
                  "name": "isDisputeConfirmed",
                  "type": "bool"
                },
                {
                  "internalType": "bool",
                  "name": "isRedeemed",
                  "type": "bool"
                }
              ],
              "internalType": "struct IAnyRental.RentalData",
              "name": "rentalData",
              "type": "tuple"
            },
            {
              "components": [
                {
                  "internalType": "address",
                  "name": "collection",
                  "type": "address"
                },
                {
                  "internalType": "address",
                  "name": "owner",
                  "type": "address"
                },
                {
                  "internalType": "string",
                  "name": "name",
                  "type": "string"
                },
                {
                  "internalType": "string",
                  "name": "symbol",
                  "type": "string"
                }
              ],
              "internalType": "struct IAnyRental.CollectionNFT",
              "name": "collection",
              "type": "tuple"
            },
            {
              "internalType": "string",
              "name": "title",
              "type": "string"
            },
            {
              "internalType": "string",
              "name": "description",
              "type": "string"
            },
            {
              "internalType": "string",
              "name": "tokenImgURI",
              "type": "string"
            }
          ],
          "internalType": "struct IAnyRental.Rental",
          "name": "",
          "type": "tuple"
        }
      ],
      "stateMutability": "view",
      "type": "function",
      "constant": true
    },
    {
      "inputs": [
        {
          "internalType": "address",
          "name": "_renter",
          "type": "address"
        }
      ],
      "name": "isAddressOwner",
      "outputs": [
        {
          "internalType": "bool",
          "name": "",
          "type": "bool"
        }
      ],
      "stateMutability": "view",
      "type": "function",
      "constant": true
    },
    {
      "inputs": [
        {
          "internalType": "address",
          "name": "_renter",
          "type": "address"
        }
      ],
      "name": "isAddressRenter",
      "outputs": [
        {
          "internalType": "bool",
          "name": "",
          "type": "bool"
        }
      ],
      "stateMutability": "view",
      "type": "function",
      "constant": true
    },
    {
      "inputs": [
        {
          "internalType": "string",
          "name": "_collectionName",
          "type": "string"
        },
        {
          "internalType": "string",
          "name": "_collectionSymbol",
          "type": "string"
        }
      ],
      "name": "createCollection",
      "outputs": [
        {
          "internalType": "address",
          "name": "",
          "type": "address"
        }
      ],
      "stateMutability": "nonpayable",
      "type": "function"
    },
    {
      "inputs": [],
      "name": "deleteCollection",
      "outputs": [],
      "stateMutability": "nonpayable",
      "type": "function"
    },
    {
      "inputs": [
        {
          "internalType": "string",
          "name": "_tokenURI",
          "type": "string"
        },
        {
          "internalType": "uint256",
          "name": "_serialId",
          "type": "uint256"
        },
        {
          "internalType": "string",
          "name": "_title",
          "type": "string"
        },
        {
          "internalType": "string",
          "name": "_description",
          "type": "string"
        }
      ],
      "name": "addToolToCollection",
      "outputs": [
        {
          "internalType": "uint256",
          "name": "tokenId",
          "type": "uint256"
        }
      ],
      "stateMutability": "nonpayable",
      "type": "function"
    },
    {
      "inputs": [
        {
          "internalType": "string",
          "name": "_tokenImgURI",
          "type": "string"
        },
        {
          "internalType": "uint64",
          "name": "_dayPrice",
          "type": "uint64"
        },
        {
          "internalType": "uint64",
          "name": "_caution",
          "type": "uint64"
        },
        {
          "internalType": "uint256",
          "name": "_tokenID",
          "type": "uint256"
        }
      ],
      "name": "addToolToRentals",
      "outputs": [],
      "stateMutability": "nonpayable",
      "type": "function"
    },
    {
      "inputs": [
        {
          "internalType": "uint256",
          "name": "_rentalID",
          "type": "uint256"
        },
        {
          "internalType": "uint64",
          "name": "_dayPrice",
          "type": "uint64"
        },
        {
          "internalType": "uint64",
          "name": "_caution",
          "type": "uint64"
        }
      ],
      "name": "updateToolIntoRentals",
      "outputs": [],
      "stateMutability": "nonpayable",
      "type": "function"
    },
    {
      "inputs": [
        {
          "internalType": "uint256",
          "name": "_rentalID",
          "type": "uint256"
        }
      ],
      "name": "deleteToolIntoRentals",
      "outputs": [],
      "stateMutability": "nonpayable",
      "type": "function"
    },
    {
      "inputs": [
        {
          "internalType": "address",
          "name": "_owner",
          "type": "address"
        },
        {
          "internalType": "uint256",
          "name": "_rentalID",
          "type": "uint256"
        },
        {
          "internalType": "uint64",
          "name": "_begin",
          "type": "uint64"
        },
        {
          "internalType": "uint64",
          "name": "_end",
          "type": "uint64"
        }
      ],
      "name": "sendPaiementForRental",
      "outputs": [],
      "stateMutability": "nonpayable",
      "type": "function"
    },
    {
      "inputs": [
        {
          "internalType": "uint256",
          "name": "_rentalID",
          "type": "uint256"
        },
        {
          "internalType": "uint256",
          "name": "_tokenID",
          "type": "uint256"
        }
      ],
      "name": "validateNFTDelegationForRental",
      "outputs": [],
      "stateMutability": "nonpayable",
      "type": "function"
    },
    {
      "inputs": [
        {
          "internalType": "address",
          "name": "_owner",
          "type": "address"
        },
        {
          "internalType": "uint256",
          "name": "_rentalID",
          "type": "uint256"
        }
      ],
      "name": "validateNFTandToolReception",
      "outputs": [],
      "stateMutability": "nonpayable",
      "type": "function"
    },
    {
      "inputs": [
        {
          "internalType": "address",
          "name": "_owner",
          "type": "address"
        },
        {
          "internalType": "uint256",
          "name": "_rentalID",
          "type": "uint256"
        }
      ],
      "name": "giveBackToolAfterRental",
      "outputs": [],
      "stateMutability": "nonpayable",
      "type": "function"
    },
    {
      "inputs": [
        {
          "internalType": "uint256",
          "name": "_rentalID",
          "type": "uint256"
        }
      ],
      "name": "validateReturnToolAfterRental",
      "outputs": [],
      "stateMutability": "nonpayable",
      "type": "function"
    },
    {
      "inputs": [
        {
          "internalType": "uint256",
          "name": "_rentalID",
          "type": "uint256"
        },
        {
          "internalType": "string",
          "name": "message",
          "type": "string"
        }
      ],
      "name": "refuseReturnToolAfterRental",
      "outputs": [],
      "stateMutability": "nonpayable",
      "type": "function"
    },
    {
      "inputs": [
        {
          "internalType": "address",
          "name": "_renter",
          "type": "address"
        },
        {
          "internalType": "uint256",
          "name": "_rentalID",
          "type": "uint256"
        },
        {
          "internalType": "string",
          "name": "message",
          "type": "string"
        }
      ],
      "name": "confirmDisputeAfterRental",
      "outputs": [],
      "stateMutability": "nonpayable",
      "type": "function"
    },
    {
      "inputs": [
        {
          "internalType": "address",
          "name": "_renter",
          "type": "address"
        },
        {
          "internalType": "uint256",
          "name": "_rentalID",
          "type": "uint256"
        }
      ],
      "name": "redeemPaymentForRental",
      "outputs": [],
      "stateMutability": "nonpayable",
      "type": "function"
    },
    {
      "inputs": [
        {
          "internalType": "uint256",
          "name": "_rentalID",
          "type": "uint256"
        }
      ],
      "name": "rentAgainRental",
      "outputs": [],
      "stateMutability": "nonpayable",
      "type": "function"
    }
  ],
  "bytecode": "0x608060405260146007553480156200001657600080fd5b506040516200564e3803806200564e8339810160408190526200003991620000ba565b62000044336200006a565b600180546001600160a01b0319166001600160a01b0392909216919091179055620000ec565b600080546001600160a01b038381166001600160a01b0319831681178455604051919092169283917f8be0079c531659141344cd1fd0a4f28419497f9722a3daafe3b4186f6b6457e09190a35050565b600060208284031215620000cd57600080fd5b81516001600160a01b0381168114620000e557600080fd5b9392505050565b61555280620000fc6000396000f3fe608060405234801561001057600080fd5b50600436106101da5760003560e01c806384fb413611610104578063c45a0155116100a2578063d66d736611610071578063d66d736614610454578063e12ab21614610469578063f2fde38b1461047c578063f5df00541461048f57600080fd5b8063c45a0155146103f7578063cfa54ca81461040a578063d50ca76314610438578063d5672deb1461044157600080fd5b8063a8c8018e116100de578063a8c8018e146103ab578063b5139f34146103be578063c135426a146103d1578063c222ba0a146103e457600080fd5b806384fb41361461035b5780638da5cb5b146103875780639d76b1bc1461039857600080fd5b80633e8d19fe1161017c57806365676e501161014b57806365676e501461030d578063715018a61461032d5780637f7fcf111461033557806382edd1d51461034857600080fd5b80633e8d19fe146102b45780634cd4e3e0146102d45780634ce7979e146102e757806359087a94146102fa57600080fd5b80631f728a1a116101b85780631f728a1a1461022c5780632c62afc11461023f5780633398e8f4146102605780633511de411461027357600080fd5b806301ee4e2f146101df578063176b9b75146101f45780631ebf7c5014610224575b600080fd5b6101f26101ed366004614246565b6104af565b005b61020761020236600461435d565b61061a565b6040516001600160a01b0390911681526020015b60405180910390f35b6101f26108c9565b6101f261023a3660046143c0565b610b37565b61025261024d366004614421565b61106f565b60405190815260200161021b565b6101f261026e3660046143c0565b611512565b6102a46102813660046144b8565b6001600160a01b0390811660009081526005602052604090206001015416151590565b604051901515815260200161021b565b6102c76102c23660046144b8565b6116d5565b60405161021b919061473c565b6101f26102e23660046143c0565b611bb4565b6101f26102f536600461479e565b611d33565b6101f26103083660046147f6565b611f2a565b61032061031b3660046143c0565b6120bc565b60405161021b9190614832565b6101f2612618565b6101f2610343366004614246565b61262c565b6101f2610356366004614861565b6127df565b61036e610369366004614246565b612aa9565b60405161021b9d9c9b9a999897969594939291906148cd565b6000546001600160a01b0316610207565b6101f26103a63660046149ad565b612ea5565b6102076103b93660046144b8565b6131a0565b6103206103cc366004614246565b6131fb565b6101f26103df3660046149fc565b613741565b6101f26103f2366004614246565b61396c565b600154610207906001600160a01b031681565b6102a46104183660046144b8565b6001600160a01b0390811660009081526003602052604090205416151590565b61025260075481565b6101f261044f366004614a1e565b613b0f565b61045c613d45565b60405161021b9190614a5a565b6101f26104773660046143c0565b613da7565b6101f261048a3660046144b8565b613db4565b6104a261049d3660046144b8565b613e2d565b60405161021b9190614aa7565b806104b960025490565b10156104e05760405162461bcd60e51b81526004016104d790614b6b565b60405180910390fd5b60006104ec8383613eed565b6001600160a01b0384166000908152600660205260408120805492935090918390811061051b5761051b614b98565b90600052602060002090600c020190508281600001541461054e5760405162461bcd60e51b81526004016104d790614bae565b60056003820154600160a01b900460ff166008811115610570576105706144dc565b1461058d5760405162461bcd60e51b81526004016104d790614be5565b60038101805460ff60a01b1916600160a31b17905560048101805466ff0000000000ff1916600160301b1790556006810154600582015460028301546040517f3439199983bc67c84242710ffe8067d1454074df03cf118730de50fc5b6eb9bb9361060c936001600160a01b0391821693339392909116914290614c1c565b60405180910390a150505050565b6000336106655760405162461bcd60e51b81526020600482015260196024820152781859191c995cdcc81e995c9bc81a5cc81b9bdd081d985b1a59603a1b60448201526064016104d7565b336000908152600560205260409020546001600160a01b0316156106dc5760405162461bcd60e51b815260206004820152602860248201527f596f7520616c72656164792068617665206372656174656420796f757220636f604482015267363632b1ba34b7b760c11b60648201526084016104d7565b604080516020808201909252600090528351908401207fc5d2460186f7233c927e7db2dcc703c0e500b653ca82273b7bfad8045d85a470036107605760405162461bcd60e51b815260206004820152601e60248201527f636f6c6c656374696f6e206e616d652063616e277420626520656d707479000060448201526064016104d7565b600154604051633cccf6e960e11b81526000916001600160a01b031690637999edd29061079590339088908890600401614c50565b6020604051808303816000875af11580156107b4573d6000803e3d6000fd5b505050506040513d601f19601f820116820180604052508101906107d89190614c90565b33600081815260056020526040902080546001600160a01b0384166001600160a01b03199182161782556001820180549091169092179091559091506002016108218582614d45565b5033600090815260056020526040902060030161083e8482614d45565b50600480546001810182556000919091527f8a35acfbc15ff81a39ae7d344fd709f28e8600b4aa8c65c6b64bfe7fe36bd19b0180546001600160a01b031916339081179091556040517f88d25790273b8c367ee270bf60b22ad4aada95ecda75d3d82710534a73ce277a916108b891879085904290614dfe565b60405180910390a190505b92915050565b336000818152600560205260409020600101546001600160a01b0316146109025760405162461bcd60e51b81526004016104d790614e32565b3361094b5760405162461bcd60e51b81526020600482015260196024820152781859191c995cdcc81e995c9bc81a5cc81b9bdd081d985b1a59603a1b60448201526064016104d7565b336000908152600560205260409020546001600160a01b03166109805760405162461bcd60e51b81526004016104d790614e79565b336000908152600560205260408120546001600160a01b031690805b6004548110156109f757336001600160a01b0316600482815481106109c3576109c3614b98565b6000918252602090912001546001600160a01b0316036109e5578091506109f7565b806109ef81614ec6565b91505061099c565b5060048054610a0890600190614edf565b81548110610a1857610a18614b98565b600091825260209091200154600480546001600160a01b039092169183908110610a4457610a44614b98565b9060005260206000200160006101000a8154816001600160a01b0302191690836001600160a01b031602179055506004805480610a8357610a83614ef2565b60008281526020808220830160001990810180546001600160a01b0319908116909155930190935533815260059092526040822080548216815560018101805490921690915590610ad7600283018261411a565b610ae560038301600061411a565b5050604080513381526001600160a01b038416602082015242918101919091527fce084e945d8eacece908740a7dbf5178848ef8331e87941732f09c5c964b6c4c906060015b60405180910390a15050565b336000818152600560205260409020600101546001600160a01b031614610b705760405162461bcd60e51b81526004016104d790614e32565b336000908152600560205260409020546001600160a01b0316610ba55760405162461bcd60e51b81526004016104d790614e79565b6007543360009081526006602052604090205410610bd55760405162461bcd60e51b81526004016104d790614f08565b6000805b33600090815260066020526040902054811015610c4557336000908152600660205260409020805484919083908110610c1457610c14614b98565b90600052602060002090600c02016000015403610c3357809150610c45565b80610c3d81614ec6565b915050610bd9565b503360009081526006602052604090208054610c6390600190614edf565b81548110610c7357610c73614b98565b90600052602060002090600c020160066000336001600160a01b03166001600160a01b031681526020019081526020016000208281548110610cb757610cb7614b98565b600091825260209091208254600c9092020190815560018083018054918301805467ffffffffffffffff1981166001600160401b0394851690811783558354600160401b908190048616026001600160801b031990921617178082558254600160801b9081900485160267ffffffffffffffff60801b198216811783559254600160c01b908190049094169093026001600160c01b039092166001600160801b0390931692909217179055600280830154908201556003808301805491830180546001600160a01b031981166001600160a01b039094169384178255915460ff600160a01b91829004169391926001600160a81b03191690911790836008811115610dc457610dc46144dc565b021790555060048281018054918301805460ff938416151560ff19821681178355835461010090819004861615150261ff001990911661ffff19909216919091171780825582546201000090819004851615150262ff0000198216811783558354630100000090819004861615150263ff0000001990911663ffff00001990921691909117178082558254600160201b90819004851615150264ff00000000198216811783558354600160281b90819004861615150260ff60281b1990911665ffff000000001990921691909117178082559154600160301b90819004909316151590920260ff60301b199091161790556005808301805491830180546001600160a01b03199081166001600160a01b03948516178255600680870154908601805490921694169390931790925590600780840190610f0590860182614f3f565b50600381810190610f1890840182614f3f565b505050600981810190610f2d90840182614f3f565b50600a81810190610f4090840182614f3f565b50600b81810190610f5390840182614f3f565b5050336000908152600660205260409020805490915080610f7657610f76614ef2565b600082815260208120600c6000199093019283020181815560018101829055600281018290556003810180546001600160a81b031916905560048101805466ffffffffffffff191690556005810180546001600160a01b03199081168255600683018054909116905590919081610ff0600785018261411a565b610ffe60038301600061411a565b5061100f905060098301600061411a565b61101d600a8301600061411a565b61102b600b8301600061411a565b50509055604080513381526020810184905242918101919091527ff46058662129ffc1407e831e43472941c33828326b7a935de2a9f60925baec6790606001610b2b565b3360008181526005602052604081206001015490916001600160a01b03909116146110ac5760405162461bcd60e51b81526004016104d790614e32565b336000908152600560205260409020546001600160a01b03166110e15760405162461bcd60e51b81526004016104d790614e79565b60075433600090815260066020526040902054106111115760405162461bcd60e51b81526004016104d790614f08565b33600081815260056020526040808220549051635448142b60e11b81526001600160a01b0390911692839163a890285691611159918c918c918c918c918c919060040161503c565b6020604051808303816000875af1158015611178573d6000803e3d6000fd5b505050506040513d601f19601f8201168201806040525081019061119c9190615098565b905060006111a960025490565b90506111b3614154565b6040805160808101825260008082526020820152606091810182905281810191909152336000818152600560208181526040832080546001600160a01b039081168752949093529081526001909101549091169082015282825261014082018890526101608201879052610120820181905260a0820184905261123a600280546001019055565b336000908152600660209081526040808320805460018181018355918552938390208651600c9095020193845591850151918301805491860151606087015160808801516001600160401b03908116600160c01b026001600160c01b03928216600160801b02929092166001600160801b03938216600160401b026001600160801b0319909616919096161793909317169290921717905560a0830151600282015560c08301516003820180546001600160a01b03929092166001600160a01b031983168117825560e08601518694939092916001600160a81b031990911617600160a01b836008811115611331576113316144dc565b02179055506101008281015180516004840180546020808501516040808701516060880151608089015160a08a015160c0909a01511515600160301b0260ff60301b199a1515600160281b0260ff60281b19921515600160201b029290921665ffff000000001993151563010000000263ff0000001995151562010000029590951663ffff000019971515909d0261ff00199b15159b909b1661ffff1990991698909817999099179490941699909917179790971692909217919091179390931691909117905561012084015180516005850180546001600160a01b039283166001600160a01b0319918216178255938301516006870180549190931694169390931790559182015160078401906114499082614d45565b506060820151600382019061145e9082614d45565b50505061014082015160098201906114769082614d45565b50610160820151600a82019061148c9082614d45565b50610180820151600b8201906114a29082614d45565b5050336000818152600560209081526040918290205482519384526001600160a01b03169083015281018690524260608201527fe029e29fa8a3bb786f69f9c8700882d80138e278db591e45bd8bbfa22682bd84915060800160405180910390a150919998505050505050505050565b336000818152600560205260409020546001600160a01b03166115475760405162461bcd60e51b81526004016104d7906150b1565b8161155160025490565b101561156f5760405162461bcd60e51b81526004016104d790614b6b565b600061157b3384613eed565b33600090815260066020526040812080549293509091839081106115a1576115a1614b98565b90600052602060002090600c02019050838160000154146115d45760405162461bcd60e51b81526004016104d790614bae565b60086003820154600160a01b900460ff1660088111156115f6576115f66144dc565b146116135760405162461bcd60e51b81526004016104d790614be5565b6001810180546001600160801b031690556003810180546004830180546001600160a81b03199092169092556040805160e081018252600080825260208201819052818301819052606082018190526080820181905260a0820181905260c090910181905266ffffffffffffff1990921690925560068301546005840154600285015493517f4815a1ce88d8b01b5ff0e7446c6ed62ce73527dc39b672bfd1ea3e09d02a41939461060c946001600160a01b0394851694909316914290614c1c565b6001600160a01b038082166000908152600560205260409020546060918391166117115760405162461bcd60e51b81526004016104d7906150b1565b6001600160a01b038316600090815260066020908152604080832080548251818502810185019093528083529193909284015b82821015611ba7576000848152602090819020604080516101a081018252600c86029092018054835260018101546001600160401b0380821695850195909552600160401b8104851692840192909252600160801b820484166060840152600160c01b9091049092166080820152600282015460a082015260038201546001600160a01b03811660c083015290919060e0830190600160a01b900460ff1660088111156117f3576117f36144dc565b6008811115611804576118046144dc565b81526040805160e081018252600484015460ff80821615158352610100820481161515602084810191909152620100008304821615158486015263010000008304821615156060850152600160201b830482161515608080860191909152600160281b84048316151560a0860152600160301b909304909116151560c084015280850192909252825190810183526005850180546001600160a01b039081168352600687015416928201929092526007850180549484019491938401916118ca90614cad565b80601f01602080910402602001604051908101604052809291908181526020018280546118f690614cad565b80156119435780601f1061191857610100808354040283529160200191611943565b820191906000526020600020905b81548152906001019060200180831161192657829003601f168201915b5050505050815260200160038201805461195c90614cad565b80601f016020809104026020016040519081016040528092919081815260200182805461198890614cad565b80156119d55780601f106119aa576101008083540402835291602001916119d5565b820191906000526020600020905b8154815290600101906020018083116119b857829003601f168201915b50505050508152505081526020016009820180546119f290614cad565b80601f0160208091040260200160405190810160405280929190818152602001828054611a1e90614cad565b8015611a6b5780601f10611a4057610100808354040283529160200191611a6b565b820191906000526020600020905b815481529060010190602001808311611a4e57829003601f168201915b50505050508152602001600a82018054611a8490614cad565b80601f0160208091040260200160405190810160405280929190818152602001828054611ab090614cad565b8015611afd5780601f10611ad257610100808354040283529160200191611afd565b820191906000526020600020905b815481529060010190602001808311611ae057829003601f168201915b50505050508152602001600b82018054611b1690614cad565b80601f0160208091040260200160405190810160405280929190818152602001828054611b4290614cad565b8015611b8f5780601f10611b6457610100808354040283529160200191611b8f565b820191906000526020600020905b815481529060010190602001808311611b7257829003601f168201915b50505050508152505081526020019060010190611744565b5050505091505b50919050565b336000818152600560205260409020546001600160a01b0316611be95760405162461bcd60e51b81526004016104d7906150b1565b81611bf360025490565b1015611c115760405162461bcd60e51b81526004016104d790614b6b565b6000611c1d3384613eed565b3360009081526006602052604081208054929350909183908110611c4357611c43614b98565b90600052602060002090600c0201905083816000015414611c765760405162461bcd60e51b81526004016104d790614bae565b60046003820154600160a01b900460ff166008811115611c9857611c986144dc565b14611cb55760405162461bcd60e51b81526004016104d790614be5565b60038101805460ff60a01b198116600560a01b1790915560048201805463ff000000191663010000001790556006820154600583015460028401546040517f52d8c02cb4414644b59c67b225228ebebf995dbae27daeb68c1b08db68a577699461060c946001600160a01b0390811694918116939116914290614c1c565b6001600160a01b03808416600090815260056020526040902054849116611d6c5760405162461bcd60e51b81526004016104d7906150b1565b82611d7660025490565b1015611d945760405162461bcd60e51b81526004016104d790614b6b565b6000611da08585613eed565b6001600160a01b03861660009081526006602052604081208054929350909183908110611dcf57611dcf614b98565b90600052602060002090600c0201905084816000015414611e025760405162461bcd60e51b81526004016104d790614bae565b60038101546001600160a01b03163314611e715760405162461bcd60e51b815260206004820152602a60248201527f50726f626c656d206f6e207468652072656e74657220616e6420746872206f6e604482015269652077686f2061736b7360b01b60648201526084016104d7565b60066003820154600160a01b900460ff166008811115611e9357611e936144dc565b14611eb05760405162461bcd60e51b81526004016104d790614be5565b60048101805460ff60281b1916600160281b1790556006810154600582015460028301546040517fe88351cb5c14d4759ce2e8ab2b155c3123aa3f6d075a5093ec397c69531316e993611f1a936001600160a01b039182169333939190921691908a9042906150df565b60405180910390a1505050505050565b336000818152600560205260409020546001600160a01b0316611f5f5760405162461bcd60e51b81526004016104d7906150b1565b82611f6960025490565b1015611f875760405162461bcd60e51b81526004016104d790614b6b565b6000611f933385613eed565b3360009081526006602052604081208054929350909183908110611fb957611fb9614b98565b90600052602060002090600c0201905084816000015414611fec5760405162461bcd60e51b81526004016104d790614bae565b60046003820154600160a01b900460ff16600881111561200e5761200e6144dc565b1461202b5760405162461bcd60e51b81526004016104d790614be5565b60038101805460ff60a01b198116600360a11b1790915560048201805464ff00ff000019166401000100001790556006820154600583015460028401546040517fa0468e9e1b4d1e35562d8986f9ffabe60d38f204b1b21aca613b454ea7d968d4946120ad946001600160a01b0390811694918116939116918a9042906150df565b60405180910390a15050505050565b6120c4614154565b60008060005b600454811015612196576000600482815481106120e9576120e9614b98565b60009182526020822001546001600160a01b031691505b6001600160a01b038216600090815260066020526040902054811015612181576001600160a01b038216600090815260066020526040902080548891908390811061214d5761214d614b98565b90600052602060002090600c0201600001540361216f57809450819350612181565b8061217981614ec6565b915050612100565b5050808061218e90614ec6565b9150506120ca565b506001600160a01b03811660009081526006602052604090208054839081106121c1576121c1614b98565b6000918252602091829020604080516101a081018252600c9093029091018054835260018101546001600160401b0380821695850195909552600160401b8104851692840192909252600160801b820484166060840152600160c01b9091049092166080820152600282015460a082015260038201546001600160a01b03811660c083015290919060e083019060ff600160a01b90910416600881111561226a5761226a6144dc565b600881111561227b5761227b6144dc565b81526040805160e081018252600484015460ff80821615158352610100820481161515602084810191909152620100008304821615158486015263010000008304821615156060850152600160201b830482161515608080860191909152600160281b84048316151560a0860152600160301b909304909116151560c084015280850192909252825190810183526005850180546001600160a01b0390811683526006870154169282019290925260078501805494840194919384019161234190614cad565b80601f016020809104026020016040519081016040528092919081815260200182805461236d90614cad565b80156123ba5780601f1061238f576101008083540402835291602001916123ba565b820191906000526020600020905b81548152906001019060200180831161239d57829003601f168201915b505050505081526020016003820180546123d390614cad565b80601f01602080910402602001604051908101604052809291908181526020018280546123ff90614cad565b801561244c5780601f106124215761010080835404028352916020019161244c565b820191906000526020600020905b81548152906001019060200180831161242f57829003601f168201915b505050505081525050815260200160098201805461246990614cad565b80601f016020809104026020016040519081016040528092919081815260200182805461249590614cad565b80156124e25780601f106124b7576101008083540402835291602001916124e2565b820191906000526020600020905b8154815290600101906020018083116124c557829003601f168201915b50505050508152602001600a820180546124fb90614cad565b80601f016020809104026020016040519081016040528092919081815260200182805461252790614cad565b80156125745780601f1061254957610100808354040283529160200191612574565b820191906000526020600020905b81548152906001019060200180831161255757829003601f168201915b50505050508152602001600b8201805461258d90614cad565b80601f01602080910402602001604051908101604052809291908181526020018280546125b990614cad565b80156126065780601f106125db57610100808354040283529160200191612606565b820191906000526020600020905b8154815290600101906020018083116125e957829003601f168201915b50505050508152505092505050919050565b612620613fb3565b61262a600061400d565b565b6001600160a01b038083166000908152600560205260409020548391166126655760405162461bcd60e51b81526004016104d7906150b1565b8161266f60025490565b101561268d5760405162461bcd60e51b81526004016104d790614b6b565b60006126998484613eed565b6001600160a01b038516600090815260066020526040812080549293509091839081106126c8576126c8614b98565b90600052602060002090600c02019050838160000154146126fb5760405162461bcd60e51b81526004016104d790614bae565b60038101546001600160a01b031633146127275760405162461bcd60e51b81526004016104d79061512d565b600380820154600160a01b900460ff166008811115612748576127486144dc565b146127655760405162461bcd60e51b81526004016104d790614be5565b60038101805460ff60a01b1916600160a21b17905560048101805462ff00001916620100001790556006810154600582015460028301546040517f148ece29b6c432d68b486ce63886d31120fe9c4ec4cf0dbed28a0944ff693df4936120ad936001600160a01b0391821693339392909116914290614c1c565b336000818152600560205260409020600101546001600160a01b0316146128185760405162461bcd60e51b81526004016104d790614e32565b336000908152600560205260409020546001600160a01b031661284d5760405162461bcd60e51b81526004016104d790614e79565b600754336000908152600660205260409020541061287d5760405162461bcd60e51b81526004016104d790614f08565b6000836001600160401b0316116128a65760405162461bcd60e51b81526004016104d790615177565b6000826001600160401b0316116128cf5760405162461bcd60e51b81526004016104d790615177565b6040805160e081018252600080825260208201819052918101829052606081018290526080810182905260a0810182905260c0810182905290612912338461405d565b336000908152600660205260408120805492935090918390811061293857612938614b98565b60009182526020909120600c909102019050600b8101612959888a836151a3565b506001810180546001600160401b03878116600160401b026001600160801b03199092169089161717905560038101805460ff60a01b1916905582516004820180546020860151604080880151606089015160808a015160a08b015160c08c01511515600160301b0260ff60301b19911515600160281b0260ff60281b19931515600160201b029390931665ffff000000001994151563010000000263ff0000001996151562010000029690961663ffff0000199815156101000261ff00199c15159c909c1661ffff19909a16999099179a909a17969096169690961792909217169590951794909417919091161790558154600283015491517fd5810d828d3236216c1ea8fa243575cea71c06804476063f4feef5205a652e3a92612a979233929091906009870190600a8801908f908f908f908f9042906152d9565b60405180910390a15050505050505050565b60066020528160005260406000208181548110612ac557600080fd5b6000918252602091829020600c9091020180546001820154600283015460038401546040805160e081018252600487015460ff81811615158352610100820481161515838b0152620100008204811615158385015263010000008204811615156060840152600160201b820481161515608080850191909152600160281b83048216151560a0850152600160301b9092048116151560c0840152835191820184526005890180546001600160a01b03908116845260068b015481169b84019b909b5260078a018054999d506001600160401b03808a169d50600160401b8a0481169c600160801b8b0482169c600160c01b909b049091169a989990881698600160a01b9098049390931696949592949192840191612be290614cad565b80601f0160208091040260200160405190810160405280929190818152602001828054612c0e90614cad565b8015612c5b5780601f10612c3057610100808354040283529160200191612c5b565b820191906000526020600020905b815481529060010190602001808311612c3e57829003601f168201915b50505050508152602001600382018054612c7490614cad565b80601f0160208091040260200160405190810160405280929190818152602001828054612ca090614cad565b8015612ced5780601f10612cc257610100808354040283529160200191612ced565b820191906000526020600020905b815481529060010190602001808311612cd057829003601f168201915b50505050508152505090806009018054612d0690614cad565b80601f0160208091040260200160405190810160405280929190818152602001828054612d3290614cad565b8015612d7f5780601f10612d5457610100808354040283529160200191612d7f565b820191906000526020600020905b815481529060010190602001808311612d6257829003601f168201915b50505050509080600a018054612d9490614cad565b80601f0160208091040260200160405190810160405280929190818152602001828054612dc090614cad565b8015612e0d5780601f10612de257610100808354040283529160200191612e0d565b820191906000526020600020905b815481529060010190602001808311612df057829003601f168201915b50505050509080600b018054612e2290614cad565b80601f0160208091040260200160405190810160405280929190818152602001828054612e4e90614cad565b8015612e9b5780601f10612e7057610100808354040283529160200191612e9b565b820191906000526020600020905b815481529060010190602001808311612e7e57829003601f168201915b505050505090508d565b6001600160a01b03808516600090815260056020526040902054859116612ede5760405162461bcd60e51b81526004016104d7906150b1565b83612ee860025490565b1015612f065760405162461bcd60e51b81526004016104d790614b6b565b6000836001600160401b031611612f5f5760405162461bcd60e51b815260206004820152601a60248201527f626567696e206d75737420626520612076616c6964206461746500000000000060448201526064016104d7565b6000826001600160401b031611612fb85760405162461bcd60e51b815260206004820152601860248201527f656e64206d75737420626520612076616c69642064617465000000000000000060448201526064016104d7565b816001600160401b0316836001600160401b0316106130255760405162461bcd60e51b815260206004820152602360248201527f456e64206f662072656e74616c2063616e2774206265206265666f726520626560448201526233b4b760e91b60648201526084016104d7565b60006130318686613eed565b6001600160a01b0387166000908152600660205260408120805492935090918390811061306057613060614b98565b90600052602060002090600c02019050858160000154146130935760405162461bcd60e51b81526004016104d790614bae565b60006003820154600160a01b900460ff1660088111156130b5576130b56144dc565b146130d25760405162461bcd60e51b81526004016104d790614be5565b600181810180546001600160801b0316600160801b6001600160401b03898116919091026001600160c01b031691909117600160c01b9188169190910217905560038201805460048401805460ff1916909317909255336001600160a81b03199092168217600160a01b1790556006820154600583015460028401546040517f82c81679d53af0a29474e2aa759267691f702b26b09b0ebac62d0394c9eaadb09461318f946001600160a01b039081169491939116914290614c1c565b60405180910390a150505050505050565b6001600160a01b0380821660009081526005602052604081205490918391166131db5760405162461bcd60e51b81526004016104d7906150b1565b50506001600160a01b039081166000908152600560205260409020541690565b613203614154565b6001600160a01b0380841660009081526005602052604090205484911661323c5760405162461bcd60e51b81526004016104d7906150b1565b6000805b6001600160a01b0386166000908152600660205260409020548110156132be576001600160a01b038616600090815260066020526040902080548691908390811061328d5761328d614b98565b90600052602060002090600c020160000154036132ac578091506132be565b806132b681614ec6565b915050613240565b506001600160a01b03851660009081526006602052604090208054829081106132e9576132e9614b98565b6000918252602091829020604080516101a081018252600c9093029091018054835260018101546001600160401b0380821695850195909552600160401b8104851692840192909252600160801b820484166060840152600160c01b9091049092166080820152600282015460a082015260038201546001600160a01b03811660c083015290919060e083019060ff600160a01b909104166008811115613392576133926144dc565b60088111156133a3576133a36144dc565b81526040805160e081018252600484015460ff80821615158352610100820481161515602084810191909152620100008304821615158486015263010000008304821615156060850152600160201b830482161515608080860191909152600160281b84048316151560a0860152600160301b909304909116151560c084015280850192909252825190810183526005850180546001600160a01b0390811683526006870154169282019290925260078501805494840194919384019161346990614cad565b80601f016020809104026020016040519081016040528092919081815260200182805461349590614cad565b80156134e25780601f106134b7576101008083540402835291602001916134e2565b820191906000526020600020905b8154815290600101906020018083116134c557829003601f168201915b505050505081526020016003820180546134fb90614cad565b80601f016020809104026020016040519081016040528092919081815260200182805461352790614cad565b80156135745780601f1061354957610100808354040283529160200191613574565b820191906000526020600020905b81548152906001019060200180831161355757829003601f168201915b505050505081525050815260200160098201805461359190614cad565b80601f01602080910402602001604051908101604052809291908181526020018280546135bd90614cad565b801561360a5780601f106135df5761010080835404028352916020019161360a565b820191906000526020600020905b8154815290600101906020018083116135ed57829003601f168201915b50505050508152602001600a8201805461362390614cad565b80601f016020809104026020016040519081016040528092919081815260200182805461364f90614cad565b801561369c5780601f106136715761010080835404028352916020019161369c565b820191906000526020600020905b81548152906001019060200180831161367f57829003601f168201915b50505050508152602001600b820180546136b590614cad565b80601f01602080910402602001604051908101604052809291908181526020018280546136e190614cad565b801561372e5780601f106137035761010080835404028352916020019161372e565b820191906000526020600020905b81548152906001019060200180831161371157829003601f168201915b5050505050815250509250505092915050565b336000818152600560205260409020546001600160a01b03166137765760405162461bcd60e51b81526004016104d7906150b1565b8261378060025490565b101561379e5760405162461bcd60e51b81526004016104d790614b6b565b600082116137e75760405162461bcd60e51b81526020600482015260166024820152751d1bdad95b881251081b5d5cdd081899481d985b1a5960521b60448201526064016104d7565b60006137f33385613eed565b336000908152600660205260408120805492935090918390811061381957613819614b98565b90600052602060002090600c020190508481600001541461384c5760405162461bcd60e51b81526004016104d790614bae565b838160020154146138b35760405162461bcd60e51b815260206004820152602b60248201527f4572726f722e2e2e2074686520746f6b656e49642069736e277420746865206360448201526a37b93932b1ba1037b7329760a91b60648201526084016104d7565b60016003820154600160a01b900460ff1660088111156138d5576138d56144dc565b146138f25760405162461bcd60e51b81526004016104d790614be5565b60038101805460ff60a01b198116600160a11b1790915560048201805461ff0019166101001790556006820154600583015460028401546040517f398075ddfcb370e855cd3a01f6ac8b404f3e1899de6c406baf4148098c9f7384946120ad946001600160a01b0390811694918116939116914290614c1c565b6001600160a01b038083166000908152600560205260409020548391166139a55760405162461bcd60e51b81526004016104d7906150b1565b816139af60025490565b10156139cd5760405162461bcd60e51b81526004016104d790614b6b565b60006139d98484613eed565b6001600160a01b03851660009081526006602052604081208054929350909183908110613a0857613a08614b98565b90600052602060002090600c0201905083816000015414613a3b5760405162461bcd60e51b81526004016104d790614bae565b60038101546001600160a01b03163314613a675760405162461bcd60e51b81526004016104d79061512d565b60026003820154600160a01b900460ff166008811115613a8957613a896144dc565b14613aa65760405162461bcd60e51b81526004016104d790614be5565b600381018054600360a01b60ff60a01b198216179091556006820154600583015460028401546040517f38ca09c302caf0446908a1a3f31a72897e907fc242c9a7990d7c0937ac128b14946120ad946001600160a01b0390811694918116939116914290614c1c565b336000818152600560205260409020600101546001600160a01b031614613b485760405162461bcd60e51b81526004016104d790614e32565b336000908152600560205260409020546001600160a01b0316613b7d5760405162461bcd60e51b81526004016104d790614e79565b6000826001600160401b031611613ba65760405162461bcd60e51b81526004016104d790615177565b6000816001600160401b031611613bcf5760405162461bcd60e51b81526004016104d790615177565b60005b33600090815260066020526040902054811015613d0057336000908152600660205260409020805485919083908110613c0d57613c0d614b98565b90600052602060002090600c02016000015403613cee57336000908152600660205260409020805484919083908110613c4857613c48614b98565b90600052602060002090600c020160010160006101000a8154816001600160401b0302191690836001600160401b031602179055508160066000336001600160a01b03166001600160a01b031681526020019081526020016000208281548110613cb457613cb4614b98565b90600052602060002090600c020160010160086101000a8154816001600160401b0302191690836001600160401b03160217905550613d00565b80613cf881614ec6565b915050613bd2565b506040805133815260208101859052428183015290517f01cc60dde87167776063bf9d5243d54a5f50296291346123485ec0eaeffb17f49181900360600190a1505050565b60606004805480602002602001604051908101604052809291908181526020018280548015613d9d57602002820191906000526020600020905b81546001600160a01b03168152600190910190602001808311613d7f575b5050505050905090565b613daf613fb3565b600755565b613dbc613fb3565b6001600160a01b038116613e215760405162461bcd60e51b815260206004820152602660248201527f4f776e61626c653a206e6577206f776e657220697320746865207a65726f206160448201526564647265737360d01b60648201526084016104d7565b613e2a8161400d565b50565b6001600160a01b03808216600090815260056020526040902054606091839116613e695760405162461bcd60e51b81526004016104d7906150b1565b6001600160a01b03808416600090815260056020526040808220548151637c455b8b60e01b815291519316928392637c455b8b92600480820193918290030181865afa158015613ebd573d6000803e3d6000fd5b505050506040513d6000823e601f3d908101601f19168201604052613ee591908101906153b0565b949350505050565b6001600160a01b038083166000908152600560205260408120549091849116613f285760405162461bcd60e51b81526004016104d7906150b1565b6000805b6001600160a01b038616600090815260066020526040902054811015613faa576001600160a01b0386166000908152600660205260409020805486919083908110613f7957613f79614b98565b90600052602060002090600c02016000015403613f9857809150613faa565b80613fa281614ec6565b915050613f2c565b50949350505050565b6000546001600160a01b0316331461262a5760405162461bcd60e51b815260206004820181905260248201527f4f776e61626c653a2063616c6c6572206973206e6f7420746865206f776e657260448201526064016104d7565b600080546001600160a01b038381166001600160a01b0319831681178455604051919092169283917f8be0079c531659141344cd1fd0a4f28419497f9722a3daafe3b4186f6b6457e09190a35050565b6001600160a01b0380831660009081526005602052604081205490918491166140985760405162461bcd60e51b81526004016104d7906150b1565b6000805b6001600160a01b038616600090815260066020526040902054811015613faa576001600160a01b03861660009081526006602052604090208054869190839081106140e9576140e9614b98565b90600052602060002090600c0201600201540361410857809150613faa565b8061411281614ec6565b91505061409c565b50805461412690614cad565b6000825580601f10614136575050565b601f016020900490600052602060002090810190613e2a9190614218565b604080516101a081018252600080825260208201819052918101829052606081018290526080810182905260a0810182905260c081018290529060e082019081526040805160e08101825260008082526020828101829052928201819052606082018190526080820181905260a0820181905260c082015291019081526020016141fd604080516080810182526000808252602082015260609181018290528181019190915290565b81526020016060815260200160608152602001606081525090565b5b8082111561422d5760008155600101614219565b5090565b6001600160a01b0381168114613e2a57600080fd5b6000806040838503121561425957600080fd5b823561426481614231565b946020939093013593505050565b634e487b7160e01b600052604160045260246000fd5b60405160c081016001600160401b03811182821017156142aa576142aa614272565b60405290565b604051601f8201601f191681016001600160401b03811182821017156142d8576142d8614272565b604052919050565b60006001600160401b038211156142f9576142f9614272565b50601f01601f191660200190565b600082601f83011261431857600080fd5b813561432b614326826142e0565b6142b0565b81815284602083860101111561434057600080fd5b816020850160208301376000918101602001919091529392505050565b6000806040838503121561437057600080fd5b82356001600160401b038082111561438757600080fd5b61439386838701614307565b935060208501359150808211156143a957600080fd5b506143b685828601614307565b9150509250929050565b6000602082840312156143d257600080fd5b5035919050565b60008083601f8401126143eb57600080fd5b5081356001600160401b0381111561440257600080fd5b60208301915083602082850101111561441a57600080fd5b9250929050565b60008060008060006080868803121561443957600080fd5b85356001600160401b038082111561445057600080fd5b61445c89838a016143d9565b909750955060208801359450604088013591508082111561447c57600080fd5b61448889838a01614307565b9350606088013591508082111561449e57600080fd5b506144ab88828901614307565b9150509295509295909350565b6000602082840312156144ca57600080fd5b81356144d581614231565b9392505050565b634e487b7160e01b600052602160045260246000fd5b6009811061451057634e487b7160e01b600052602160045260246000fd5b9052565b80511515825260208101511515602083015260408101511515604083015260608101511515606083015260808101511515608083015260a0810151151560a083015260c0810151151560c08301525050565b60005b83811015614581578181015183820152602001614569565b50506000910152565b600081518084526145a2816020860160208601614566565b601f01601f19169290920160200192915050565b600060018060a01b03808351168452806020840151166020850152506040820151608060408501526145eb608085018261458a565b905060608301518482036060860152614604828261458a565b95945050505050565b600061026082518452602083015161463060208601826001600160401b03169052565b50604083015161464b60408601826001600160401b03169052565b50606083015161466660608601826001600160401b03169052565b50608083015161468160808601826001600160401b03169052565b5060a083015160a085015260c08301516146a660c08601826001600160a01b03169052565b5060e08301516146b960e08601826144f2565b50610100808401516146cd82870182614514565b5050610120830151816101e08601526146e8828601826145b6565b915050610140830151848203610200860152614704828261458a565b915050610160830151848203610220860152614720828261458a565b915050610180830151848203610240860152614604828261458a565b6000602080830181845280855180835260408601915060408160051b870101925083870160005b8281101561479157603f1988860301845261477f85835161460d565b94509285019290850190600101614763565b5092979650505050505050565b6000806000606084860312156147b357600080fd5b83356147be81614231565b92506020840135915060408401356001600160401b038111156147e057600080fd5b6147ec86828701614307565b9150509250925092565b6000806040838503121561480957600080fd5b8235915060208301356001600160401b0381111561482657600080fd5b6143b685828601614307565b6020815260006144d5602083018461460d565b80356001600160401b038116811461485c57600080fd5b919050565b60008060008060006080868803121561487957600080fd5b85356001600160401b0381111561488f57600080fd5b61489b888289016143d9565b90965094506148ae905060208701614845565b92506148bc60408701614845565b949793965091946060013592915050565b8d81526001600160401b038d1660208201526001600160401b038c1660408201526001600160401b038b1660608201526001600160401b038a1660808201528860a082015261492760c08201896001600160a01b03169052565b61493460e08201886144f2565b614942610100820187614514565b6102606101e0820152600061495b6102608301876145b6565b82810361020084015261496e818761458a565b9050828103610220840152614983818661458a565b9050828103610240840152614998818561458a565b9150509e9d5050505050505050505050505050565b600080600080608085870312156149c357600080fd5b84356149ce81614231565b9350602085013592506149e360408601614845565b91506149f160608601614845565b905092959194509250565b60008060408385031215614a0f57600080fd5b50508035926020909101359150565b600080600060608486031215614a3357600080fd5b83359250614a4360208501614845565b9150614a5160408501614845565b90509250925092565b6020808252825182820181905260009190848201906040850190845b81811015614a9b5783516001600160a01b031683529284019291840191600101614a76565b50909695505050505050565b60006020808301818452808551808352604092508286019150828160051b87010184880160005b83811015614b5d57603f19898403018552815160c0815185528882015189860152878201511515888601526060808301518282880152614b108388018261458a565b9250505060808083015186830382880152614b2b838261458a565b9250505060a08083015192508582038187015250614b49818361458a565b968901969450505090860190600101614ace565b509098975050505050505050565b602080825260139082015272151bdbdb08191bd95cc81b9bdd08195e1a5cdd606a1b604082015260600190565b634e487b7160e01b600052603260045260246000fd5b6020808252601c908201527f5468652072656e74616c206973206e6f7420617661696c61626c652e00000000604082015260600190565b6020808252601f908201527f5468652072656e74616c2073746174757320697320696e636f72726563742e00604082015260600190565b6001600160a01b03958616815293851660208501529190931660408301526060820192909252608081019190915260a00190565b6001600160a01b0384168152606060208201819052600090614c749083018561458a565b8281036040840152614c86818561458a565b9695505050505050565b600060208284031215614ca257600080fd5b81516144d581614231565b600181811c90821680614cc157607f821691505b602082108103611bae57634e487b7160e01b600052602260045260246000fd5b601f821115614d2b57600081815260208120601f850160051c81016020861015614d085750805b601f850160051c820191505b81811015614d2757828155600101614d14565b5050505b505050565b600019600383901b1c191660019190911b1790565b81516001600160401b03811115614d5e57614d5e614272565b614d7281614d6c8454614cad565b84614ce1565b602080601f831160018114614da15760008415614d8f5750858301515b614d998582614d30565b865550614d27565b600085815260208120601f198616915b82811015614dd057888601518255948401946001909101908401614db1565b5085821015614dee5787850151600019600388901b60f8161c191681555b5050505050600190811b01905550565b600060018060a01b03808716835260806020840152614e20608084018761458a565b94166040830152506060015292915050565b60208082526027908201527f596f7520617265206e6f7420746865206f776e6572206f662074686520636f6c6040820152663632b1ba34b7b760c91b606082015260800190565b6020808252601d908201527f596f7520646f6e2774206861766520616e7920636f6c6c656374696f6e000000604082015260600190565b634e487b7160e01b600052601160045260246000fd5b600060018201614ed857614ed8614eb0565b5060010190565b818103818111156108c3576108c3614eb0565b634e487b7160e01b600052603160045260246000fd5b6020808252601f908201527f4d6178696d756d206e756d626572206f6620746f6f6c73207265616368656400604082015260600190565b818103614f4a575050565b614f548254614cad565b6001600160401b03811115614f6b57614f6b614272565b614f7981614d6c8454614cad565b6000601f821160018114614fa75760008315614f955750848201545b614f9f8482614d30565b85555061500c565b600085815260209020601f19841690600086815260209020845b83811015614fe15782860154825560019586019590910190602001614fc1565b5085831015614fff5781850154600019600388901b60f8161c191681555b50505060018360011b0184555b5050505050565b81835281816020850137506000828201602090810191909152601f909101601f19169091010190565b60a08152600061505060a08301888a615013565b8660208401528281036040840152615068818761458a565b9050828103606084015261507c818661458a565b91505060018060a01b0383166080830152979650505050505050565b6000602082840312156150aa57600080fd5b5051919050565b60208082526014908201527313dddb995c88191bd95cc81b9bdd08195e1a5cdd60621b604082015260600190565b6001600160a01b0387811682528681166020830152851660408201526060810184905260c06080820181905260009061511a9083018561458a565b90508260a0830152979650505050505050565b6020808252602a908201527f50726f626c656d206f6e207468652072656e74657220616e6420746865206f6e604082015269652077686f2061736b7360b01b606082015260800190565b60208082526012908201527106e756d626572206d757374206265203e20360741b604082015260600190565b6001600160401b038311156151ba576151ba614272565b6151ce836151c88354614cad565b83614ce1565b6000601f8411600181146151fc57600085156151ea5750838201355b6151f48682614d30565b84555061500c565b600083815260209020601f19861690835b8281101561522d578685013582556020948501946001909201910161520d565b508682101561524a5760001960f88860031b161c19848701351681555b505060018560011b0183555050505050565b6000815461526981614cad565b80855260206001838116801561528657600181146152a0576152ce565b60ff1985168884015283151560051b8801830195506152ce565b866000528260002060005b858110156152c65781548a82018601529083019084016152ab565b890184019650505b505050505092915050565b600061012060018060a01b038d1683528b60208401528a60408401528060608401526153078184018b61525c565b9050828103608084015261531b818a61525c565b905082810360a084015261533081888a615013565b6001600160401b0396871660c08501529490951660e083015250610100015298975050505050505050565b8051801515811461485c57600080fd5b600082601f83011261537c57600080fd5b815161538a614326826142e0565b81815284602083860101111561539f57600080fd5b613ee5826020830160208701614566565b600060208083850312156153c357600080fd5b82516001600160401b03808211156153da57600080fd5b818501915085601f8301126153ee57600080fd5b81518181111561540057615400614272565b8060051b61540f8582016142b0565b918252838101850191858101908984111561542957600080fd5b86860192505b8383101561550f5782518581111561544657600080fd5b860160c0818c03601f1901121561545d5760008081fd5b615465614288565b8882015181526040808301518a830152606061548281850161535b565b8284015260809150818401518981111561549c5760008081fd5b6154aa8f8d8388010161536b565b82850152505060a080840151898111156154c45760008081fd5b6154d28f8d8388010161536b565b838501525060c08401519150888211156154ec5760008081fd5b6154fa8e8c8487010161536b565b9083015250835250918601919086019061542f565b999850505050505050505056fea264697066735822122074cabcd332539230756f143301c84bea51a97c5750cb351688f3065872e97a1364736f6c63430008130033",
  "immutableReferences": {},
  "source": "// SPDX-License-Identifier: MIT\npragma solidity 0.8.19;\n\nimport \"./IAnyRental.sol\";\nimport \"./IAnyNFTCollection.sol\";\nimport \"./AnyNFTCollection.sol\";\nimport \"./AnyNFTCollectionFactory.sol\";\nimport \"../node_modules/@openzeppelin/contracts/access/Ownable.sol\";\nimport \"./Utils.sol\";\n\n/**\n * @title Rental Any  contract \n * @author https://github.com/gbesset\n * @notice contract to generate NFT of tool to locate, and manage the rental\n * @dev Implements NFT gneration, and rental process\n */\ncontract AnyRental is Ownable, IAnyRental{\n\n   using Counters for Counters.Counter;\n\n    AnyNFTCollectionFactory public factory;\n\n    Counters.Counter private rentalIds;\n\n\n    // mapping of  a renter address to the rented tools\n    mapping (address => RentalReference) private userRentals;\n\n    // list of all the owner address\n    address[] rentersList;\n\n    // mapping of a owner address to its collection\n    mapping (address => CollectionNFT) private rentersCollection;\n    \n    // mapping of a owner address to its rentals\n    mapping (address => Rental[]) public rentersRentals;\n    uint256 public nbRentalMax = 20;\n\n\n\n    constructor(address _anyNFTFactory){\n        // Instantiate the Any NFT Factory from its address\n        factory = AnyNFTCollectionFactory(_anyNFTFactory);\n    }\n\n\n        /**\n        *   /!\\ Sur le naming des variables,  un        loueur fait une location a un locataire\n        *    je suis initialement parti sur             renter           rental       user\n        *    avant de me rendre compte que Loueur se disait owner et locataire renter\n        *    j'ai donc chang les variables en          owner ->         rental ->    renter              \n        * \n        *   J'ai donc essay de clarifier cela.\n        *       => Dans tous les commentaires ca doit etre OK.   (ils font fois pour la comprhension)\n        *       => Dans le code je nai pas pris le risque de changer avec le front qui interragi dessus au risque de tout casser\n        *   il me faudrait une passe de plus pour renommer. :/\n        */\n\n    /* ***********************************************\n    *   Modifiers \n    *********************************************** */\n\n    /**\n    * @dev Only renter can call\n    */\n\n    modifier onlyRentalOwner() {\n        require(rentersCollection[msg.sender].owner==msg.sender, \"You are not the owner of the collection\");\n        _;\n    }\n    \n    /**\n     * Owner exist if exist in mapping NFT or mapping rental \n    * @dev MUST exist int the both.... Except for creationCollection      \n     */\n    modifier ownerMustExist(address _owner) {\n        require(rentersCollection[_owner].collection != address(0), \"Owner does not exist\");\n        _;\n    }\n             \n\n    /* ***********************************************\n    *   Setters \n    *********************************************** */\n\n    function setNbRentalMax(uint _nb) external onlyOwner{\n        nbRentalMax = _nb;\n    }\n\n    /* ***********************************************\n    *   Getters \n    *********************************************** */\n     /** \n     * @notice return the NFT Tools from a owner address\n     * @dev get collection from owner Address\n     * @return Tool[]  (NFT attributes)\n     */\n    function getToolsCollection(address _owner) ownerMustExist(_owner) external view returns(Utils.Tool[] memory){\n        IAnyNFTCollection collec = IAnyNFTCollection(rentersCollection[_owner].collection);\n        return collec.getTools();\n    }\n    /** \n     * @notice return the NFT Collection address from a owner address\n     * @dev get collection address a from owner Address\n     * @return address of the collection NFT\n     */\n    function getToolsCollectionAddress(address _owner) ownerMustExist(_owner) external view returns(address){\n        return rentersCollection[_owner].collection;\n    }\n    \n    /** \n     * @notice return the Rentals Owners\n     * @dev get owners \n     * @return address[]\n     */\n    function getRentalsOwner() external view returns(address[] memory){\n        return rentersList;\n    }\n\n    /** \n     * @notice return the Rentals from a owner address\n     * @dev get rentals array from an owner address\n     * @return Rental[]\n     */\n    function getRentalsByOwner(address _owner) ownerMustExist(_owner) external view returns(Rental[] memory){\n        return rentersRentals[_owner];\n    }\n\n    /** \n     * @notice return the Rental by the owner address and rentalId\n     * @dev return a rental from an address and a rentalID\n     * @return Rental \n     */\n    function getRentalByOwnerAddressAndRentalID(address _owner, uint _rentalId) ownerMustExist(_owner) external view returns(Rental memory){\n        uint found;\n         for(uint i; i< rentersRentals[_owner].length; i++){\n            if(rentersRentals[_owner][i].rentalID == _rentalId){\n                 found=i;\n                 break;\n            }   \n        }\n        return rentersRentals[_owner][found];\n    }\n        function getRentalIndexByOwnerAddressAndRentalID(address _owner, uint _rentalId) ownerMustExist(_owner) internal view returns(uint){\n        uint found;\n         for(uint i; i< rentersRentals[_owner].length; i++){\n            if(rentersRentals[_owner][i].rentalID == _rentalId){\n                 found=i;\n                 break;\n            }   \n        }\n        return found;\n    }\n\n        /** \n     * @notice return the Rental by rentalId\n     * @dev Compexity not good. Added because trouble for the front in the last day...\n     * @return Rental \n     */\n    function getRentalByRentalID( uint _rentalId) external view returns(Rental memory){\n        uint found;\n        address foundOw;\n        for(uint r; r<rentersList.length; r++){\n            address ow = rentersList[r];\n            for(uint i; i< rentersRentals[ow].length; i++){\n                if(rentersRentals[ow][i].rentalID == _rentalId){\n                     found=i;\n                     foundOw=ow;\n                    break;\n                }   \n            }\n        }\n        return rentersRentals[foundOw][found];\n    }\n\n    function getRentalIndexByOwnerAddressAndTokenID(address _owner, uint _tokenId) ownerMustExist(_owner) internal view returns(uint){\n        uint found;\n         for(uint i; i< rentersRentals[_owner].length; i++){\n            if(rentersRentals[_owner][i].tokenID == _tokenId){\n                 found=i;\n                 break;\n            }   \n        }\n        return found;\n    }\n    \n    /**\n    * @notice return if the address is defined as an owner\n    * @dev return it th address is an entry in the map\n     */\n    function isAddressOwner(address _renter) public view returns(bool) {\n        return rentersCollection[_renter].owner != address(0);\n    }\n\n    /**\n    * @notice return if the address is defined as an renter\n    * @dev return it the address has some rentals in the map\n     */\n    function isAddressRenter(address _renter) public view returns(bool) {\n        return userRentals[_renter].collection != address(0);\n    }\n\n\n\n    /* ***********************************************\n    *   Functions  - NFT Managment\n    *********************************************** */\n    /**\n     * @notice Create the NFT Collection of a owner\n     * @return collectionCreated : colletion address deployed\n     */\n    function createCollection(string memory _collectionName, string memory _collectionSymbol) external returns(address){\n        require(msg.sender != address(0), \"address zero is not valid\");\n        require(rentersCollection[msg.sender].collection==address(0), \"You already have created your collection\");\n        require(!Utils.isEqualString(_collectionName,\"\"), \"collection name can't be empty\");\n\n         address collectionAddress = factory.createAnyNFTCollection(msg.sender, _collectionName, _collectionSymbol);\n\n        // update Renters Collection\n        rentersCollection[msg.sender].collection = collectionAddress;\n        rentersCollection[msg.sender].owner =  msg.sender;\n        rentersCollection[msg.sender].name=_collectionName;\n        rentersCollection[msg.sender].symbol=_collectionSymbol;\n\n        //update the list of renters\n        rentersList.push(msg.sender);\n\n        emit NFTCollectionCreated(msg.sender, _collectionName , collectionAddress, block.timestamp);\n        \n        return collectionAddress;\n    }\n\n    /**\n     * @notice owner delete its NFT Collection of a\n     */\n    function deleteCollection() external onlyRentalOwner{\n        require(msg.sender != address(0), \"address zero is not valid\");\n        require(rentersCollection[msg.sender].collection!=address(0), \"You don't have any collection\");\n      \n        AnyNFTCollection collec = AnyNFTCollection(rentersCollection[msg.sender].collection);\n\n        uint id;\n         for (uint i; i < rentersList.length; i++) {\n            if(rentersList[i] == msg.sender){\n                id=i;\n                break;\n            }\n        }\n\n        //delete element in list of renters\n        rentersList[id] = rentersList[rentersList.length-1];\n        rentersList.pop();\n\n        //delete rentals in mapping \n        delete rentersCollection[msg.sender];\n        /*\n        //TODO supprimer l'instance en transfrant au pralbale les fonds prsents....\n        selfdestruct(collec);\n       */\n        emit NFTCollectionDeleted(msg.sender , address(collec), block.timestamp);\n\n    }\n\n\n    function addToolToCollection(string calldata _tokenURI, uint _serialId, string memory _title, string memory _description ) external onlyRentalOwner returns(uint tokenId){\n        require(rentersCollection[msg.sender].collection!=address(0), \"You don't have any collection\");\n        require(rentersRentals[msg.sender].length < nbRentalMax, \"Maximum number of tools reached\");\n        \n        IAnyNFTCollection collec = IAnyNFTCollection(rentersCollection[msg.sender].collection);\n        uint256 tokenID = collec.mint(_tokenURI, _serialId, _title, _description, msg.sender);\n\n        uint newRentalIds = rentalIds.current();\n        Rental memory rental;\n        CollectionNFT memory collecNFT;\n        collecNFT.collection = rentersCollection[msg.sender].collection;\n        collecNFT.owner = rentersCollection[msg.sender].owner;\n\n        rental.rentalID = newRentalIds;\n        rental.title=_title;\n        rental.description=_description;\n        rental.collection = collecNFT;\n\n        rental.tokenID = tokenID;\n        rentalIds.increment();\n\n        rentersRentals[msg.sender].push(rental);\n\n        emit NFTToolAddedToCollection(msg.sender, rentersCollection[msg.sender].collection, tokenID, block.timestamp);\n        return tokenID;\n    }\n\n      /**\n     * @dev delegate the NFT to a renter . onlyRentalOwner\n     * @dev use the direct collection acces instead\n     */\n    /*function delegateNFT(uint _tokenId, address _to, uint64 _expires) external onlyRentalOwner {\n        require(rentersCollection[msg.sender].collection!=address(0), \"You don't have any collection\");\n        require(rentersCollection[msg.sender].owner==msg.sender, \"You are not the owner of the collection\");\n\n        \n        //Si pas de approve passer par I\n         AnyNFTCollection collec = AnyNFTCollection(rentersCollection[msg.sender].collection);\n        \n        //collec.approve(msg.sender, _tokenId);\n         collec.rentTool(_tokenId, _to, _expires, msg.sender);\n\n        emit RentalNFTToolDelegated(msg.sender, _to, rentersCollection[msg.sender].collection, _tokenId, block.timestamp);\n    }*/\n\n\n    /* ***********************************************\n    *   Functions  - Rental Managment\n    *********************************************** */\n\n    function addToolToRentals(string calldata _tokenImgURI, uint64 _dayPrice, uint64 _caution, uint _tokenID) external onlyRentalOwner {\n        require(rentersCollection[msg.sender].collection!=address(0), \"You don't have any collection\");\n        require(rentersRentals[msg.sender].length < nbRentalMax, \"Maximum number of tools reached\");\n        require(_dayPrice > 0, \"number must be > 0\");\n        require(_caution > 0, \"number must be > 0\");\n\n\n        //All rentalData.is* false by default\n        RentalData memory rentalData;\n\n        uint found = getRentalIndexByOwnerAddressAndTokenID(msg.sender, _tokenID);\n        Rental storage rental = rentersRentals[msg.sender][found];\n  \n        rental.tokenImgURI = _tokenImgURI;\n        rental.dayPrice =_dayPrice;\n        rental.caution = _caution;\n        rental.rentalStatus = RentalStatus.AVAILABLE;\n        rental.rentalData = rentalData;\n                \n        emit ToolAddedToRentals(msg.sender, rental.rentalID , rental.tokenID, rental.title, rental.description, _tokenImgURI, _dayPrice, _caution, block.timestamp);\n    }\n\n     /**\n     * @dev update a tool into collection . onlyRentalOwner\n     */\n     function updateToolIntoRentals(uint _rentalID, uint64 _dayPrice, uint64 _caution) external onlyRentalOwner{\n        require(rentersCollection[msg.sender].collection!=address(0), \"You don't have any collection\");\n        require(_dayPrice > 0, \"number must be > 0\");\n        require(_caution > 0, \"number must be > 0\");\n\n        for(uint i; i< rentersRentals[msg.sender].length; i++){\n            if(rentersRentals[msg.sender][i].rentalID == _rentalID){\n                 rentersRentals[msg.sender][i].dayPrice = _dayPrice;\n                 rentersRentals[msg.sender][i].caution = _caution;\n                 break;\n            }   \n        }\n\n        emit ToolUpdatedFromRentals(msg.sender, _rentalID, block.timestamp);\n     }\n      /**\n     * @dev delete a tool into collection . onlyRentalOwner\n     */\n     function deleteToolIntoRentals(uint _rentalID) external onlyRentalOwner{\n         require(rentersCollection[msg.sender].collection!=address(0), \"You don't have any collection\");\n        require(rentersRentals[msg.sender].length < nbRentalMax, \"Maximum number of tools reached\");\n        \n        uint id;\n        for(uint i; i< rentersRentals[msg.sender].length; i++){\n            if(rentersRentals[msg.sender][i].rentalID == _rentalID){\n                id = i;\n                 break;\n            }   \n        }\n        rentersRentals[msg.sender][id] = rentersRentals[msg.sender][rentersRentals[msg.sender].length-1];\n        rentersRentals[msg.sender].pop();\n         \n        emit ToolDeletedFromRentals(msg.sender, _rentalID, block.timestamp);\n     }\n\n\n /**\n     * @notice renter send the location and caution which in order to ask for the rental of a Rental\n     * - the caution and location is secured until\n     * @dev rener send caution and location price for rent a Rental\n     */\n     function sendPaiementForRental(address _owner, uint _rentalID, uint64 _begin, uint64 _end) ownerMustExist(_owner) external{\n         require(rentalIds.current() >= _rentalID, \"Tool does not exist\");\n         require(_begin > 0, \"begin must be a valid date\");\n         require(_end > 0, \"end must be a valid date\");\n         require(_begin < _end, \"End of rental can't be before begin\");\n\n         uint found = getRentalIndexByOwnerAddressAndRentalID(_owner, _rentalID);\n         Rental storage rental = rentersRentals[_owner][found];\n         require(rental.rentalID == _rentalID, \"The rental is not available.\");\n         require(rental.rentalStatus == RentalStatus.AVAILABLE, \"The rental status is incorrect.\");\n        \n        //gestion caution et paiement\n     \n        rental.start = _begin;\n        rental.end = _end;\n        rental.rentalStatus = RentalStatus.RENTAL_REQUESTED;\n        rental.rentalData.isCautionDeposed = true;\n        rental.renter = msg.sender;\n\n         emit RentalRequested(rental.collection.owner, msg.sender,  rental.collection.collection, rental.tokenID, block.timestamp);\n     }\n\n   /**\n     * @notice owner delegate the NFT in order to validate the rental asking\n     * - the caution and location is still secured\n     * @dev owner validate the delagation of the NFT\n     */\n     function validateNFTDelegationForRental(uint _rentalID, uint _tokenID) ownerMustExist(msg.sender)  external{\n         require(rentalIds.current() >= _rentalID, \"Tool does not exist\");\n         require(_tokenID > 0, \"token ID must be valid\");\n\n\n        uint found = getRentalIndexByOwnerAddressAndRentalID(msg.sender, _rentalID);\n        Rental storage rental = rentersRentals[msg.sender][found];\n        require(rental.rentalID == _rentalID, \"The rental is not available.\");\n        require(rental.tokenID == _tokenID, \"Error... the tokenId isn't the correct one.\");\n        require(rental.rentalStatus == RentalStatus.RENTAL_REQUESTED, \"The rental status is incorrect.\");\n        \n        rental.rentalStatus = RentalStatus.RENTAL_ACCEPTED_NFT_SENT;\n        rental.rentalData.isNFTDelegated = true;\n        \n        emit RentalAccepted(rental.collection.owner, rental.renter,  rental.collection.collection, rental.tokenID, block.timestamp);\n     }   \n\n\n    /**\n     * @notice renter get the tool in real life, has the NFT and valiate the transaction\n     * - the caution is still secured, the location is payed\n     * @dev renter validate having the NFT, annd receipt the tool\n     */\n     function validateNFTandToolReception(address _owner, uint _rentalID) ownerMustExist(_owner)  external{\n         require(rentalIds.current() >= _rentalID, \"Tool does not exist\");\n \n        uint found = getRentalIndexByOwnerAddressAndRentalID(_owner, _rentalID);\n        Rental storage rental = rentersRentals[_owner][found];\n        require(rental.rentalID == _rentalID, \"The rental is not available.\");\n        require(rental.renter==msg.sender, \"Problem on the renter and the one who asks\");\n        require(rental.rentalStatus == RentalStatus.RENTAL_ACCEPTED_NFT_SENT, \"The rental status is incorrect.\");\n        \n        rental.rentalStatus = RentalStatus.VALIDATE_RECEIPT_PAYMENT;\n\n        //TODO mettre le tool is availabe a false dans Collection\n        \n        emit RentalNFTToolDelegated(rental.collection.owner, rental.renter,  rental.collection.collection, rental.tokenID, block.timestamp);\n\n     }\n\n    /**\n     * @notice renter give back the tool at the end of renting\n     * - the caution is still secured, the location is already payed\n     * @dev renter give bak the tool\n     */\n     function giveBackToolAfterRental(address _owner, uint _rentalID) ownerMustExist(_owner) external{\n        require(rentalIds.current() >= _rentalID, \"Tool does not exist\");\n\n        uint found = getRentalIndexByOwnerAddressAndRentalID(_owner, _rentalID);\n        Rental storage rental = rentersRentals[_owner][found];\n        require(rental.rentalID == _rentalID, \"The rental is not available.\");\n        require(rental.renter==msg.sender, \"Problem on the renter and the one who asks\");\n        require(rental.rentalStatus == RentalStatus.VALIDATE_RECEIPT_PAYMENT, \"The rental status is incorrect.\");\n        \n        rental.rentalStatus = RentalStatus.COMPLETED_USER;\n        rental.rentalData.isToolReturned = true;\n\n        //TODO mettre le tool is availabe a truue dans Collection\n        \n        emit RentalCompletedByUser(rental.collection.owner, msg.sender,  rental.collection.collection, rental.tokenID, block.timestamp);\n\n     }  \n     \n    /**\n     * @notice owner validate the return of the tool\n     * - the caution is given back\n     * @dev owner validate the return of the tool\n     */\n     function validateReturnToolAfterRental(uint _rentalID) ownerMustExist(msg.sender)  external{\n        require(rentalIds.current() >= _rentalID, \"Tool does not exist\");\n\n        uint found = getRentalIndexByOwnerAddressAndRentalID(msg.sender, _rentalID);\n        Rental storage rental = rentersRentals[msg.sender][found];\n        require(rental.rentalID == _rentalID, \"The rental is not available.\");\n        require(rental.rentalStatus == RentalStatus.COMPLETED_USER, \"The rental status is incorrect.\");\n        \n        rental.rentalStatus = RentalStatus.RETURN_ACCEPTED_BY_OWNER;\n        rental.rentalData.isReturnValidated = true;\n        \n        emit RentalCompletedByRenter(rental.collection.owner, rental.renter,  rental.collection.collection, rental.tokenID, block.timestamp);\n\n     } \n\n    /**\n     * @notice owner doens't validate the return of the tool. Problem. dispute creation\n     * - the caution still secured\n     * @dev owner doesn't validate the return of the tool, because of a problem\n     */\n     function refuseReturnToolAfterRental(uint _rentalID, string memory message)ownerMustExist(msg.sender)  external{\n        require(rentalIds.current() >= _rentalID, \"Tool does not exist\");\n\n        uint found = getRentalIndexByOwnerAddressAndRentalID(msg.sender, _rentalID);\n        Rental storage rental = rentersRentals[msg.sender][found];\n        require(rental.rentalID == _rentalID, \"The rental is not available.\");\n        require(rental.rentalStatus == RentalStatus.COMPLETED_USER, \"The rental status is incorrect.\");\n        \n        rental.rentalStatus = RentalStatus.DISPUTE;\n        rental.rentalData.isToolReturned = true;\n        rental.rentalData.isDispute = true;\n        \n        emit RentalDisputeCreated(rental.collection.owner, rental.renter,  rental.collection.collection, rental.tokenID, message, block.timestamp);\n\n     }\n\n    /**\n     * @notice renter confirm dispute and expose its point of view\n     * - the caution still secured\n     * @dev renter confirm dispute and expose its point of view\n     */\n     function confirmDisputeAfterRental(address _renter, uint _rentalID, string memory message)ownerMustExist(_renter)  external{\n         require(rentalIds.current() >= _rentalID, \"Tool does not exist\");\n\n        uint found = getRentalIndexByOwnerAddressAndRentalID(_renter, _rentalID);\n        Rental storage rental = rentersRentals[_renter][found];\n        require(rental.rentalID == _rentalID, \"The rental is not available.\");\n        require(rental.renter==msg.sender, \"Problem on the renter and thr one who asks\");\n        require(rental.rentalStatus == RentalStatus.DISPUTE, \"The rental status is incorrect.\");\n               \n        rental.rentalData.isDisputeConfirmed = true;\n\n        emit RentalDisputelConfirmedByUser(rental.collection.owner, msg.sender,  rental.collection.collection, rental.tokenID, message, block.timestamp);\n\n     }\n\n    /**\n     * @notice renter redeem its caution or caution and location\n     * - the caution is given back at the end of rental or because the renter refuse the rental\n     * @dev renter redeem its caution\n     */\n     function redeemPaymentForRental(address _renter, uint _rentalID) external{\n         require(rentalIds.current() >= _rentalID, \"Tool does not exist\");\n\n        uint found = getRentalIndexByOwnerAddressAndRentalID(_renter, _rentalID);\n        Rental storage rental = rentersRentals[_renter][found];\n        require(rental.rentalID == _rentalID, \"The rental is not available.\");\n        require(rental.rentalStatus == RentalStatus.RETURN_ACCEPTED_BY_OWNER, \"The rental status is incorrect.\");\n        \n        // recuperer sa caution\n       \n\n        rental.rentalStatus = RentalStatus.RENTAL_ENDED;\n        rental.rentalData.isRedeemed = true;\n        rental.rentalData.isCautionDeposed = false;\n        \n        emit RentalEnded(rental.collection.owner, msg.sender,  rental.collection.collection, rental.tokenID, block.timestamp);\n\n     }  \n\n  /**\n     * @notice renter redeem its caution or caution and location\n     * - the caution is given back at the end of rental or because the owner refuse the rental\n     * @dev renter redeem its caution\n     */\n     function rentAgainRental(uint _rentalID) ownerMustExist(msg.sender)  external{\n      require(rentalIds.current() >= _rentalID, \"Tool does not exist\");\n\n        uint found = getRentalIndexByOwnerAddressAndRentalID(msg.sender, _rentalID);\n        Rental storage rental = rentersRentals[msg.sender][found];\n        require(rental.rentalID == _rentalID, \"The rental is not available.\");\n        require(rental.rentalStatus == RentalStatus.RENTAL_ENDED, \"The rental status is incorrect.\");\n        \n        //initialisation\n        rental.start = 0;\n        rental.end = 0;\n        rental.rentalStatus = RentalStatus.AVAILABLE;\n        rental.rentalData.isCautionDeposed = false;\n        rental.renter = address(0);\n        rental.rentalData = RentalData(false, false, false, false, false, false, false);\n        \n        \n        emit RentalReAvailable(rental.collection.owner, rental.renter,  rental.collection.collection, rental.tokenID, block.timestamp);\n    }  \n  \n  \n}\n",
  "sourcePath": "/Users/gbesset/wks/learning/web3/alyra_projetFinal_LocaTool_AnythingNearYou/truffle/contracts/AnyRental.sol",
  "compiler": {
    "name": "solc",
    "version": "0.8.19+commit.7dd6d404.Emscripten.clang"
  },
  "schemaVersion": "3.4.11",
  "updatedAt": "2023-04-09T14:02:40.438Z",
  "networkType": "ethereum",
  "devdoc": {
    "author": "https://github.com/gbesset",
    "details": "Implements NFT gneration, and rental process",
    "events": {
      "NFTCollectionCreated(address,string,address,uint256)": {
        "details": "Emitted when a owner create its NFT Collection. give OwnerAddress, CollectionName, CollectionAddress, timestamp"
      },
      "NFTCollectionDeleted(address,address,uint256)": {
        "details": "Emitted when a owner delete its NFT Collection. give OwnerAddress, CollectionName, CollectionAddress, timestamp"
      },
      "NFTToolAddedToCollection(address,address,uint256,uint256)": {
        "details": "Emitted when a owner add a tool to its NFT Collection."
      },
      "RentalAccepted(address,address,address,uint256,uint256)": {
        "details": "Emitted when a owner accept to rent its tool"
      },
      "RentalCompletedByRenter(address,address,address,uint256,uint256)": {
        "details": "Emitted when a owner accept thereturn of the tool"
      },
      "RentalCompletedByUser(address,address,address,uint256,uint256)": {
        "details": "Emitted when a renter give back the tool"
      },
      "RentalDisputeCreated(address,address,address,uint256,string,uint256)": {
        "details": "Emitted when a owner doensn't accept the return of the tool"
      },
      "RentalDisputeSolved(address,address,address,uint256,string,uint256)": {
        "details": "Emitted when a owner doensn't accept the return of the tool"
      },
      "RentalDisputelConfirmedByUser(address,address,address,uint256,string,uint256)": {
        "details": "Emitted when a owner doensn't accept the return of the tool"
      },
      "RentalEnded(address,address,address,uint256,uint256)": {
        "details": "Emitted when a owner redeem its causion and end the rental of the tool"
      },
      "RentalExtended(address,address,address,uint256,uint256,uint256)": {
        "details": "Emitted when a user ask to extznd the rental duration"
      },
      "RentalReAvailable(address,address,address,uint256,uint256)": {
        "details": "Emitted when a owner accept thereturn of the tool"
      },
      "RentalRejected(address,address,address,uint256,uint256)": {
        "details": "Emitted when a owner doesn't accept to rent its tool"
      },
      "RentalRequested(address,address,address,uint256,uint256)": {
        "details": "Emitted when a renter ask to rent a tool from a collection"
      },
      "ToolAddedToRentals(address,uint256,uint256,string,string,string,uint256,uint256,uint256)": {
        "details": "Emitted when a owner add a tool to its NFT Collection."
      },
      "ToolDeletedFromRentals(address,uint256,uint256)": {
        "details": "Emitted when a owner delete a tool into its NFT Collection."
      },
      "ToolUpdatedFromRentals(address,uint256,uint256)": {
        "details": "Emitted when a owner aduptate a tool to its NFT Collection."
      }
    },
    "kind": "dev",
    "methods": {
      "addToolToCollection(string,uint256,string,string)": {
        "details": "add a tool to collection . onlyOwner"
      },
      "addToolToRentals(string,uint64,uint64,uint256)": {
        "details": "delegate the NFT to a renter . onlyRentalOwneruse the direct collection acces instead"
      },
      "confirmDisputeAfterRental(address,uint256,string)": {
        "details": "renter confirm dispute and expose its point of view"
      },
      "createCollection(string,string)": {
        "returns": {
          "_0": "collectionCreated : colletion address deployed"
        }
      },
      "deleteToolIntoRentals(uint256)": {
        "details": "delete a tool into collection . onlyRentalOwner"
      },
      "getRentalByOwnerAddressAndRentalID(address,uint256)": {
        "details": "return a rental from an address and a rentalID",
        "returns": {
          "_0": "Rental "
        }
      },
      "getRentalByRentalID(uint256)": {
        "details": "Compexity not good. Added because trouble for the front in the last day...",
        "returns": {
          "_0": "Rental "
        }
      },
      "getRentalsByOwner(address)": {
        "details": "get rentals array from an owner address",
        "returns": {
          "_0": "Rental[]"
        }
      },
      "getRentalsOwner()": {
        "details": "get owners ",
        "returns": {
          "_0": "address[]"
        }
      },
      "getToolsCollection(address)": {
        "details": "get collection from owner Address",
        "returns": {
          "_0": "Tool[]  (NFT attributes)"
        }
      },
      "getToolsCollectionAddress(address)": {
        "details": "get collection address a from owner Address",
        "returns": {
          "_0": "address of the collection NFT"
        }
      },
      "giveBackToolAfterRental(address,uint256)": {
        "details": "renter give bak the tool"
      },
      "isAddressOwner(address)": {
        "details": "return it th address is an entry in the map"
      },
      "isAddressRenter(address)": {
        "details": "return it the address has some rentals in the map"
      },
      "owner()": {
        "details": "Returns the address of the current owner."
      },
      "redeemPaymentForRental(address,uint256)": {
        "details": "renter redeem its caution"
      },
      "refuseReturnToolAfterRental(uint256,string)": {
        "details": "owner doesn't validate the return of the tool, because of a problem"
      },
      "renounceOwnership()": {
        "details": "Leaves the contract without owner. It will not be possible to call `onlyOwner` functions anymore. Can only be called by the current owner. NOTE: Renouncing ownership will leave the contract without an owner, thereby removing any functionality that is only available to the owner."
      },
      "rentAgainRental(uint256)": {
        "details": "renter redeem its caution"
      },
      "sendPaiementForRental(address,uint256,uint64,uint64)": {
        "details": "rener send caution and location price for rent a Rental"
      },
      "transferOwnership(address)": {
        "details": "Transfers ownership of the contract to a new account (`newOwner`). Can only be called by the current owner."
      },
      "updateToolIntoRentals(uint256,uint64,uint64)": {
        "details": "update a tool into collection . onlyRentalOwner"
      },
      "validateNFTDelegationForRental(uint256,uint256)": {
        "details": "owner validate the delagation of the NFT"
      },
      "validateNFTandToolReception(address,uint256)": {
        "details": "renter validate having the NFT, annd receipt the tool"
      },
      "validateReturnToolAfterRental(uint256)": {
        "details": "owner validate the return of the tool"
      }
    },
    "title": "Rental Any  contract ",
    "version": 1
  },
  "userdoc": {
    "kind": "user",
    "methods": {
      "confirmDisputeAfterRental(address,uint256,string)": {
        "notice": "renter confirm dispute and expose its point of view - the caution still secured"
      },
      "createCollection(string,string)": {
        "notice": "Create the NFT Collection of a owner"
      },
      "deleteCollection()": {
        "notice": "owner delete its NFT Collection of a"
      },
      "getRentalByOwnerAddressAndRentalID(address,uint256)": {
        "notice": "return the Rental by the owner address and rentalId"
      },
      "getRentalByRentalID(uint256)": {
        "notice": "return the Rental by rentalId"
      },
      "getRentalsByOwner(address)": {
        "notice": "return the Rentals from a owner address"
      },
      "getRentalsOwner()": {
        "notice": "return the Rentals Owners"
      },
      "getToolsCollection(address)": {
        "notice": "return the NFT Tools from a owner address"
      },
      "getToolsCollectionAddress(address)": {
        "notice": "return the NFT Collection address from a owner address"
      },
      "giveBackToolAfterRental(address,uint256)": {
        "notice": "renter give back the tool at the end of renting - the caution is still secured, the location is already payed"
      },
      "isAddressOwner(address)": {
        "notice": "return if the address is defined as an owner"
      },
      "isAddressRenter(address)": {
        "notice": "return if the address is defined as an renter"
      },
      "redeemPaymentForRental(address,uint256)": {
        "notice": "renter redeem its caution or caution and location - the caution is given back at the end of rental or because the renter refuse the rental"
      },
      "refuseReturnToolAfterRental(uint256,string)": {
        "notice": "owner doens't validate the return of the tool. Problem. dispute creation - the caution still secured"
      },
      "rentAgainRental(uint256)": {
        "notice": "renter redeem its caution or caution and location - the caution is given back at the end of rental or because the owner refuse the rental"
      },
      "sendPaiementForRental(address,uint256,uint64,uint64)": {
        "notice": "renter send the location and caution which in order to ask for the rental of a Rental - the caution and location is secured until"
      },
      "validateNFTDelegationForRental(uint256,uint256)": {
        "notice": "owner delegate the NFT in order to validate the rental asking - the caution and location is still secured"
      },
      "validateNFTandToolReception(address,uint256)": {
        "notice": "renter get the tool in real life, has the NFT and valiate the transaction - the caution is still secured, the location is payed"
      },
      "validateReturnToolAfterRental(uint256)": {
        "notice": "owner validate the return of the tool - the caution is given back"
      }
    },
    "notice": "contract to generate NFT of tool to locate, and manage the rental",
    "version": 1
  }
}