{
  "contractName": "AnyRental",
  "abi": [
    {
      "inputs": [
        {
          "internalType": "address",
          "name": "_anyNFTFactory",
          "type": "address"
        }
      ],
      "stateMutability": "nonpayable",
      "type": "constructor"
    },
    {
      "anonymous": false,
      "inputs": [
        {
          "indexed": false,
          "internalType": "address",
          "name": "renter",
          "type": "address"
        },
        {
          "indexed": false,
          "internalType": "string",
          "name": "renterCollectionName",
          "type": "string"
        },
        {
          "indexed": false,
          "internalType": "address",
          "name": "renterCollectionAddress",
          "type": "address"
        },
        {
          "indexed": false,
          "internalType": "uint256",
          "name": "timestamp",
          "type": "uint256"
        }
      ],
      "name": "NFTCollectionCreated",
      "type": "event"
    },
    {
      "anonymous": false,
      "inputs": [
        {
          "indexed": false,
          "internalType": "address",
          "name": "renter",
          "type": "address"
        },
        {
          "indexed": false,
          "internalType": "address",
          "name": "renterCollectionAddress",
          "type": "address"
        },
        {
          "indexed": false,
          "internalType": "uint256",
          "name": "timestamp",
          "type": "uint256"
        }
      ],
      "name": "NFTCollectionDeleted",
      "type": "event"
    },
    {
      "anonymous": false,
      "inputs": [
        {
          "indexed": false,
          "internalType": "address",
          "name": "renter",
          "type": "address"
        },
        {
          "indexed": false,
          "internalType": "address",
          "name": "renterCollectionAddress",
          "type": "address"
        },
        {
          "indexed": false,
          "internalType": "uint256",
          "name": "tokenId",
          "type": "uint256"
        },
        {
          "indexed": false,
          "internalType": "uint256",
          "name": "timestamp",
          "type": "uint256"
        }
      ],
      "name": "NFTToolAddedToCollection",
      "type": "event"
    },
    {
      "anonymous": false,
      "inputs": [
        {
          "indexed": true,
          "internalType": "address",
          "name": "previousOwner",
          "type": "address"
        },
        {
          "indexed": true,
          "internalType": "address",
          "name": "newOwner",
          "type": "address"
        }
      ],
      "name": "OwnershipTransferred",
      "type": "event"
    },
    {
      "anonymous": false,
      "inputs": [
        {
          "indexed": false,
          "internalType": "address",
          "name": "renter",
          "type": "address"
        },
        {
          "indexed": false,
          "internalType": "address",
          "name": "user",
          "type": "address"
        },
        {
          "indexed": false,
          "internalType": "address",
          "name": "renterCollectionAddress",
          "type": "address"
        },
        {
          "indexed": false,
          "internalType": "uint256",
          "name": "tokenId",
          "type": "uint256"
        },
        {
          "indexed": false,
          "internalType": "uint256",
          "name": "timestamp",
          "type": "uint256"
        }
      ],
      "name": "RentalAccepted",
      "type": "event"
    },
    {
      "anonymous": false,
      "inputs": [
        {
          "indexed": false,
          "internalType": "address",
          "name": "renter",
          "type": "address"
        },
        {
          "indexed": false,
          "internalType": "address",
          "name": "user",
          "type": "address"
        },
        {
          "indexed": false,
          "internalType": "address",
          "name": "renterCollectionAddress",
          "type": "address"
        },
        {
          "indexed": false,
          "internalType": "uint256",
          "name": "tokenId",
          "type": "uint256"
        },
        {
          "indexed": false,
          "internalType": "uint256",
          "name": "timestamp",
          "type": "uint256"
        }
      ],
      "name": "RentalCompletedByRenter",
      "type": "event"
    },
    {
      "anonymous": false,
      "inputs": [
        {
          "indexed": false,
          "internalType": "address",
          "name": "renter",
          "type": "address"
        },
        {
          "indexed": false,
          "internalType": "address",
          "name": "user",
          "type": "address"
        },
        {
          "indexed": false,
          "internalType": "address",
          "name": "renterCollectionAddress",
          "type": "address"
        },
        {
          "indexed": false,
          "internalType": "uint256",
          "name": "tokenId",
          "type": "uint256"
        },
        {
          "indexed": false,
          "internalType": "uint256",
          "name": "timestamp",
          "type": "uint256"
        }
      ],
      "name": "RentalCompletedByUser",
      "type": "event"
    },
    {
      "anonymous": false,
      "inputs": [
        {
          "indexed": false,
          "internalType": "address",
          "name": "renter",
          "type": "address"
        },
        {
          "indexed": false,
          "internalType": "address",
          "name": "user",
          "type": "address"
        },
        {
          "indexed": false,
          "internalType": "address",
          "name": "renterCollectionAddress",
          "type": "address"
        },
        {
          "indexed": false,
          "internalType": "uint256",
          "name": "tokenId",
          "type": "uint256"
        },
        {
          "indexed": false,
          "internalType": "string",
          "name": "dispute",
          "type": "string"
        },
        {
          "indexed": false,
          "internalType": "uint256",
          "name": "timestamp",
          "type": "uint256"
        }
      ],
      "name": "RentalDisputeCreated",
      "type": "event"
    },
    {
      "anonymous": false,
      "inputs": [
        {
          "indexed": false,
          "internalType": "address",
          "name": "renter",
          "type": "address"
        },
        {
          "indexed": false,
          "internalType": "address",
          "name": "user",
          "type": "address"
        },
        {
          "indexed": false,
          "internalType": "address",
          "name": "renterCollectionAddress",
          "type": "address"
        },
        {
          "indexed": false,
          "internalType": "uint256",
          "name": "tokenId",
          "type": "uint256"
        },
        {
          "indexed": false,
          "internalType": "string",
          "name": "disputeSolution",
          "type": "string"
        },
        {
          "indexed": false,
          "internalType": "uint256",
          "name": "timestamp",
          "type": "uint256"
        }
      ],
      "name": "RentalDisputeSolved",
      "type": "event"
    },
    {
      "anonymous": false,
      "inputs": [
        {
          "indexed": false,
          "internalType": "address",
          "name": "renter",
          "type": "address"
        },
        {
          "indexed": false,
          "internalType": "address",
          "name": "user",
          "type": "address"
        },
        {
          "indexed": false,
          "internalType": "address",
          "name": "renterCollectionAddress",
          "type": "address"
        },
        {
          "indexed": false,
          "internalType": "uint256",
          "name": "tokenId",
          "type": "uint256"
        },
        {
          "indexed": false,
          "internalType": "string",
          "name": "dispute",
          "type": "string"
        },
        {
          "indexed": false,
          "internalType": "uint256",
          "name": "timestamp",
          "type": "uint256"
        }
      ],
      "name": "RentalDisputelConfirmedByUser",
      "type": "event"
    },
    {
      "anonymous": false,
      "inputs": [
        {
          "indexed": false,
          "internalType": "address",
          "name": "renter",
          "type": "address"
        },
        {
          "indexed": false,
          "internalType": "address",
          "name": "user",
          "type": "address"
        },
        {
          "indexed": false,
          "internalType": "address",
          "name": "renterCollectionAddress",
          "type": "address"
        },
        {
          "indexed": false,
          "internalType": "uint256",
          "name": "tokenId",
          "type": "uint256"
        },
        {
          "indexed": false,
          "internalType": "uint256",
          "name": "timestamp",
          "type": "uint256"
        }
      ],
      "name": "RentalEnded",
      "type": "event"
    },
    {
      "anonymous": false,
      "inputs": [
        {
          "indexed": false,
          "internalType": "address",
          "name": "renter",
          "type": "address"
        },
        {
          "indexed": false,
          "internalType": "address",
          "name": "user",
          "type": "address"
        },
        {
          "indexed": false,
          "internalType": "address",
          "name": "renterCollectionAddress",
          "type": "address"
        },
        {
          "indexed": false,
          "internalType": "uint256",
          "name": "tokenId",
          "type": "uint256"
        },
        {
          "indexed": false,
          "internalType": "uint256",
          "name": "duration",
          "type": "uint256"
        },
        {
          "indexed": false,
          "internalType": "uint256",
          "name": "timestamp",
          "type": "uint256"
        }
      ],
      "name": "RentalExtended",
      "type": "event"
    },
    {
      "anonymous": false,
      "inputs": [
        {
          "indexed": false,
          "internalType": "address",
          "name": "renter",
          "type": "address"
        },
        {
          "indexed": false,
          "internalType": "address",
          "name": "user",
          "type": "address"
        },
        {
          "indexed": false,
          "internalType": "address",
          "name": "renterCollectionAddress",
          "type": "address"
        },
        {
          "indexed": false,
          "internalType": "uint256",
          "name": "tokenId",
          "type": "uint256"
        },
        {
          "indexed": false,
          "internalType": "uint256",
          "name": "timestamp",
          "type": "uint256"
        }
      ],
      "name": "RentalNFTToolDelegated",
      "type": "event"
    },
    {
      "anonymous": false,
      "inputs": [
        {
          "indexed": false,
          "internalType": "address",
          "name": "renter",
          "type": "address"
        },
        {
          "indexed": false,
          "internalType": "address",
          "name": "user",
          "type": "address"
        },
        {
          "indexed": false,
          "internalType": "address",
          "name": "renterCollectionAddress",
          "type": "address"
        },
        {
          "indexed": false,
          "internalType": "uint256",
          "name": "tokenId",
          "type": "uint256"
        },
        {
          "indexed": false,
          "internalType": "uint256",
          "name": "timestamp",
          "type": "uint256"
        }
      ],
      "name": "RentalRejected",
      "type": "event"
    },
    {
      "anonymous": false,
      "inputs": [
        {
          "indexed": false,
          "internalType": "address",
          "name": "renter",
          "type": "address"
        },
        {
          "indexed": false,
          "internalType": "address",
          "name": "user",
          "type": "address"
        },
        {
          "indexed": false,
          "internalType": "address",
          "name": "renterCollectionAddress",
          "type": "address"
        },
        {
          "indexed": false,
          "internalType": "uint256",
          "name": "tokenId",
          "type": "uint256"
        },
        {
          "indexed": false,
          "internalType": "uint256",
          "name": "timestamp",
          "type": "uint256"
        }
      ],
      "name": "RentalRequested",
      "type": "event"
    },
    {
      "anonymous": false,
      "inputs": [
        {
          "indexed": false,
          "internalType": "address",
          "name": "renter",
          "type": "address"
        },
        {
          "indexed": false,
          "internalType": "uint256",
          "name": "toolID",
          "type": "uint256"
        },
        {
          "indexed": false,
          "internalType": "uint256",
          "name": "tokenID",
          "type": "uint256"
        },
        {
          "indexed": false,
          "internalType": "uint256",
          "name": "timestamp",
          "type": "uint256"
        }
      ],
      "name": "ToolAddedToRentals",
      "type": "event"
    },
    {
      "anonymous": false,
      "inputs": [
        {
          "indexed": false,
          "internalType": "address",
          "name": "renter",
          "type": "address"
        },
        {
          "indexed": false,
          "internalType": "uint256",
          "name": "toolID",
          "type": "uint256"
        },
        {
          "indexed": false,
          "internalType": "uint256",
          "name": "timestamp",
          "type": "uint256"
        }
      ],
      "name": "ToolDeletedFromRentals",
      "type": "event"
    },
    {
      "anonymous": false,
      "inputs": [
        {
          "indexed": false,
          "internalType": "address",
          "name": "renter",
          "type": "address"
        },
        {
          "indexed": false,
          "internalType": "uint256",
          "name": "toolID",
          "type": "uint256"
        },
        {
          "indexed": false,
          "internalType": "uint256",
          "name": "timestamp",
          "type": "uint256"
        }
      ],
      "name": "ToolUpdatedFromRentals",
      "type": "event"
    },
    {
      "inputs": [],
      "name": "factory",
      "outputs": [
        {
          "internalType": "contract AnyNFTCollectionFactory",
          "name": "",
          "type": "address"
        }
      ],
      "stateMutability": "view",
      "type": "function",
      "constant": true
    },
    {
      "inputs": [],
      "name": "nbRentalMax",
      "outputs": [
        {
          "internalType": "uint256",
          "name": "",
          "type": "uint256"
        }
      ],
      "stateMutability": "view",
      "type": "function",
      "constant": true
    },
    {
      "inputs": [],
      "name": "owner",
      "outputs": [
        {
          "internalType": "address",
          "name": "",
          "type": "address"
        }
      ],
      "stateMutability": "view",
      "type": "function",
      "constant": true
    },
    {
      "inputs": [],
      "name": "renounceOwnership",
      "outputs": [],
      "stateMutability": "nonpayable",
      "type": "function"
    },
    {
      "inputs": [
        {
          "internalType": "address",
          "name": "",
          "type": "address"
        },
        {
          "internalType": "uint256",
          "name": "",
          "type": "uint256"
        }
      ],
      "name": "rentersRentals",
      "outputs": [
        {
          "internalType": "uint256",
          "name": "rentalID",
          "type": "uint256"
        },
        {
          "internalType": "uint64",
          "name": "dayPrice",
          "type": "uint64"
        },
        {
          "internalType": "uint64",
          "name": "caution",
          "type": "uint64"
        },
        {
          "internalType": "uint64",
          "name": "start",
          "type": "uint64"
        },
        {
          "internalType": "uint64",
          "name": "end",
          "type": "uint64"
        },
        {
          "internalType": "enum IAnyRental.RentalStatus",
          "name": "rentalStatus",
          "type": "uint8"
        },
        {
          "components": [
            {
              "internalType": "bool",
              "name": "isCautionDeposed",
              "type": "bool"
            },
            {
              "internalType": "bool",
              "name": "isNFTDelegated",
              "type": "bool"
            },
            {
              "internalType": "bool",
              "name": "isToolReturned",
              "type": "bool"
            },
            {
              "internalType": "bool",
              "name": "isReturnValidated",
              "type": "bool"
            },
            {
              "internalType": "bool",
              "name": "isDispute",
              "type": "bool"
            },
            {
              "internalType": "bool",
              "name": "isDisputeConfirmed",
              "type": "bool"
            },
            {
              "internalType": "bool",
              "name": "isRedeemed",
              "type": "bool"
            }
          ],
          "internalType": "struct IAnyRental.RentalData",
          "name": "rentalData",
          "type": "tuple"
        },
        {
          "internalType": "address",
          "name": "renter",
          "type": "address"
        },
        {
          "components": [
            {
              "internalType": "address",
              "name": "collection",
              "type": "address"
            },
            {
              "internalType": "address",
              "name": "owner",
              "type": "address"
            }
          ],
          "internalType": "struct IAnyRental.CollectionNFT",
          "name": "collection",
          "type": "tuple"
        },
        {
          "internalType": "uint256",
          "name": "tokenID",
          "type": "uint256"
        },
        {
          "internalType": "string",
          "name": "tokenURI",
          "type": "string"
        }
      ],
      "stateMutability": "view",
      "type": "function",
      "constant": true
    },
    {
      "inputs": [
        {
          "internalType": "address",
          "name": "newOwner",
          "type": "address"
        }
      ],
      "name": "transferOwnership",
      "outputs": [],
      "stateMutability": "nonpayable",
      "type": "function"
    },
    {
      "inputs": [
        {
          "internalType": "uint256",
          "name": "_nb",
          "type": "uint256"
        }
      ],
      "name": "setNbRentalMax",
      "outputs": [],
      "stateMutability": "nonpayable",
      "type": "function"
    },
    {
      "inputs": [
        {
          "internalType": "address",
          "name": "_owner",
          "type": "address"
        }
      ],
      "name": "getToolsCollection",
      "outputs": [
        {
          "components": [
            {
              "internalType": "uint256",
              "name": "tokenID",
              "type": "uint256"
            },
            {
              "internalType": "uint256",
              "name": "serialID",
              "type": "uint256"
            },
            {
              "internalType": "string",
              "name": "title",
              "type": "string"
            },
            {
              "internalType": "string",
              "name": "description",
              "type": "string"
            },
            {
              "internalType": "string",
              "name": "tokenURI",
              "type": "string"
            },
            {
              "internalType": "bool",
              "name": "isAvailable",
              "type": "bool"
            }
          ],
          "internalType": "struct Utils.Tool[]",
          "name": "",
          "type": "tuple[]"
        }
      ],
      "stateMutability": "view",
      "type": "function",
      "constant": true
    },
    {
      "inputs": [
        {
          "internalType": "address",
          "name": "_owner",
          "type": "address"
        }
      ],
      "name": "getToolsCollectionAddress",
      "outputs": [
        {
          "internalType": "address",
          "name": "",
          "type": "address"
        }
      ],
      "stateMutability": "view",
      "type": "function",
      "constant": true
    },
    {
      "inputs": [
        {
          "internalType": "address",
          "name": "_owner",
          "type": "address"
        }
      ],
      "name": "getRentalsByOwner",
      "outputs": [
        {
          "components": [
            {
              "internalType": "uint256",
              "name": "rentalID",
              "type": "uint256"
            },
            {
              "internalType": "uint64",
              "name": "dayPrice",
              "type": "uint64"
            },
            {
              "internalType": "uint64",
              "name": "caution",
              "type": "uint64"
            },
            {
              "internalType": "uint64",
              "name": "start",
              "type": "uint64"
            },
            {
              "internalType": "uint64",
              "name": "end",
              "type": "uint64"
            },
            {
              "internalType": "enum IAnyRental.RentalStatus",
              "name": "rentalStatus",
              "type": "uint8"
            },
            {
              "components": [
                {
                  "internalType": "bool",
                  "name": "isCautionDeposed",
                  "type": "bool"
                },
                {
                  "internalType": "bool",
                  "name": "isNFTDelegated",
                  "type": "bool"
                },
                {
                  "internalType": "bool",
                  "name": "isToolReturned",
                  "type": "bool"
                },
                {
                  "internalType": "bool",
                  "name": "isReturnValidated",
                  "type": "bool"
                },
                {
                  "internalType": "bool",
                  "name": "isDispute",
                  "type": "bool"
                },
                {
                  "internalType": "bool",
                  "name": "isDisputeConfirmed",
                  "type": "bool"
                },
                {
                  "internalType": "bool",
                  "name": "isRedeemed",
                  "type": "bool"
                }
              ],
              "internalType": "struct IAnyRental.RentalData",
              "name": "rentalData",
              "type": "tuple"
            },
            {
              "internalType": "address",
              "name": "renter",
              "type": "address"
            },
            {
              "components": [
                {
                  "internalType": "address",
                  "name": "collection",
                  "type": "address"
                },
                {
                  "internalType": "address",
                  "name": "owner",
                  "type": "address"
                }
              ],
              "internalType": "struct IAnyRental.CollectionNFT",
              "name": "collection",
              "type": "tuple"
            },
            {
              "internalType": "uint256",
              "name": "tokenID",
              "type": "uint256"
            },
            {
              "internalType": "string",
              "name": "tokenURI",
              "type": "string"
            }
          ],
          "internalType": "struct IAnyRental.Rental[]",
          "name": "",
          "type": "tuple[]"
        }
      ],
      "stateMutability": "view",
      "type": "function",
      "constant": true
    },
    {
      "inputs": [
        {
          "internalType": "address",
          "name": "_owner",
          "type": "address"
        },
        {
          "internalType": "uint256",
          "name": "_rentalId",
          "type": "uint256"
        }
      ],
      "name": "getRentalByOwnerAddressAndRentalID",
      "outputs": [
        {
          "components": [
            {
              "internalType": "uint256",
              "name": "rentalID",
              "type": "uint256"
            },
            {
              "internalType": "uint64",
              "name": "dayPrice",
              "type": "uint64"
            },
            {
              "internalType": "uint64",
              "name": "caution",
              "type": "uint64"
            },
            {
              "internalType": "uint64",
              "name": "start",
              "type": "uint64"
            },
            {
              "internalType": "uint64",
              "name": "end",
              "type": "uint64"
            },
            {
              "internalType": "enum IAnyRental.RentalStatus",
              "name": "rentalStatus",
              "type": "uint8"
            },
            {
              "components": [
                {
                  "internalType": "bool",
                  "name": "isCautionDeposed",
                  "type": "bool"
                },
                {
                  "internalType": "bool",
                  "name": "isNFTDelegated",
                  "type": "bool"
                },
                {
                  "internalType": "bool",
                  "name": "isToolReturned",
                  "type": "bool"
                },
                {
                  "internalType": "bool",
                  "name": "isReturnValidated",
                  "type": "bool"
                },
                {
                  "internalType": "bool",
                  "name": "isDispute",
                  "type": "bool"
                },
                {
                  "internalType": "bool",
                  "name": "isDisputeConfirmed",
                  "type": "bool"
                },
                {
                  "internalType": "bool",
                  "name": "isRedeemed",
                  "type": "bool"
                }
              ],
              "internalType": "struct IAnyRental.RentalData",
              "name": "rentalData",
              "type": "tuple"
            },
            {
              "internalType": "address",
              "name": "renter",
              "type": "address"
            },
            {
              "components": [
                {
                  "internalType": "address",
                  "name": "collection",
                  "type": "address"
                },
                {
                  "internalType": "address",
                  "name": "owner",
                  "type": "address"
                }
              ],
              "internalType": "struct IAnyRental.CollectionNFT",
              "name": "collection",
              "type": "tuple"
            },
            {
              "internalType": "uint256",
              "name": "tokenID",
              "type": "uint256"
            },
            {
              "internalType": "string",
              "name": "tokenURI",
              "type": "string"
            }
          ],
          "internalType": "struct IAnyRental.Rental",
          "name": "",
          "type": "tuple"
        }
      ],
      "stateMutability": "view",
      "type": "function",
      "constant": true
    },
    {
      "inputs": [
        {
          "internalType": "address",
          "name": "_renter",
          "type": "address"
        }
      ],
      "name": "isAddressOwner",
      "outputs": [
        {
          "internalType": "bool",
          "name": "",
          "type": "bool"
        }
      ],
      "stateMutability": "view",
      "type": "function",
      "constant": true
    },
    {
      "inputs": [
        {
          "internalType": "address",
          "name": "_renter",
          "type": "address"
        }
      ],
      "name": "isAddressRenter",
      "outputs": [
        {
          "internalType": "bool",
          "name": "",
          "type": "bool"
        }
      ],
      "stateMutability": "view",
      "type": "function",
      "constant": true
    },
    {
      "inputs": [
        {
          "internalType": "string",
          "name": "_collectionName",
          "type": "string"
        },
        {
          "internalType": "string",
          "name": "_collectionSymbol",
          "type": "string"
        }
      ],
      "name": "createCollection",
      "outputs": [
        {
          "internalType": "address",
          "name": "",
          "type": "address"
        }
      ],
      "stateMutability": "nonpayable",
      "type": "function"
    },
    {
      "inputs": [],
      "name": "deleteCollection",
      "outputs": [],
      "stateMutability": "nonpayable",
      "type": "function"
    },
    {
      "inputs": [
        {
          "internalType": "string",
          "name": "_tokenURI",
          "type": "string"
        },
        {
          "internalType": "uint256",
          "name": "_serialId",
          "type": "uint256"
        },
        {
          "internalType": "string",
          "name": "_title",
          "type": "string"
        },
        {
          "internalType": "string",
          "name": "_description",
          "type": "string"
        }
      ],
      "name": "addToolToCollection",
      "outputs": [
        {
          "internalType": "uint256",
          "name": "tokenId",
          "type": "uint256"
        }
      ],
      "stateMutability": "nonpayable",
      "type": "function"
    },
    {
      "inputs": [
        {
          "internalType": "uint256",
          "name": "_tokenId",
          "type": "uint256"
        },
        {
          "internalType": "address",
          "name": "_to",
          "type": "address"
        },
        {
          "internalType": "uint64",
          "name": "_expires",
          "type": "uint64"
        }
      ],
      "name": "delegateNFT",
      "outputs": [],
      "stateMutability": "nonpayable",
      "type": "function"
    },
    {
      "inputs": [
        {
          "internalType": "uint64",
          "name": "_dayPrice",
          "type": "uint64"
        },
        {
          "internalType": "uint64",
          "name": "_caution",
          "type": "uint64"
        },
        {
          "internalType": "uint256",
          "name": "_tokenID",
          "type": "uint256"
        }
      ],
      "name": "addToolToRentals",
      "outputs": [],
      "stateMutability": "nonpayable",
      "type": "function"
    },
    {
      "inputs": [
        {
          "internalType": "uint256",
          "name": "_rentalID",
          "type": "uint256"
        },
        {
          "internalType": "uint64",
          "name": "_dayPrice",
          "type": "uint64"
        },
        {
          "internalType": "uint64",
          "name": "_caution",
          "type": "uint64"
        }
      ],
      "name": "updateToolIntoRentals",
      "outputs": [],
      "stateMutability": "nonpayable",
      "type": "function"
    },
    {
      "inputs": [
        {
          "internalType": "uint256",
          "name": "_rentalID",
          "type": "uint256"
        }
      ],
      "name": "deleteToolIntoRentals",
      "outputs": [],
      "stateMutability": "nonpayable",
      "type": "function"
    },
    {
      "inputs": [
        {
          "internalType": "address",
          "name": "_owner",
          "type": "address"
        },
        {
          "internalType": "uint256",
          "name": "_rentalID",
          "type": "uint256"
        },
        {
          "internalType": "uint64",
          "name": "_begin",
          "type": "uint64"
        },
        {
          "internalType": "uint64",
          "name": "_end",
          "type": "uint64"
        }
      ],
      "name": "sendPaiementForRental",
      "outputs": [],
      "stateMutability": "nonpayable",
      "type": "function"
    },
    {
      "inputs": [
        {
          "internalType": "uint256",
          "name": "_rentalID",
          "type": "uint256"
        },
        {
          "internalType": "uint256",
          "name": "_tokenID",
          "type": "uint256"
        }
      ],
      "name": "validateNFTDelegationForRental",
      "outputs": [],
      "stateMutability": "nonpayable",
      "type": "function"
    },
    {
      "inputs": [
        {
          "internalType": "address",
          "name": "_renter",
          "type": "address"
        },
        {
          "internalType": "uint256",
          "name": "_rentalID",
          "type": "uint256"
        }
      ],
      "name": "validateNFTandToolReception",
      "outputs": [],
      "stateMutability": "nonpayable",
      "type": "function"
    },
    {
      "inputs": [
        {
          "internalType": "address",
          "name": "_renter",
          "type": "address"
        },
        {
          "internalType": "uint256",
          "name": "_rentalID",
          "type": "uint256"
        }
      ],
      "name": "giveBackToolAfterRental",
      "outputs": [],
      "stateMutability": "nonpayable",
      "type": "function"
    },
    {
      "inputs": [
        {
          "internalType": "uint256",
          "name": "_rentalID",
          "type": "uint256"
        }
      ],
      "name": "validateReturnToolAfterRental",
      "outputs": [],
      "stateMutability": "nonpayable",
      "type": "function"
    },
    {
      "inputs": [
        {
          "internalType": "uint256",
          "name": "_rentalID",
          "type": "uint256"
        },
        {
          "internalType": "string",
          "name": "message",
          "type": "string"
        }
      ],
      "name": "refuseReturnToolAfterRental",
      "outputs": [],
      "stateMutability": "nonpayable",
      "type": "function"
    },
    {
      "inputs": [
        {
          "internalType": "address",
          "name": "_renter",
          "type": "address"
        },
        {
          "internalType": "uint256",
          "name": "_rentalID",
          "type": "uint256"
        },
        {
          "internalType": "string",
          "name": "message",
          "type": "string"
        }
      ],
      "name": "confirmDisputeAfterRental",
      "outputs": [],
      "stateMutability": "nonpayable",
      "type": "function"
    },
    {
      "inputs": [
        {
          "internalType": "address",
          "name": "_renter",
          "type": "address"
        },
        {
          "internalType": "uint256",
          "name": "_rentalID",
          "type": "uint256"
        }
      ],
      "name": "redeemPaymentForRental",
      "outputs": [],
      "stateMutability": "nonpayable",
      "type": "function"
    }
  ],
  "bytecode": "0x608060405260146007553480156200001657600080fd5b5060405162004464380380620044648339810160408190526200003991620000ba565b62000044336200006a565b600180546001600160a01b0319166001600160a01b0392909216919091179055620000ec565b600080546001600160a01b038381166001600160a01b0319831681178455604051919092169283917f8be0079c531659141344cd1fd0a4f28419497f9722a3daafe3b4186f6b6457e09190a35050565b600060208284031215620000cd57600080fd5b81516001600160a01b0381168114620000e557600080fd5b9392505050565b61436880620000fc6000396000f3fe608060405234801561001057600080fd5b50600436106101c45760003560e01c80638da5cb5b116100f9578063c45a015511610097578063d5672deb11610071578063d5672deb14610416578063e12ab21614610429578063f2fde38b1461043c578063f5df00541461044f57600080fd5b8063c45a0155146103cc578063cfa54ca8146103df578063d50ca7631461040d57600080fd5b8063a8c8018e116100d3578063a8c8018e14610373578063b5139f3414610386578063c135426a146103a6578063c222ba0a146103b957600080fd5b80638da5cb5b1461033c578063922a3bec1461034d5780639d76b1bc1461036057600080fd5b80633e8d19fe1161016657806359087a941161014057806359087a94146102e4578063715018a6146102f75780637f7fcf11146102ff57806384fb41361461031257600080fd5b80633e8d19fe1461029e5780634cd4e3e0146102be5780634ce7979e146102d157600080fd5b80631f728a1a116101a25780631f728a1a146102165780632c62afc1146102295780633511de411461024a5780633e4c89e91461028b57600080fd5b806301ee4e2f146101c9578063176b9b75146101de5780631ebf7c501461020e575b600080fd5b6101dc6101d7366004613371565b61046f565b005b6101f16101ec366004613488565b6105cf565b6040516001600160a01b0390911681526020015b60405180910390f35b6101dc610844565b6101dc6102243660046134eb565b610a95565b61023c610237366004613504565b610f30565b604051908152602001610205565b61027b6102583660046135c6565b6001600160a01b0390811660009081526005602052604090206001015416151590565b6040519015158152602001610205565b6101dc610299366004613606565b61137a565b6102b16102ac3660046135c6565b6114fc565b6040516102059190613819565b6101dc6102cc3660046134eb565b61178d565b6101dc6102df36600461387b565b611905565b6101dc6102f23660046138d3565b611af5565b6101dc611c7f565b6101dc61030d366004613371565b611c93565b610325610320366004613371565b611e3c565b6040516102059b9a9998979695949392919061390f565b6000546001600160a01b03166101f1565b6101dc61035b3660046139ab565b611fef565b6101dc61036e3660046139e7565b6122ad565b6101f16103813660046135c6565b6125aa565b610399610394366004613371565b612605565b6040516102059190613a36565b6101dc6103b4366004613a49565b6128fc565b6101dc6103c7366004613371565b612b21565b6001546101f1906001600160a01b031681565b61027b6103ed3660046135c6565b6001600160a01b0390811660009081526003602052604090205416151590565b61023c60075481565b6101dc610424366004613a6b565b612cb9565b6101dc6104373660046134eb565b612eef565b6101dc61044a3660046135c6565b612efc565b61046261045d3660046135c6565b612f75565b6040516102059190613a90565b8061047960025490565b10156104a05760405162461bcd60e51b815260040161049790613b54565b60405180910390fd5b60006104ac8383613035565b6001600160a01b038416600090815260066020526040812080549293509091839081106104db576104db613b81565b906000526020600020906009020190508281600001541461050e5760405162461bcd60e51b815260040161049790613b97565b6005600282015460ff16600881111561052957610529613644565b146105465760405162461bcd60e51b815260040161049790613bce565b60028101805460ff19166008179055600381018054600160301b66ff0000000000ff199091161790556006810154600582015460078301546040517f3439199983bc67c84242710ffe8067d1454074df03cf118730de50fc5b6eb9bb936105c1936001600160a01b0391821693339392909116914290613c05565b60405180910390a150505050565b60003361061a5760405162461bcd60e51b81526020600482015260196024820152781859191c995cdcc81e995c9bc81a5cc81b9bdd081d985b1a59603a1b6044820152606401610497565b336000908152600560205260409020546001600160a01b0316156106915760405162461bcd60e51b815260206004820152602860248201527f596f7520616c72656164792068617665206372656174656420796f757220636f604482015267363632b1ba34b7b760c11b6064820152608401610497565b604080516020808201909252600090528351908401207fc5d2460186f7233c927e7db2dcc703c0e500b653ca82273b7bfad8045d85a470036107155760405162461bcd60e51b815260206004820152601e60248201527f636f6c6c656374696f6e206e616d652063616e277420626520656d70747900006044820152606401610497565b600154604051633cccf6e960e11b81526000916001600160a01b031690637999edd29061074a90339088908890600401613c39565b6020604051808303816000875af1158015610769573d6000803e3d6000fd5b505050506040513d601f19601f8201168201806040525081019061078d9190613c79565b3360008181526005602052604080822080546001600160a01b0386166001600160a01b0319918216178255600191820180548216861790556004805492830181559093527f8a35acfbc15ff81a39ae7d344fd709f28e8600b4aa8c65c6b64bfe7fe36bd19b0180549092168317909155519192507f88d25790273b8c367ee270bf60b22ad4aada95ecda75d3d82710534a73ce277a916108339190879085904290613c96565b60405180910390a190505b92915050565b336000818152600560205260409020600101546001600160a01b03161461087d5760405162461bcd60e51b815260040161049790613cca565b336108c65760405162461bcd60e51b81526020600482015260196024820152781859191c995cdcc81e995c9bc81a5cc81b9bdd081d985b1a59603a1b6044820152606401610497565b336000908152600560205260409020546001600160a01b03166108fb5760405162461bcd60e51b815260040161049790613d11565b336000908152600560205260408120546001600160a01b031690805b60045481101561097257336001600160a01b03166004828154811061093e5761093e613b81565b6000918252602090912001546001600160a01b03160361096057809150610972565b8061096a81613d5e565b915050610917565b506004805461098390600190613d77565b8154811061099357610993613b81565b600091825260209091200154600480546001600160a01b0390921691839081106109bf576109bf613b81565b9060005260206000200160006101000a8154816001600160a01b0302191690836001600160a01b0316021790555060048054806109fe576109fe613d8a565b60008281526020808220600019908401810180546001600160a01b031990811690915593019093553380825260058452604091829020805484168155600101805490931690925580519182526001600160a01b0385169282019290925242918101919091527fce084e945d8eacece908740a7dbf5178848ef8331e87941732f09c5c964b6c4c906060015b60405180910390a15050565b336000818152600560205260409020600101546001600160a01b031614610ace5760405162461bcd60e51b815260040161049790613cca565b336000908152600560205260409020546001600160a01b0316610b035760405162461bcd60e51b815260040161049790613d11565b6007543360009081526006602052604090205410610b335760405162461bcd60e51b815260040161049790613da0565b6000805b33600090815260066020526040902054811015610ba357336000908152600660205260409020805484919083908110610b7257610b72613b81565b90600052602060002090600902016000015403610b9157809150610ba3565b80610b9b81613d5e565b915050610b37565b503360009081526006602052604090208054610bc190600190613d77565b81548110610bd157610bd1613b81565b906000526020600020906009020160066000336001600160a01b03166001600160a01b031681526020019081526020016000208281548110610c1557610c15613b81565b60009182526020909120825460099092020190815560018083018054828401805467ffffffffffffffff1981166001600160401b0393841690811783558454600160401b908190048516026001600160801b031990921617178082558354600160801b9081900484160267ffffffffffffffff60801b198216811783559354600160c01b908190049093169092026001600160c01b039093166001600160801b0390921691909117919091179055600280840154908301805460ff90921692909160ff191690836008811115610ced57610ced613644565b021790555060038281018054918301805460ff938416151560ff19821681178355835461010090819004861615150261ff001990911661ffff19909216919091171780825582546201000090819004851615150262ff0000198216811783558354630100000090819004861615150263ff0000001990911663ffff0000199092169190911717808255825464010000000090819004851615150264ff00000000198216811783558354600160281b90819004861615150260ff60281b1990911665ffff000000001990921691909117178082559154600160301b90819004909316151590920260ff60301b1990911617905560048083015490820180546001600160a01b03199081166001600160a01b0393841617909155600580850154908401805483169184169190911790556006808501549084018054909216921691909117905560078083015490820155600880820190610e4d90840182613e5a565b5050336000908152600660205260409020805490915080610e7057610e70613d8a565b6000828152602081206009600019909301928302018181556001810182905560028101805460ff1916905560038101805466ffffffffffffff191690556004810180546001600160a01b03199081169091556005820180548216905560068201805490911690556007810182905590610eec6008830182613262565b50509055604080513381526020810184905242918101919091527ff46058662129ffc1407e831e43472941c33828326b7a935de2a9f60925baec6790606001610a89565b3360008181526005602052604081206001015490916001600160a01b0390911614610f6d5760405162461bcd60e51b815260040161049790613cca565b336000908152600560205260409020546001600160a01b0316610fa25760405162461bcd60e51b815260040161049790613d11565b6007543360009081526006602052604090205410610fd25760405162461bcd60e51b815260040161049790613da0565b33600081815260056020526040808220549051635448142b60e11b81526001600160a01b0390911692839163a89028569161101a918c918c918c918c918c9190600401613f3a565b6020604051808303816000875af1158015611039573d6000803e3d6000fd5b505050506040513d601f19601f8201168201806040525081019061105d9190613fae565b9050600061106a60025490565b905061107461329c565b604080518082019091526000808252602082015233600081815260056020818152604080842080546001600160a01b0390811688529590945291815260019092015490921683820152848452610100840183905261012084018690528151601f8d018290048202810182019092528b82528c908c9081908401838280828437600092019190915250505050610140830152611113600280546001019055565b33600090815260066020908152604080832080546001818101835591855293839020865160099095020193845591850151838301805492870151606088015160808901516001600160401b03908116600160c01b026001600160c01b03928216600160801b02929092166001600160801b03938216600160401b026001600160801b0319909716919095161794909417169190911791909117905560a084015160028301805486949360ff19909116908360088111156111d5576111d5613644565b021790555060c082810151805160038401805460208085015160408601516060870151608088015160a0890151989099015161ffff1990951696151561ff0019169690961761010092151583021763ffff00001916620100009115159190910263ff0000001916176301000000951515959095029490941765ffff0000000019166401000000009615159690960260ff60281b191695909517600160281b941515949094029390931760ff60301b1916600160301b931515939093029290921790915560e08401516004840180546001600160a01b03199081166001600160a01b039384161790915591850151805160058601805485169184169190911790559092015160068401805490921692169190911790556101208201516007820155610140820151600882019061130a9082613fc7565b5050336000818152600560209081526040918290205482519384526001600160a01b03169083015281018690524260608201527fe029e29fa8a3bb786f69f9c8700882d80138e278db591e45bd8bbfa22682bd84915060800160405180910390a150919998505050505050505050565b336000818152600560205260409020600101546001600160a01b0316146113b35760405162461bcd60e51b815260040161049790613cca565b336000908152600560205260409020546001600160a01b03166113e85760405162461bcd60e51b815260040161049790613d11565b336000818152600560205260409020600101546001600160a01b0316146114215760405162461bcd60e51b815260040161049790613cca565b33600081815260056020526040908190205490516333b57b5760e21b8152600481018690526001600160a01b0385811660248301526001600160401b03851660448301526064820193909352911690819063ced5ed5c90608401600060405180830381600087803b15801561149557600080fd5b505af11580156114a9573d6000803e3d6000fd5b505033600081815260056020526040908190205490517f38ca09c302caf0446908a1a3f31a72897e907fc242c9a7990d7c0937ac128b1494506105c1935087916001600160a01b03169089904290613c05565b6001600160a01b038082166000908152600560205260409020546060918391166115385760405162461bcd60e51b815260040161049790614080565b6001600160a01b038316600090815260066020908152604080832080548251818502810185019093528083529193909284015b828210156117805760008481526020908190206040805161016081018252600986029092018054835260018101546001600160401b0380821695850195909552600160401b8104851692840192909252600160801b820484166060840152600160c01b9091049092166080820152600282015490919060a083019060ff1660088111156115fa576115fa613644565b600881111561160b5761160b613644565b81526040805160e081018252600384015460ff8082161515835261010082048116151560208481019190915262010000830482161515848601526301000000830482161515606080860191909152640100000000840483161515608080870191909152600160281b85048416151560a080880191909152600160301b909504909316151560c08601528187019490945260048701546001600160a01b0390811686880152855180870190965260058801548116865260068801541690850152918401929092526007840154908301526008830180549190920191906116ef90613dd7565b80601f016020809104026020016040519081016040528092919081815260200182805461171b90613dd7565b80156117685780601f1061173d57610100808354040283529160200191611768565b820191906000526020600020905b81548152906001019060200180831161174b57829003601f168201915b5050505050815250508152602001906001019061156b565b5050505091505b50919050565b336000818152600560205260409020546001600160a01b03166117c25760405162461bcd60e51b815260040161049790614080565b816117cc60025490565b10156117ea5760405162461bcd60e51b815260040161049790613b54565b60006117f63384613035565b336000908152600660205260408120805492935090918390811061181c5761181c613b81565b906000526020600020906009020190508381600001541461184f5760405162461bcd60e51b815260040161049790613b97565b6004600282015460ff16600881111561186a5761186a613644565b146118875760405162461bcd60e51b815260040161049790613bce565b600281018054600560ff19909116811790915560038201805463ff00000019166301000000179055600682015460048301549183015460078401546040517f52d8c02cb4414644b59c67b225228ebebf995dbae27daeb68c1b08db68a57769946105c1946001600160a01b0390811694918116939116914290613c05565b6001600160a01b0380841660009081526005602052604090205484911661193e5760405162461bcd60e51b815260040161049790614080565b8261194860025490565b10156119665760405162461bcd60e51b815260040161049790613b54565b60006119728585613035565b6001600160a01b038616600090815260066020526040812080549293509091839081106119a1576119a1613b81565b90600052602060002090600902019050848160000154146119d45760405162461bcd60e51b815260040161049790613b97565b60048101546001600160a01b03163314611a435760405162461bcd60e51b815260206004820152602a60248201527f50726f626c656d206f6e207468652072656e74657220616e6420746872206f6e604482015269652077686f2061736b7360b01b6064820152608401610497565b6006600282015460ff166008811115611a5e57611a5e613644565b14611a7b5760405162461bcd60e51b815260040161049790613bce565b60038101805460ff60281b1916600160281b1790556006810154600582015460078301546040517fe88351cb5c14d4759ce2e8ab2b155c3123aa3f6d075a5093ec397c69531316e993611ae5936001600160a01b039182169333939190921691908a9042906140ae565b60405180910390a1505050505050565b336000818152600560205260409020546001600160a01b0316611b2a5760405162461bcd60e51b815260040161049790614080565b82611b3460025490565b1015611b525760405162461bcd60e51b815260040161049790613b54565b6000611b5e3385613035565b3360009081526006602052604081208054929350909183908110611b8457611b84613b81565b9060005260206000209060090201905084816000015414611bb75760405162461bcd60e51b815260040161049790613b97565b6004600282015460ff166008811115611bd257611bd2613644565b14611bef5760405162461bcd60e51b815260040161049790613bce565b600281018054600660ff19909116811790915560038201805464ff00ff000019166401000100001790558101546004820154600583015460078401546040517fa0468e9e1b4d1e35562d8986f9ffabe60d38f204b1b21aca613b454ea7d968d494611c70946001600160a01b0391821694908216939116918a9042906140ae565b60405180910390a15050505050565b611c876130fb565b611c916000613155565b565b6001600160a01b03808316600090815260056020526040902054839116611ccc5760405162461bcd60e51b815260040161049790614080565b81611cd660025490565b1015611cf45760405162461bcd60e51b815260040161049790613b54565b6000611d008484613035565b6001600160a01b03851660009081526006602052604081208054929350909183908110611d2f57611d2f613b81565b9060005260206000209060090201905083816000015414611d625760405162461bcd60e51b815260040161049790613b97565b60048101546001600160a01b03163314611d8e5760405162461bcd60e51b8152600401610497906140fc565b6003600282015460ff166008811115611da957611da9613644565b14611dc65760405162461bcd60e51b815260040161049790613bce565b60028101805460ff191660041790556003810180546201000062ff0000199091161790556006810154600582015460078301546040517f148ece29b6c432d68b486ce63886d31120fe9c4ec4cf0dbed28a0944ff693df493611c70936001600160a01b0391821693339392909116914290613c05565b60066020528160005260406000208181548110611e5857600080fd5b60009182526020918290206009909102018054600182015460028301546040805160e081018252600386015460ff81811615158352610100820481161515838a01526201000082048116151583850152630100000082048116151560608401526401000000008204811615156080840152600160281b82048116151560a0840152600160301b9091048116151560c08301526004870154835180850190945260058801546001600160a01b03908116855260068901548116998501999099526007880154600889018054989c506001600160401b038089169c50600160401b890481169b600160801b8a0482169b600160c01b909a04909116999490971697949690921694939092909190611f6c90613dd7565b80601f0160208091040260200160405190810160405280929190818152602001828054611f9890613dd7565b8015611fe55780601f10611fba57610100808354040283529160200191611fe5565b820191906000526020600020905b815481529060010190602001808311611fc857829003601f168201915b505050505090508b565b336000818152600560205260409020600101546001600160a01b0316146120285760405162461bcd60e51b815260040161049790613cca565b336000908152600560205260409020546001600160a01b031661205d5760405162461bcd60e51b815260040161049790613d11565b600754336000908152600660205260409020541061208d5760405162461bcd60e51b815260040161049790613da0565b6000836001600160401b0316116120b65760405162461bcd60e51b815260040161049790614146565b6000826001600160401b0316116120df5760405162461bcd60e51b815260040161049790614146565b6040805160e081018252600080825260208201819052918101829052606081018290526080810182905260a0810182905260c081018290529061212233846131a5565b336000908152600660205260408120805492935090918390811061214857612148613b81565b600091825260208220600160099092020181810180546001600160401b038a8116600160401b026001600160801b0319909216908c16171790556002810180549194509160ff199091169083021790555082516003820180546020860151604080880151606089015160808a015160a08b015160c08c01511515600160301b0260ff60301b19911515600160281b0260ff60281b19931515640100000000029390931665ffff000000001994151563010000000263ff0000001996151562010000029690961663ffff0000199815156101000261ff00199c15159c909c1661ffff19909a16999099179a909a17969096169690961792909217169590951794909417919091161790558154600783015491517f42e0abb0754adf35b0f888ae1d34ed4fcb1176be32e695bb435d171f7abfcdb692611ae592339290919042906001600160a01b0394909416845260208401929092526040830152606082015260800190565b6001600160a01b038085166000908152600560205260409020548591166122e65760405162461bcd60e51b815260040161049790614080565b836122f060025490565b101561230e5760405162461bcd60e51b815260040161049790613b54565b6000836001600160401b0316116123675760405162461bcd60e51b815260206004820152601a60248201527f626567696e206d75737420626520612076616c696420646174650000000000006044820152606401610497565b6000826001600160401b0316116123c05760405162461bcd60e51b815260206004820152601860248201527f656e64206d75737420626520612076616c6964206461746500000000000000006044820152606401610497565b816001600160401b0316836001600160401b03161061242d5760405162461bcd60e51b815260206004820152602360248201527f456e64206f662072656e74616c2063616e2774206265206265666f726520626560448201526233b4b760e91b6064820152608401610497565b60006124398686613035565b6001600160a01b0387166000908152600660205260408120805492935090918390811061246857612468613b81565b906000526020600020906009020190508581600001541461249b5760405162461bcd60e51b815260040161049790613b97565b6000600282015460ff1660088111156124b6576124b6613644565b146124d35760405162461bcd60e51b815260040161049790613bce565b600180820180546001600160401b03878116600160c01b026001600160c01b03918a16600160801b02919091166001600160801b039092169190911717905560028201805460ff19168280021790555060038101805460ff191660011790556004810180546001600160a01b031916339081179091556006820154600583015460078401546040517f82c81679d53af0a29474e2aa759267691f702b26b09b0ebac62d0394c9eaadb094612599946001600160a01b039081169491939116914290613c05565b60405180910390a150505050505050565b6001600160a01b0380821660009081526005602052604081205490918391166125e55760405162461bcd60e51b815260040161049790614080565b50506001600160a01b039081166000908152600560205260409020541690565b61260d61329c565b6001600160a01b038084166000908152600560205260409020548491166126465760405162461bcd60e51b815260040161049790614080565b6000805b6001600160a01b0386166000908152600660205260409020548110156126c8576001600160a01b038616600090815260066020526040902080548691908390811061269757612697613b81565b906000526020600020906009020160000154036126b6578091506126c8565b806126c081613d5e565b91505061264a565b506001600160a01b03851660009081526006602052604090208054829081106126f3576126f3613b81565b6000918252602091829020604080516101608101825260099093029091018054835260018101546001600160401b0380821695850195909552600160401b8104851692840192909252600160801b820484166060840152600160c01b9091049092166080820152600282015490919060a083019060ff16600881111561277b5761277b613644565b600881111561278c5761278c613644565b81526040805160e081018252600384015460ff8082161515835261010082048116151560208481019190915262010000830482161515848601526301000000830482161515606080860191909152640100000000840483161515608080870191909152600160281b85048416151560a080880191909152600160301b909504909316151560c08601528187019490945260048701546001600160a01b03908116868801528551808701909652600588015481168652600688015416908501529184019290925260078401549083015260088301805491909201919061287090613dd7565b80601f016020809104026020016040519081016040528092919081815260200182805461289c90613dd7565b80156128e95780601f106128be576101008083540402835291602001916128e9565b820191906000526020600020905b8154815290600101906020018083116128cc57829003601f168201915b5050505050815250509250505092915050565b336000818152600560205260409020546001600160a01b03166129315760405162461bcd60e51b815260040161049790614080565b8261293b60025490565b10156129595760405162461bcd60e51b815260040161049790613b54565b600082116129a25760405162461bcd60e51b81526020600482015260166024820152751d1bdad95b881251081b5d5cdd081899481d985b1a5960521b6044820152606401610497565b60006129ae3385613035565b33600090815260066020526040812080549293509091839081106129d4576129d4613b81565b9060005260206000209060090201905084816000015414612a075760405162461bcd60e51b815260040161049790613b97565b83816007015414612a6e5760405162461bcd60e51b815260206004820152602b60248201527f4572726f722e2e2e2074686520746f6b656e49642069736e277420746865206360448201526a37b93932b1ba1037b7329760a91b6064820152608401610497565b6001600282015460ff166008811115612a8957612a89613644565b14612aa65760405162461bcd60e51b815260040161049790613bce565b6002818101805460ff1916600183021790555060038101805461ff00191661010017905560068101546004820154600583015460078401546040517f398075ddfcb370e855cd3a01f6ac8b404f3e1899de6c406baf4148098c9f738494611c70946001600160a01b0391821694908216939116914290613c05565b6001600160a01b03808316600090815260056020526040902054839116612b5a5760405162461bcd60e51b815260040161049790614080565b81612b6460025490565b1015612b825760405162461bcd60e51b815260040161049790613b54565b6000612b8e8484613035565b6001600160a01b03851660009081526006602052604081208054929350909183908110612bbd57612bbd613b81565b9060005260206000209060090201905083816000015414612bf05760405162461bcd60e51b815260040161049790613b97565b60048101546001600160a01b03163314612c1c5760405162461bcd60e51b8152600401610497906140fc565b60028082015460ff166008811115612c3657612c36613644565b14612c535760405162461bcd60e51b815260040161049790613bce565b60028101805460ff1916600317905560068101546004820154600583015460078401546040517f38ca09c302caf0446908a1a3f31a72897e907fc242c9a7990d7c0937ac128b1494611c70946001600160a01b0391821694908216939116914290613c05565b336000818152600560205260409020600101546001600160a01b031614612cf25760405162461bcd60e51b815260040161049790613cca565b336000908152600560205260409020546001600160a01b0316612d275760405162461bcd60e51b815260040161049790613d11565b6000826001600160401b031611612d505760405162461bcd60e51b815260040161049790614146565b6000816001600160401b031611612d795760405162461bcd60e51b815260040161049790614146565b60005b33600090815260066020526040902054811015612eaa57336000908152600660205260409020805485919083908110612db757612db7613b81565b90600052602060002090600902016000015403612e9857336000908152600660205260409020805484919083908110612df257612df2613b81565b906000526020600020906009020160010160006101000a8154816001600160401b0302191690836001600160401b031602179055508160066000336001600160a01b03166001600160a01b031681526020019081526020016000208281548110612e5e57612e5e613b81565b906000526020600020906009020160010160086101000a8154816001600160401b0302191690836001600160401b03160217905550612eaa565b80612ea281613d5e565b915050612d7c565b506040805133815260208101859052428183015290517f01cc60dde87167776063bf9d5243d54a5f50296291346123485ec0eaeffb17f49181900360600190a1505050565b612ef76130fb565b600755565b612f046130fb565b6001600160a01b038116612f695760405162461bcd60e51b815260206004820152602660248201527f4f776e61626c653a206e6577206f776e657220697320746865207a65726f206160448201526564647265737360d01b6064820152608401610497565b612f7281613155565b50565b6001600160a01b03808216600090815260056020526040902054606091839116612fb15760405162461bcd60e51b815260040161049790614080565b6001600160a01b03808416600090815260056020526040808220548151637c455b8b60e01b815291519316928392637c455b8b92600480820193918290030181865afa158015613005573d6000803e3d6000fd5b505050506040513d6000823e601f3d908101601f1916820160405261302d91908101906141c7565b949350505050565b6001600160a01b0380831660009081526005602052604081205490918491166130705760405162461bcd60e51b815260040161049790614080565b6000805b6001600160a01b0386166000908152600660205260409020548110156130f2576001600160a01b03861660009081526006602052604090208054869190839081106130c1576130c1613b81565b906000526020600020906009020160000154036130e0578091506130f2565b806130ea81613d5e565b915050613074565b50949350505050565b6000546001600160a01b03163314611c915760405162461bcd60e51b815260206004820181905260248201527f4f776e61626c653a2063616c6c6572206973206e6f7420746865206f776e65726044820152606401610497565b600080546001600160a01b038381166001600160a01b0319831681178455604051919092169283917f8be0079c531659141344cd1fd0a4f28419497f9722a3daafe3b4186f6b6457e09190a35050565b6001600160a01b0380831660009081526005602052604081205490918491166131e05760405162461bcd60e51b815260040161049790614080565b6000805b6001600160a01b0386166000908152600660205260409020548110156130f2576001600160a01b038616600090815260066020526040902080548691908390811061323157613231613b81565b90600052602060002090600902016007015403613250578091506130f2565b8061325a81613d5e565b9150506131e4565b50805461326e90613dd7565b6000825580601f1061327e575050565b601f016020900490600052602060002090810190612f729190613343565b604080516101608101825260008082526020820181905291810182905260608101829052608081018290529060a082019081526040805160e08101825260008082526020828101829052928201819052606082018190526080820181905260a0820181905260c082015291019081526000602082015260400161332f604080518082019091526000808252602082015290565b815260200160008152602001606081525090565b5b808211156133585760008155600101613344565b5090565b6001600160a01b0381168114612f7257600080fd5b6000806040838503121561338457600080fd5b823561338f8161335c565b946020939093013593505050565b634e487b7160e01b600052604160045260246000fd5b60405160c081016001600160401b03811182821017156133d5576133d561339d565b60405290565b604051601f8201601f191681016001600160401b03811182821017156134035761340361339d565b604052919050565b60006001600160401b038211156134245761342461339d565b50601f01601f191660200190565b600082601f83011261344357600080fd5b81356134566134518261340b565b6133db565b81815284602083860101111561346b57600080fd5b816020850160208301376000918101602001919091529392505050565b6000806040838503121561349b57600080fd5b82356001600160401b03808211156134b257600080fd5b6134be86838701613432565b935060208501359150808211156134d457600080fd5b506134e185828601613432565b9150509250929050565b6000602082840312156134fd57600080fd5b5035919050565b60008060008060006080868803121561351c57600080fd5b85356001600160401b038082111561353357600080fd5b818801915088601f83011261354757600080fd5b81358181111561355657600080fd5b89602082850101111561356857600080fd5b6020928301975095509087013593506040870135908082111561358a57600080fd5b61359689838a01613432565b935060608801359150808211156135ac57600080fd5b506135b988828901613432565b9150509295509295909350565b6000602082840312156135d857600080fd5b81356135e38161335c565b9392505050565b80356001600160401b038116811461360157600080fd5b919050565b60008060006060848603121561361b57600080fd5b83359250602084013561362d8161335c565b915061363b604085016135ea565b90509250925092565b634e487b7160e01b600052602160045260246000fd5b6009811061367857634e487b7160e01b600052602160045260246000fd5b9052565b80511515825260208101511515602083015260408101511515604083015260608101511515606083015260808101511515608083015260a0810151151560a083015260c0810151151560c08301525050565b60005b838110156136e95781810151838201526020016136d1565b50506000910152565b6000815180845261370a8160208601602086016136ce565b601f01601f19169290920160200192915050565b600061024082518452602083015161374160208601826001600160401b03169052565b50604083015161375c60408601826001600160401b03169052565b50606083015161377760608601826001600160401b03169052565b50608083015161379260808601826001600160401b03169052565b5060a08301516137a560a086018261365a565b5060c08301516137b860c086018261367c565b5060e08301516001600160a01b039081166101a0860152610100840151805182166101c087015260200151166101e08501526101208301516102008501526101408301516102208501829052613810828601826136f2565b95945050505050565b6000602080830181845280855180835260408601915060408160051b870101925083870160005b8281101561386e57603f1988860301845261385c85835161371e565b94509285019290850190600101613840565b5092979650505050505050565b60008060006060848603121561389057600080fd5b833561389b8161335c565b92506020840135915060408401356001600160401b038111156138bd57600080fd5b6138c986828701613432565b9150509250925092565b600080604083850312156138e657600080fd5b8235915060208301356001600160401b0381111561390357600080fd5b6134e185828601613432565b8b81526001600160401b038b811660208301528a81166040830152898116606083015288166080820152600061024061394b60a084018a61365a565b61395860c084018961367c565b6001600160a01b038781166101a0850152865181166101c08501526020870151166101e08401528461020084015280610220840152613999818401856136f2565b9e9d5050505050505050505050505050565b6000806000606084860312156139c057600080fd5b6139c9846135ea565b92506139d7602085016135ea565b9150604084013590509250925092565b600080600080608085870312156139fd57600080fd5b8435613a088161335c565b935060208501359250613a1d604086016135ea565b9150613a2b606086016135ea565b905092959194509250565b6020815260006135e3602083018461371e565b60008060408385031215613a5c57600080fd5b50508035926020909101359150565b600080600060608486031215613a8057600080fd5b8335925061362d602085016135ea565b60006020808301818452808551808352604092508286019150828160051b87010184880160005b83811015613b4657603f19898403018552815160c0815185528882015189860152878201518189870152613aed828701826136f2565b91505060608083015186830382880152613b0783826136f2565b9250505060808083015186830382880152613b2283826136f2565b60a09485015115159790940196909652505094870194925090860190600101613ab7565b509098975050505050505050565b602080825260139082015272151bdbdb08191bd95cc81b9bdd08195e1a5cdd606a1b604082015260600190565b634e487b7160e01b600052603260045260246000fd5b6020808252601c908201527f5468652072656e74616c206973206e6f7420617661696c61626c652e00000000604082015260600190565b6020808252601f908201527f5468652072656e74616c2073746174757320697320696e636f72726563742e00604082015260600190565b6001600160a01b03958616815293851660208501529190931660408301526060820192909252608081019190915260a00190565b6001600160a01b0384168152606060208201819052600090613c5d908301856136f2565b8281036040840152613c6f81856136f2565b9695505050505050565b600060208284031215613c8b57600080fd5b81516135e38161335c565b600060018060a01b03808716835260806020840152613cb860808401876136f2565b94166040830152506060015292915050565b60208082526027908201527f596f7520617265206e6f7420746865206f776e6572206f662074686520636f6c6040820152663632b1ba34b7b760c91b606082015260800190565b6020808252601d908201527f596f7520646f6e2774206861766520616e7920636f6c6c656374696f6e000000604082015260600190565b634e487b7160e01b600052601160045260246000fd5b600060018201613d7057613d70613d48565b5060010190565b8181038181111561083e5761083e613d48565b634e487b7160e01b600052603160045260246000fd5b6020808252601f908201527f4d6178696d756d206e756d626572206f6620746f6f6c73207265616368656400604082015260600190565b600181811c90821680613deb57607f821691505b60208210810361178757634e487b7160e01b600052602260045260246000fd5b601f821115613e5557600081815260208120601f850160051c81016020861015613e325750805b601f850160051c820191505b81811015613e5157828155600101613e3e565b5050505b505050565b818103613e65575050565b613e6f8254613dd7565b6001600160401b03811115613e8657613e8661339d565b613e9a81613e948454613dd7565b84613e0b565b6000601f821160018114613ece5760008315613eb65750848201545b600019600385901b1c1916600184901b178455613f33565b600085815260209020601f19841690600086815260209020845b83811015613f085782860154825560019586019590910190602001613ee8565b5085831015613f265781850154600019600388901b60f8161c191681555b50505060018360011b0184555b5050505050565b60a081528560a0820152858760c0830137600060c087830101526000601f19601f880116820186602084015260c0838203016040840152613f7e60c08201876136f2565b90508281036060840152613f9281866136f2565b91505060018060a01b0383166080830152979650505050505050565b600060208284031215613fc057600080fd5b5051919050565b81516001600160401b03811115613fe057613fe061339d565b613fee81613e948454613dd7565b602080601f831160018114614023576000841561400b5750858301515b600019600386901b1c1916600185901b178555613e51565b600085815260208120601f198616915b8281101561405257888601518255948401946001909101908401614033565b50858210156140705787850151600019600388901b60f8161c191681555b5050505050600190811b01905550565b60208082526014908201527313dddb995c88191bd95cc81b9bdd08195e1a5cdd60621b604082015260600190565b6001600160a01b0387811682528681166020830152851660408201526060810184905260c0608082018190526000906140e9908301856136f2565b90508260a0830152979650505050505050565b6020808252602a908201527f50726f626c656d206f6e207468652072656e74657220616e6420746865206f6e604082015269652077686f2061736b7360b01b606082015260800190565b60208082526012908201527106e756d626572206d757374206265203e20360741b604082015260600190565b600082601f83011261418357600080fd5b81516141916134518261340b565b8181528460208386010111156141a657600080fd5b61302d8260208301602087016136ce565b8051801515811461360157600080fd5b600060208083850312156141da57600080fd5b82516001600160401b03808211156141f157600080fd5b818501915085601f83011261420557600080fd5b8151818111156142175761421761339d565b8060051b6142268582016133db565b918252838101850191858101908984111561424057600080fd5b86860192505b838310156143255782518581111561425d57600080fd5b860160c0818c03601f190112156142745760008081fd5b61427c6133b3565b8882015181526040808301518a830152606080840151898111156142a05760008081fd5b6142ae8f8d83880101614172565b83850152506080915081840151898111156142c95760008081fd5b6142d78f8d83880101614172565b82850152505060a080840151898111156142f15760008081fd5b6142ff8f8d83880101614172565b838501525061431060c085016141b7565b90830152508352509186019190860190614246565b999850505050505050505056fea2646970667358221220a984be41788bcc2333aa4f078e031d5dad2d07d280e005b29880f29eba417e1564736f6c63430008130033",
  "immutableReferences": {},
  "source": "// SPDX-License-Identifier: MIT\npragma solidity 0.8.19;\n\nimport \"./IAnyRental.sol\";\nimport \"./IAnyNFTCollection.sol\";\nimport \"./AnyNFTCollection.sol\";\nimport \"./AnyNFTCollectionFactory.sol\";\nimport \"../node_modules/@openzeppelin/contracts/access/Ownable.sol\";\nimport \"./Utils.sol\";\n//import \"../node_modules/@ganache/console.log/console.sol\";\n\n/**\n * @title Rental Any  contract \n * @author https://github.com/gbesset\n * @notice contract to generate NFT of tool to locate, and manage the rental\n * @dev Implements NFT gneration, and rental process\n */\ncontract AnyRental is Ownable, IAnyRental{\n\n   using Counters for Counters.Counter;\n\n    AnyNFTCollectionFactory public factory;\n\n    Counters.Counter private rentalIds;\n\n\n    // mapping of  a user address to the rented tools\n    mapping (address => RentalReference) private userRentals;\n\n\n\n    // list of all the renters address\n    address[] rentersList;\n\n    // mapping of a renter address to its collection\n    mapping (address => CollectionNFT) private rentersCollection;\n    \n    // mapping of a renter address to its rentals\n    mapping (address => Rental[]) public rentersRentals;\n    uint256 public nbRentalMax = 20;\n\n\n\n    constructor(address _anyNFTFactory){\n        // Instantiate the Any NFT Factory from its address\n        factory = AnyNFTCollectionFactory(_anyNFTFactory);\n    }\n\n\n    /* ***********************************************\n    *   Modifiers \n    *********************************************** */\n\n    /**\n    * @dev Only renter can call\n    */\n\n    modifier onlyRentalOwner() {\n        require(rentersCollection[msg.sender].owner==msg.sender, \"You are not the owner of the collection\");\n        _;\n    }\n    \n    /**\n     * Owner exist if exist in mapping NFT or mapping rental \n    * @dev MUST exist int the both.... Except for creationCollection      \n     */\n    modifier ownerMustExist(address _owner) {\n        require(rentersCollection[_owner].collection != address(0), \"Owner does not exist\");\n        //require(rentersRentals[_owner].length>0, \"Owner does not exist\");\n        _;\n    }\n             \n\n\n\n    /* ***********************************************\n    *   Setters \n    *********************************************** */\n\n    function setNbRentalMax(uint _nb) external onlyOwner{\n        nbRentalMax = _nb;\n    }\n\n   \n\n    /* ***********************************************\n    *   Getters \n    *********************************************** */\n     /** \n     * @notice return the NFT Tools from a owner address\n     * @dev get collection from renter Address\n     * @return Tool[]  (NFT attributes)\n     */\n    function getToolsCollection(address _owner) ownerMustExist(_owner) external view returns(Utils.Tool[] memory){\n        //return factory._rentersCollection().tools();\n        IAnyNFTCollection collec = IAnyNFTCollection(rentersCollection[_owner].collection);\n        return collec.getTools();\n    }\n    /** \n     * @notice return the NFT Collection address from a owner address\n     * @dev get collection address a from owner Address\n     * @return address of the collection NFT\n     */\n    function getToolsCollectionAddress(address _owner) ownerMustExist(_owner) external view returns(address){\n        return rentersCollection[_owner].collection;\n    }\n    \n    /*function getCollections()external view returns(Utils.Tool[] memory){\n        // pour toutes les addresses\n        // concatener les collections\n        // renvoyer l'ensemble\n        //ou en js appeler les differentes collections pour les addresses..?\n    }*/\n\n    /** \n     * @notice return the Rentals from a owner address\n     * @dev get rentals array from an owner address\n     * @return Rental[]\n     */\n    function getRentalsByOwner(address _owner) ownerMustExist(_owner) external view returns(Rental[] memory){\n        return rentersRentals[_owner];\n    }\n\n    /** \n     * @notice return the Rental by the owner address and rentalId\n     * @dev return a rental from an address and a rentalID\n     * @return Rental \n     */\n    function getRentalByOwnerAddressAndRentalID(address _owner, uint _rentalId) ownerMustExist(_owner) external view returns(Rental memory){\n        uint found;\n         for(uint i; i< rentersRentals[_owner].length; i++){\n            if(rentersRentals[_owner][i].rentalID == _rentalId){\n                 found=i;\n                 break;\n            }   \n        }\n        return rentersRentals[_owner][found];\n    }\n        function getRentalIndexByOwnerAddressAndRentalID(address _owner, uint _rentalId) ownerMustExist(_owner) internal view returns(uint){\n        uint found;\n         for(uint i; i< rentersRentals[_owner].length; i++){\n            if(rentersRentals[_owner][i].rentalID == _rentalId){\n                 found=i;\n                 break;\n            }   \n        }\n        return found;\n    }\n\n    function getRentalIndexByOwnerAddressAndTokenID(address _owner, uint _tokenId) ownerMustExist(_owner) internal view returns(uint){\n        uint found;\n         for(uint i; i< rentersRentals[_owner].length; i++){\n            if(rentersRentals[_owner][i].tokenID == _tokenId){\n                 found=i;\n                 break;\n            }   \n        }\n        return found;\n    }\n\n    /** \n     * @notice return a Rental by the  rentalId\n     * @dev Internal ! very bad complexity.... don't use often !\n     * @return Rental \n     */\n    /* function getRentalByRentalId(uint _rentalId) internal view returns(Rental memory){\n        Rental memory rentalFound;\n         for(uint i; i< rentersList.length; i++){\n            Rental[] memory rentalsTmp = rentersRentals[rentersList[i]];\n            for(uint j; j<rentalsTmp.length; j++){\n                if(rentalsTmp[j].rentalID == _rentalId){\n                     rentalFound=rentalsTmp[j];\n                    break;\n                }\n            }   \n        }\n        return rentalFound;\n     }*/\n    \n    /**\n    * @notice return if the address is defined as an owner\n    * @dev return it th address is an entry in the map\n     */\n    function isAddressOwner(address _renter) public view returns(bool) {\n        return rentersCollection[_renter].owner != address(0);\n    }\n\n    /**\n    * @notice return if the address is defined as an renter\n    * @dev return it the address has some rentals in the map\n     */\n    function isAddressRenter(address _renter) public view returns(bool) {\n        return userRentals[_renter].collection != address(0);\n    }\n\n\n\n    /* ***********************************************\n    *   Functions  - NFT Managment\n    *********************************************** */\n    /**\n     * @notice Create the NFT Collection of a renter\n     * @return collectionCreated : colletion address deployed\n     */\n    function createCollection(string memory _collectionName, string memory _collectionSymbol) external returns(address){\n        require(msg.sender != address(0), \"address zero is not valid\");\n        require(rentersCollection[msg.sender].collection==address(0), \"You already have created your collection\");\n        require(!Utils.isEqualString(_collectionName,\"\"), \"collection name can't be empty\");\n\n         address collectionAddress = factory.createAnyNFTCollection(msg.sender, _collectionName, _collectionSymbol);\n         //AnyNFTCollection collectionCreated = AnyNFTCollection(collectionAddress);\n\n        // update Renters Collection\n        rentersCollection[msg.sender].collection = collectionAddress;\n        rentersCollection[msg.sender].owner =  msg.sender;\n\n        //update the list of renters\n        rentersList.push(msg.sender);\n\n        emit NFTCollectionCreated(msg.sender, _collectionName , collectionAddress, block.timestamp);\n        \n        return collectionAddress;\n    }\n\n    /**\n     * @notice renter delete its NFT Collection of a\n     */\n    function deleteCollection() external onlyRentalOwner{\n        require(msg.sender != address(0), \"address zero is not valid\");\n        require(rentersCollection[msg.sender].collection!=address(0), \"You don't have any collection\");\n      \n        AnyNFTCollection collec = AnyNFTCollection(rentersCollection[msg.sender].collection);\n\n        uint id;\n         for (uint i; i < rentersList.length; i++) {\n            if(rentersList[i] == msg.sender){\n                id=i;\n                break;\n            }\n        }\n\n        //delete element in list of renters\n        rentersList[id] = rentersList[rentersList.length-1];\n        rentersList.pop();\n\n        //delete rentals in mapping \n        delete rentersCollection[msg.sender];\n        /*\n        //TODO supprimer l'instance en transfrant au pralbale les fonds prsents....\n        selfdestruct(collec);\n       */\n        emit NFTCollectionDeleted(msg.sender , address(collec), block.timestamp);\n\n    }\n\n\n    function addToolToCollection(string calldata _tokenURI, uint _serialId, string memory _title, string memory _description ) external onlyRentalOwner returns(uint tokenId){\n        require(rentersCollection[msg.sender].collection!=address(0), \"You don't have any collection\");\n        require(rentersRentals[msg.sender].length < nbRentalMax, \"Maximum number of tools reached\");\n        \n        IAnyNFTCollection collec = IAnyNFTCollection(rentersCollection[msg.sender].collection);\n        uint256 tokenID = collec.mint(_tokenURI, _serialId, _title, _description, msg.sender);\n\n        uint newRentalIds = rentalIds.current();\n        Rental memory rental;\n        CollectionNFT memory collecNFT;\n        collecNFT.collection = rentersCollection[msg.sender].collection;\n        collecNFT.owner = rentersCollection[msg.sender].owner;\n\n        rental.rentalID = newRentalIds;\n        rental.collection = collecNFT;\n\n        rental.tokenID = tokenID;\n        rental.tokenURI = _tokenURI;\n        rentalIds.increment();\n\n        rentersRentals[msg.sender].push(rental);\n\n        emit NFTToolAddedToCollection(msg.sender, rentersCollection[msg.sender].collection, tokenID, block.timestamp);\n        return tokenID;\n    }\n\n      /**\n     * @dev delegate the NFT to a user . onlyRentalOwner\n     */\n    function delegateNFT(uint _tokenId, address _to, uint64 _expires) external onlyRentalOwner {\n        require(rentersCollection[msg.sender].collection!=address(0), \"You don't have any collection\");\n        require(rentersCollection[msg.sender].owner==msg.sender, \"You are not the owner of the collection\");\n\n        \n        //Si pas de approve passer par I\n         AnyNFTCollection collec = AnyNFTCollection(rentersCollection[msg.sender].collection);\n        \n        //collec.approve(msg.sender, _tokenId);\n         collec.rentTool(_tokenId, _to, _expires, msg.sender);\n\n        emit RentalNFTToolDelegated(msg.sender, _to, rentersCollection[msg.sender].collection, _tokenId, block.timestamp);\n    }\n\n\n    /* ***********************************************\n    *   Functions  - Rental Managment\n    *********************************************** */\n\n    function addToolToRentals(uint64 _dayPrice, uint64 _caution, uint _tokenID) external onlyRentalOwner {\n        require(rentersCollection[msg.sender].collection!=address(0), \"You don't have any collection\");\n        require(rentersRentals[msg.sender].length < nbRentalMax, \"Maximum number of tools reached\");\n        require(_dayPrice > 0, \"number must be > 0\");\n        require(_caution > 0, \"number must be > 0\");\n\n\n        //All rentalData.is* false by default\n        RentalData memory rentalData;\n\n        uint found = getRentalIndexByOwnerAddressAndTokenID(msg.sender, _tokenID);\n        Rental storage rental = rentersRentals[msg.sender][found];\n  \n        rental.dayPrice =_dayPrice;\n        rental.caution = _caution;\n        rental.rentalStatus = RentalStatus.AVAILABLE;\n        rental.rentalData = rentalData;\n                \n        emit ToolAddedToRentals(msg.sender, rental.rentalID , rental.tokenID, block.timestamp);\n    }\n\n     /**\n     * @dev update a tool into collection . onlyRentalOwner\n     */\n     function updateToolIntoRentals(uint _rentalID, uint64 _dayPrice, uint64 _caution) external onlyRentalOwner{\n        require(rentersCollection[msg.sender].collection!=address(0), \"You don't have any collection\");\n        require(_dayPrice > 0, \"number must be > 0\");\n        require(_caution > 0, \"number must be > 0\");\n\n        for(uint i; i< rentersRentals[msg.sender].length; i++){\n            if(rentersRentals[msg.sender][i].rentalID == _rentalID){\n                 rentersRentals[msg.sender][i].dayPrice = _dayPrice;\n                 rentersRentals[msg.sender][i].caution = _caution;\n                 break;\n            }   \n        }\n\n        emit ToolUpdatedFromRentals(msg.sender, _rentalID, block.timestamp);\n     }\n      /**\n     * @dev delete a tool into collection . onlyRentalOwner\n     */\n     function deleteToolIntoRentals(uint _rentalID) external onlyRentalOwner{\n         require(rentersCollection[msg.sender].collection!=address(0), \"You don't have any collection\");\n        require(rentersRentals[msg.sender].length < nbRentalMax, \"Maximum number of tools reached\");\n        \n        uint id;\n        for(uint i; i< rentersRentals[msg.sender].length; i++){\n            if(rentersRentals[msg.sender][i].rentalID == _rentalID){\n                id = i;\n                 break;\n            }   \n        }\n        rentersRentals[msg.sender][id] = rentersRentals[msg.sender][rentersRentals[msg.sender].length-1];\n        rentersRentals[msg.sender].pop();\n         \n        emit ToolDeletedFromRentals(msg.sender, _rentalID, block.timestamp);\n     }\n\n\n /**\n     * @notice user send the location and caution which in order to ask for the rental of a Rental\n     * - the caution and location is secured until\n     * @dev user send caution and location price for rent a Rental\n     */\n     function sendPaiementForRental(address _owner, uint _rentalID, uint64 _begin, uint64 _end) ownerMustExist(_owner) external{\n         require(rentalIds.current() >= _rentalID, \"Tool does not exist\");\n         require(_begin > 0, \"begin must be a valid date\");\n         require(_end > 0, \"end must be a valid date\");\n         require(_begin < _end, \"End of rental can't be before begin\");\n\n         uint found = getRentalIndexByOwnerAddressAndRentalID(_owner, _rentalID);\n         Rental storage rental = rentersRentals[_owner][found];\n         require(rental.rentalID == _rentalID, \"The rental is not available.\");\n         require(rental.rentalStatus == RentalStatus.AVAILABLE, \"The rental status is incorrect.\");\n        \n        //gestion caution et paiement\n     \n        rental.start = _begin;\n        rental.end = _end;\n        rental.rentalStatus = RentalStatus.RENTAL_REQUESTED;\n        rental.rentalData.isCautionDeposed = true;\n        rental.renter = msg.sender;\n\n         emit RentalRequested(rental.collection.owner, msg.sender,  rental.collection.collection, rental.tokenID, block.timestamp);\n     }\n\n   /**\n     * @notice renter delegate the NFT in order to validate the rental asking\n     * - the caution and location is still secured\n     * @dev renter validate the delagation of the NFT\n     */\n     function validateNFTDelegationForRental(uint _rentalID, uint _tokenID) ownerMustExist(msg.sender)  external{\n         require(rentalIds.current() >= _rentalID, \"Tool does not exist\");\n         require(_tokenID > 0, \"token ID must be valid\");\n\n\n        uint found = getRentalIndexByOwnerAddressAndRentalID(msg.sender, _rentalID);\n        Rental storage rental = rentersRentals[msg.sender][found];\n        require(rental.rentalID == _rentalID, \"The rental is not available.\");\n        require(rental.tokenID == _tokenID, \"Error... the tokenId isn't the correct one.\");\n        require(rental.rentalStatus == RentalStatus.RENTAL_REQUESTED, \"The rental status is incorrect.\");\n        \n        rental.rentalStatus = RentalStatus.RENTAL_ACCEPTED_NFT_SENT;\n        rental.rentalData.isNFTDelegated = true;\n        \n        emit RentalAccepted(rental.collection.owner, rental.renter,  rental.collection.collection, rental.tokenID, block.timestamp);\n     }   \n\n\n    /**\n     * @notice user get the tool in real life, has the NFT and valiate the transaction\n     * - the caution is still secured, the location is payed\n     * @dev user validate having the NFT, annd receipt the tool\n     */\n     function validateNFTandToolReception(address _renter, uint _rentalID) ownerMustExist(_renter)  external{\n         require(rentalIds.current() >= _rentalID, \"Tool does not exist\");\n \n        uint found = getRentalIndexByOwnerAddressAndRentalID(_renter, _rentalID);\n        Rental storage rental = rentersRentals[_renter][found];\n        require(rental.rentalID == _rentalID, \"The rental is not available.\");\n        require(rental.renter==msg.sender, \"Problem on the renter and the one who asks\");\n        require(rental.rentalStatus == RentalStatus.RENTAL_ACCEPTED_NFT_SENT, \"The rental status is incorrect.\");\n        \n        rental.rentalStatus = RentalStatus.VALIDATE_RECEIPT_PAYMENT;\n\n        //TODO mettre le tool is availabe a false dans Collection\n        \n        emit RentalNFTToolDelegated(rental.collection.owner, rental.renter,  rental.collection.collection, rental.tokenID, block.timestamp);\n\n     }\n\n    /**\n     * @notice user give back the toool at the end of renting\n     * - the caution is still secured, the location is already payed\n     * @dev user give bak th etool\n     */\n     function giveBackToolAfterRental(address _renter, uint _rentalID) ownerMustExist(_renter) external{\n        require(rentalIds.current() >= _rentalID, \"Tool does not exist\");\n\n        uint found = getRentalIndexByOwnerAddressAndRentalID(_renter, _rentalID);\n        Rental storage rental = rentersRentals[_renter][found];\n        require(rental.rentalID == _rentalID, \"The rental is not available.\");\n        require(rental.renter==msg.sender, \"Problem on the renter and the one who asks\");\n        require(rental.rentalStatus == RentalStatus.VALIDATE_RECEIPT_PAYMENT, \"The rental status is incorrect.\");\n        \n        rental.rentalStatus = RentalStatus.COMPLETED_USER;\n        rental.rentalData.isToolReturned = true;\n\n        //TODO mettre le tool is availabe a truue dans Collection\n        \n        emit RentalCompletedByUser(rental.collection.owner, msg.sender,  rental.collection.collection, rental.tokenID, block.timestamp);\n\n     }  \n     \n    /**\n     * @notice renter validate the return of the tool\n     * - the caution is given back\n     * @dev renter validae the return of the tool\n     */\n     function validateReturnToolAfterRental(uint _rentalID) ownerMustExist(msg.sender)  external{\n        require(rentalIds.current() >= _rentalID, \"Tool does not exist\");\n\n        uint found = getRentalIndexByOwnerAddressAndRentalID(msg.sender, _rentalID);\n        Rental storage rental = rentersRentals[msg.sender][found];\n        require(rental.rentalID == _rentalID, \"The rental is not available.\");\n        require(rental.rentalStatus == RentalStatus.COMPLETED_USER, \"The rental status is incorrect.\");\n        \n        rental.rentalStatus = RentalStatus.RETURN_ACCEPTED_BY_OWNER;\n        rental.rentalData.isReturnValidated = true;\n        \n        emit RentalCompletedByRenter(rental.collection.owner, rental.renter,  rental.collection.collection, rental.tokenID, block.timestamp);\n\n     } \n\n    /**\n     * @notice renter doens't validate the return of the tool. Problem. dispute creation\n     * - the caution still secured\n     * @dev renter doesn't validate the return of the tool, because of a problem\n     */\n     function refuseReturnToolAfterRental(uint _rentalID, string memory message)ownerMustExist(msg.sender)  external{\n        require(rentalIds.current() >= _rentalID, \"Tool does not exist\");\n\n        uint found = getRentalIndexByOwnerAddressAndRentalID(msg.sender, _rentalID);\n        Rental storage rental = rentersRentals[msg.sender][found];\n        require(rental.rentalID == _rentalID, \"The rental is not available.\");\n        require(rental.rentalStatus == RentalStatus.COMPLETED_USER, \"The rental status is incorrect.\");\n        \n        rental.rentalStatus = RentalStatus.DISPUTE;\n        rental.rentalData.isToolReturned = true;\n        rental.rentalData.isDispute = true;\n        \n        emit RentalDisputeCreated(rental.collection.owner, rental.renter,  rental.collection.collection, rental.tokenID, message, block.timestamp);\n\n     }\n\n    /**\n     * @notice user confirm dispute and expose its point of view\n     * - the caution still secured\n     * @dev user confirm dispute and expose its point of view\n     */\n     function confirmDisputeAfterRental(address _renter, uint _rentalID, string memory message)ownerMustExist(_renter)  external{\n         require(rentalIds.current() >= _rentalID, \"Tool does not exist\");\n\n        uint found = getRentalIndexByOwnerAddressAndRentalID(_renter, _rentalID);\n        Rental storage rental = rentersRentals[_renter][found];\n        require(rental.rentalID == _rentalID, \"The rental is not available.\");\n        require(rental.renter==msg.sender, \"Problem on the renter and thr one who asks\");\n        require(rental.rentalStatus == RentalStatus.DISPUTE, \"The rental status is incorrect.\");\n               \n        rental.rentalData.isDisputeConfirmed = true;\n\n        emit RentalDisputelConfirmedByUser(rental.collection.owner, msg.sender,  rental.collection.collection, rental.tokenID, message, block.timestamp);\n\n     }\n\n    /**\n     * @notice user redeem its caution or caution and location\n     * - the caution is given back at the end of rental or because the renter refuse the rental\n     * @dev user redeem its caution\n     */\n     function redeemPaymentForRental(address _renter, uint _rentalID) external{\n         require(rentalIds.current() >= _rentalID, \"Tool does not exist\");\n\n        uint found = getRentalIndexByOwnerAddressAndRentalID(_renter, _rentalID);\n        Rental storage rental = rentersRentals[_renter][found];\n        require(rental.rentalID == _rentalID, \"The rental is not available.\");\n        require(rental.rentalStatus == RentalStatus.RETURN_ACCEPTED_BY_OWNER, \"The rental status is incorrect.\");\n        \n        // recuperer sa caution\n       \n\n        rental.rentalStatus = RentalStatus.RENTAL_ENDED;\n        rental.rentalData.isRedeemed = true;\n        rental.rentalData.isCautionDeposed = false;\n        \n        emit RentalEnded(rental.collection.owner, msg.sender,  rental.collection.collection, rental.tokenID, block.timestamp);\n\n     }  \n\n\n  \n  \n}\n",
  "sourcePath": "/Users/gbesset/wks/learning/web3/alyra_projetFinal_LocaTool_AnythingNearYou/truffle/contracts/AnyRental.sol",
  "compiler": {
    "name": "solc",
    "version": "0.8.19+commit.7dd6d404.Emscripten.clang"
  },
  "schemaVersion": "3.4.11",
  "updatedAt": "2023-04-04T15:00:55.134Z",
  "networkType": "ethereum",
  "devdoc": {
    "author": "https://github.com/gbesset",
    "details": "Implements NFT gneration, and rental process",
    "events": {
      "NFTCollectionCreated(address,string,address,uint256)": {
        "details": "Emitted when a renter create its NFT Collection. give RenterAddress, CollectionName, CollectionAddress, timestamp"
      },
      "NFTCollectionDeleted(address,address,uint256)": {
        "details": "Emitted when a renter delete its NFT Collection. give RenterAddress, CollectionName, CollectionAddress, timestamp"
      },
      "NFTToolAddedToCollection(address,address,uint256,uint256)": {
        "details": "Emitted when a renter add a tool to its NFT Collection."
      },
      "RentalAccepted(address,address,address,uint256,uint256)": {
        "details": "Emitted when a renter accept to rent its tool"
      },
      "RentalCompletedByRenter(address,address,address,uint256,uint256)": {
        "details": "Emitted when a renter accept thereturn of the tool"
      },
      "RentalCompletedByUser(address,address,address,uint256,uint256)": {
        "details": "Emitted when a user give back the tool"
      },
      "RentalDisputeCreated(address,address,address,uint256,string,uint256)": {
        "details": "Emitted when a renter doensn't accept the return of the tool"
      },
      "RentalDisputeSolved(address,address,address,uint256,string,uint256)": {
        "details": "Emitted when a renter doensn't accept the return of the tool"
      },
      "RentalDisputelConfirmedByUser(address,address,address,uint256,string,uint256)": {
        "details": "Emitted when a renter doensn't accept the return of the tool"
      },
      "RentalEnded(address,address,address,uint256,uint256)": {
        "details": "Emitted when a renter redeem its causion and end the rental of the tool"
      },
      "RentalExtended(address,address,address,uint256,uint256,uint256)": {
        "details": "Emitted when a user ask to extznd the rental duration"
      },
      "RentalRejected(address,address,address,uint256,uint256)": {
        "details": "Emitted when a renter doesn't accept to rent its tool"
      },
      "RentalRequested(address,address,address,uint256,uint256)": {
        "details": "Emitted when a user ask to rent a tool from a collection"
      },
      "ToolAddedToRentals(address,uint256,uint256,uint256)": {
        "details": "Emitted when a renter add a tool to its NFT Collection."
      },
      "ToolDeletedFromRentals(address,uint256,uint256)": {
        "details": "Emitted when a renter delete a tool into its NFT Collection."
      },
      "ToolUpdatedFromRentals(address,uint256,uint256)": {
        "details": "Emitted when a renter aduptate a tool to its NFT Collection."
      }
    },
    "kind": "dev",
    "methods": {
      "addToolToCollection(string,uint256,string,string)": {
        "details": "add a tool to collection . onlyRenter"
      },
      "addToolToRentals(uint64,uint64,uint256)": {
        "details": "add a tool to collection . onlyRenter"
      },
      "confirmDisputeAfterRental(address,uint256,string)": {
        "details": "user confirm dispute and expose its point of view"
      },
      "createCollection(string,string)": {
        "returns": {
          "_0": "collectionCreated : colletion address deployed"
        }
      },
      "delegateNFT(uint256,address,uint64)": {
        "details": "delegate the NFT to a user . onlyRentalOwner"
      },
      "deleteToolIntoRentals(uint256)": {
        "details": "delete a tool into collection . onlyRentalOwner"
      },
      "getRentalByOwnerAddressAndRentalID(address,uint256)": {
        "details": "return a rental from an address and a rentalID",
        "returns": {
          "_0": "Rental "
        }
      },
      "getRentalsByOwner(address)": {
        "details": "get rentals array from an owner address",
        "returns": {
          "_0": "Rental[]"
        }
      },
      "getToolsCollection(address)": {
        "details": "get collection from renter Address",
        "returns": {
          "_0": "Tool[]  (NFT attributes)"
        }
      },
      "getToolsCollectionAddress(address)": {
        "details": "get collection address a from owner Address",
        "returns": {
          "_0": "address of the collection NFT"
        }
      },
      "giveBackToolAfterRental(address,uint256)": {
        "details": "user give bak th etool"
      },
      "isAddressOwner(address)": {
        "details": "return it th address is an entry in the map"
      },
      "isAddressRenter(address)": {
        "details": "return it the address has some rentals in the map"
      },
      "owner()": {
        "details": "Returns the address of the current owner."
      },
      "redeemPaymentForRental(address,uint256)": {
        "details": "user redeem its caution"
      },
      "refuseReturnToolAfterRental(uint256,string)": {
        "details": "renter doesn't validate the return of the tool, because of a problem"
      },
      "renounceOwnership()": {
        "details": "Leaves the contract without owner. It will not be possible to call `onlyOwner` functions anymore. Can only be called by the current owner. NOTE: Renouncing ownership will leave the contract without an owner, thereby removing any functionality that is only available to the owner."
      },
      "sendPaiementForRental(address,uint256,uint64,uint64)": {
        "details": "user send caution and location price for rent a Rental"
      },
      "transferOwnership(address)": {
        "details": "Transfers ownership of the contract to a new account (`newOwner`). Can only be called by the current owner."
      },
      "updateToolIntoRentals(uint256,uint64,uint64)": {
        "details": "update a tool into collection . onlyRentalOwner"
      },
      "validateNFTDelegationForRental(uint256,uint256)": {
        "details": "renter validate the delagation of the NFT"
      },
      "validateNFTandToolReception(address,uint256)": {
        "details": "user validate having the NFT, annd receipt the tool"
      },
      "validateReturnToolAfterRental(uint256)": {
        "details": "renter validae the return of the tool"
      }
    },
    "title": "Rental Any  contract ",
    "version": 1
  },
  "userdoc": {
    "kind": "user",
    "methods": {
      "confirmDisputeAfterRental(address,uint256,string)": {
        "notice": "user confirm dispute and expose its point of view - the caution still secured"
      },
      "createCollection(string,string)": {
        "notice": "Create the NFT Collection of a renter"
      },
      "deleteCollection()": {
        "notice": "renter delete its NFT Collection of a"
      },
      "getRentalByOwnerAddressAndRentalID(address,uint256)": {
        "notice": "return the Rental by the owner address and rentalId"
      },
      "getRentalsByOwner(address)": {
        "notice": "return the Rentals from a owner address"
      },
      "getToolsCollection(address)": {
        "notice": "return the NFT Tools from a owner address"
      },
      "getToolsCollectionAddress(address)": {
        "notice": "return the NFT Collection address from a owner address"
      },
      "giveBackToolAfterRental(address,uint256)": {
        "notice": "user give back the toool at the end of renting - the caution is still secured, the location is already payed"
      },
      "isAddressOwner(address)": {
        "notice": "return if the address is defined as an owner"
      },
      "isAddressRenter(address)": {
        "notice": "return if the address is defined as an renter"
      },
      "redeemPaymentForRental(address,uint256)": {
        "notice": "user redeem its caution or caution and location - the caution is given back at the end of rental or because the renter refuse the rental"
      },
      "refuseReturnToolAfterRental(uint256,string)": {
        "notice": "renter doens't validate the return of the tool. Problem. dispute creation - the caution still secured"
      },
      "sendPaiementForRental(address,uint256,uint64,uint64)": {
        "notice": "user send the location and caution which in order to ask for the rental of a Rental - the caution and location is secured until"
      },
      "validateNFTDelegationForRental(uint256,uint256)": {
        "notice": "renter delegate the NFT in order to validate the rental asking - the caution and location is still secured"
      },
      "validateNFTandToolReception(address,uint256)": {
        "notice": "user get the tool in real life, has the NFT and valiate the transaction - the caution is still secured, the location is payed"
      },
      "validateReturnToolAfterRental(uint256)": {
        "notice": "renter validate the return of the tool - the caution is given back"
      }
    },
    "notice": "contract to generate NFT of tool to locate, and manage the rental",
    "version": 1
  }
}