{
  "contractName": "AnyRental",
  "abi": [
    {
      "inputs": [
        {
          "internalType": "address",
          "name": "_anyNFTFactory",
          "type": "address"
        }
      ],
      "stateMutability": "nonpayable",
      "type": "constructor"
    },
    {
      "anonymous": false,
      "inputs": [
        {
          "indexed": false,
          "internalType": "address",
          "name": "renter",
          "type": "address"
        },
        {
          "indexed": false,
          "internalType": "string",
          "name": "renterCollectionName",
          "type": "string"
        },
        {
          "indexed": false,
          "internalType": "address",
          "name": "renterCollectionAddress",
          "type": "address"
        },
        {
          "indexed": false,
          "internalType": "uint256",
          "name": "timestamp",
          "type": "uint256"
        }
      ],
      "name": "NFTCollectionCreated",
      "type": "event"
    },
    {
      "anonymous": false,
      "inputs": [
        {
          "indexed": false,
          "internalType": "address",
          "name": "renter",
          "type": "address"
        },
        {
          "indexed": false,
          "internalType": "address",
          "name": "renterCollectionAddress",
          "type": "address"
        },
        {
          "indexed": false,
          "internalType": "uint256",
          "name": "timestamp",
          "type": "uint256"
        }
      ],
      "name": "NFTCollectionDeleted",
      "type": "event"
    },
    {
      "anonymous": false,
      "inputs": [
        {
          "indexed": false,
          "internalType": "address",
          "name": "renter",
          "type": "address"
        },
        {
          "indexed": false,
          "internalType": "address",
          "name": "renterCollectionAddress",
          "type": "address"
        },
        {
          "indexed": false,
          "internalType": "uint256",
          "name": "tokenId",
          "type": "uint256"
        },
        {
          "indexed": false,
          "internalType": "uint256",
          "name": "timestamp",
          "type": "uint256"
        }
      ],
      "name": "NFTToolAddedToCollection",
      "type": "event"
    },
    {
      "anonymous": false,
      "inputs": [
        {
          "indexed": true,
          "internalType": "address",
          "name": "previousOwner",
          "type": "address"
        },
        {
          "indexed": true,
          "internalType": "address",
          "name": "newOwner",
          "type": "address"
        }
      ],
      "name": "OwnershipTransferred",
      "type": "event"
    },
    {
      "anonymous": false,
      "inputs": [
        {
          "indexed": false,
          "internalType": "address",
          "name": "renter",
          "type": "address"
        },
        {
          "indexed": false,
          "internalType": "address",
          "name": "user",
          "type": "address"
        },
        {
          "indexed": false,
          "internalType": "address",
          "name": "renterCollectionAddress",
          "type": "address"
        },
        {
          "indexed": false,
          "internalType": "uint256",
          "name": "tokenId",
          "type": "uint256"
        },
        {
          "indexed": false,
          "internalType": "uint256",
          "name": "timestamp",
          "type": "uint256"
        }
      ],
      "name": "RentalAccepted",
      "type": "event"
    },
    {
      "anonymous": false,
      "inputs": [
        {
          "indexed": false,
          "internalType": "address",
          "name": "renter",
          "type": "address"
        },
        {
          "indexed": false,
          "internalType": "address",
          "name": "user",
          "type": "address"
        },
        {
          "indexed": false,
          "internalType": "address",
          "name": "renterCollectionAddress",
          "type": "address"
        },
        {
          "indexed": false,
          "internalType": "uint256",
          "name": "tokenId",
          "type": "uint256"
        },
        {
          "indexed": false,
          "internalType": "uint256",
          "name": "timestamp",
          "type": "uint256"
        }
      ],
      "name": "RentalCompletedByRenter",
      "type": "event"
    },
    {
      "anonymous": false,
      "inputs": [
        {
          "indexed": false,
          "internalType": "address",
          "name": "renter",
          "type": "address"
        },
        {
          "indexed": false,
          "internalType": "address",
          "name": "user",
          "type": "address"
        },
        {
          "indexed": false,
          "internalType": "address",
          "name": "renterCollectionAddress",
          "type": "address"
        },
        {
          "indexed": false,
          "internalType": "uint256",
          "name": "tokenId",
          "type": "uint256"
        },
        {
          "indexed": false,
          "internalType": "uint256",
          "name": "timestamp",
          "type": "uint256"
        }
      ],
      "name": "RentalCompletedByUser",
      "type": "event"
    },
    {
      "anonymous": false,
      "inputs": [
        {
          "indexed": false,
          "internalType": "address",
          "name": "renter",
          "type": "address"
        },
        {
          "indexed": false,
          "internalType": "address",
          "name": "user",
          "type": "address"
        },
        {
          "indexed": false,
          "internalType": "address",
          "name": "renterCollectionAddress",
          "type": "address"
        },
        {
          "indexed": false,
          "internalType": "uint256",
          "name": "tokenId",
          "type": "uint256"
        },
        {
          "indexed": false,
          "internalType": "string",
          "name": "dispute",
          "type": "string"
        },
        {
          "indexed": false,
          "internalType": "uint256",
          "name": "timestamp",
          "type": "uint256"
        }
      ],
      "name": "RentalDisputeCreated",
      "type": "event"
    },
    {
      "anonymous": false,
      "inputs": [
        {
          "indexed": false,
          "internalType": "address",
          "name": "renter",
          "type": "address"
        },
        {
          "indexed": false,
          "internalType": "address",
          "name": "user",
          "type": "address"
        },
        {
          "indexed": false,
          "internalType": "address",
          "name": "renterCollectionAddress",
          "type": "address"
        },
        {
          "indexed": false,
          "internalType": "uint256",
          "name": "tokenId",
          "type": "uint256"
        },
        {
          "indexed": false,
          "internalType": "string",
          "name": "disputeSolution",
          "type": "string"
        },
        {
          "indexed": false,
          "internalType": "uint256",
          "name": "timestamp",
          "type": "uint256"
        }
      ],
      "name": "RentalDisputeSolved",
      "type": "event"
    },
    {
      "anonymous": false,
      "inputs": [
        {
          "indexed": false,
          "internalType": "address",
          "name": "renter",
          "type": "address"
        },
        {
          "indexed": false,
          "internalType": "address",
          "name": "user",
          "type": "address"
        },
        {
          "indexed": false,
          "internalType": "address",
          "name": "renterCollectionAddress",
          "type": "address"
        },
        {
          "indexed": false,
          "internalType": "uint256",
          "name": "tokenId",
          "type": "uint256"
        },
        {
          "indexed": false,
          "internalType": "string",
          "name": "dispute",
          "type": "string"
        },
        {
          "indexed": false,
          "internalType": "uint256",
          "name": "timestamp",
          "type": "uint256"
        }
      ],
      "name": "RentalDisputelConfirmedByUser",
      "type": "event"
    },
    {
      "anonymous": false,
      "inputs": [
        {
          "indexed": false,
          "internalType": "address",
          "name": "renter",
          "type": "address"
        },
        {
          "indexed": false,
          "internalType": "address",
          "name": "user",
          "type": "address"
        },
        {
          "indexed": false,
          "internalType": "address",
          "name": "renterCollectionAddress",
          "type": "address"
        },
        {
          "indexed": false,
          "internalType": "uint256",
          "name": "tokenId",
          "type": "uint256"
        },
        {
          "indexed": false,
          "internalType": "uint256",
          "name": "timestamp",
          "type": "uint256"
        }
      ],
      "name": "RentalEnded",
      "type": "event"
    },
    {
      "anonymous": false,
      "inputs": [
        {
          "indexed": false,
          "internalType": "address",
          "name": "renter",
          "type": "address"
        },
        {
          "indexed": false,
          "internalType": "address",
          "name": "user",
          "type": "address"
        },
        {
          "indexed": false,
          "internalType": "address",
          "name": "renterCollectionAddress",
          "type": "address"
        },
        {
          "indexed": false,
          "internalType": "uint256",
          "name": "tokenId",
          "type": "uint256"
        },
        {
          "indexed": false,
          "internalType": "uint256",
          "name": "duration",
          "type": "uint256"
        },
        {
          "indexed": false,
          "internalType": "uint256",
          "name": "timestamp",
          "type": "uint256"
        }
      ],
      "name": "RentalExtended",
      "type": "event"
    },
    {
      "anonymous": false,
      "inputs": [
        {
          "indexed": false,
          "internalType": "address",
          "name": "renter",
          "type": "address"
        },
        {
          "indexed": false,
          "internalType": "address",
          "name": "user",
          "type": "address"
        },
        {
          "indexed": false,
          "internalType": "address",
          "name": "renterCollectionAddress",
          "type": "address"
        },
        {
          "indexed": false,
          "internalType": "uint256",
          "name": "tokenId",
          "type": "uint256"
        },
        {
          "indexed": false,
          "internalType": "uint256",
          "name": "timestamp",
          "type": "uint256"
        }
      ],
      "name": "RentalNFTToolDelegated",
      "type": "event"
    },
    {
      "anonymous": false,
      "inputs": [
        {
          "indexed": false,
          "internalType": "address",
          "name": "renter",
          "type": "address"
        },
        {
          "indexed": false,
          "internalType": "address",
          "name": "user",
          "type": "address"
        },
        {
          "indexed": false,
          "internalType": "address",
          "name": "renterCollectionAddress",
          "type": "address"
        },
        {
          "indexed": false,
          "internalType": "uint256",
          "name": "tokenId",
          "type": "uint256"
        },
        {
          "indexed": false,
          "internalType": "uint256",
          "name": "timestamp",
          "type": "uint256"
        }
      ],
      "name": "RentalRejected",
      "type": "event"
    },
    {
      "anonymous": false,
      "inputs": [
        {
          "indexed": false,
          "internalType": "address",
          "name": "renter",
          "type": "address"
        },
        {
          "indexed": false,
          "internalType": "address",
          "name": "user",
          "type": "address"
        },
        {
          "indexed": false,
          "internalType": "address",
          "name": "renterCollectionAddress",
          "type": "address"
        },
        {
          "indexed": false,
          "internalType": "uint256",
          "name": "tokenId",
          "type": "uint256"
        },
        {
          "indexed": false,
          "internalType": "uint256",
          "name": "timestamp",
          "type": "uint256"
        }
      ],
      "name": "RentalRequested",
      "type": "event"
    },
    {
      "anonymous": false,
      "inputs": [
        {
          "indexed": false,
          "internalType": "address",
          "name": "renter",
          "type": "address"
        },
        {
          "indexed": false,
          "internalType": "uint256",
          "name": "toolID",
          "type": "uint256"
        },
        {
          "indexed": false,
          "internalType": "uint256",
          "name": "tokenID",
          "type": "uint256"
        },
        {
          "indexed": false,
          "internalType": "uint256",
          "name": "timestamp",
          "type": "uint256"
        }
      ],
      "name": "ToolAddedToRentals",
      "type": "event"
    },
    {
      "anonymous": false,
      "inputs": [
        {
          "indexed": false,
          "internalType": "address",
          "name": "renter",
          "type": "address"
        },
        {
          "indexed": false,
          "internalType": "uint256",
          "name": "toolID",
          "type": "uint256"
        },
        {
          "indexed": false,
          "internalType": "uint256",
          "name": "timestamp",
          "type": "uint256"
        }
      ],
      "name": "ToolDeletedFromRentals",
      "type": "event"
    },
    {
      "anonymous": false,
      "inputs": [
        {
          "indexed": false,
          "internalType": "address",
          "name": "renter",
          "type": "address"
        },
        {
          "indexed": false,
          "internalType": "uint256",
          "name": "toolID",
          "type": "uint256"
        },
        {
          "indexed": false,
          "internalType": "uint256",
          "name": "timestamp",
          "type": "uint256"
        }
      ],
      "name": "ToolUpdatedFromRentals",
      "type": "event"
    },
    {
      "inputs": [],
      "name": "factory",
      "outputs": [
        {
          "internalType": "contract AnyNFTCollectionFactory",
          "name": "",
          "type": "address"
        }
      ],
      "stateMutability": "view",
      "type": "function"
    },
    {
      "inputs": [],
      "name": "nbRentalMax",
      "outputs": [
        {
          "internalType": "uint256",
          "name": "",
          "type": "uint256"
        }
      ],
      "stateMutability": "view",
      "type": "function"
    },
    {
      "inputs": [],
      "name": "owner",
      "outputs": [
        {
          "internalType": "address",
          "name": "",
          "type": "address"
        }
      ],
      "stateMutability": "view",
      "type": "function"
    },
    {
      "inputs": [],
      "name": "renounceOwnership",
      "outputs": [],
      "stateMutability": "nonpayable",
      "type": "function"
    },
    {
      "inputs": [
        {
          "internalType": "address",
          "name": "",
          "type": "address"
        },
        {
          "internalType": "uint256",
          "name": "",
          "type": "uint256"
        }
      ],
      "name": "rentersRentals",
      "outputs": [
        {
          "internalType": "uint256",
          "name": "rentalID",
          "type": "uint256"
        },
        {
          "internalType": "uint64",
          "name": "dayPrice",
          "type": "uint64"
        },
        {
          "internalType": "uint64",
          "name": "caution",
          "type": "uint64"
        },
        {
          "internalType": "uint64",
          "name": "start",
          "type": "uint64"
        },
        {
          "internalType": "uint64",
          "name": "end",
          "type": "uint64"
        },
        {
          "internalType": "enum IAnyRental.RentalStatus",
          "name": "rentalStatus",
          "type": "uint8"
        },
        {
          "components": [
            {
              "internalType": "bool",
              "name": "isCautionDeposed",
              "type": "bool"
            },
            {
              "internalType": "bool",
              "name": "isNFTDelegated",
              "type": "bool"
            },
            {
              "internalType": "bool",
              "name": "isToolReturned",
              "type": "bool"
            },
            {
              "internalType": "bool",
              "name": "isReturnValidated",
              "type": "bool"
            },
            {
              "internalType": "bool",
              "name": "isDispute",
              "type": "bool"
            },
            {
              "internalType": "bool",
              "name": "isDisputeConfirmed",
              "type": "bool"
            },
            {
              "internalType": "bool",
              "name": "isRedeemed",
              "type": "bool"
            }
          ],
          "internalType": "struct IAnyRental.RentalData",
          "name": "rentalData",
          "type": "tuple"
        },
        {
          "internalType": "address",
          "name": "renter",
          "type": "address"
        },
        {
          "components": [
            {
              "internalType": "address",
              "name": "collection",
              "type": "address"
            },
            {
              "internalType": "address",
              "name": "owner",
              "type": "address"
            }
          ],
          "internalType": "struct IAnyRental.CollectionNFT",
          "name": "collection",
          "type": "tuple"
        },
        {
          "internalType": "uint256",
          "name": "tokenID",
          "type": "uint256"
        },
        {
          "internalType": "string",
          "name": "tokenURI",
          "type": "string"
        }
      ],
      "stateMutability": "view",
      "type": "function"
    },
    {
      "inputs": [
        {
          "internalType": "address",
          "name": "newOwner",
          "type": "address"
        }
      ],
      "name": "transferOwnership",
      "outputs": [],
      "stateMutability": "nonpayable",
      "type": "function"
    },
    {
      "inputs": [
        {
          "internalType": "uint256",
          "name": "_nb",
          "type": "uint256"
        }
      ],
      "name": "setNbRentalMax",
      "outputs": [],
      "stateMutability": "nonpayable",
      "type": "function"
    },
    {
      "inputs": [
        {
          "internalType": "address",
          "name": "_renter",
          "type": "address"
        }
      ],
      "name": "getToolsCollection",
      "outputs": [
        {
          "components": [
            {
              "internalType": "uint256",
              "name": "tokenID",
              "type": "uint256"
            },
            {
              "internalType": "uint256",
              "name": "serialID",
              "type": "uint256"
            },
            {
              "internalType": "string",
              "name": "title",
              "type": "string"
            },
            {
              "internalType": "string",
              "name": "description",
              "type": "string"
            },
            {
              "internalType": "string",
              "name": "tokenURI",
              "type": "string"
            },
            {
              "internalType": "bool",
              "name": "isAvailable",
              "type": "bool"
            }
          ],
          "internalType": "struct Utils.Tool[]",
          "name": "",
          "type": "tuple[]"
        }
      ],
      "stateMutability": "view",
      "type": "function"
    },
    {
      "inputs": [
        {
          "internalType": "address",
          "name": "_renter",
          "type": "address"
        }
      ],
      "name": "getToolsCollectionAddress",
      "outputs": [
        {
          "internalType": "address",
          "name": "",
          "type": "address"
        }
      ],
      "stateMutability": "view",
      "type": "function"
    },
    {
      "inputs": [
        {
          "internalType": "address",
          "name": "_renter",
          "type": "address"
        }
      ],
      "name": "getRentalsByRenter",
      "outputs": [
        {
          "components": [
            {
              "internalType": "uint256",
              "name": "rentalID",
              "type": "uint256"
            },
            {
              "internalType": "uint64",
              "name": "dayPrice",
              "type": "uint64"
            },
            {
              "internalType": "uint64",
              "name": "caution",
              "type": "uint64"
            },
            {
              "internalType": "uint64",
              "name": "start",
              "type": "uint64"
            },
            {
              "internalType": "uint64",
              "name": "end",
              "type": "uint64"
            },
            {
              "internalType": "enum IAnyRental.RentalStatus",
              "name": "rentalStatus",
              "type": "uint8"
            },
            {
              "components": [
                {
                  "internalType": "bool",
                  "name": "isCautionDeposed",
                  "type": "bool"
                },
                {
                  "internalType": "bool",
                  "name": "isNFTDelegated",
                  "type": "bool"
                },
                {
                  "internalType": "bool",
                  "name": "isToolReturned",
                  "type": "bool"
                },
                {
                  "internalType": "bool",
                  "name": "isReturnValidated",
                  "type": "bool"
                },
                {
                  "internalType": "bool",
                  "name": "isDispute",
                  "type": "bool"
                },
                {
                  "internalType": "bool",
                  "name": "isDisputeConfirmed",
                  "type": "bool"
                },
                {
                  "internalType": "bool",
                  "name": "isRedeemed",
                  "type": "bool"
                }
              ],
              "internalType": "struct IAnyRental.RentalData",
              "name": "rentalData",
              "type": "tuple"
            },
            {
              "internalType": "address",
              "name": "renter",
              "type": "address"
            },
            {
              "components": [
                {
                  "internalType": "address",
                  "name": "collection",
                  "type": "address"
                },
                {
                  "internalType": "address",
                  "name": "owner",
                  "type": "address"
                }
              ],
              "internalType": "struct IAnyRental.CollectionNFT",
              "name": "collection",
              "type": "tuple"
            },
            {
              "internalType": "uint256",
              "name": "tokenID",
              "type": "uint256"
            },
            {
              "internalType": "string",
              "name": "tokenURI",
              "type": "string"
            }
          ],
          "internalType": "struct IAnyRental.Rental[]",
          "name": "",
          "type": "tuple[]"
        }
      ],
      "stateMutability": "view",
      "type": "function"
    },
    {
      "inputs": [
        {
          "internalType": "address",
          "name": "_renter",
          "type": "address"
        },
        {
          "internalType": "uint256",
          "name": "_rentalId",
          "type": "uint256"
        }
      ],
      "name": "getRentalByRenterAddressAndRentalID",
      "outputs": [
        {
          "components": [
            {
              "internalType": "uint256",
              "name": "rentalID",
              "type": "uint256"
            },
            {
              "internalType": "uint64",
              "name": "dayPrice",
              "type": "uint64"
            },
            {
              "internalType": "uint64",
              "name": "caution",
              "type": "uint64"
            },
            {
              "internalType": "uint64",
              "name": "start",
              "type": "uint64"
            },
            {
              "internalType": "uint64",
              "name": "end",
              "type": "uint64"
            },
            {
              "internalType": "enum IAnyRental.RentalStatus",
              "name": "rentalStatus",
              "type": "uint8"
            },
            {
              "components": [
                {
                  "internalType": "bool",
                  "name": "isCautionDeposed",
                  "type": "bool"
                },
                {
                  "internalType": "bool",
                  "name": "isNFTDelegated",
                  "type": "bool"
                },
                {
                  "internalType": "bool",
                  "name": "isToolReturned",
                  "type": "bool"
                },
                {
                  "internalType": "bool",
                  "name": "isReturnValidated",
                  "type": "bool"
                },
                {
                  "internalType": "bool",
                  "name": "isDispute",
                  "type": "bool"
                },
                {
                  "internalType": "bool",
                  "name": "isDisputeConfirmed",
                  "type": "bool"
                },
                {
                  "internalType": "bool",
                  "name": "isRedeemed",
                  "type": "bool"
                }
              ],
              "internalType": "struct IAnyRental.RentalData",
              "name": "rentalData",
              "type": "tuple"
            },
            {
              "internalType": "address",
              "name": "renter",
              "type": "address"
            },
            {
              "components": [
                {
                  "internalType": "address",
                  "name": "collection",
                  "type": "address"
                },
                {
                  "internalType": "address",
                  "name": "owner",
                  "type": "address"
                }
              ],
              "internalType": "struct IAnyRental.CollectionNFT",
              "name": "collection",
              "type": "tuple"
            },
            {
              "internalType": "uint256",
              "name": "tokenID",
              "type": "uint256"
            },
            {
              "internalType": "string",
              "name": "tokenURI",
              "type": "string"
            }
          ],
          "internalType": "struct IAnyRental.Rental",
          "name": "",
          "type": "tuple"
        }
      ],
      "stateMutability": "view",
      "type": "function"
    },
    {
      "inputs": [
        {
          "internalType": "string",
          "name": "_collectionName",
          "type": "string"
        },
        {
          "internalType": "string",
          "name": "_collectionSymbol",
          "type": "string"
        }
      ],
      "name": "createCollection",
      "outputs": [
        {
          "internalType": "address",
          "name": "",
          "type": "address"
        }
      ],
      "stateMutability": "nonpayable",
      "type": "function"
    },
    {
      "inputs": [],
      "name": "deleteCollection",
      "outputs": [],
      "stateMutability": "nonpayable",
      "type": "function"
    },
    {
      "inputs": [
        {
          "internalType": "string",
          "name": "_tokenURI",
          "type": "string"
        },
        {
          "internalType": "uint256",
          "name": "_serialId",
          "type": "uint256"
        },
        {
          "internalType": "string",
          "name": "_title",
          "type": "string"
        },
        {
          "internalType": "string",
          "name": "_description",
          "type": "string"
        }
      ],
      "name": "addToolToCollection",
      "outputs": [
        {
          "internalType": "uint256",
          "name": "tokenId",
          "type": "uint256"
        }
      ],
      "stateMutability": "nonpayable",
      "type": "function"
    },
    {
      "inputs": [
        {
          "internalType": "uint256",
          "name": "_tokenId",
          "type": "uint256"
        },
        {
          "internalType": "address",
          "name": "_to",
          "type": "address"
        },
        {
          "internalType": "uint64",
          "name": "_expires",
          "type": "uint64"
        }
      ],
      "name": "delegateNFT",
      "outputs": [],
      "stateMutability": "nonpayable",
      "type": "function"
    },
    {
      "inputs": [
        {
          "internalType": "uint64",
          "name": "_dayPrice",
          "type": "uint64"
        },
        {
          "internalType": "uint64",
          "name": "_caution",
          "type": "uint64"
        },
        {
          "internalType": "uint256",
          "name": "_tokenID",
          "type": "uint256"
        },
        {
          "internalType": "string",
          "name": "_tokenURI",
          "type": "string"
        }
      ],
      "name": "addToolToRentals",
      "outputs": [],
      "stateMutability": "nonpayable",
      "type": "function"
    },
    {
      "inputs": [
        {
          "internalType": "uint256",
          "name": "_rentalID",
          "type": "uint256"
        },
        {
          "internalType": "uint64",
          "name": "_dayPrice",
          "type": "uint64"
        },
        {
          "internalType": "uint64",
          "name": "_caution",
          "type": "uint64"
        }
      ],
      "name": "updateToolIntoRentals",
      "outputs": [],
      "stateMutability": "nonpayable",
      "type": "function"
    },
    {
      "inputs": [
        {
          "internalType": "uint256",
          "name": "_rentalID",
          "type": "uint256"
        }
      ],
      "name": "deleteToolIntoRentals",
      "outputs": [],
      "stateMutability": "nonpayable",
      "type": "function"
    },
    {
      "inputs": [
        {
          "internalType": "address",
          "name": "_renter",
          "type": "address"
        },
        {
          "internalType": "uint256",
          "name": "_rentalID",
          "type": "uint256"
        },
        {
          "internalType": "uint64",
          "name": "_begin",
          "type": "uint64"
        },
        {
          "internalType": "uint64",
          "name": "_end",
          "type": "uint64"
        }
      ],
      "name": "sendPaiementForRental",
      "outputs": [],
      "stateMutability": "nonpayable",
      "type": "function"
    },
    {
      "inputs": [
        {
          "internalType": "uint256",
          "name": "_rentalID",
          "type": "uint256"
        },
        {
          "internalType": "uint256",
          "name": "_tokenID",
          "type": "uint256"
        }
      ],
      "name": "validateNFTDelegationForRental",
      "outputs": [],
      "stateMutability": "nonpayable",
      "type": "function"
    },
    {
      "inputs": [
        {
          "internalType": "address",
          "name": "_renter",
          "type": "address"
        },
        {
          "internalType": "uint256",
          "name": "_rentalID",
          "type": "uint256"
        }
      ],
      "name": "validateNFTandToolReception",
      "outputs": [],
      "stateMutability": "nonpayable",
      "type": "function"
    },
    {
      "inputs": [
        {
          "internalType": "address",
          "name": "_renter",
          "type": "address"
        },
        {
          "internalType": "uint256",
          "name": "_rentalID",
          "type": "uint256"
        }
      ],
      "name": "giveBackToolAfterRental",
      "outputs": [],
      "stateMutability": "nonpayable",
      "type": "function"
    },
    {
      "inputs": [
        {
          "internalType": "uint256",
          "name": "_rentalID",
          "type": "uint256"
        }
      ],
      "name": "validateReturnToolAfterRental",
      "outputs": [],
      "stateMutability": "nonpayable",
      "type": "function"
    },
    {
      "inputs": [
        {
          "internalType": "uint256",
          "name": "_rentalID",
          "type": "uint256"
        },
        {
          "internalType": "string",
          "name": "message",
          "type": "string"
        }
      ],
      "name": "refuseReturnToolAfterRental",
      "outputs": [],
      "stateMutability": "nonpayable",
      "type": "function"
    },
    {
      "inputs": [
        {
          "internalType": "address",
          "name": "_renter",
          "type": "address"
        },
        {
          "internalType": "uint256",
          "name": "_rentalID",
          "type": "uint256"
        },
        {
          "internalType": "string",
          "name": "message",
          "type": "string"
        }
      ],
      "name": "confirmDisputeAfterRental",
      "outputs": [],
      "stateMutability": "nonpayable",
      "type": "function"
    },
    {
      "inputs": [
        {
          "internalType": "address",
          "name": "_renter",
          "type": "address"
        },
        {
          "internalType": "uint256",
          "name": "_rentalID",
          "type": "uint256"
        }
      ],
      "name": "redeemPaymentForRental",
      "outputs": [],
      "stateMutability": "nonpayable",
      "type": "function"
    }
  ],
  "bytecode": "0x608060405260146007553480156200001657600080fd5b5060405162003f9038038062003f908339810160408190526200003991620000ba565b62000044336200006a565b600180546001600160a01b0319166001600160a01b0392909216919091179055620000ec565b600080546001600160a01b038381166001600160a01b0319831681178455604051919092169283917f8be0079c531659141344cd1fd0a4f28419497f9722a3daafe3b4186f6b6457e09190a35050565b600060208284031215620000cd57600080fd5b81516001600160a01b0381168114620000e557600080fd5b9392505050565b613e9480620000fc6000396000f3fe608060405234801561001057600080fd5b506004361061018e5760003560e01c80639427ce65116100de578063c45a015511610097578063e12ab21611610071578063e12ab2161461037d578063e374950e14610390578063f2fde38b146103b0578063f5df0054146103c357600080fd5b8063c45a01551461034e578063d50ca76314610361578063d5672deb1461036a57600080fd5b80639427ce65146102b65780639d76b1bc146102d6578063a8c8018e146102e9578063bfdfed6414610315578063c135426a14610328578063c222ba0a1461033b57600080fd5b80634cd4e3e01161014b578063715018a611610125578063715018a6146102605780637f7fcf111461026857806384fb41361461027b5780638da5cb5b146102a557600080fd5b80634cd4e3e0146102275780634ce7979e1461023a57806359087a941461024d57600080fd5b806301ee4e2f14610193578063176b9b75146101a85780631ebf7c50146101d85780631f728a1a146101e05780632c62afc1146101f35780633e4c89e914610214575b600080fd5b6101a66101a1366004612eb8565b6103e3565b005b6101bb6101b6366004612fcf565b610543565b6040516001600160a01b0390911681526020015b60405180910390f35b6101a66107b8565b6101a66101ee366004613032565b6109d0565b61020661020136600461304b565b610e37565b6040519081526020016101cf565b6101a6610222366004613129565b610f93565b6101a6610235366004613032565b61111c565b6101a6610248366004613167565b611285565b6101a661025b3660046131bf565b611464565b6101a66115df565b6101a6610276366004612eb8565b6115f3565b61028e610289366004612eb8565b611789565b6040516101cf9b9a999897969594939291906132d5565b6000546001600160a01b03166101bb565b6102c96102c4366004612eb8565b61193c565b6040516101cf919061346c565b6101a66102e4366004613486565b611c20565b6101bb6102f73660046134d5565b6001600160a01b039081166000908152600560205260409020541690565b6101a66103233660046134f2565b611f0a565b6101a6610336366004613559565b6122e8565b6101a6610349366004612eb8565b6124fe565b6001546101bb906001600160a01b031681565b61020660075481565b6101a661037836600461357b565b612683565b6101a661038b366004613032565b612880565b6103a361039e3660046134d5565b61288d565b6040516101cf91906135a0565b6101a66103be3660046134d5565b612b0a565b6103d66103d13660046134d5565b612b83565b6040516101cf9190613602565b806103ed60025490565b10156104145760405162461bcd60e51b815260040161040b906136c6565b60405180910390fd5b60006104208383612c2f565b6001600160a01b0384166000908152600660205260408120805492935090918390811061044f5761044f6136f3565b90600052602060002090600902019050828160000154146104825760405162461bcd60e51b815260040161040b90613709565b6005600282015460ff16600881111561049d5761049d6131fb565b146104ba5760405162461bcd60e51b815260040161040b90613740565b60028101805460ff19166008179055600381018054600160301b66ff0000000000ff199091161790556006810154600582015460078301546040517f3439199983bc67c84242710ffe8067d1454074df03cf118730de50fc5b6eb9bb93610535936001600160a01b0391821693339392909116914290613777565b60405180910390a150505050565b60003361058e5760405162461bcd60e51b81526020600482015260196024820152781859191c995cdcc81e995c9bc81a5cc81b9bdd081d985b1a59603a1b604482015260640161040b565b336000908152600560205260409020546001600160a01b0316156106055760405162461bcd60e51b815260206004820152602860248201527f596f7520616c72656164792068617665206372656174656420796f757220636f604482015267363632b1ba34b7b760c11b606482015260840161040b565b604080516020808201909252600090528351908401207fc5d2460186f7233c927e7db2dcc703c0e500b653ca82273b7bfad8045d85a470036106895760405162461bcd60e51b815260206004820152601e60248201527f636f6c6c656374696f6e206e616d652063616e277420626520656d7074790000604482015260640161040b565b600154604051633cccf6e960e11b81526000916001600160a01b031690637999edd2906106be903390889088906004016137ab565b6020604051808303816000875af11580156106dd573d6000803e3d6000fd5b505050506040513d601f19601f8201168201806040525081019061070191906137eb565b3360008181526005602052604080822080546001600160a01b0386166001600160a01b0319918216178255600191820180548216861790556004805492830181559093527f8a35acfbc15ff81a39ae7d344fd709f28e8600b4aa8c65c6b64bfe7fe36bd19b0180549092168317909155519192507f88d25790273b8c367ee270bf60b22ad4aada95ecda75d3d82710534a73ce277a916107a79190879085904290613808565b60405180910390a190505b92915050565b336108015760405162461bcd60e51b81526020600482015260196024820152781859191c995cdcc81e995c9bc81a5cc81b9bdd081d985b1a59603a1b604482015260640161040b565b336000908152600560205260409020546001600160a01b03166108365760405162461bcd60e51b815260040161040b9061383c565b336000908152600560205260408120546001600160a01b031690805b6004548110156108ad57336001600160a01b031660048281548110610879576108796136f3565b6000918252602090912001546001600160a01b03160361089b578091506108ad565b806108a581613889565b915050610852565b50600480546108be906001906138a2565b815481106108ce576108ce6136f3565b600091825260209091200154600480546001600160a01b0390921691839081106108fa576108fa6136f3565b9060005260206000200160006101000a8154816001600160a01b0302191690836001600160a01b031602179055506004805480610939576109396138b5565b60008281526020808220600019908401810180546001600160a01b031990811690915593019093553380825260058452604091829020805484168155600101805490931690925580519182526001600160a01b0385169282019290925242918101919091527fce084e945d8eacece908740a7dbf5178848ef8331e87941732f09c5c964b6c4c906060015b60405180910390a15050565b336000908152600560205260409020546001600160a01b0316610a055760405162461bcd60e51b815260040161040b9061383c565b6007543360009081526006602052604090205410610a355760405162461bcd60e51b815260040161040b906138cb565b6000805b33600090815260066020526040902054811015610aa557336000908152600660205260409020805484919083908110610a7457610a746136f3565b90600052602060002090600902016000015403610a9357809150610aa5565b80610a9d81613889565b915050610a39565b503360009081526006602052604090208054610ac3906001906138a2565b81548110610ad357610ad36136f3565b906000526020600020906009020160066000336001600160a01b03166001600160a01b031681526020019081526020016000208281548110610b1757610b176136f3565b60009182526020909120825460099092020190815560018083018054828401805467ffffffffffffffff1981166001600160401b0393841690811783558454600160401b908190048516026001600160801b031990921617178082558354600160801b9081900484160267ffffffffffffffff60801b198216811783559354600160c01b908190049093169092026001600160c01b039093166001600160801b0390921691909117919091179055600280840154908301805460ff90921692909160ff191690836008811115610bef57610bef6131fb565b021790555060038281018054918301805460ff938416151560ff19821681178355835461010090819004861615150261ff001990911661ffff19909216919091171780825582546201000090819004851615150262ff0000198216811783558354630100000090819004861615150263ff0000001990911663ffff0000199092169190911717808255825464010000000090819004851615150264ff00000000198216811783558354600160281b90819004861615150265ff00000000001990911665ffff000000001990921691909117178082559154600160301b90819004909316151590920266ff0000000000001990911617905560048083015490820180546001600160a01b03199081166001600160a01b0393841617909155600580850154908401805483169184169190911790556006808501549084018054909216921691909117905560078083015490820155600880820190610d5490840182613985565b5050336000908152600660205260409020805490915080610d7757610d776138b5565b6000828152602081206009600019909301928302018181556001810182905560028101805460ff1916905560038101805466ffffffffffffff191690556004810180546001600160a01b03199081169091556005820180548216905560068201805490911690556007810182905590610df36008830182612da9565b50509055604080513381526020810184905242918101919091527ff46058662129ffc1407e831e43472941c33828326b7a935de2a9f60925baec67906060016109c4565b336000908152600560205260408120546001600160a01b0316610e6c5760405162461bcd60e51b815260040161040b9061383c565b6007543360009081526006602052604090205410610e9c5760405162461bcd60e51b815260040161040b906138cb565b33600081815260056020526040808220549051635448142b60e11b81526001600160a01b0390911692839163a890285691610ee4918c918c918c918c918c9190600401613a65565b6020604051808303816000875af1158015610f03573d6000803e3d6000fd5b505050506040513d601f19601f82011682018060405250810190610f279190613ad9565b336000818152600560209081526040918290205482519384526001600160a01b03169083015281018290524260608201529091507fe029e29fa8a3bb786f69f9c8700882d80138e278db591e45bd8bbfa22682bd849060800160405180910390a1979650505050505050565b336000908152600560205260409020546001600160a01b0316610fc85760405162461bcd60e51b815260040161040b9061383c565b336000818152600560205260409020600101546001600160a01b0316146110415760405162461bcd60e51b815260206004820152602760248201527f596f7520617265206e6f7420746865206f776e6572206f662074686520636f6c6044820152663632b1ba34b7b760c91b606482015260840161040b565b33600081815260056020526040908190205490516333b57b5760e21b8152600481018690526001600160a01b0385811660248301526001600160401b03851660448301526064820193909352911690819063ced5ed5c90608401600060405180830381600087803b1580156110b557600080fd5b505af11580156110c9573d6000803e3d6000fd5b505033600081815260056020526040908190205490517f38ca09c302caf0446908a1a3f31a72897e907fc242c9a7990d7c0937ac128b149450610535935087916001600160a01b03169089904290613777565b3361112681612ce2565b6111425760405162461bcd60e51b815260040161040b90613af2565b8161114c60025490565b101561116a5760405162461bcd60e51b815260040161040b906136c6565b60006111763384612c2f565b336000908152600660205260408120805492935090918390811061119c5761119c6136f3565b90600052602060002090600902019050838160000154146111cf5760405162461bcd60e51b815260040161040b90613709565b6004600282015460ff1660088111156111ea576111ea6131fb565b146112075760405162461bcd60e51b815260040161040b90613740565b600281018054600560ff19909116811790915560038201805463ff00000019166301000000179055600682015460048301549183015460078401546040517f52d8c02cb4414644b59c67b225228ebebf995dbae27daeb68c1b08db68a5776994610535946001600160a01b0390811694918116939116914290613777565b8261128f81612ce2565b6112ab5760405162461bcd60e51b815260040161040b90613af2565b826112b560025490565b10156112d35760405162461bcd60e51b815260040161040b906136c6565b60006112df8585612c2f565b6001600160a01b0386166000908152600660205260408120805492935090918390811061130e5761130e6136f3565b90600052602060002090600902019050848160000154146113415760405162461bcd60e51b815260040161040b90613709565b60048101546001600160a01b031633146113b05760405162461bcd60e51b815260206004820152602a60248201527f50726f626c656d206f6e207468652072656e74657220616e6420746872206f6e604482015269652077686f2061736b7360b01b606482015260840161040b565b6006600282015460ff1660088111156113cb576113cb6131fb565b146113e85760405162461bcd60e51b815260040161040b90613740565b60038101805465ff00000000001916600160281b1790556006810154600582015460078301546040517fe88351cb5c14d4759ce2e8ab2b155c3123aa3f6d075a5093ec397c69531316e993611454936001600160a01b039182169333939190921691908a904290613b21565b60405180910390a1505050505050565b3361146e81612ce2565b61148a5760405162461bcd60e51b815260040161040b90613af2565b8261149460025490565b10156114b25760405162461bcd60e51b815260040161040b906136c6565b60006114be3385612c2f565b33600090815260066020526040812080549293509091839081106114e4576114e46136f3565b90600052602060002090600902019050848160000154146115175760405162461bcd60e51b815260040161040b90613709565b6004600282015460ff166008811115611532576115326131fb565b1461154f5760405162461bcd60e51b815260040161040b90613740565b600281018054600660ff19909116811790915560038201805464ff00ff000019166401000100001790558101546004820154600583015460078401546040517fa0468e9e1b4d1e35562d8986f9ffabe60d38f204b1b21aca613b454ea7d968d4946115d0946001600160a01b0391821694908216939116918a904290613b21565b60405180910390a15050505050565b6115e7612cff565b6115f16000612d59565b565b816115fd81612ce2565b6116195760405162461bcd60e51b815260040161040b90613af2565b8161162360025490565b10156116415760405162461bcd60e51b815260040161040b906136c6565b600061164d8484612c2f565b6001600160a01b0385166000908152600660205260408120805492935090918390811061167c5761167c6136f3565b90600052602060002090600902019050838160000154146116af5760405162461bcd60e51b815260040161040b90613709565b60048101546001600160a01b031633146116db5760405162461bcd60e51b815260040161040b90613b6f565b6003600282015460ff1660088111156116f6576116f66131fb565b146117135760405162461bcd60e51b815260040161040b90613740565b60028101805460ff191660041790556003810180546201000062ff0000199091161790556006810154600582015460078301546040517f148ece29b6c432d68b486ce63886d31120fe9c4ec4cf0dbed28a0944ff693df4936115d0936001600160a01b0391821693339392909116914290613777565b600660205281600052604060002081815481106117a557600080fd5b60009182526020918290206009909102018054600182015460028301546040805160e081018252600386015460ff81811615158352610100820481161515838a01526201000082048116151583850152630100000082048116151560608401526401000000008204811615156080840152600160281b82048116151560a0840152600160301b9091048116151560c08301526004870154835180850190945260058801546001600160a01b03908116855260068901548116998501999099526007880154600889018054989c506001600160401b038089169c50600160401b890481169b600160801b8a0482169b600160c01b909a049091169994909716979496909216949390929091906118b990613902565b80601f01602080910402602001604051908101604052809291908181526020018280546118e590613902565b80156119325780601f1061190757610100808354040283529160200191611932565b820191906000526020600020905b81548152906001019060200180831161191557829003601f168201915b505050505090508b565b611944612de3565b8261194e81612ce2565b61196a5760405162461bcd60e51b815260040161040b90613af2565b6000805b6001600160a01b0386166000908152600660205260409020548110156119ec576001600160a01b03861660009081526006602052604090208054869190839081106119bb576119bb6136f3565b906000526020600020906009020160000154036119da578091506119ec565b806119e481613889565b91505061196e565b506001600160a01b0385166000908152600660205260409020805482908110611a1757611a176136f3565b6000918252602091829020604080516101608101825260099093029091018054835260018101546001600160401b0380821695850195909552600160401b8104851692840192909252600160801b820484166060840152600160c01b9091049092166080820152600282015490919060a083019060ff166008811115611a9f57611a9f6131fb565b6008811115611ab057611ab06131fb565b81526040805160e081018252600384015460ff8082161515835261010082048116151560208481019190915262010000830482161515848601526301000000830482161515606080860191909152640100000000840483161515608080870191909152600160281b85048416151560a080880191909152600160301b909504909316151560c08601528187019490945260048701546001600160a01b039081168688015285518087019096526005880154811686526006880154169085015291840192909252600784015490830152600883018054919092019190611b9490613902565b80601f0160208091040260200160405190810160405280929190818152602001828054611bc090613902565b8015611c0d5780601f10611be257610100808354040283529160200191611c0d565b820191906000526020600020905b815481529060010190602001808311611bf057829003601f168201915b5050505050815250509250505092915050565b83611c2a81612ce2565b611c465760405162461bcd60e51b815260040161040b90613af2565b83611c5060025490565b1015611c6e5760405162461bcd60e51b815260040161040b906136c6565b6000836001600160401b031611611cc75760405162461bcd60e51b815260206004820152601a60248201527f626567696e206d75737420626520612076616c69642064617465000000000000604482015260640161040b565b6000826001600160401b031611611d205760405162461bcd60e51b815260206004820152601860248201527f656e64206d75737420626520612076616c696420646174650000000000000000604482015260640161040b565b816001600160401b0316836001600160401b031610611d8d5760405162461bcd60e51b815260206004820152602360248201527f456e64206f662072656e74616c2063616e2774206265206265666f726520626560448201526233b4b760e91b606482015260840161040b565b6000611d998686612c2f565b6001600160a01b03871660009081526006602052604081208054929350909183908110611dc857611dc86136f3565b9060005260206000209060090201905085816000015414611dfb5760405162461bcd60e51b815260040161040b90613709565b6000600282015460ff166008811115611e1657611e166131fb565b14611e335760405162461bcd60e51b815260040161040b90613740565b600180820180546001600160401b03878116600160c01b026001600160c01b03918a16600160801b02919091166001600160801b039092169190911717905560028201805460ff19168280021790555060038101805460ff191660011790556004810180546001600160a01b031916339081179091556006820154600583015460078401546040517f82c81679d53af0a29474e2aa759267691f702b26b09b0ebac62d0394c9eaadb094611ef9946001600160a01b039081169491939116914290613777565b60405180910390a150505050505050565b336000908152600560205260409020546001600160a01b0316611f3f5760405162461bcd60e51b815260040161040b9061383c565b6007543360009081526006602052604090205410611f6f5760405162461bcd60e51b815260040161040b906138cb565b6000846001600160401b031611611f985760405162461bcd60e51b815260040161040b90613bb9565b6000836001600160401b031611611fc15760405162461bcd60e51b815260040161040b90613bb9565b6000611fcc60025490565b9050611fe8604080518082019091526000808252602082015290565b33600081815260056020818152604080842080546001600160a01b03908116885295855292825260019092015490931684840152805160e0810182528281529283018290528201819052606082018190526080820181905260a0820181905260c0820152612054612de3565b8381526001600160401b0388811660208084019182528983166040808601918252600060a0870181815260c0880189905261010088018a905261012088018d905261014088018c905233825260068552918120805460018082018355918352949091208751600990950201938455935183850180549351606089015160808a01519389166001600160801b031990961695909517600160401b91891691909102176001600160801b0316600160801b948816949094026001600160c01b031693909317600160c01b9190961602949094179055915160028301805485949360ff19919091169083600881111561214c5761214c6131fb565b021790555060c082810151805160038401805460208085015160408601516060870151608088015160a0890151989099015161ffff1990951696151561ff0019169690961761010092151583021763ffff00001916620100009115159190910263ff0000001916176301000000951515959095029490941765ffff0000000019166401000000009615159690960265ff0000000000191695909517600160281b941515949094029390931766ff0000000000001916600160301b931515939093029290921790915560e08401516004840180546001600160a01b03199081166001600160a01b03938416179091559185015180516005860180548516918416919091179055909201516006840180549092169216919091179055610120820151600782015561014082015160088201906122869082613be5565b505050612297600280546001019055565b60408051338152602081018690529081018790524260608201527f42e0abb0754adf35b0f888ae1d34ed4fcb1176be32e695bb435d171f7abfcdb69060800160405180910390a15050505050505050565b336122f281612ce2565b61230e5760405162461bcd60e51b815260040161040b90613af2565b8261231860025490565b10156123365760405162461bcd60e51b815260040161040b906136c6565b6000821161237f5760405162461bcd60e51b81526020600482015260166024820152751d1bdad95b881251081b5d5cdd081899481d985b1a5960521b604482015260640161040b565b600061238b3385612c2f565b33600090815260066020526040812080549293509091839081106123b1576123b16136f3565b90600052602060002090600902019050848160000154146123e45760405162461bcd60e51b815260040161040b90613709565b8381600701541461244b5760405162461bcd60e51b815260206004820152602b60248201527f4572726f722e2e2e2074686520746f6b656e49642069736e277420746865206360448201526a37b93932b1ba1037b7329760a91b606482015260840161040b565b6001600282015460ff166008811115612466576124666131fb565b146124835760405162461bcd60e51b815260040161040b90613740565b6002818101805460ff1916600183021790555060038101805461ff00191661010017905560068101546004820154600583015460078401546040517f398075ddfcb370e855cd3a01f6ac8b404f3e1899de6c406baf4148098c9f7384946115d0946001600160a01b0391821694908216939116914290613777565b8161250881612ce2565b6125245760405162461bcd60e51b815260040161040b90613af2565b8161252e60025490565b101561254c5760405162461bcd60e51b815260040161040b906136c6565b60006125588484612c2f565b6001600160a01b03851660009081526006602052604081208054929350909183908110612587576125876136f3565b90600052602060002090600902019050838160000154146125ba5760405162461bcd60e51b815260040161040b90613709565b60048101546001600160a01b031633146125e65760405162461bcd60e51b815260040161040b90613b6f565b60028082015460ff166008811115612600576126006131fb565b1461261d5760405162461bcd60e51b815260040161040b90613740565b60028101805460ff1916600317905560068101546004820154600583015460078401546040517f38ca09c302caf0446908a1a3f31a72897e907fc242c9a7990d7c0937ac128b14946115d0946001600160a01b0391821694908216939116914290613777565b336000908152600560205260409020546001600160a01b03166126b85760405162461bcd60e51b815260040161040b9061383c565b6000826001600160401b0316116126e15760405162461bcd60e51b815260040161040b90613bb9565b6000816001600160401b03161161270a5760405162461bcd60e51b815260040161040b90613bb9565b60005b3360009081526006602052604090205481101561283b57336000908152600660205260409020805485919083908110612748576127486136f3565b9060005260206000209060090201600001540361282957336000908152600660205260409020805484919083908110612783576127836136f3565b906000526020600020906009020160010160006101000a8154816001600160401b0302191690836001600160401b031602179055508160066000336001600160a01b03166001600160a01b0316815260200190815260200160002082815481106127ef576127ef6136f3565b906000526020600020906009020160010160086101000a8154816001600160401b0302191690836001600160401b0316021790555061283b565b8061283381613889565b91505061270d565b506040805133815260208101859052428183015290517f01cc60dde87167776063bf9d5243d54a5f50296291346123485ec0eaeffb17f49181900360600190a1505050565b612888612cff565b600755565b60608161289981612ce2565b6128b55760405162461bcd60e51b815260040161040b90613af2565b6001600160a01b038316600090815260066020908152604080832080548251818502810185019093528083529193909284015b82821015612afd5760008481526020908190206040805161016081018252600986029092018054835260018101546001600160401b0380821695850195909552600160401b8104851692840192909252600160801b820484166060840152600160c01b9091049092166080820152600282015490919060a083019060ff166008811115612977576129776131fb565b6008811115612988576129886131fb565b81526040805160e081018252600384015460ff8082161515835261010082048116151560208481019190915262010000830482161515848601526301000000830482161515606080860191909152640100000000840483161515608080870191909152600160281b85048416151560a080880191909152600160301b909504909316151560c08601528187019490945260048701546001600160a01b039081168688015285518087019096526005880154811686526006880154169085015291840192909252600784015490830152600883018054919092019190612a6c90613902565b80601f0160208091040260200160405190810160405280929190818152602001828054612a9890613902565b8015612ae55780601f10612aba57610100808354040283529160200191612ae5565b820191906000526020600020905b815481529060010190602001808311612ac857829003601f168201915b505050505081525050815260200190600101906128e8565b5050505091505b50919050565b612b12612cff565b6001600160a01b038116612b775760405162461bcd60e51b815260206004820152602660248201527f4f776e61626c653a206e6577206f776e657220697320746865207a65726f206160448201526564647265737360d01b606482015260840161040b565b612b8081612d59565b50565b606081612b8f81612ce2565b612bab5760405162461bcd60e51b815260040161040b90613af2565b6001600160a01b03808416600090815260056020526040808220548151637c455b8b60e01b815291519316928392637c455b8b92600480820193918290030181865afa158015612bff573d6000803e3d6000fd5b505050506040513d6000823e601f3d908101601f19168201604052612c279190810190613cf3565b949350505050565b600082612c3b81612ce2565b612c575760405162461bcd60e51b815260040161040b90613af2565b6000805b6001600160a01b038616600090815260066020526040902054811015612cd9576001600160a01b0386166000908152600660205260409020805486919083908110612ca857612ca86136f3565b90600052602060002090600902016000015403612cc757809150612cd9565b80612cd181613889565b915050612c5b565b50949350505050565b6001600160a01b0316600090815260066020526040902054151590565b6000546001600160a01b031633146115f15760405162461bcd60e51b815260206004820181905260248201527f4f776e61626c653a2063616c6c6572206973206e6f7420746865206f776e6572604482015260640161040b565b600080546001600160a01b038381166001600160a01b0319831681178455604051919092169283917f8be0079c531659141344cd1fd0a4f28419497f9722a3daafe3b4186f6b6457e09190a35050565b508054612db590613902565b6000825580601f10612dc5575050565b601f016020900490600052602060002090810190612b809190612e8a565b604080516101608101825260008082526020820181905291810182905260608101829052608081018290529060a082019081526040805160e08101825260008082526020828101829052928201819052606082018190526080820181905260a0820181905260c0820152910190815260006020820152604001612e76604080518082019091526000808252602082015290565b815260200160008152602001606081525090565b5b80821115612e9f5760008155600101612e8b565b5090565b6001600160a01b0381168114612b8057600080fd5b60008060408385031215612ecb57600080fd5b8235612ed681612ea3565b946020939093013593505050565b634e487b7160e01b600052604160045260246000fd5b60405160c081016001600160401b0381118282101715612f1c57612f1c612ee4565b60405290565b604051601f8201601f191681016001600160401b0381118282101715612f4a57612f4a612ee4565b604052919050565b60006001600160401b03821115612f6b57612f6b612ee4565b50601f01601f191660200190565b600082601f830112612f8a57600080fd5b8135612f9d612f9882612f52565b612f22565b818152846020838601011115612fb257600080fd5b816020850160208301376000918101602001919091529392505050565b60008060408385031215612fe257600080fd5b82356001600160401b0380821115612ff957600080fd5b61300586838701612f79565b9350602085013591508082111561301b57600080fd5b5061302885828601612f79565b9150509250929050565b60006020828403121561304457600080fd5b5035919050565b60008060008060006080868803121561306357600080fd5b85356001600160401b038082111561307a57600080fd5b818801915088601f83011261308e57600080fd5b81358181111561309d57600080fd5b8960208285010111156130af57600080fd5b602092830197509550908701359350604087013590808211156130d157600080fd5b6130dd89838a01612f79565b935060608801359150808211156130f357600080fd5b5061310088828901612f79565b9150509295509295909350565b80356001600160401b038116811461312457600080fd5b919050565b60008060006060848603121561313e57600080fd5b83359250602084013561315081612ea3565b915061315e6040850161310d565b90509250925092565b60008060006060848603121561317c57600080fd5b833561318781612ea3565b92506020840135915060408401356001600160401b038111156131a957600080fd5b6131b586828701612f79565b9150509250925092565b600080604083850312156131d257600080fd5b8235915060208301356001600160401b038111156131ef57600080fd5b61302885828601612f79565b634e487b7160e01b600052602160045260246000fd5b6009811061322f57634e487b7160e01b600052602160045260246000fd5b9052565b80511515825260208101511515602083015260408101511515604083015260608101511515606083015260808101511515608083015260a0810151151560a083015260c0810151151560c08301525050565b60005b838110156132a0578181015183820152602001613288565b50506000910152565b600081518084526132c1816020860160208601613285565b601f01601f19169290920160200192915050565b8b81526001600160401b038b811660208301528a81166040830152898116606083015288166080820152600061024061331160a084018a613211565b61331e60c0840189613233565b6001600160a01b038781166101a0850152865181166101c08501526020870151166101e0840152846102008401528061022084015261335f818401856132a9565b9e9d5050505050505050505050505050565b600061024082518452602083015161339460208601826001600160401b03169052565b5060408301516133af60408601826001600160401b03169052565b5060608301516133ca60608601826001600160401b03169052565b5060808301516133e560808601826001600160401b03169052565b5060a08301516133f860a0860182613211565b5060c083015161340b60c0860182613233565b5060e08301516001600160a01b039081166101a0860152610100840151805182166101c087015260200151166101e08501526101208301516102008501526101408301516102208501829052613463828601826132a9565b95945050505050565b60208152600061347f6020830184613371565b9392505050565b6000806000806080858703121561349c57600080fd5b84356134a781612ea3565b9350602085013592506134bc6040860161310d565b91506134ca6060860161310d565b905092959194509250565b6000602082840312156134e757600080fd5b813561347f81612ea3565b6000806000806080858703121561350857600080fd5b6135118561310d565b935061351f6020860161310d565b92506040850135915060608501356001600160401b0381111561354157600080fd5b61354d87828801612f79565b91505092959194509250565b6000806040838503121561356c57600080fd5b50508035926020909101359150565b60008060006060848603121561359057600080fd5b833592506131506020850161310d565b6000602080830181845280855180835260408601915060408160051b870101925083870160005b828110156135f557603f198886030184526135e3858351613371565b945092850192908501906001016135c7565b5092979650505050505050565b60006020808301818452808551808352604092508286019150828160051b87010184880160005b838110156136b857603f19898403018552815160c081518552888201518986015287820151818987015261365f828701826132a9565b9150506060808301518683038288015261367983826132a9565b925050506080808301518683038288015261369483826132a9565b60a09485015115159790940196909652505094870194925090860190600101613629565b509098975050505050505050565b602080825260139082015272151bdbdb08191bd95cc81b9bdd08195e1a5cdd606a1b604082015260600190565b634e487b7160e01b600052603260045260246000fd5b6020808252601c908201527f5468652072656e74616c206973206e6f7420617661696c61626c652e00000000604082015260600190565b6020808252601f908201527f5468652072656e74616c2073746174757320697320696e636f72726563742e00604082015260600190565b6001600160a01b03958616815293851660208501529190931660408301526060820192909252608081019190915260a00190565b6001600160a01b03841681526060602082018190526000906137cf908301856132a9565b82810360408401526137e181856132a9565b9695505050505050565b6000602082840312156137fd57600080fd5b815161347f81612ea3565b600060018060a01b0380871683526080602084015261382a60808401876132a9565b94166040830152506060015292915050565b6020808252601d908201527f596f7520646f6e2774206861766520616e7920636f6c6c656374696f6e000000604082015260600190565b634e487b7160e01b600052601160045260246000fd5b60006001820161389b5761389b613873565b5060010190565b818103818111156107b2576107b2613873565b634e487b7160e01b600052603160045260246000fd5b6020808252601f908201527f4d6178696d756d206e756d626572206f6620746f6f6c73207265616368656400604082015260600190565b600181811c9082168061391657607f821691505b602082108103612b0457634e487b7160e01b600052602260045260246000fd5b601f82111561398057600081815260208120601f850160051c8101602086101561395d5750805b601f850160051c820191505b8181101561397c57828155600101613969565b5050505b505050565b818103613990575050565b61399a8254613902565b6001600160401b038111156139b1576139b1612ee4565b6139c5816139bf8454613902565b84613936565b6000601f8211600181146139f957600083156139e15750848201545b600019600385901b1c1916600184901b178455613a5e565b600085815260209020601f19841690600086815260209020845b83811015613a335782860154825560019586019590910190602001613a13565b5085831015613a515781850154600019600388901b60f8161c191681555b50505060018360011b0184555b5050505050565b60a081528560a0820152858760c0830137600060c087830101526000601f19601f880116820186602084015260c0838203016040840152613aa960c08201876132a9565b90508281036060840152613abd81866132a9565b91505060018060a01b0383166080830152979650505050505050565b600060208284031215613aeb57600080fd5b5051919050565b60208082526015908201527414995b9d195c88191bd95cc81b9bdd08195e1a5cdd605a1b604082015260600190565b6001600160a01b0387811682528681166020830152851660408201526060810184905260c060808201819052600090613b5c908301856132a9565b90508260a0830152979650505050505050565b6020808252602a908201527f50726f626c656d206f6e207468652072656e74657220616e6420746865206f6e604082015269652077686f2061736b7360b01b606082015260800190565b60208082526012908201527106e756d626572206d757374206265203e20360741b604082015260600190565b81516001600160401b03811115613bfe57613bfe612ee4565b613c0c816139bf8454613902565b602080601f831160018114613c415760008415613c295750858301515b600019600386901b1c1916600185901b17855561397c565b600085815260208120601f198616915b82811015613c7057888601518255948401946001909101908401613c51565b5085821015613c8e5787850151600019600388901b60f8161c191681555b5050505050600190811b01905550565b600082601f830112613caf57600080fd5b8151613cbd612f9882612f52565b818152846020838601011115613cd257600080fd5b612c27826020830160208701613285565b8051801515811461312457600080fd5b60006020808385031215613d0657600080fd5b82516001600160401b0380821115613d1d57600080fd5b818501915085601f830112613d3157600080fd5b815181811115613d4357613d43612ee4565b8060051b613d52858201612f22565b9182528381018501918581019089841115613d6c57600080fd5b86860192505b83831015613e5157825185811115613d8957600080fd5b860160c0818c03601f19011215613da05760008081fd5b613da8612efa565b8882015181526040808301518a83015260608084015189811115613dcc5760008081fd5b613dda8f8d83880101613c9e565b8385015250608091508184015189811115613df55760008081fd5b613e038f8d83880101613c9e565b82850152505060a08084015189811115613e1d5760008081fd5b613e2b8f8d83880101613c9e565b8385015250613e3c60c08501613ce3565b90830152508352509186019190860190613d72565b999850505050505050505056fea26469706673582212202ab3927bc8c08ed1d81c435cc0b1d35ecbf0647081a40e27a5544c7882f8e66964736f6c63430008130033",
  "immutableReferences": {},
  "source": "// SPDX-License-Identifier: MIT\npragma solidity 0.8.19;\n\nimport \"./IAnyRental.sol\";\nimport \"./IAnyNFTCollection.sol\";\nimport \"./AnyNFTCollection.sol\";\nimport \"./AnyNFTCollectionFactory.sol\";\nimport \"../node_modules/@openzeppelin/contracts/access/Ownable.sol\";\nimport \"./Utils.sol\";\n//import \"../node_modules/@ganache/console.log/console.sol\";\n\n/**\n * @title Rental Any  contract \n * @author https://github.com/gbesset\n * @notice contract to generate NFT of tool to locate, and manage the rental\n * @dev Implements NFT gneration, and rental process\n */\ncontract AnyRental is Ownable, IAnyRental{\n\n   using Counters for Counters.Counter;\n\n    AnyNFTCollectionFactory public factory;\n\n    Counters.Counter private rentalIds;\n\n\n    // mapping of  a user address to the rented tools\n    mapping (address => Rental[]) private userRentals;\n\n\n\n    // list of all the renters address\n    address[] rentersList;\n\n    // mapping of a renter address to its collection\n    mapping (address => CollectionNFT) private rentersCollection;\n    \n    // mapping of a renter address to its rentals\n    mapping (address => Rental[]) public rentersRentals;\n    uint256 public nbRentalMax = 20;\n\n\n\n    constructor(address _anyNFTFactory){\n        // Instantiate the Any NFT Factory from its address\n        factory = AnyNFTCollectionFactory(_anyNFTFactory);\n    }\n\n\n    /* ***********************************************\n    *   Modifiers \n    *********************************************** */\n\n    /**\n    * @dev Only renter can call\n    */\n\n    modifier onlyRenter() {\n        require(rentersCollection[msg.sender].owner==msg.sender, \"You are not the renter of the collection\");\n        _;\n    }\n    modifier renterMustExist(address _renter) {\n        require(renterExists(_renter), \"Renter does not exist\");\n        _;\n    }\n             \n\n\n    function setNbRentalMax(uint _nb) external onlyOwner{\n        nbRentalMax = _nb;\n    }\n\n    function renterExists(address _renter) internal view returns(bool) {\n        return rentersRentals[_renter].length>0;\n    }\n\n    /* ***********************************************\n    *   Getters \n    *********************************************** */\n     /** \n     * @notice return the NFT Tools from a renter address\n     * @dev get collection from renter Address\n     * @return Tool[]  (NFT attributes)\n     */\n    function getToolsCollection(address _renter) renterMustExist(_renter) external view returns(Utils.Tool[] memory){\n        //return factory._rentersCollection().tools();\n        IAnyNFTCollection collec = IAnyNFTCollection(rentersCollection[_renter].collection);\n        return collec.getTools();\n    }\n    /** \n     * @notice return the NFT Collection address from a renter address\n     * @dev get collection address a from renter Address\n     * @return address of the collection NFT\n     */\n    function getToolsCollectionAddress(address _renter)  external view returns(address){\n        return rentersCollection[_renter].collection;\n    }\n    \n\n\n    /*function getCollections()external view returns(Utils.Tool[] memory){\n        // pour toutes les addresses\n        // concatener les collections\n        // renvoyer l'ensemble\n        //ou en js appeler les differentes collections pour les addresses..?\n    }*/\n\n    /** \n     * @notice return the Rentals from a renter address\n     * @dev get rentals array from an renter address\n     * @return Rental[]\n     */\n    function getRentalsByRenter(address _renter) renterMustExist(_renter) external view returns(Rental[] memory){\n        return rentersRentals[_renter];\n    }\n\n    /** \n     * @notice return the Rental by the renter address and rentalId\n     * @dev return a rental from an address and a rentalID\n     * @return Rental \n     */\n    function getRentalByRenterAddressAndRentalID(address _renter, uint _rentalId) renterMustExist(_renter) external view returns(Rental memory){\n        uint found;\n         for(uint i; i< rentersRentals[_renter].length; i++){\n            if(rentersRentals[_renter][i].rentalID == _rentalId){\n                 found=i;\n                 break;\n            }   \n        }\n        return rentersRentals[_renter][found];\n    }\n        function getRentalIndexByRenterAddressAndRentalID(address _renter, uint _rentalId) renterMustExist(_renter) internal view returns(uint){\n        uint found;\n         for(uint i; i< rentersRentals[_renter].length; i++){\n            if(rentersRentals[_renter][i].rentalID == _rentalId){\n                 found=i;\n                 break;\n            }   \n        }\n        return found;\n    }\n\n    /** \n     * @notice return a Rental by the  rentalId\n     * @dev Internal ! very bad complexity.... don't use often !\n     * @return Rental \n     */\n    /* function getRentalByRentalId(uint _rentalId) internal view returns(Rental memory){\n        Rental memory rentalFound;\n         for(uint i; i< rentersList.length; i++){\n            Rental[] memory rentalsTmp = rentersRentals[rentersList[i]];\n            for(uint j; j<rentalsTmp.length; j++){\n                if(rentalsTmp[j].rentalID == _rentalId){\n                     rentalFound=rentalsTmp[j];\n                    break;\n                }\n            }   \n        }\n        return rentalFound;\n     }*/\n    \n\n\n\n    /* ***********************************************\n    *   Functions  - NFT Managment\n    *********************************************** */\n    /**\n     * @notice Create the NFT Collection of a renter\n     * @return collectionCreated : colletion address deployed\n     */\n    function createCollection(string memory _collectionName, string memory _collectionSymbol) external returns(address){\n        require(msg.sender != address(0), \"address zero is not valid\");\n        require(rentersCollection[msg.sender].collection==address(0), \"You already have created your collection\");\n        require(!Utils.isEqualString(_collectionName,\"\"), \"collection name can't be empty\");\n\n         address collectionAddress = factory.createAnyNFTCollection(msg.sender, _collectionName, _collectionSymbol);\n         //AnyNFTCollection collectionCreated = AnyNFTCollection(collectionAddress);\n\n        // update Renters Collection\n        rentersCollection[msg.sender].collection = collectionAddress;\n        rentersCollection[msg.sender].owner =  msg.sender;\n\n        //update the list of renters\n        rentersList.push(msg.sender);\n\n        emit NFTCollectionCreated(msg.sender, _collectionName , collectionAddress, block.timestamp);\n        \n        return collectionAddress;\n    }\n\n    /**\n     * @notice renter delete its NFT Collection of a\n     */\n    function deleteCollection() external {\n        require(msg.sender != address(0), \"address zero is not valid\");\n        require(rentersCollection[msg.sender].collection!=address(0), \"You don't have any collection\");\n      \n        AnyNFTCollection collec = AnyNFTCollection(rentersCollection[msg.sender].collection);\n\n        uint id;\n         for (uint i; i < rentersList.length; i++) {\n            if(rentersList[i] == msg.sender){\n                id=i;\n                break;\n            }\n        }\n\n        //delete element in list of renters\n        rentersList[id] = rentersList[rentersList.length-1];\n        rentersList.pop();\n\n        //delete rentals in mapping \n        delete rentersCollection[msg.sender];\n        /*\n        //TODO supprimer l'instance en transfrant au pralbale les fonds prsents....\n        selfdestruct(collec);\n       */\n        emit NFTCollectionDeleted(msg.sender , address(collec), block.timestamp);\n\n    }\n\n\n    function addToolToCollection(string calldata _tokenURI, uint _serialId, string memory _title, string memory _description ) external returns(uint tokenId){\n        require(rentersCollection[msg.sender].collection!=address(0), \"You don't have any collection\");\n        require(rentersRentals[msg.sender].length < nbRentalMax, \"Maximum number of tools reached\");\n        \n        IAnyNFTCollection collec = IAnyNFTCollection(rentersCollection[msg.sender].collection);\n        uint256 tokenID = collec.mint(_tokenURI, _serialId, _title, _description, msg.sender);\n\n\n        emit NFTToolAddedToCollection(msg.sender, rentersCollection[msg.sender].collection, tokenID, block.timestamp);\n        return tokenID;\n    }\n\n      /**\n     * @dev delegate the NFT to a user . onlyRenter\n     */\n    function delegateNFT(uint _tokenId, address _to, uint64 _expires) external {\n        require(rentersCollection[msg.sender].collection!=address(0), \"You don't have any collection\");\n        require(rentersCollection[msg.sender].owner==msg.sender, \"You are not the owner of the collection\");\n\n        \n        //Si pas de approve passer par I\n         AnyNFTCollection collec = AnyNFTCollection(rentersCollection[msg.sender].collection);\n        \n        //collec.approve(msg.sender, _tokenId);\n         collec.rentTool(_tokenId, _to, _expires, msg.sender);\n\n        emit RentalNFTToolDelegated(msg.sender, _to, rentersCollection[msg.sender].collection, _tokenId, block.timestamp);\n    }\n\n\n    /* ***********************************************\n    *   Functions  - Rental Managment\n    *********************************************** */\n\n    function addToolToRentals(uint64 _dayPrice, uint64 _caution, uint _tokenID, string memory _tokenURI) external {\n        require(rentersCollection[msg.sender].collection!=address(0), \"You don't have any collection\");\n        require(rentersRentals[msg.sender].length < nbRentalMax, \"Maximum number of tools reached\");\n        require(_dayPrice > 0, \"number must be > 0\");\n        require(_caution > 0, \"number must be > 0\");\n\n         uint newRentalIds = rentalIds.current();\n\n        CollectionNFT memory collec;\n        collec.collection = rentersCollection[msg.sender].collection;\n        collec.owner = rentersCollection[msg.sender].owner;\n\n        //All rentalData.is* false by default\n        RentalData memory rentalData;\n\n        Rental memory rental;\n        rental.rentalID = newRentalIds;\n        rental.dayPrice =_dayPrice;\n        rental.caution = _caution;\n        rental.rentalStatus = RentalStatus.AVAILABLE;\n        rental.rentalData = rentalData;\n        rental.collection = collec;\n        rental.tokenID = _tokenID;\n        rental.tokenURI = _tokenURI; \n\n        rentersRentals[msg.sender].push(rental);\n\n        rentalIds.increment();\n        emit ToolAddedToRentals(msg.sender, newRentalIds , _tokenID, block.timestamp);\n    }\n\n     /**\n     * @dev update a tool into collection . onlyRenter\n     */\n     function updateToolIntoRentals(uint _rentalID, uint64 _dayPrice, uint64 _caution) external{\n        require(rentersCollection[msg.sender].collection!=address(0), \"You don't have any collection\");\n        require(_dayPrice > 0, \"number must be > 0\");\n        require(_caution > 0, \"number must be > 0\");\n\n        for(uint i; i< rentersRentals[msg.sender].length; i++){\n            if(rentersRentals[msg.sender][i].rentalID == _rentalID){\n                 rentersRentals[msg.sender][i].dayPrice = _dayPrice;\n                 rentersRentals[msg.sender][i].caution = _caution;\n                 break;\n            }   \n        }\n\n        emit ToolUpdatedFromRentals(msg.sender, _rentalID, block.timestamp);\n     }\n      /**\n     * @dev delete a tool into collection . onlyRenter\n     */\n     function deleteToolIntoRentals(uint _rentalID) external{\n         require(rentersCollection[msg.sender].collection!=address(0), \"You don't have any collection\");\n        require(rentersRentals[msg.sender].length < nbRentalMax, \"Maximum number of tools reached\");\n        \n        uint id;\n        for(uint i; i< rentersRentals[msg.sender].length; i++){\n            if(rentersRentals[msg.sender][i].rentalID == _rentalID){\n                id = i;\n                 break;\n            }   \n        }\n        rentersRentals[msg.sender][id] = rentersRentals[msg.sender][rentersRentals[msg.sender].length-1];\n        rentersRentals[msg.sender].pop();\n         \n        emit ToolDeletedFromRentals(msg.sender, _rentalID, block.timestamp);\n     }\n\n\n /**\n     * @notice user send the location and caution which in order to ask for the rental of a Rental\n     * - the caution and location is secured until\n     * @dev user send caution and location price for rent a Rental\n     */\n     function sendPaiementForRental(address _renter, uint _rentalID, uint64 _begin, uint64 _end) renterMustExist(_renter) external{\n         require(rentalIds.current() >= _rentalID, \"Tool does not exist\");\n         require(_begin > 0, \"begin must be a valid date\");\n         require(_end > 0, \"end must be a valid date\");\n         require(_begin < _end, \"End of rental can't be before begin\");\n\n         uint found = getRentalIndexByRenterAddressAndRentalID(_renter, _rentalID);\n        Rental storage rental = rentersRentals[_renter][found];\n        require(rental.rentalID == _rentalID, \"The rental is not available.\");\n        require(rental.rentalStatus == RentalStatus.AVAILABLE, \"The rental status is incorrect.\");\n        \n        //gestion caution et paiement\n\n        rental.start = _begin;\n        rental.end = _end;\n        rental.rentalStatus = RentalStatus.RENTAL_REQUESTED;\n        rental.rentalData.isCautionDeposed = true;\n        rental.renter = msg.sender;\n\n         emit RentalRequested(rental.collection.owner, msg.sender,  rental.collection.collection, rental.tokenID, block.timestamp);\n     }\n\n   /**\n     * @notice renter delegate the NFT in order to validate the rental asking\n     * - the caution and location is still secured\n     * @dev renter validate the delagation of the NFT\n     */\n     function validateNFTDelegationForRental(uint _rentalID, uint _tokenID) renterMustExist(msg.sender)  external{\n         require(rentalIds.current() >= _rentalID, \"Tool does not exist\");\n         require(_tokenID > 0, \"token ID must be valid\");\n\n\n        uint found = getRentalIndexByRenterAddressAndRentalID(msg.sender, _rentalID);\n        Rental storage rental = rentersRentals[msg.sender][found];\n        require(rental.rentalID == _rentalID, \"The rental is not available.\");\n        require(rental.tokenID == _tokenID, \"Error... the tokenId isn't the correct one.\");\n        require(rental.rentalStatus == RentalStatus.RENTAL_REQUESTED, \"The rental status is incorrect.\");\n        \n        rental.rentalStatus = RentalStatus.RENTAL_ACCEPTED_NFT_SENT;\n        rental.rentalData.isNFTDelegated = true;\n        \n        emit RentalAccepted(rental.collection.owner, rental.renter,  rental.collection.collection, rental.tokenID, block.timestamp);\n     }   \n\n\n    /**\n     * @notice user get the tool in real life, has the NFT and valiate the transaction\n     * - the caution is still secured, the location is payed\n     * @dev user validate having the NFT, annd receipt the tool\n     */\n     function validateNFTandToolReception(address _renter, uint _rentalID) renterMustExist(_renter)  external{\n         require(rentalIds.current() >= _rentalID, \"Tool does not exist\");\n \n        uint found = getRentalIndexByRenterAddressAndRentalID(_renter, _rentalID);\n        Rental storage rental = rentersRentals[_renter][found];\n        require(rental.rentalID == _rentalID, \"The rental is not available.\");\n        require(rental.renter==msg.sender, \"Problem on the renter and the one who asks\");\n        require(rental.rentalStatus == RentalStatus.RENTAL_ACCEPTED_NFT_SENT, \"The rental status is incorrect.\");\n        \n        rental.rentalStatus = RentalStatus.VALIDATE_RECEIPT_PAYMENT;\n\n        //TODO mettre le tool is availabe a false dans Collection\n        \n        emit RentalNFTToolDelegated(rental.collection.owner, rental.renter,  rental.collection.collection, rental.tokenID, block.timestamp);\n\n     }\n\n    /**\n     * @notice user give back the toool at the end of renting\n     * - the caution is still secured, the location is already payed\n     * @dev user give bak th etool\n     */\n     function giveBackToolAfterRental(address _renter, uint _rentalID) renterMustExist(_renter) external{\n        require(rentalIds.current() >= _rentalID, \"Tool does not exist\");\n\n        uint found = getRentalIndexByRenterAddressAndRentalID(_renter, _rentalID);\n        Rental storage rental = rentersRentals[_renter][found];\n        require(rental.rentalID == _rentalID, \"The rental is not available.\");\n        require(rental.renter==msg.sender, \"Problem on the renter and the one who asks\");\n        require(rental.rentalStatus == RentalStatus.VALIDATE_RECEIPT_PAYMENT, \"The rental status is incorrect.\");\n        \n        rental.rentalStatus = RentalStatus.COMPLETED_USER;\n        rental.rentalData.isToolReturned = true;\n\n        //TODO mettre le tool is availabe a truue dans Collection\n        \n        emit RentalCompletedByUser(rental.collection.owner, msg.sender,  rental.collection.collection, rental.tokenID, block.timestamp);\n\n     }  \n     \n    /**\n     * @notice renter validate the return of the tool\n     * - the caution is given back\n     * @dev renter validae the return of the tool\n     */\n     function validateReturnToolAfterRental(uint _rentalID)renterMustExist(msg.sender)  external{\n        require(rentalIds.current() >= _rentalID, \"Tool does not exist\");\n\n        uint found = getRentalIndexByRenterAddressAndRentalID(msg.sender, _rentalID);\n        Rental storage rental = rentersRentals[msg.sender][found];\n        require(rental.rentalID == _rentalID, \"The rental is not available.\");\n        require(rental.rentalStatus == RentalStatus.COMPLETED_USER, \"The rental status is incorrect.\");\n        \n        rental.rentalStatus = RentalStatus.RETURN_ACCEPTED_BY_OWNER;\n        rental.rentalData.isReturnValidated = true;\n        \n        emit RentalCompletedByRenter(rental.collection.owner, rental.renter,  rental.collection.collection, rental.tokenID, block.timestamp);\n\n     } \n\n    /**\n     * @notice renter doens't validate the return of the tool. Problem. dispute creation\n     * - the caution still secured\n     * @dev renter doesn't validate the return of the tool, because of a problem\n     */\n     function refuseReturnToolAfterRental(uint _rentalID, string memory message)renterMustExist(msg.sender)  external{\n        require(rentalIds.current() >= _rentalID, \"Tool does not exist\");\n\n        uint found = getRentalIndexByRenterAddressAndRentalID(msg.sender, _rentalID);\n        Rental storage rental = rentersRentals[msg.sender][found];\n        require(rental.rentalID == _rentalID, \"The rental is not available.\");\n        require(rental.rentalStatus == RentalStatus.COMPLETED_USER, \"The rental status is incorrect.\");\n        \n        rental.rentalStatus = RentalStatus.DISPUTE;\n        rental.rentalData.isToolReturned = true;\n        rental.rentalData.isDispute = true;\n        \n        emit RentalDisputeCreated(rental.collection.owner, rental.renter,  rental.collection.collection, rental.tokenID, message, block.timestamp);\n\n     }\n\n    /**\n     * @notice user confirm dispute and expose its point of view\n     * - the caution still secured\n     * @dev user confirm dispute and expose its point of view\n     */\n     function confirmDisputeAfterRental(address _renter, uint _rentalID, string memory message)renterMustExist(_renter)  external{\n         require(rentalIds.current() >= _rentalID, \"Tool does not exist\");\n\n        uint found = getRentalIndexByRenterAddressAndRentalID(_renter, _rentalID);\n        Rental storage rental = rentersRentals[_renter][found];\n        require(rental.rentalID == _rentalID, \"The rental is not available.\");\n        require(rental.renter==msg.sender, \"Problem on the renter and thr one who asks\");\n        require(rental.rentalStatus == RentalStatus.DISPUTE, \"The rental status is incorrect.\");\n               \n        rental.rentalData.isDisputeConfirmed = true;\n\n        emit RentalDisputelConfirmedByUser(rental.collection.owner, msg.sender,  rental.collection.collection, rental.tokenID, message, block.timestamp);\n\n     }\n\n    /**\n     * @notice user redeem its caution or caution and location\n     * - the caution is given back at the end of rental or because the renter refuse the rental\n     * @dev user redeem its caution\n     */\n     function redeemPaymentForRental(address _renter, uint _rentalID) external{\n         require(rentalIds.current() >= _rentalID, \"Tool does not exist\");\n\n        uint found = getRentalIndexByRenterAddressAndRentalID(_renter, _rentalID);\n        Rental storage rental = rentersRentals[_renter][found];\n        require(rental.rentalID == _rentalID, \"The rental is not available.\");\n        require(rental.rentalStatus == RentalStatus.RETURN_ACCEPTED_BY_OWNER, \"The rental status is incorrect.\");\n        \n        // recuperer sa caution\n       \n\n        rental.rentalStatus = RentalStatus.RENTAL_ENDED;\n        rental.rentalData.isRedeemed = true;\n        rental.rentalData.isCautionDeposed = false;\n        \n        emit RentalEnded(rental.collection.owner, msg.sender,  rental.collection.collection, rental.tokenID, block.timestamp);\n\n     }  \n\n\n  \n  \n}\n",
  "sourcePath": "/Users/gbesset/wks/learning/web3/alyra_projetFinal_LocaTool_AnythingNearYou/truffle/contracts/AnyRental.sol",
  "compiler": {
    "name": "solc",
    "version": "0.8.19+commit.7dd6d404.Emscripten.clang"
  },
  "schemaVersion": "3.4.11",
  "updatedAt": "2023-04-03T18:53:34.552Z",
  "devdoc": {
    "author": "https://github.com/gbesset",
    "details": "Implements NFT gneration, and rental process",
    "events": {
      "NFTCollectionCreated(address,string,address,uint256)": {
        "details": "Emitted when a renter create its NFT Collection. give RenterAddress, CollectionName, CollectionAddress, timestamp"
      },
      "NFTCollectionDeleted(address,address,uint256)": {
        "details": "Emitted when a renter delete its NFT Collection. give RenterAddress, CollectionName, CollectionAddress, timestamp"
      },
      "NFTToolAddedToCollection(address,address,uint256,uint256)": {
        "details": "Emitted when a renter add a tool to its NFT Collection."
      },
      "RentalAccepted(address,address,address,uint256,uint256)": {
        "details": "Emitted when a renter accept to rent its tool"
      },
      "RentalCompletedByRenter(address,address,address,uint256,uint256)": {
        "details": "Emitted when a renter accept thereturn of the tool"
      },
      "RentalCompletedByUser(address,address,address,uint256,uint256)": {
        "details": "Emitted when a user give back the tool"
      },
      "RentalDisputeCreated(address,address,address,uint256,string,uint256)": {
        "details": "Emitted when a renter doensn't accept the return of the tool"
      },
      "RentalDisputeSolved(address,address,address,uint256,string,uint256)": {
        "details": "Emitted when a renter doensn't accept the return of the tool"
      },
      "RentalDisputelConfirmedByUser(address,address,address,uint256,string,uint256)": {
        "details": "Emitted when a renter doensn't accept the return of the tool"
      },
      "RentalEnded(address,address,address,uint256,uint256)": {
        "details": "Emitted when a renter redeem its causion and end the rental of the tool"
      },
      "RentalExtended(address,address,address,uint256,uint256,uint256)": {
        "details": "Emitted when a user ask to extznd the rental duration"
      },
      "RentalRejected(address,address,address,uint256,uint256)": {
        "details": "Emitted when a renter doesn't accept to rent its tool"
      },
      "RentalRequested(address,address,address,uint256,uint256)": {
        "details": "Emitted when a user ask to rent a tool from a collection"
      },
      "ToolAddedToRentals(address,uint256,uint256,uint256)": {
        "details": "Emitted when a renter add a tool to its NFT Collection."
      },
      "ToolDeletedFromRentals(address,uint256,uint256)": {
        "details": "Emitted when a renter delete a tool into its NFT Collection."
      },
      "ToolUpdatedFromRentals(address,uint256,uint256)": {
        "details": "Emitted when a renter aduptate a tool to its NFT Collection."
      }
    },
    "kind": "dev",
    "methods": {
      "addToolToCollection(string,uint256,string,string)": {
        "details": "add a tool to collection . onlyRenter"
      },
      "addToolToRentals(uint64,uint64,uint256,string)": {
        "details": "add a tool to collection . onlyRenter"
      },
      "confirmDisputeAfterRental(address,uint256,string)": {
        "details": "user confirm dispute and expose its point of view"
      },
      "createCollection(string,string)": {
        "returns": {
          "_0": "collectionCreated : colletion address deployed"
        }
      },
      "delegateNFT(uint256,address,uint64)": {
        "details": "delegate the NFT to a user . onlyRenter"
      },
      "deleteToolIntoRentals(uint256)": {
        "details": "delete a tool into collection . onlyRenter"
      },
      "getRentalByRenterAddressAndRentalID(address,uint256)": {
        "details": "return a rental from an address and a rentalID",
        "returns": {
          "_0": "Rental "
        }
      },
      "getRentalsByRenter(address)": {
        "details": "get rentals array from an renter address",
        "returns": {
          "_0": "Rental[]"
        }
      },
      "getToolsCollection(address)": {
        "details": "get collection from renter Address",
        "returns": {
          "_0": "Tool[]  (NFT attributes)"
        }
      },
      "getToolsCollectionAddress(address)": {
        "details": "get collection address a from renter Address",
        "returns": {
          "_0": "address of the collection NFT"
        }
      },
      "giveBackToolAfterRental(address,uint256)": {
        "details": "user give bak th etool"
      },
      "owner()": {
        "details": "Returns the address of the current owner."
      },
      "redeemPaymentForRental(address,uint256)": {
        "details": "user redeem its caution"
      },
      "refuseReturnToolAfterRental(uint256,string)": {
        "details": "renter doesn't validate the return of the tool, because of a problem"
      },
      "renounceOwnership()": {
        "details": "Leaves the contract without owner. It will not be possible to call `onlyOwner` functions anymore. Can only be called by the current owner. NOTE: Renouncing ownership will leave the contract without an owner, thereby removing any functionality that is only available to the owner."
      },
      "sendPaiementForRental(address,uint256,uint64,uint64)": {
        "details": "user send caution and location price for rent a Rental"
      },
      "transferOwnership(address)": {
        "details": "Transfers ownership of the contract to a new account (`newOwner`). Can only be called by the current owner."
      },
      "updateToolIntoRentals(uint256,uint64,uint64)": {
        "details": "update a tool into collection . onlyRenter"
      },
      "validateNFTDelegationForRental(uint256,uint256)": {
        "details": "renter validate the delagation of the NFT"
      },
      "validateNFTandToolReception(address,uint256)": {
        "details": "user validate having the NFT, annd receipt the tool"
      },
      "validateReturnToolAfterRental(uint256)": {
        "details": "renter validae the return of the tool"
      }
    },
    "title": "Rental Any  contract ",
    "version": 1
  },
  "userdoc": {
    "kind": "user",
    "methods": {
      "confirmDisputeAfterRental(address,uint256,string)": {
        "notice": "user confirm dispute and expose its point of view - the caution still secured"
      },
      "createCollection(string,string)": {
        "notice": "Create the NFT Collection of a renter"
      },
      "deleteCollection()": {
        "notice": "renter delete its NFT Collection of a"
      },
      "getRentalByRenterAddressAndRentalID(address,uint256)": {
        "notice": "return the Rental by the renter address and rentalId"
      },
      "getRentalsByRenter(address)": {
        "notice": "return the Rentals from a renter address"
      },
      "getToolsCollection(address)": {
        "notice": "return the NFT Tools from a renter address"
      },
      "getToolsCollectionAddress(address)": {
        "notice": "return the NFT Collection address from a renter address"
      },
      "giveBackToolAfterRental(address,uint256)": {
        "notice": "user give back the toool at the end of renting - the caution is still secured, the location is already payed"
      },
      "redeemPaymentForRental(address,uint256)": {
        "notice": "user redeem its caution or caution and location - the caution is given back at the end of rental or because the renter refuse the rental"
      },
      "refuseReturnToolAfterRental(uint256,string)": {
        "notice": "renter doens't validate the return of the tool. Problem. dispute creation - the caution still secured"
      },
      "sendPaiementForRental(address,uint256,uint64,uint64)": {
        "notice": "user send the location and caution which in order to ask for the rental of a Rental - the caution and location is secured until"
      },
      "validateNFTDelegationForRental(uint256,uint256)": {
        "notice": "renter delegate the NFT in order to validate the rental asking - the caution and location is still secured"
      },
      "validateNFTandToolReception(address,uint256)": {
        "notice": "user get the tool in real life, has the NFT and valiate the transaction - the caution is still secured, the location is payed"
      },
      "validateReturnToolAfterRental(uint256)": {
        "notice": "renter validate the return of the tool - the caution is given back"
      }
    },
    "notice": "contract to generate NFT of tool to locate, and manage the rental",
    "version": 1
  }
}