{
  "contractName": "AnyRental",
  "abi": [
    {
      "inputs": [
        {
          "internalType": "address",
          "name": "_anyNFTFactory",
          "type": "address"
        }
      ],
      "stateMutability": "nonpayable",
      "type": "constructor"
    },
    {
      "anonymous": false,
      "inputs": [
        {
          "indexed": false,
          "internalType": "address",
          "name": "renter",
          "type": "address"
        },
        {
          "indexed": false,
          "internalType": "string",
          "name": "renterCollectionName",
          "type": "string"
        },
        {
          "indexed": false,
          "internalType": "address",
          "name": "renterCollectionAddress",
          "type": "address"
        },
        {
          "indexed": false,
          "internalType": "uint256",
          "name": "timestamp",
          "type": "uint256"
        }
      ],
      "name": "NFTCollectionCreated",
      "type": "event"
    },
    {
      "anonymous": false,
      "inputs": [
        {
          "indexed": false,
          "internalType": "address",
          "name": "renter",
          "type": "address"
        },
        {
          "indexed": false,
          "internalType": "address",
          "name": "renterCollectionAddress",
          "type": "address"
        },
        {
          "indexed": false,
          "internalType": "uint256",
          "name": "timestamp",
          "type": "uint256"
        }
      ],
      "name": "NFTCollectionDeleted",
      "type": "event"
    },
    {
      "anonymous": false,
      "inputs": [
        {
          "indexed": false,
          "internalType": "address",
          "name": "renter",
          "type": "address"
        },
        {
          "indexed": false,
          "internalType": "address",
          "name": "renterCollectionAddress",
          "type": "address"
        },
        {
          "indexed": false,
          "internalType": "uint256",
          "name": "tokenId",
          "type": "uint256"
        },
        {
          "indexed": false,
          "internalType": "uint256",
          "name": "timestamp",
          "type": "uint256"
        }
      ],
      "name": "NFTToolAddedToCollection",
      "type": "event"
    },
    {
      "anonymous": false,
      "inputs": [
        {
          "indexed": true,
          "internalType": "address",
          "name": "previousOwner",
          "type": "address"
        },
        {
          "indexed": true,
          "internalType": "address",
          "name": "newOwner",
          "type": "address"
        }
      ],
      "name": "OwnershipTransferred",
      "type": "event"
    },
    {
      "anonymous": false,
      "inputs": [
        {
          "indexed": false,
          "internalType": "address",
          "name": "renter",
          "type": "address"
        },
        {
          "indexed": false,
          "internalType": "address",
          "name": "user",
          "type": "address"
        },
        {
          "indexed": false,
          "internalType": "address",
          "name": "renterCollectionAddress",
          "type": "address"
        },
        {
          "indexed": false,
          "internalType": "uint256",
          "name": "tokenId",
          "type": "uint256"
        },
        {
          "indexed": false,
          "internalType": "uint256",
          "name": "timestamp",
          "type": "uint256"
        }
      ],
      "name": "RentalAccepted",
      "type": "event"
    },
    {
      "anonymous": false,
      "inputs": [
        {
          "indexed": false,
          "internalType": "address",
          "name": "renter",
          "type": "address"
        },
        {
          "indexed": false,
          "internalType": "address",
          "name": "user",
          "type": "address"
        },
        {
          "indexed": false,
          "internalType": "address",
          "name": "renterCollectionAddress",
          "type": "address"
        },
        {
          "indexed": false,
          "internalType": "uint256",
          "name": "tokenId",
          "type": "uint256"
        },
        {
          "indexed": false,
          "internalType": "uint256",
          "name": "timestamp",
          "type": "uint256"
        }
      ],
      "name": "RentalCompletedByRenter",
      "type": "event"
    },
    {
      "anonymous": false,
      "inputs": [
        {
          "indexed": false,
          "internalType": "address",
          "name": "renter",
          "type": "address"
        },
        {
          "indexed": false,
          "internalType": "address",
          "name": "user",
          "type": "address"
        },
        {
          "indexed": false,
          "internalType": "address",
          "name": "renterCollectionAddress",
          "type": "address"
        },
        {
          "indexed": false,
          "internalType": "uint256",
          "name": "tokenId",
          "type": "uint256"
        },
        {
          "indexed": false,
          "internalType": "uint256",
          "name": "timestamp",
          "type": "uint256"
        }
      ],
      "name": "RentalCompletedByUser",
      "type": "event"
    },
    {
      "anonymous": false,
      "inputs": [
        {
          "indexed": false,
          "internalType": "address",
          "name": "renter",
          "type": "address"
        },
        {
          "indexed": false,
          "internalType": "address",
          "name": "user",
          "type": "address"
        },
        {
          "indexed": false,
          "internalType": "address",
          "name": "renterCollectionAddress",
          "type": "address"
        },
        {
          "indexed": false,
          "internalType": "uint256",
          "name": "tokenId",
          "type": "uint256"
        },
        {
          "indexed": false,
          "internalType": "string",
          "name": "dispute",
          "type": "string"
        },
        {
          "indexed": false,
          "internalType": "uint256",
          "name": "timestamp",
          "type": "uint256"
        }
      ],
      "name": "RentalDisputeCreated",
      "type": "event"
    },
    {
      "anonymous": false,
      "inputs": [
        {
          "indexed": false,
          "internalType": "address",
          "name": "renter",
          "type": "address"
        },
        {
          "indexed": false,
          "internalType": "address",
          "name": "user",
          "type": "address"
        },
        {
          "indexed": false,
          "internalType": "address",
          "name": "renterCollectionAddress",
          "type": "address"
        },
        {
          "indexed": false,
          "internalType": "uint256",
          "name": "tokenId",
          "type": "uint256"
        },
        {
          "indexed": false,
          "internalType": "string",
          "name": "disputeSolution",
          "type": "string"
        },
        {
          "indexed": false,
          "internalType": "uint256",
          "name": "timestamp",
          "type": "uint256"
        }
      ],
      "name": "RentalDisputeSolved",
      "type": "event"
    },
    {
      "anonymous": false,
      "inputs": [
        {
          "indexed": false,
          "internalType": "address",
          "name": "renter",
          "type": "address"
        },
        {
          "indexed": false,
          "internalType": "address",
          "name": "user",
          "type": "address"
        },
        {
          "indexed": false,
          "internalType": "address",
          "name": "renterCollectionAddress",
          "type": "address"
        },
        {
          "indexed": false,
          "internalType": "uint256",
          "name": "tokenId",
          "type": "uint256"
        },
        {
          "indexed": false,
          "internalType": "string",
          "name": "dispute",
          "type": "string"
        },
        {
          "indexed": false,
          "internalType": "uint256",
          "name": "timestamp",
          "type": "uint256"
        }
      ],
      "name": "RentalDisputelConfirmedByUser",
      "type": "event"
    },
    {
      "anonymous": false,
      "inputs": [
        {
          "indexed": false,
          "internalType": "address",
          "name": "renter",
          "type": "address"
        },
        {
          "indexed": false,
          "internalType": "address",
          "name": "user",
          "type": "address"
        },
        {
          "indexed": false,
          "internalType": "address",
          "name": "renterCollectionAddress",
          "type": "address"
        },
        {
          "indexed": false,
          "internalType": "uint256",
          "name": "tokenId",
          "type": "uint256"
        },
        {
          "indexed": false,
          "internalType": "uint256",
          "name": "timestamp",
          "type": "uint256"
        }
      ],
      "name": "RentalEnded",
      "type": "event"
    },
    {
      "anonymous": false,
      "inputs": [
        {
          "indexed": false,
          "internalType": "address",
          "name": "renter",
          "type": "address"
        },
        {
          "indexed": false,
          "internalType": "address",
          "name": "user",
          "type": "address"
        },
        {
          "indexed": false,
          "internalType": "address",
          "name": "renterCollectionAddress",
          "type": "address"
        },
        {
          "indexed": false,
          "internalType": "uint256",
          "name": "tokenId",
          "type": "uint256"
        },
        {
          "indexed": false,
          "internalType": "uint256",
          "name": "duration",
          "type": "uint256"
        },
        {
          "indexed": false,
          "internalType": "uint256",
          "name": "timestamp",
          "type": "uint256"
        }
      ],
      "name": "RentalExtended",
      "type": "event"
    },
    {
      "anonymous": false,
      "inputs": [
        {
          "indexed": false,
          "internalType": "address",
          "name": "renter",
          "type": "address"
        },
        {
          "indexed": false,
          "internalType": "address",
          "name": "user",
          "type": "address"
        },
        {
          "indexed": false,
          "internalType": "address",
          "name": "renterCollectionAddress",
          "type": "address"
        },
        {
          "indexed": false,
          "internalType": "uint256",
          "name": "tokenId",
          "type": "uint256"
        },
        {
          "indexed": false,
          "internalType": "uint256",
          "name": "timestamp",
          "type": "uint256"
        }
      ],
      "name": "RentalNFTToolDelegated",
      "type": "event"
    },
    {
      "anonymous": false,
      "inputs": [
        {
          "indexed": false,
          "internalType": "address",
          "name": "renter",
          "type": "address"
        },
        {
          "indexed": false,
          "internalType": "address",
          "name": "user",
          "type": "address"
        },
        {
          "indexed": false,
          "internalType": "address",
          "name": "renterCollectionAddress",
          "type": "address"
        },
        {
          "indexed": false,
          "internalType": "uint256",
          "name": "tokenId",
          "type": "uint256"
        },
        {
          "indexed": false,
          "internalType": "uint256",
          "name": "timestamp",
          "type": "uint256"
        }
      ],
      "name": "RentalRejected",
      "type": "event"
    },
    {
      "anonymous": false,
      "inputs": [
        {
          "indexed": false,
          "internalType": "address",
          "name": "renter",
          "type": "address"
        },
        {
          "indexed": false,
          "internalType": "address",
          "name": "user",
          "type": "address"
        },
        {
          "indexed": false,
          "internalType": "address",
          "name": "renterCollectionAddress",
          "type": "address"
        },
        {
          "indexed": false,
          "internalType": "uint256",
          "name": "tokenId",
          "type": "uint256"
        },
        {
          "indexed": false,
          "internalType": "uint256",
          "name": "timestamp",
          "type": "uint256"
        }
      ],
      "name": "RentalRequested",
      "type": "event"
    },
    {
      "anonymous": false,
      "inputs": [
        {
          "indexed": false,
          "internalType": "address",
          "name": "renter",
          "type": "address"
        },
        {
          "indexed": false,
          "internalType": "uint256",
          "name": "toolID",
          "type": "uint256"
        },
        {
          "indexed": false,
          "internalType": "uint256",
          "name": "tokenID",
          "type": "uint256"
        },
        {
          "indexed": false,
          "internalType": "uint256",
          "name": "timestamp",
          "type": "uint256"
        }
      ],
      "name": "ToolAddedToRentals",
      "type": "event"
    },
    {
      "anonymous": false,
      "inputs": [
        {
          "indexed": false,
          "internalType": "address",
          "name": "renter",
          "type": "address"
        },
        {
          "indexed": false,
          "internalType": "uint256",
          "name": "toolID",
          "type": "uint256"
        },
        {
          "indexed": false,
          "internalType": "uint256",
          "name": "timestamp",
          "type": "uint256"
        }
      ],
      "name": "ToolDeletedFromRentals",
      "type": "event"
    },
    {
      "anonymous": false,
      "inputs": [
        {
          "indexed": false,
          "internalType": "address",
          "name": "renter",
          "type": "address"
        },
        {
          "indexed": false,
          "internalType": "uint256",
          "name": "toolID",
          "type": "uint256"
        },
        {
          "indexed": false,
          "internalType": "uint256",
          "name": "timestamp",
          "type": "uint256"
        }
      ],
      "name": "ToolUpdatedFromRentals",
      "type": "event"
    },
    {
      "inputs": [],
      "name": "factory",
      "outputs": [
        {
          "internalType": "contract AnyNFTCollectionFactory",
          "name": "",
          "type": "address"
        }
      ],
      "stateMutability": "view",
      "type": "function",
      "constant": true
    },
    {
      "inputs": [],
      "name": "nbRentalMax",
      "outputs": [
        {
          "internalType": "uint256",
          "name": "",
          "type": "uint256"
        }
      ],
      "stateMutability": "view",
      "type": "function",
      "constant": true
    },
    {
      "inputs": [],
      "name": "owner",
      "outputs": [
        {
          "internalType": "address",
          "name": "",
          "type": "address"
        }
      ],
      "stateMutability": "view",
      "type": "function",
      "constant": true
    },
    {
      "inputs": [],
      "name": "renounceOwnership",
      "outputs": [],
      "stateMutability": "nonpayable",
      "type": "function"
    },
    {
      "inputs": [
        {
          "internalType": "address",
          "name": "",
          "type": "address"
        },
        {
          "internalType": "uint256",
          "name": "",
          "type": "uint256"
        }
      ],
      "name": "rentersRentals",
      "outputs": [
        {
          "internalType": "uint256",
          "name": "rentalID",
          "type": "uint256"
        },
        {
          "internalType": "uint64",
          "name": "dayPrice",
          "type": "uint64"
        },
        {
          "internalType": "uint64",
          "name": "caution",
          "type": "uint64"
        },
        {
          "internalType": "uint64",
          "name": "start",
          "type": "uint64"
        },
        {
          "internalType": "uint64",
          "name": "end",
          "type": "uint64"
        },
        {
          "internalType": "enum IAnyRental.RentalStatus",
          "name": "rentalStatus",
          "type": "uint8"
        },
        {
          "components": [
            {
              "internalType": "bool",
              "name": "isCautionDeposed",
              "type": "bool"
            },
            {
              "internalType": "bool",
              "name": "isNFTDelegated",
              "type": "bool"
            },
            {
              "internalType": "bool",
              "name": "isToolReturned",
              "type": "bool"
            },
            {
              "internalType": "bool",
              "name": "isReturnValidated",
              "type": "bool"
            },
            {
              "internalType": "bool",
              "name": "isDispute",
              "type": "bool"
            },
            {
              "internalType": "bool",
              "name": "isDisputeConfirmed",
              "type": "bool"
            },
            {
              "internalType": "bool",
              "name": "isRedeemed",
              "type": "bool"
            }
          ],
          "internalType": "struct IAnyRental.RentalData",
          "name": "rentalData",
          "type": "tuple"
        },
        {
          "internalType": "address",
          "name": "renter",
          "type": "address"
        },
        {
          "components": [
            {
              "internalType": "address",
              "name": "collection",
              "type": "address"
            },
            {
              "internalType": "address",
              "name": "owner",
              "type": "address"
            },
            {
              "internalType": "string",
              "name": "name",
              "type": "string"
            },
            {
              "internalType": "string",
              "name": "symbol",
              "type": "string"
            }
          ],
          "internalType": "struct IAnyRental.CollectionNFT",
          "name": "collection",
          "type": "tuple"
        },
        {
          "internalType": "uint256",
          "name": "tokenID",
          "type": "uint256"
        },
        {
          "internalType": "string",
          "name": "tokenImgURI",
          "type": "string"
        }
      ],
      "stateMutability": "view",
      "type": "function",
      "constant": true
    },
    {
      "inputs": [
        {
          "internalType": "address",
          "name": "newOwner",
          "type": "address"
        }
      ],
      "name": "transferOwnership",
      "outputs": [],
      "stateMutability": "nonpayable",
      "type": "function"
    },
    {
      "inputs": [
        {
          "internalType": "uint256",
          "name": "_nb",
          "type": "uint256"
        }
      ],
      "name": "setNbRentalMax",
      "outputs": [],
      "stateMutability": "nonpayable",
      "type": "function"
    },
    {
      "inputs": [
        {
          "internalType": "address",
          "name": "_owner",
          "type": "address"
        }
      ],
      "name": "getToolsCollection",
      "outputs": [
        {
          "components": [
            {
              "internalType": "uint256",
              "name": "tokenID",
              "type": "uint256"
            },
            {
              "internalType": "uint256",
              "name": "serialID",
              "type": "uint256"
            },
            {
              "internalType": "string",
              "name": "title",
              "type": "string"
            },
            {
              "internalType": "string",
              "name": "description",
              "type": "string"
            },
            {
              "internalType": "string",
              "name": "tokenURI",
              "type": "string"
            },
            {
              "internalType": "bool",
              "name": "isAvailable",
              "type": "bool"
            }
          ],
          "internalType": "struct Utils.Tool[]",
          "name": "",
          "type": "tuple[]"
        }
      ],
      "stateMutability": "view",
      "type": "function",
      "constant": true
    },
    {
      "inputs": [
        {
          "internalType": "address",
          "name": "_owner",
          "type": "address"
        }
      ],
      "name": "getToolsCollectionAddress",
      "outputs": [
        {
          "internalType": "address",
          "name": "",
          "type": "address"
        }
      ],
      "stateMutability": "view",
      "type": "function",
      "constant": true
    },
    {
      "inputs": [
        {
          "internalType": "address",
          "name": "_owner",
          "type": "address"
        }
      ],
      "name": "getRentalsByOwner",
      "outputs": [
        {
          "components": [
            {
              "internalType": "uint256",
              "name": "rentalID",
              "type": "uint256"
            },
            {
              "internalType": "uint64",
              "name": "dayPrice",
              "type": "uint64"
            },
            {
              "internalType": "uint64",
              "name": "caution",
              "type": "uint64"
            },
            {
              "internalType": "uint64",
              "name": "start",
              "type": "uint64"
            },
            {
              "internalType": "uint64",
              "name": "end",
              "type": "uint64"
            },
            {
              "internalType": "enum IAnyRental.RentalStatus",
              "name": "rentalStatus",
              "type": "uint8"
            },
            {
              "components": [
                {
                  "internalType": "bool",
                  "name": "isCautionDeposed",
                  "type": "bool"
                },
                {
                  "internalType": "bool",
                  "name": "isNFTDelegated",
                  "type": "bool"
                },
                {
                  "internalType": "bool",
                  "name": "isToolReturned",
                  "type": "bool"
                },
                {
                  "internalType": "bool",
                  "name": "isReturnValidated",
                  "type": "bool"
                },
                {
                  "internalType": "bool",
                  "name": "isDispute",
                  "type": "bool"
                },
                {
                  "internalType": "bool",
                  "name": "isDisputeConfirmed",
                  "type": "bool"
                },
                {
                  "internalType": "bool",
                  "name": "isRedeemed",
                  "type": "bool"
                }
              ],
              "internalType": "struct IAnyRental.RentalData",
              "name": "rentalData",
              "type": "tuple"
            },
            {
              "internalType": "address",
              "name": "renter",
              "type": "address"
            },
            {
              "components": [
                {
                  "internalType": "address",
                  "name": "collection",
                  "type": "address"
                },
                {
                  "internalType": "address",
                  "name": "owner",
                  "type": "address"
                },
                {
                  "internalType": "string",
                  "name": "name",
                  "type": "string"
                },
                {
                  "internalType": "string",
                  "name": "symbol",
                  "type": "string"
                }
              ],
              "internalType": "struct IAnyRental.CollectionNFT",
              "name": "collection",
              "type": "tuple"
            },
            {
              "internalType": "uint256",
              "name": "tokenID",
              "type": "uint256"
            },
            {
              "internalType": "string",
              "name": "tokenImgURI",
              "type": "string"
            }
          ],
          "internalType": "struct IAnyRental.Rental[]",
          "name": "",
          "type": "tuple[]"
        }
      ],
      "stateMutability": "view",
      "type": "function",
      "constant": true
    },
    {
      "inputs": [
        {
          "internalType": "address",
          "name": "_owner",
          "type": "address"
        },
        {
          "internalType": "uint256",
          "name": "_rentalId",
          "type": "uint256"
        }
      ],
      "name": "getRentalByOwnerAddressAndRentalID",
      "outputs": [
        {
          "components": [
            {
              "internalType": "uint256",
              "name": "rentalID",
              "type": "uint256"
            },
            {
              "internalType": "uint64",
              "name": "dayPrice",
              "type": "uint64"
            },
            {
              "internalType": "uint64",
              "name": "caution",
              "type": "uint64"
            },
            {
              "internalType": "uint64",
              "name": "start",
              "type": "uint64"
            },
            {
              "internalType": "uint64",
              "name": "end",
              "type": "uint64"
            },
            {
              "internalType": "enum IAnyRental.RentalStatus",
              "name": "rentalStatus",
              "type": "uint8"
            },
            {
              "components": [
                {
                  "internalType": "bool",
                  "name": "isCautionDeposed",
                  "type": "bool"
                },
                {
                  "internalType": "bool",
                  "name": "isNFTDelegated",
                  "type": "bool"
                },
                {
                  "internalType": "bool",
                  "name": "isToolReturned",
                  "type": "bool"
                },
                {
                  "internalType": "bool",
                  "name": "isReturnValidated",
                  "type": "bool"
                },
                {
                  "internalType": "bool",
                  "name": "isDispute",
                  "type": "bool"
                },
                {
                  "internalType": "bool",
                  "name": "isDisputeConfirmed",
                  "type": "bool"
                },
                {
                  "internalType": "bool",
                  "name": "isRedeemed",
                  "type": "bool"
                }
              ],
              "internalType": "struct IAnyRental.RentalData",
              "name": "rentalData",
              "type": "tuple"
            },
            {
              "internalType": "address",
              "name": "renter",
              "type": "address"
            },
            {
              "components": [
                {
                  "internalType": "address",
                  "name": "collection",
                  "type": "address"
                },
                {
                  "internalType": "address",
                  "name": "owner",
                  "type": "address"
                },
                {
                  "internalType": "string",
                  "name": "name",
                  "type": "string"
                },
                {
                  "internalType": "string",
                  "name": "symbol",
                  "type": "string"
                }
              ],
              "internalType": "struct IAnyRental.CollectionNFT",
              "name": "collection",
              "type": "tuple"
            },
            {
              "internalType": "uint256",
              "name": "tokenID",
              "type": "uint256"
            },
            {
              "internalType": "string",
              "name": "tokenImgURI",
              "type": "string"
            }
          ],
          "internalType": "struct IAnyRental.Rental",
          "name": "",
          "type": "tuple"
        }
      ],
      "stateMutability": "view",
      "type": "function",
      "constant": true
    },
    {
      "inputs": [
        {
          "internalType": "address",
          "name": "_renter",
          "type": "address"
        }
      ],
      "name": "isAddressOwner",
      "outputs": [
        {
          "internalType": "bool",
          "name": "",
          "type": "bool"
        }
      ],
      "stateMutability": "view",
      "type": "function",
      "constant": true
    },
    {
      "inputs": [
        {
          "internalType": "address",
          "name": "_renter",
          "type": "address"
        }
      ],
      "name": "isAddressRenter",
      "outputs": [
        {
          "internalType": "bool",
          "name": "",
          "type": "bool"
        }
      ],
      "stateMutability": "view",
      "type": "function",
      "constant": true
    },
    {
      "inputs": [
        {
          "internalType": "string",
          "name": "_collectionName",
          "type": "string"
        },
        {
          "internalType": "string",
          "name": "_collectionSymbol",
          "type": "string"
        }
      ],
      "name": "createCollection",
      "outputs": [
        {
          "internalType": "address",
          "name": "",
          "type": "address"
        }
      ],
      "stateMutability": "nonpayable",
      "type": "function"
    },
    {
      "inputs": [],
      "name": "deleteCollection",
      "outputs": [],
      "stateMutability": "nonpayable",
      "type": "function"
    },
    {
      "inputs": [
        {
          "internalType": "string",
          "name": "_tokenURI",
          "type": "string"
        },
        {
          "internalType": "uint256",
          "name": "_serialId",
          "type": "uint256"
        },
        {
          "internalType": "string",
          "name": "_title",
          "type": "string"
        },
        {
          "internalType": "string",
          "name": "_description",
          "type": "string"
        }
      ],
      "name": "addToolToCollection",
      "outputs": [
        {
          "internalType": "uint256",
          "name": "tokenId",
          "type": "uint256"
        }
      ],
      "stateMutability": "nonpayable",
      "type": "function"
    },
    {
      "inputs": [
        {
          "internalType": "uint256",
          "name": "_tokenId",
          "type": "uint256"
        },
        {
          "internalType": "address",
          "name": "_to",
          "type": "address"
        },
        {
          "internalType": "uint64",
          "name": "_expires",
          "type": "uint64"
        }
      ],
      "name": "delegateNFT",
      "outputs": [],
      "stateMutability": "nonpayable",
      "type": "function"
    },
    {
      "inputs": [
        {
          "internalType": "string",
          "name": "_tokenImgURI",
          "type": "string"
        },
        {
          "internalType": "uint64",
          "name": "_dayPrice",
          "type": "uint64"
        },
        {
          "internalType": "uint64",
          "name": "_caution",
          "type": "uint64"
        },
        {
          "internalType": "uint256",
          "name": "_tokenID",
          "type": "uint256"
        }
      ],
      "name": "addToolToRentals",
      "outputs": [],
      "stateMutability": "nonpayable",
      "type": "function"
    },
    {
      "inputs": [
        {
          "internalType": "uint256",
          "name": "_rentalID",
          "type": "uint256"
        },
        {
          "internalType": "uint64",
          "name": "_dayPrice",
          "type": "uint64"
        },
        {
          "internalType": "uint64",
          "name": "_caution",
          "type": "uint64"
        }
      ],
      "name": "updateToolIntoRentals",
      "outputs": [],
      "stateMutability": "nonpayable",
      "type": "function"
    },
    {
      "inputs": [
        {
          "internalType": "uint256",
          "name": "_rentalID",
          "type": "uint256"
        }
      ],
      "name": "deleteToolIntoRentals",
      "outputs": [],
      "stateMutability": "nonpayable",
      "type": "function"
    },
    {
      "inputs": [
        {
          "internalType": "address",
          "name": "_owner",
          "type": "address"
        },
        {
          "internalType": "uint256",
          "name": "_rentalID",
          "type": "uint256"
        },
        {
          "internalType": "uint64",
          "name": "_begin",
          "type": "uint64"
        },
        {
          "internalType": "uint64",
          "name": "_end",
          "type": "uint64"
        }
      ],
      "name": "sendPaiementForRental",
      "outputs": [],
      "stateMutability": "nonpayable",
      "type": "function"
    },
    {
      "inputs": [
        {
          "internalType": "uint256",
          "name": "_rentalID",
          "type": "uint256"
        },
        {
          "internalType": "uint256",
          "name": "_tokenID",
          "type": "uint256"
        }
      ],
      "name": "validateNFTDelegationForRental",
      "outputs": [],
      "stateMutability": "nonpayable",
      "type": "function"
    },
    {
      "inputs": [
        {
          "internalType": "address",
          "name": "_renter",
          "type": "address"
        },
        {
          "internalType": "uint256",
          "name": "_rentalID",
          "type": "uint256"
        }
      ],
      "name": "validateNFTandToolReception",
      "outputs": [],
      "stateMutability": "nonpayable",
      "type": "function"
    },
    {
      "inputs": [
        {
          "internalType": "address",
          "name": "_renter",
          "type": "address"
        },
        {
          "internalType": "uint256",
          "name": "_rentalID",
          "type": "uint256"
        }
      ],
      "name": "giveBackToolAfterRental",
      "outputs": [],
      "stateMutability": "nonpayable",
      "type": "function"
    },
    {
      "inputs": [
        {
          "internalType": "uint256",
          "name": "_rentalID",
          "type": "uint256"
        }
      ],
      "name": "validateReturnToolAfterRental",
      "outputs": [],
      "stateMutability": "nonpayable",
      "type": "function"
    },
    {
      "inputs": [
        {
          "internalType": "uint256",
          "name": "_rentalID",
          "type": "uint256"
        },
        {
          "internalType": "string",
          "name": "message",
          "type": "string"
        }
      ],
      "name": "refuseReturnToolAfterRental",
      "outputs": [],
      "stateMutability": "nonpayable",
      "type": "function"
    },
    {
      "inputs": [
        {
          "internalType": "address",
          "name": "_renter",
          "type": "address"
        },
        {
          "internalType": "uint256",
          "name": "_rentalID",
          "type": "uint256"
        },
        {
          "internalType": "string",
          "name": "message",
          "type": "string"
        }
      ],
      "name": "confirmDisputeAfterRental",
      "outputs": [],
      "stateMutability": "nonpayable",
      "type": "function"
    },
    {
      "inputs": [
        {
          "internalType": "address",
          "name": "_renter",
          "type": "address"
        },
        {
          "internalType": "uint256",
          "name": "_rentalID",
          "type": "uint256"
        }
      ],
      "name": "redeemPaymentForRental",
      "outputs": [],
      "stateMutability": "nonpayable",
      "type": "function"
    }
  ],
  "bytecode": "0x608060405260146007553480156200001657600080fd5b50604051620049fa380380620049fa8339810160408190526200003991620000ba565b62000044336200006a565b600180546001600160a01b0319166001600160a01b0392909216919091179055620000ec565b600080546001600160a01b038381166001600160a01b0319831681178455604051919092169283917f8be0079c531659141344cd1fd0a4f28419497f9722a3daafe3b4186f6b6457e09190a35050565b600060208284031215620000cd57600080fd5b81516001600160a01b0381168114620000e557600080fd5b9392505050565b6148fe80620000fc6000396000f3fe608060405234801561001057600080fd5b50600436106101c45760003560e01c806384fb4136116100f9578063c45a015511610097578063d5672deb11610071578063d5672deb14610416578063e12ab21614610429578063f2fde38b1461043c578063f5df00541461044f57600080fd5b8063c45a0155146103cc578063cfa54ca8146103df578063d50ca7631461040d57600080fd5b8063a8c8018e116100d3578063a8c8018e14610373578063b5139f3414610386578063c135426a146103a6578063c222ba0a146103b957600080fd5b806384fb4136146103255780638da5cb5b1461034f5780639d76b1bc1461036057600080fd5b80633e8d19fe1161016657806359087a941161014057806359087a94146102e4578063715018a6146102f75780637f7fcf11146102ff57806382edd1d51461031257600080fd5b80633e8d19fe1461029e5780634cd4e3e0146102be5780634ce7979e146102d157600080fd5b80631f728a1a116101a25780631f728a1a146102165780632c62afc1146102295780633511de411461024a5780633e4c89e91461028b57600080fd5b806301ee4e2f146101c9578063176b9b75146101de5780631ebf7c501461020e575b600080fd5b6101dc6101d73660046137ac565b61046f565b005b6101f16101ec3660046138c3565b6105cf565b6040516001600160a01b0390911681526020015b60405180910390f35b6101dc61087e565b6101dc610224366004613926565b610aec565b61023c610237366004613987565b610fd8565b604051908152602001610205565b61027b610258366004613a1e565b6001600160a01b0390811660009081526005602052604090206001015416151590565b6040519015158152602001610205565b6101dc610299366004613a5e565b611423565b6102b16102ac366004613a1e565b6115a5565b6040516102059190613cbe565b6101dc6102cc366004613926565b61195e565b6101dc6102df366004613d20565b611ad6565b6101dc6102f2366004613d78565b611cc6565b6101dc611e50565b6101dc61030d3660046137ac565b611e64565b6101dc610320366004613db4565b61200d565b6103386103333660046137ac565b6122d4565b6040516102059b9a99989796959493929190613e20565b6000546001600160a01b03166101f1565b6101dc61036e366004613ebb565b6125b1565b6101f1610381366004613a1e565b6128ae565b6103996103943660046137ac565b612909565b6040516102059190613f0a565b6101dc6103b4366004613f1d565b612d28565b6101dc6103c73660046137ac565b612f4d565b6001546101f1906001600160a01b031681565b61027b6103ed366004613a1e565b6001600160a01b0390811660009081526003602052604090205416151590565b61023c60075481565b6101dc610424366004613f3f565b6130e5565b6101dc610437366004613926565b61331b565b6101dc61044a366004613a1e565b613328565b61046261045d366004613a1e565b6133a1565b6040516102059190613f64565b8061047960025490565b10156104a05760405162461bcd60e51b815260040161049790614028565b60405180910390fd5b60006104ac8383613461565b6001600160a01b038416600090815260066020526040812080549293509091839081106104db576104db614055565b90600052602060002090600b020190508281600001541461050e5760405162461bcd60e51b81526004016104979061406b565b6005600282015460ff16600881111561052957610529613a9c565b146105465760405162461bcd60e51b8152600401610497906140a2565b60028101805460ff19166008179055600381018054600160301b66ff0000000000ff199091161790556006810154600582015460098301546040517f3439199983bc67c84242710ffe8067d1454074df03cf118730de50fc5b6eb9bb936105c1936001600160a01b03918216933393929091169142906140d9565b60405180910390a150505050565b60003361061a5760405162461bcd60e51b81526020600482015260196024820152781859191c995cdcc81e995c9bc81a5cc81b9bdd081d985b1a59603a1b6044820152606401610497565b336000908152600560205260409020546001600160a01b0316156106915760405162461bcd60e51b815260206004820152602860248201527f596f7520616c72656164792068617665206372656174656420796f757220636f604482015267363632b1ba34b7b760c11b6064820152608401610497565b604080516020808201909252600090528351908401207fc5d2460186f7233c927e7db2dcc703c0e500b653ca82273b7bfad8045d85a470036107155760405162461bcd60e51b815260206004820152601e60248201527f636f6c6c656374696f6e206e616d652063616e277420626520656d70747900006044820152606401610497565b600154604051633cccf6e960e11b81526000916001600160a01b031690637999edd29061074a9033908890889060040161410d565b6020604051808303816000875af1158015610769573d6000803e3d6000fd5b505050506040513d601f19601f8201168201806040525081019061078d919061414d565b33600081815260056020526040902080546001600160a01b0384166001600160a01b03199182161782556001820180549091169092179091559091506002016107d68582614202565b503360009081526005602052604090206003016107f38482614202565b50600480546001810182556000919091527f8a35acfbc15ff81a39ae7d344fd709f28e8600b4aa8c65c6b64bfe7fe36bd19b0180546001600160a01b031916339081179091556040517f88d25790273b8c367ee270bf60b22ad4aada95ecda75d3d82710534a73ce277a9161086d918790859042906142bb565b60405180910390a190505b92915050565b336000818152600560205260409020600101546001600160a01b0316146108b75760405162461bcd60e51b8152600401610497906142ef565b336109005760405162461bcd60e51b81526020600482015260196024820152781859191c995cdcc81e995c9bc81a5cc81b9bdd081d985b1a59603a1b6044820152606401610497565b336000908152600560205260409020546001600160a01b03166109355760405162461bcd60e51b815260040161049790614336565b336000908152600560205260408120546001600160a01b031690805b6004548110156109ac57336001600160a01b03166004828154811061097857610978614055565b6000918252602090912001546001600160a01b03160361099a578091506109ac565b806109a481614383565b915050610951565b50600480546109bd9060019061439c565b815481106109cd576109cd614055565b600091825260209091200154600480546001600160a01b0390921691839081106109f9576109f9614055565b9060005260206000200160006101000a8154816001600160a01b0302191690836001600160a01b031602179055506004805480610a3857610a386143af565b60008281526020808220830160001990810180546001600160a01b0319908116909155930190935533815260059092526040822080548216815560018101805490921690915590610a8c600283018261368e565b610a9a60038301600061368e565b5050604080513381526001600160a01b038416602082015242918101919091527fce084e945d8eacece908740a7dbf5178848ef8331e87941732f09c5c964b6c4c906060015b60405180910390a15050565b336000818152600560205260409020600101546001600160a01b031614610b255760405162461bcd60e51b8152600401610497906142ef565b336000908152600560205260409020546001600160a01b0316610b5a5760405162461bcd60e51b815260040161049790614336565b6007543360009081526006602052604090205410610b8a5760405162461bcd60e51b8152600401610497906143c5565b6000805b33600090815260066020526040902054811015610bfa57336000908152600660205260409020805484919083908110610bc957610bc9614055565b90600052602060002090600b02016000015403610be857809150610bfa565b80610bf281614383565b915050610b8e565b503360009081526006602052604090208054610c189060019061439c565b81548110610c2857610c28614055565b90600052602060002090600b020160066000336001600160a01b03166001600160a01b031681526020019081526020016000208281548110610c6c57610c6c614055565b600091825260209091208254600b9092020190815560018083018054828401805467ffffffffffffffff1981166001600160401b0393841690811783558454600160401b908190048516026001600160801b031990921617178082558354600160801b9081900484160267ffffffffffffffff60801b198216811783559354600160c01b908190049093169092026001600160c01b039093166001600160801b0390921691909117919091179055600280840154908301805460ff90921692909160ff191690836008811115610d4457610d44613a9c565b021790555060038281018054918301805460ff938416151560ff19821681178355835461010090819004861615150261ff001990911661ffff19909216919091171780825582546201000090819004851615150262ff0000198216811783558354630100000090819004861615150263ff0000001990911663ffff0000199092169190911717808255825464010000000090819004851615150264ff00000000198216811783558354600160281b90819004861615150260ff60281b1990911665ffff000000001990921691909117178082559154600160301b90819004909316151590920260ff60301b1990911617905560048083015490820180546001600160a01b03199081166001600160a01b039384161790915560058085018054918501805484169285169290921782556006808701549086018054909416941693909317909155600780840190610e9c908601826143fc565b50600381810190610eaf908401826143fc565b50505060098201548160090155600a820181600a019081610ed091906143fc565b5050336000908152600660205260409020805490915080610ef357610ef36143af565b600082815260208120600b600019909301928302018181556001810182905560028101805460ff1916905560038101805466ffffffffffffff191690556004810180546001600160a01b03199081169091556005820180548216815560068301805490921690915590919081610f6c600785018261368e565b610f7a60038301600061368e565b50506009820160009055600a82016000610f94919061368e565b50509055604080513381526020810184905242918101919091527ff46058662129ffc1407e831e43472941c33828326b7a935de2a9f60925baec6790606001610ae0565b3360008181526005602052604081206001015490916001600160a01b03909116146110155760405162461bcd60e51b8152600401610497906142ef565b336000908152600560205260409020546001600160a01b031661104a5760405162461bcd60e51b815260040161049790614336565b600754336000908152600660205260409020541061107a5760405162461bcd60e51b8152600401610497906143c5565b33600081815260056020526040808220549051635448142b60e11b81526001600160a01b0390911692839163a8902856916110c2918c918c918c918c918c91906004016144d0565b6020604051808303816000875af11580156110e1573d6000803e3d6000fd5b505050506040513d601f19601f820116820180604052508101906111059190614544565b9050600061111260025490565b905061111c6136c8565b6040805160808101825260008082526020820152606091810182905281810191909152336000818152600560208181526040832080546001600160a01b039081168752949093529081526001909101549091169082015282825261010082018190526101208201849052611194600280546001019055565b336000908152600660209081526040808320805460018181018355918552938390208651600b9095020193845591850151838301805492870151606088015160808901516001600160401b03908116600160c01b026001600160c01b03928216600160801b02929092166001600160801b03938216600160401b026001600160801b0319909716919095161794909417169190911791909117905560a084015160028301805486949360ff199091169083600881111561125657611256613a9c565b021790555060c08281015180516003840180546020808501516040808701516060880151608089015160a08a015199909a015161ffff1990961697151561ff0019169790971761010093151584021763ffff00001916620100009115159190910263ff0000001916176301000000961515969096029590951765ffff0000000019166401000000009715159790970260ff60281b191696909617600160281b951515959095029490941760ff60301b1916600160301b9115159190910217905560e08501516004850180546001600160a01b03199081166001600160a01b0393841617909155938601518051600587018054871691841691909117815593810151600687018054909616921691909117909355820151600784019061137b9082614202565b50606082015160038201906113909082614202565b5050506101208201516009820155610140820151600a8201906113b39082614202565b5050336000818152600560209081526040918290205482519384526001600160a01b03169083015281018690524260608201527fe029e29fa8a3bb786f69f9c8700882d80138e278db591e45bd8bbfa22682bd84915060800160405180910390a150919998505050505050505050565b336000818152600560205260409020600101546001600160a01b03161461145c5760405162461bcd60e51b8152600401610497906142ef565b336000908152600560205260409020546001600160a01b03166114915760405162461bcd60e51b815260040161049790614336565b336000818152600560205260409020600101546001600160a01b0316146114ca5760405162461bcd60e51b8152600401610497906142ef565b33600081815260056020526040908190205490516333b57b5760e21b8152600481018690526001600160a01b0385811660248301526001600160401b03851660448301526064820193909352911690819063ced5ed5c90608401600060405180830381600087803b15801561153e57600080fd5b505af1158015611552573d6000803e3d6000fd5b505033600081815260056020526040908190205490517f38ca09c302caf0446908a1a3f31a72897e907fc242c9a7990d7c0937ac128b1494506105c1935087916001600160a01b031690899042906140d9565b6001600160a01b038082166000908152600560205260409020546060918391166115e15760405162461bcd60e51b81526004016104979061455d565b6001600160a01b038316600090815260066020908152604080832080548251818502810185019093528083529193909284015b828210156119515760008481526020908190206040805161016081018252600b86029092018054835260018101546001600160401b0380821695850195909552600160401b8104851692840192909252600160801b820484166060840152600160c01b9091049092166080820152600282015490919060a083019060ff1660088111156116a3576116a3613a9c565b60088111156116b4576116b4613a9c565b81526040805160e081018252600384015460ff8082161515835261010082048116151560208481019190915262010000830482161515848601526301000000830482161515606080860191909152640100000000840483161515608080870191909152600160281b85048416151560a0870152600160301b909404909216151560c08501528086019390935260048601546001600160a01b03908116858701528451928301855260058701805482168452600688015490911693830193909352600786018054919095019491938401919061178e9061416a565b80601f01602080910402602001604051908101604052809291908181526020018280546117ba9061416a565b80156118075780601f106117dc57610100808354040283529160200191611807565b820191906000526020600020905b8154815290600101906020018083116117ea57829003601f168201915b505050505081526020016003820180546118209061416a565b80601f016020809104026020016040519081016040528092919081815260200182805461184c9061416a565b80156118995780601f1061186e57610100808354040283529160200191611899565b820191906000526020600020905b81548152906001019060200180831161187c57829003601f168201915b505050505081525050815260200160098201548152602001600a820180546118c09061416a565b80601f01602080910402602001604051908101604052809291908181526020018280546118ec9061416a565b80156119395780601f1061190e57610100808354040283529160200191611939565b820191906000526020600020905b81548152906001019060200180831161191c57829003601f168201915b50505050508152505081526020019060010190611614565b5050505091505b50919050565b336000818152600560205260409020546001600160a01b03166119935760405162461bcd60e51b81526004016104979061455d565b8161199d60025490565b10156119bb5760405162461bcd60e51b815260040161049790614028565b60006119c73384613461565b33600090815260066020526040812080549293509091839081106119ed576119ed614055565b90600052602060002090600b0201905083816000015414611a205760405162461bcd60e51b81526004016104979061406b565b6004600282015460ff166008811115611a3b57611a3b613a9c565b14611a585760405162461bcd60e51b8152600401610497906140a2565b600281018054600560ff19909116811790915560038201805463ff00000019166301000000179055600682015460048301549183015460098401546040517f52d8c02cb4414644b59c67b225228ebebf995dbae27daeb68c1b08db68a57769946105c1946001600160a01b03908116949181169391169142906140d9565b6001600160a01b03808416600090815260056020526040902054849116611b0f5760405162461bcd60e51b81526004016104979061455d565b82611b1960025490565b1015611b375760405162461bcd60e51b815260040161049790614028565b6000611b438585613461565b6001600160a01b03861660009081526006602052604081208054929350909183908110611b7257611b72614055565b90600052602060002090600b0201905084816000015414611ba55760405162461bcd60e51b81526004016104979061406b565b60048101546001600160a01b03163314611c145760405162461bcd60e51b815260206004820152602a60248201527f50726f626c656d206f6e207468652072656e74657220616e6420746872206f6e604482015269652077686f2061736b7360b01b6064820152608401610497565b6006600282015460ff166008811115611c2f57611c2f613a9c565b14611c4c5760405162461bcd60e51b8152600401610497906140a2565b60038101805460ff60281b1916600160281b1790556006810154600582015460098301546040517fe88351cb5c14d4759ce2e8ab2b155c3123aa3f6d075a5093ec397c69531316e993611cb6936001600160a01b039182169333939190921691908a90429061458b565b60405180910390a1505050505050565b336000818152600560205260409020546001600160a01b0316611cfb5760405162461bcd60e51b81526004016104979061455d565b82611d0560025490565b1015611d235760405162461bcd60e51b815260040161049790614028565b6000611d2f3385613461565b3360009081526006602052604081208054929350909183908110611d5557611d55614055565b90600052602060002090600b0201905084816000015414611d885760405162461bcd60e51b81526004016104979061406b565b6004600282015460ff166008811115611da357611da3613a9c565b14611dc05760405162461bcd60e51b8152600401610497906140a2565b600281018054600660ff19909116811790915560038201805464ff00ff000019166401000100001790558101546004820154600583015460098401546040517fa0468e9e1b4d1e35562d8986f9ffabe60d38f204b1b21aca613b454ea7d968d494611e41946001600160a01b0391821694908216939116918a90429061458b565b60405180910390a15050505050565b611e58613527565b611e626000613581565b565b6001600160a01b03808316600090815260056020526040902054839116611e9d5760405162461bcd60e51b81526004016104979061455d565b81611ea760025490565b1015611ec55760405162461bcd60e51b815260040161049790614028565b6000611ed18484613461565b6001600160a01b03851660009081526006602052604081208054929350909183908110611f0057611f00614055565b90600052602060002090600b0201905083816000015414611f335760405162461bcd60e51b81526004016104979061406b565b60048101546001600160a01b03163314611f5f5760405162461bcd60e51b8152600401610497906145d9565b6003600282015460ff166008811115611f7a57611f7a613a9c565b14611f975760405162461bcd60e51b8152600401610497906140a2565b60028101805460ff191660041790556003810180546201000062ff0000199091161790556006810154600582015460098301546040517f148ece29b6c432d68b486ce63886d31120fe9c4ec4cf0dbed28a0944ff693df493611e41936001600160a01b03918216933393929091169142906140d9565b336000818152600560205260409020600101546001600160a01b0316146120465760405162461bcd60e51b8152600401610497906142ef565b336000908152600560205260409020546001600160a01b031661207b5760405162461bcd60e51b815260040161049790614336565b60075433600090815260066020526040902054106120ab5760405162461bcd60e51b8152600401610497906143c5565b6000836001600160401b0316116120d45760405162461bcd60e51b815260040161049790614623565b6000826001600160401b0316116120fd5760405162461bcd60e51b815260040161049790614623565b6040805160e081018252600080825260208201819052918101829052606081018290526080810182905260a0810182905260c081018290529061214033846135d1565b336000908152600660205260408120805492935090918390811061216657612166614055565b60009182526020909120600b909102019050600a8101612187888a8361464f565b506001810180546001600160401b03878116600160401b026001600160801b03199092169089161717905560028101805460ff1916905582516003820180546020808701516040808901516060808b01516080808d015160a08e015160c08f01511515600160301b0260ff60301b19911515600160281b0260ff60281b19931515640100000000029390931665ffff000000001995151563010000000263ff0000001998151562010000029890981663ffff0000199a15156101000261ff00199f15159f909f1661ffff19909d169c909c179d909d179890981699909917949094179190911698909817919091179490941691909117909355845460098601548451338152928301919091529281019290925242908201527f42e0abb0754adf35b0f888ae1d34ed4fcb1176be32e695bb435d171f7abfcdb6910160405180910390a15050505050505050565b600660205281600052604060002081815481106122f057600080fd5b6000918252602091829020600b909102018054600182015460028301546040805160e081018252600386015460ff81811615158352610100820481161515838a0152620100008204811615158385015263010000008204811615156060840152640100000000820481161515608080850191909152600160281b83048216151560a0850152600160301b9092048116151560c08401526004880154845192830185526005890180546001600160a01b03908116855260068b015481169b85019b909b5260078a018054999d506001600160401b03808a169d50600160401b8a0481169c600160801b8b0482169c600160c01b909b049091169a9490981698959790921695909290840191906124049061416a565b80601f01602080910402602001604051908101604052809291908181526020018280546124309061416a565b801561247d5780601f106124525761010080835404028352916020019161247d565b820191906000526020600020905b81548152906001019060200180831161246057829003601f168201915b505050505081526020016003820180546124969061416a565b80601f01602080910402602001604051908101604052809291908181526020018280546124c29061416a565b801561250f5780601f106124e45761010080835404028352916020019161250f565b820191906000526020600020905b8154815290600101906020018083116124f257829003601f168201915b5050505050815250509080600901549080600a01805461252e9061416a565b80601f016020809104026020016040519081016040528092919081815260200182805461255a9061416a565b80156125a75780601f1061257c576101008083540402835291602001916125a7565b820191906000526020600020905b81548152906001019060200180831161258a57829003601f168201915b505050505090508b565b6001600160a01b038085166000908152600560205260409020548591166125ea5760405162461bcd60e51b81526004016104979061455d565b836125f460025490565b10156126125760405162461bcd60e51b815260040161049790614028565b6000836001600160401b03161161266b5760405162461bcd60e51b815260206004820152601a60248201527f626567696e206d75737420626520612076616c696420646174650000000000006044820152606401610497565b6000826001600160401b0316116126c45760405162461bcd60e51b815260206004820152601860248201527f656e64206d75737420626520612076616c6964206461746500000000000000006044820152606401610497565b816001600160401b0316836001600160401b0316106127315760405162461bcd60e51b815260206004820152602360248201527f456e64206f662072656e74616c2063616e2774206265206265666f726520626560448201526233b4b760e91b6064820152608401610497565b600061273d8686613461565b6001600160a01b0387166000908152600660205260408120805492935090918390811061276c5761276c614055565b90600052602060002090600b020190508581600001541461279f5760405162461bcd60e51b81526004016104979061406b565b6000600282015460ff1660088111156127ba576127ba613a9c565b146127d75760405162461bcd60e51b8152600401610497906140a2565b600180820180546001600160401b03878116600160c01b026001600160c01b03918a16600160801b02919091166001600160801b039092169190911717905560028201805460ff19168280021790555060038101805460ff191660011790556004810180546001600160a01b031916339081179091556006820154600583015460098401546040517f82c81679d53af0a29474e2aa759267691f702b26b09b0ebac62d0394c9eaadb09461289d946001600160a01b0390811694919391169142906140d9565b60405180910390a150505050505050565b6001600160a01b0380821660009081526005602052604081205490918391166128e95760405162461bcd60e51b81526004016104979061455d565b50506001600160a01b039081166000908152600560205260409020541690565b6129116136c8565b6001600160a01b0380841660009081526005602052604090205484911661294a5760405162461bcd60e51b81526004016104979061455d565b6000805b6001600160a01b0386166000908152600660205260409020548110156129cc576001600160a01b038616600090815260066020526040902080548691908390811061299b5761299b614055565b90600052602060002090600b020160000154036129ba578091506129cc565b806129c481614383565b91505061294e565b506001600160a01b03851660009081526006602052604090208054829081106129f7576129f7614055565b60009182526020918290206040805161016081018252600b9093029091018054835260018101546001600160401b0380821695850195909552600160401b8104851692840192909252600160801b820484166060840152600160c01b9091049092166080820152600282015490919060a083019060ff166008811115612a7f57612a7f613a9c565b6008811115612a9057612a90613a9c565b81526040805160e081018252600384015460ff8082161515835261010082048116151560208481019190915262010000830482161515848601526301000000830482161515606080860191909152640100000000840483161515608080870191909152600160281b85048416151560a0870152600160301b909404909216151560c08501528086019390935260048601546001600160a01b039081168587015284519283018552600587018054821684526006880154909116938301939093526007860180549190950194919384019190612b6a9061416a565b80601f0160208091040260200160405190810160405280929190818152602001828054612b969061416a565b8015612be35780601f10612bb857610100808354040283529160200191612be3565b820191906000526020600020905b815481529060010190602001808311612bc657829003601f168201915b50505050508152602001600382018054612bfc9061416a565b80601f0160208091040260200160405190810160405280929190818152602001828054612c289061416a565b8015612c755780601f10612c4a57610100808354040283529160200191612c75565b820191906000526020600020905b815481529060010190602001808311612c5857829003601f168201915b505050505081525050815260200160098201548152602001600a82018054612c9c9061416a565b80601f0160208091040260200160405190810160405280929190818152602001828054612cc89061416a565b8015612d155780601f10612cea57610100808354040283529160200191612d15565b820191906000526020600020905b815481529060010190602001808311612cf857829003601f168201915b5050505050815250509250505092915050565b336000818152600560205260409020546001600160a01b0316612d5d5760405162461bcd60e51b81526004016104979061455d565b82612d6760025490565b1015612d855760405162461bcd60e51b815260040161049790614028565b60008211612dce5760405162461bcd60e51b81526020600482015260166024820152751d1bdad95b881251081b5d5cdd081899481d985b1a5960521b6044820152606401610497565b6000612dda3385613461565b3360009081526006602052604081208054929350909183908110612e0057612e00614055565b90600052602060002090600b0201905084816000015414612e335760405162461bcd60e51b81526004016104979061406b565b83816009015414612e9a5760405162461bcd60e51b815260206004820152602b60248201527f4572726f722e2e2e2074686520746f6b656e49642069736e277420746865206360448201526a37b93932b1ba1037b7329760a91b6064820152608401610497565b6001600282015460ff166008811115612eb557612eb5613a9c565b14612ed25760405162461bcd60e51b8152600401610497906140a2565b6002818101805460ff1916600183021790555060038101805461ff00191661010017905560068101546004820154600583015460098401546040517f398075ddfcb370e855cd3a01f6ac8b404f3e1899de6c406baf4148098c9f738494611e41946001600160a01b03918216949082169391169142906140d9565b6001600160a01b03808316600090815260056020526040902054839116612f865760405162461bcd60e51b81526004016104979061455d565b81612f9060025490565b1015612fae5760405162461bcd60e51b815260040161049790614028565b6000612fba8484613461565b6001600160a01b03851660009081526006602052604081208054929350909183908110612fe957612fe9614055565b90600052602060002090600b020190508381600001541461301c5760405162461bcd60e51b81526004016104979061406b565b60048101546001600160a01b031633146130485760405162461bcd60e51b8152600401610497906145d9565b60028082015460ff16600881111561306257613062613a9c565b1461307f5760405162461bcd60e51b8152600401610497906140a2565b60028101805460ff1916600317905560068101546004820154600583015460098401546040517f38ca09c302caf0446908a1a3f31a72897e907fc242c9a7990d7c0937ac128b1494611e41946001600160a01b03918216949082169391169142906140d9565b336000818152600560205260409020600101546001600160a01b03161461311e5760405162461bcd60e51b8152600401610497906142ef565b336000908152600560205260409020546001600160a01b03166131535760405162461bcd60e51b815260040161049790614336565b6000826001600160401b03161161317c5760405162461bcd60e51b815260040161049790614623565b6000816001600160401b0316116131a55760405162461bcd60e51b815260040161049790614623565b60005b336000908152600660205260409020548110156132d6573360009081526006602052604090208054859190839081106131e3576131e3614055565b90600052602060002090600b020160000154036132c45733600090815260066020526040902080548491908390811061321e5761321e614055565b90600052602060002090600b020160010160006101000a8154816001600160401b0302191690836001600160401b031602179055508160066000336001600160a01b03166001600160a01b03168152602001908152602001600020828154811061328a5761328a614055565b90600052602060002090600b020160010160086101000a8154816001600160401b0302191690836001600160401b031602179055506132d6565b806132ce81614383565b9150506131a8565b506040805133815260208101859052428183015290517f01cc60dde87167776063bf9d5243d54a5f50296291346123485ec0eaeffb17f49181900360600190a1505050565b613323613527565b600755565b613330613527565b6001600160a01b0381166133955760405162461bcd60e51b815260206004820152602660248201527f4f776e61626c653a206e6577206f776e657220697320746865207a65726f206160448201526564647265737360d01b6064820152608401610497565b61339e81613581565b50565b6001600160a01b038082166000908152600560205260409020546060918391166133dd5760405162461bcd60e51b81526004016104979061455d565b6001600160a01b03808416600090815260056020526040808220548151637c455b8b60e01b815291519316928392637c455b8b92600480820193918290030181865afa158015613431573d6000803e3d6000fd5b505050506040513d6000823e601f3d908101601f19168201604052613459919081019061475d565b949350505050565b6001600160a01b03808316600090815260056020526040812054909184911661349c5760405162461bcd60e51b81526004016104979061455d565b6000805b6001600160a01b03861660009081526006602052604090205481101561351e576001600160a01b03861660009081526006602052604090208054869190839081106134ed576134ed614055565b90600052602060002090600b0201600001540361350c5780915061351e565b8061351681614383565b9150506134a0565b50949350505050565b6000546001600160a01b03163314611e625760405162461bcd60e51b815260206004820181905260248201527f4f776e61626c653a2063616c6c6572206973206e6f7420746865206f776e65726044820152606401610497565b600080546001600160a01b038381166001600160a01b0319831681178455604051919092169283917f8be0079c531659141344cd1fd0a4f28419497f9722a3daafe3b4186f6b6457e09190a35050565b6001600160a01b03808316600090815260056020526040812054909184911661360c5760405162461bcd60e51b81526004016104979061455d565b6000805b6001600160a01b03861660009081526006602052604090205481101561351e576001600160a01b038616600090815260066020526040902080548691908390811061365d5761365d614055565b90600052602060002090600b0201600901540361367c5780915061351e565b8061368681614383565b915050613610565b50805461369a9061416a565b6000825580601f106136aa575050565b601f01602090049060005260206000209081019061339e919061377e565b604080516101608101825260008082526020820181905291810182905260608101829052608081018290529060a082019081526040805160e08101825260008082526020828101829052928201819052606082018190526080820181905260a0820181905260c082015291019081526000602082015260400161376a604080516080810182526000808252602082015260609181018290528181019190915290565b815260200160008152602001606081525090565b5b80821115613793576000815560010161377f565b5090565b6001600160a01b038116811461339e57600080fd5b600080604083850312156137bf57600080fd5b82356137ca81613797565b946020939093013593505050565b634e487b7160e01b600052604160045260246000fd5b60405160c081016001600160401b0381118282101715613810576138106137d8565b60405290565b604051601f8201601f191681016001600160401b038111828210171561383e5761383e6137d8565b604052919050565b60006001600160401b0382111561385f5761385f6137d8565b50601f01601f191660200190565b600082601f83011261387e57600080fd5b813561389161388c82613846565b613816565b8181528460208386010111156138a657600080fd5b816020850160208301376000918101602001919091529392505050565b600080604083850312156138d657600080fd5b82356001600160401b03808211156138ed57600080fd5b6138f98683870161386d565b9350602085013591508082111561390f57600080fd5b5061391c8582860161386d565b9150509250929050565b60006020828403121561393857600080fd5b5035919050565b60008083601f84011261395157600080fd5b5081356001600160401b0381111561396857600080fd5b60208301915083602082850101111561398057600080fd5b9250929050565b60008060008060006080868803121561399f57600080fd5b85356001600160401b03808211156139b657600080fd5b6139c289838a0161393f565b90975095506020880135945060408801359150808211156139e257600080fd5b6139ee89838a0161386d565b93506060880135915080821115613a0457600080fd5b50613a118882890161386d565b9150509295509295909350565b600060208284031215613a3057600080fd5b8135613a3b81613797565b9392505050565b80356001600160401b0381168114613a5957600080fd5b919050565b600080600060608486031215613a7357600080fd5b833592506020840135613a8581613797565b9150613a9360408501613a42565b90509250925092565b634e487b7160e01b600052602160045260246000fd5b60098110613ad057634e487b7160e01b600052602160045260246000fd5b9052565b80511515825260208101511515602083015260408101511515604083015260608101511515606083015260808101511515608083015260a0810151151560a083015260c0810151151560c08301525050565b60005b83811015613b41578181015183820152602001613b29565b50506000910152565b60008151808452613b62816020860160208601613b26565b601f01601f19169290920160200192915050565b600060018060a01b0380835116845280602084015116602085015250604082015160806040850152613bab6080850182613b4a565b905060608301518482036060860152613bc48282613b4a565b95945050505050565b6000610220825184526020830151613bf060208601826001600160401b03169052565b506040830151613c0b60408601826001600160401b03169052565b506060830151613c2660608601826001600160401b03169052565b506080830151613c4160808601826001600160401b03169052565b5060a0830151613c5460a0860182613ab2565b5060c0830151613c6760c0860182613ad4565b5060e08301516001600160a01b03166101a08501526101008301516101c08501829052613c9682860182613b76565b9150506101208301516101e0850152610140830151848203610200860152613bc48282613b4a565b6000602080830181845280855180835260408601915060408160051b870101925083870160005b82811015613d1357603f19888603018452613d01858351613bcd565b94509285019290850190600101613ce5565b5092979650505050505050565b600080600060608486031215613d3557600080fd5b8335613d4081613797565b92506020840135915060408401356001600160401b03811115613d6257600080fd5b613d6e8682870161386d565b9150509250925092565b60008060408385031215613d8b57600080fd5b8235915060208301356001600160401b03811115613da857600080fd5b61391c8582860161386d565b600080600080600060808688031215613dcc57600080fd5b85356001600160401b03811115613de257600080fd5b613dee8882890161393f565b9096509450613e01905060208701613a42565b9250613e0f60408701613a42565b949793965091946060013592915050565b8b81526001600160401b038b811660208301528a811660408301528981166060830152881660808201526000610220613e5c60a084018a613ab2565b613e6960c0840189613ad4565b6001600160a01b0387166101a08401526101c08301819052613e8d81840187613b76565b9050846101e0840152828103610200840152613ea98185613b4a565b9e9d5050505050505050505050505050565b60008060008060808587031215613ed157600080fd5b8435613edc81613797565b935060208501359250613ef160408601613a42565b9150613eff60608601613a42565b905092959194509250565b602081526000613a3b6020830184613bcd565b60008060408385031215613f3057600080fd5b50508035926020909101359150565b600080600060608486031215613f5457600080fd5b83359250613a8560208501613a42565b60006020808301818452808551808352604092508286019150828160051b87010184880160005b8381101561401a57603f19898403018552815160c0815185528882015189860152878201518189870152613fc182870182613b4a565b91505060608083015186830382880152613fdb8382613b4a565b9250505060808083015186830382880152613ff68382613b4a565b60a09485015115159790940196909652505094870194925090860190600101613f8b565b509098975050505050505050565b602080825260139082015272151bdbdb08191bd95cc81b9bdd08195e1a5cdd606a1b604082015260600190565b634e487b7160e01b600052603260045260246000fd5b6020808252601c908201527f5468652072656e74616c206973206e6f7420617661696c61626c652e00000000604082015260600190565b6020808252601f908201527f5468652072656e74616c2073746174757320697320696e636f72726563742e00604082015260600190565b6001600160a01b03958616815293851660208501529190931660408301526060820192909252608081019190915260a00190565b6001600160a01b038416815260606020820181905260009061413190830185613b4a565b82810360408401526141438185613b4a565b9695505050505050565b60006020828403121561415f57600080fd5b8151613a3b81613797565b600181811c9082168061417e57607f821691505b60208210810361195857634e487b7160e01b600052602260045260246000fd5b601f8211156141e857600081815260208120601f850160051c810160208610156141c55750805b601f850160051c820191505b818110156141e4578281556001016141d1565b5050505b505050565b600019600383901b1c191660019190911b1790565b81516001600160401b0381111561421b5761421b6137d8565b61422f81614229845461416a565b8461419e565b602080601f83116001811461425e576000841561424c5750858301515b61425685826141ed565b8655506141e4565b600085815260208120601f198616915b8281101561428d5788860151825594840194600190910190840161426e565b50858210156142ab5787850151600019600388901b60f8161c191681555b5050505050600190811b01905550565b600060018060a01b038087168352608060208401526142dd6080840187613b4a565b94166040830152506060015292915050565b60208082526027908201527f596f7520617265206e6f7420746865206f776e6572206f662074686520636f6c6040820152663632b1ba34b7b760c91b606082015260800190565b6020808252601d908201527f596f7520646f6e2774206861766520616e7920636f6c6c656374696f6e000000604082015260600190565b634e487b7160e01b600052601160045260246000fd5b6000600182016143955761439561436d565b5060010190565b818103818111156108785761087861436d565b634e487b7160e01b600052603160045260246000fd5b6020808252601f908201527f4d6178696d756d206e756d626572206f6620746f6f6c73207265616368656400604082015260600190565b818103614407575050565b614411825461416a565b6001600160401b03811115614428576144286137d8565b61443681614229845461416a565b6000601f82116001811461446457600083156144525750848201545b61445c84826141ed565b8555506144c9565b600085815260209020601f19841690600086815260209020845b8381101561449e578286015482556001958601959091019060200161447e565b50858310156144bc5781850154600019600388901b60f8161c191681555b50505060018360011b0184555b5050505050565b60a081528560a0820152858760c0830137600060c087830101526000601f19601f880116820186602084015260c083820301604084015261451460c0820187613b4a565b905082810360608401526145288186613b4a565b91505060018060a01b0383166080830152979650505050505050565b60006020828403121561455657600080fd5b5051919050565b60208082526014908201527313dddb995c88191bd95cc81b9bdd08195e1a5cdd60621b604082015260600190565b6001600160a01b0387811682528681166020830152851660408201526060810184905260c0608082018190526000906145c690830185613b4a565b90508260a0830152979650505050505050565b6020808252602a908201527f50726f626c656d206f6e207468652072656e74657220616e6420746865206f6e604082015269652077686f2061736b7360b01b606082015260800190565b60208082526012908201527106e756d626572206d757374206265203e20360741b604082015260600190565b6001600160401b03831115614666576146666137d8565b61467a83614674835461416a565b8361419e565b6000601f8411600181146146a857600085156146965750838201355b6146a086826141ed565b8455506144c9565b600083815260209020601f19861690835b828110156146d957868501358255602094850194600190920191016146b9565b50868210156146f65760001960f88860031b161c19848701351681555b505060018560011b0183555050505050565b600082601f83011261471957600080fd5b815161472761388c82613846565b81815284602083860101111561473c57600080fd5b613459826020830160208701613b26565b80518015158114613a5957600080fd5b6000602080838503121561477057600080fd5b82516001600160401b038082111561478757600080fd5b818501915085601f83011261479b57600080fd5b8151818111156147ad576147ad6137d8565b8060051b6147bc858201613816565b91825283810185019185810190898411156147d657600080fd5b86860192505b838310156148bb578251858111156147f357600080fd5b860160c0818c03601f1901121561480a5760008081fd5b6148126137ee565b8882015181526040808301518a830152606080840151898111156148365760008081fd5b6148448f8d83880101614708565b838501525060809150818401518981111561485f5760008081fd5b61486d8f8d83880101614708565b82850152505060a080840151898111156148875760008081fd5b6148958f8d83880101614708565b83850152506148a660c0850161474d565b908301525083525091860191908601906147dc565b999850505050505050505056fea26469706673582212208dd6d56355dbe83cad8a80db62c1e0c51b953bb2c9d5befdb596b89d8b6c96b164736f6c63430008130033",
  "immutableReferences": {},
  "source": "// SPDX-License-Identifier: MIT\npragma solidity 0.8.19;\n\nimport \"./IAnyRental.sol\";\nimport \"./IAnyNFTCollection.sol\";\nimport \"./AnyNFTCollection.sol\";\nimport \"./AnyNFTCollectionFactory.sol\";\nimport \"../node_modules/@openzeppelin/contracts/access/Ownable.sol\";\nimport \"./Utils.sol\";\n//import \"../node_modules/@ganache/console.log/console.sol\";\n\n/**\n * @title Rental Any  contract \n * @author https://github.com/gbesset\n * @notice contract to generate NFT of tool to locate, and manage the rental\n * @dev Implements NFT gneration, and rental process\n */\ncontract AnyRental is Ownable, IAnyRental{\n\n   using Counters for Counters.Counter;\n\n    AnyNFTCollectionFactory public factory;\n\n    Counters.Counter private rentalIds;\n\n\n    // mapping of  a user address to the rented tools\n    mapping (address => RentalReference) private userRentals;\n\n\n\n    // list of all the renters address\n    address[] rentersList;\n\n    // mapping of a renter address to its collection\n    mapping (address => CollectionNFT) private rentersCollection;\n    \n    // mapping of a renter address to its rentals\n    mapping (address => Rental[]) public rentersRentals;\n    uint256 public nbRentalMax = 20;\n\n\n\n    constructor(address _anyNFTFactory){\n        // Instantiate the Any NFT Factory from its address\n        factory = AnyNFTCollectionFactory(_anyNFTFactory);\n    }\n\n\n    /* ***********************************************\n    *   Modifiers \n    *********************************************** */\n\n    /**\n    * @dev Only renter can call\n    */\n\n    modifier onlyRentalOwner() {\n        require(rentersCollection[msg.sender].owner==msg.sender, \"You are not the owner of the collection\");\n        _;\n    }\n    \n    /**\n     * Owner exist if exist in mapping NFT or mapping rental \n    * @dev MUST exist int the both.... Except for creationCollection      \n     */\n    modifier ownerMustExist(address _owner) {\n        require(rentersCollection[_owner].collection != address(0), \"Owner does not exist\");\n        //require(rentersRentals[_owner].length>0, \"Owner does not exist\");\n        _;\n    }\n             \n\n\n\n    /* ***********************************************\n    *   Setters \n    *********************************************** */\n\n    function setNbRentalMax(uint _nb) external onlyOwner{\n        nbRentalMax = _nb;\n    }\n\n   \n\n    /* ***********************************************\n    *   Getters \n    *********************************************** */\n     /** \n     * @notice return the NFT Tools from a owner address\n     * @dev get collection from renter Address\n     * @return Tool[]  (NFT attributes)\n     */\n    function getToolsCollection(address _owner) ownerMustExist(_owner) external view returns(Utils.Tool[] memory){\n        //return factory._rentersCollection().tools();\n        IAnyNFTCollection collec = IAnyNFTCollection(rentersCollection[_owner].collection);\n        return collec.getTools();\n    }\n    /** \n     * @notice return the NFT Collection address from a owner address\n     * @dev get collection address a from owner Address\n     * @return address of the collection NFT\n     */\n    function getToolsCollectionAddress(address _owner) ownerMustExist(_owner) external view returns(address){\n        return rentersCollection[_owner].collection;\n    }\n    \n    /*function getCollections()external view returns(Utils.Tool[] memory){\n        // pour toutes les addresses\n        // concatener les collections\n        // renvoyer l'ensemble\n        //ou en js appeler les differentes collections pour les addresses..?\n    }*/\n\n    /** \n     * @notice return the Rentals from a owner address\n     * @dev get rentals array from an owner address\n     * @return Rental[]\n     */\n    function getRentalsByOwner(address _owner) ownerMustExist(_owner) external view returns(Rental[] memory){\n        return rentersRentals[_owner];\n    }\n\n    /** \n     * @notice return the Rental by the owner address and rentalId\n     * @dev return a rental from an address and a rentalID\n     * @return Rental \n     */\n    function getRentalByOwnerAddressAndRentalID(address _owner, uint _rentalId) ownerMustExist(_owner) external view returns(Rental memory){\n        uint found;\n         for(uint i; i< rentersRentals[_owner].length; i++){\n            if(rentersRentals[_owner][i].rentalID == _rentalId){\n                 found=i;\n                 break;\n            }   \n        }\n        return rentersRentals[_owner][found];\n    }\n        function getRentalIndexByOwnerAddressAndRentalID(address _owner, uint _rentalId) ownerMustExist(_owner) internal view returns(uint){\n        uint found;\n         for(uint i; i< rentersRentals[_owner].length; i++){\n            if(rentersRentals[_owner][i].rentalID == _rentalId){\n                 found=i;\n                 break;\n            }   \n        }\n        return found;\n    }\n\n    function getRentalIndexByOwnerAddressAndTokenID(address _owner, uint _tokenId) ownerMustExist(_owner) internal view returns(uint){\n        uint found;\n         for(uint i; i< rentersRentals[_owner].length; i++){\n            if(rentersRentals[_owner][i].tokenID == _tokenId){\n                 found=i;\n                 break;\n            }   \n        }\n        return found;\n    }\n\n    /** \n     * @notice return a Rental by the  rentalId\n     * @dev Internal ! very bad complexity.... don't use often !\n     * @return Rental \n     */\n    /* function getRentalByRentalId(uint _rentalId) internal view returns(Rental memory){\n        Rental memory rentalFound;\n         for(uint i; i< rentersList.length; i++){\n            Rental[] memory rentalsTmp = rentersRentals[rentersList[i]];\n            for(uint j; j<rentalsTmp.length; j++){\n                if(rentalsTmp[j].rentalID == _rentalId){\n                     rentalFound=rentalsTmp[j];\n                    break;\n                }\n            }   \n        }\n        return rentalFound;\n     }*/\n    \n    /**\n    * @notice return if the address is defined as an owner\n    * @dev return it th address is an entry in the map\n     */\n    function isAddressOwner(address _renter) public view returns(bool) {\n        return rentersCollection[_renter].owner != address(0);\n    }\n\n    /**\n    * @notice return if the address is defined as an renter\n    * @dev return it the address has some rentals in the map\n     */\n    function isAddressRenter(address _renter) public view returns(bool) {\n        return userRentals[_renter].collection != address(0);\n    }\n\n\n\n    /* ***********************************************\n    *   Functions  - NFT Managment\n    *********************************************** */\n    /**\n     * @notice Create the NFT Collection of a renter\n     * @return collectionCreated : colletion address deployed\n     */\n    function createCollection(string memory _collectionName, string memory _collectionSymbol) external returns(address){\n        require(msg.sender != address(0), \"address zero is not valid\");\n        require(rentersCollection[msg.sender].collection==address(0), \"You already have created your collection\");\n        require(!Utils.isEqualString(_collectionName,\"\"), \"collection name can't be empty\");\n\n         address collectionAddress = factory.createAnyNFTCollection(msg.sender, _collectionName, _collectionSymbol);\n         //AnyNFTCollection collectionCreated = AnyNFTCollection(collectionAddress);\n\n        // update Renters Collection\n        rentersCollection[msg.sender].collection = collectionAddress;\n        rentersCollection[msg.sender].owner =  msg.sender;\n        rentersCollection[msg.sender].name=_collectionName;\n        rentersCollection[msg.sender].symbol=_collectionSymbol;\n\n        //update the list of renters\n        rentersList.push(msg.sender);\n\n        emit NFTCollectionCreated(msg.sender, _collectionName , collectionAddress, block.timestamp);\n        \n        return collectionAddress;\n    }\n\n    /**\n     * @notice renter delete its NFT Collection of a\n     */\n    function deleteCollection() external onlyRentalOwner{\n        require(msg.sender != address(0), \"address zero is not valid\");\n        require(rentersCollection[msg.sender].collection!=address(0), \"You don't have any collection\");\n      \n        AnyNFTCollection collec = AnyNFTCollection(rentersCollection[msg.sender].collection);\n\n        uint id;\n         for (uint i; i < rentersList.length; i++) {\n            if(rentersList[i] == msg.sender){\n                id=i;\n                break;\n            }\n        }\n\n        //delete element in list of renters\n        rentersList[id] = rentersList[rentersList.length-1];\n        rentersList.pop();\n\n        //delete rentals in mapping \n        delete rentersCollection[msg.sender];\n        /*\n        //TODO supprimer l'instance en transfrant au pralbale les fonds prsents....\n        selfdestruct(collec);\n       */\n        emit NFTCollectionDeleted(msg.sender , address(collec), block.timestamp);\n\n    }\n\n\n    function addToolToCollection(string calldata _tokenURI, uint _serialId, string memory _title, string memory _description ) external onlyRentalOwner returns(uint tokenId){\n        require(rentersCollection[msg.sender].collection!=address(0), \"You don't have any collection\");\n        require(rentersRentals[msg.sender].length < nbRentalMax, \"Maximum number of tools reached\");\n        \n        IAnyNFTCollection collec = IAnyNFTCollection(rentersCollection[msg.sender].collection);\n        uint256 tokenID = collec.mint(_tokenURI, _serialId, _title, _description, msg.sender);\n\n        uint newRentalIds = rentalIds.current();\n        Rental memory rental;\n        CollectionNFT memory collecNFT;\n        collecNFT.collection = rentersCollection[msg.sender].collection;\n        collecNFT.owner = rentersCollection[msg.sender].owner;\n\n        rental.rentalID = newRentalIds;\n        rental.collection = collecNFT;\n\n        rental.tokenID = tokenID;\n        rentalIds.increment();\n\n        rentersRentals[msg.sender].push(rental);\n\n        emit NFTToolAddedToCollection(msg.sender, rentersCollection[msg.sender].collection, tokenID, block.timestamp);\n        return tokenID;\n    }\n\n      /**\n     * @dev delegate the NFT to a user . onlyRentalOwner\n     */\n    function delegateNFT(uint _tokenId, address _to, uint64 _expires) external onlyRentalOwner {\n        require(rentersCollection[msg.sender].collection!=address(0), \"You don't have any collection\");\n        require(rentersCollection[msg.sender].owner==msg.sender, \"You are not the owner of the collection\");\n\n        \n        //Si pas de approve passer par I\n         AnyNFTCollection collec = AnyNFTCollection(rentersCollection[msg.sender].collection);\n        \n        //collec.approve(msg.sender, _tokenId);\n         collec.rentTool(_tokenId, _to, _expires, msg.sender);\n\n        emit RentalNFTToolDelegated(msg.sender, _to, rentersCollection[msg.sender].collection, _tokenId, block.timestamp);\n    }\n\n\n    /* ***********************************************\n    *   Functions  - Rental Managment\n    *********************************************** */\n\n    function addToolToRentals(string calldata _tokenImgURI, uint64 _dayPrice, uint64 _caution, uint _tokenID) external onlyRentalOwner {\n        require(rentersCollection[msg.sender].collection!=address(0), \"You don't have any collection\");\n        require(rentersRentals[msg.sender].length < nbRentalMax, \"Maximum number of tools reached\");\n        require(_dayPrice > 0, \"number must be > 0\");\n        require(_caution > 0, \"number must be > 0\");\n\n\n        //All rentalData.is* false by default\n        RentalData memory rentalData;\n\n        uint found = getRentalIndexByOwnerAddressAndTokenID(msg.sender, _tokenID);\n        Rental storage rental = rentersRentals[msg.sender][found];\n  \n        rental.tokenImgURI = _tokenImgURI;\n        rental.dayPrice =_dayPrice;\n        rental.caution = _caution;\n        rental.rentalStatus = RentalStatus.AVAILABLE;\n        rental.rentalData = rentalData;\n                \n        emit ToolAddedToRentals(msg.sender, rental.rentalID , rental.tokenID, block.timestamp);\n    }\n\n     /**\n     * @dev update a tool into collection . onlyRentalOwner\n     */\n     function updateToolIntoRentals(uint _rentalID, uint64 _dayPrice, uint64 _caution) external onlyRentalOwner{\n        require(rentersCollection[msg.sender].collection!=address(0), \"You don't have any collection\");\n        require(_dayPrice > 0, \"number must be > 0\");\n        require(_caution > 0, \"number must be > 0\");\n\n        for(uint i; i< rentersRentals[msg.sender].length; i++){\n            if(rentersRentals[msg.sender][i].rentalID == _rentalID){\n                 rentersRentals[msg.sender][i].dayPrice = _dayPrice;\n                 rentersRentals[msg.sender][i].caution = _caution;\n                 break;\n            }   \n        }\n\n        emit ToolUpdatedFromRentals(msg.sender, _rentalID, block.timestamp);\n     }\n      /**\n     * @dev delete a tool into collection . onlyRentalOwner\n     */\n     function deleteToolIntoRentals(uint _rentalID) external onlyRentalOwner{\n         require(rentersCollection[msg.sender].collection!=address(0), \"You don't have any collection\");\n        require(rentersRentals[msg.sender].length < nbRentalMax, \"Maximum number of tools reached\");\n        \n        uint id;\n        for(uint i; i< rentersRentals[msg.sender].length; i++){\n            if(rentersRentals[msg.sender][i].rentalID == _rentalID){\n                id = i;\n                 break;\n            }   \n        }\n        rentersRentals[msg.sender][id] = rentersRentals[msg.sender][rentersRentals[msg.sender].length-1];\n        rentersRentals[msg.sender].pop();\n         \n        emit ToolDeletedFromRentals(msg.sender, _rentalID, block.timestamp);\n     }\n\n\n /**\n     * @notice user send the location and caution which in order to ask for the rental of a Rental\n     * - the caution and location is secured until\n     * @dev user send caution and location price for rent a Rental\n     */\n     function sendPaiementForRental(address _owner, uint _rentalID, uint64 _begin, uint64 _end) ownerMustExist(_owner) external{\n         require(rentalIds.current() >= _rentalID, \"Tool does not exist\");\n         require(_begin > 0, \"begin must be a valid date\");\n         require(_end > 0, \"end must be a valid date\");\n         require(_begin < _end, \"End of rental can't be before begin\");\n\n         uint found = getRentalIndexByOwnerAddressAndRentalID(_owner, _rentalID);\n         Rental storage rental = rentersRentals[_owner][found];\n         require(rental.rentalID == _rentalID, \"The rental is not available.\");\n         require(rental.rentalStatus == RentalStatus.AVAILABLE, \"The rental status is incorrect.\");\n        \n        //gestion caution et paiement\n     \n        rental.start = _begin;\n        rental.end = _end;\n        rental.rentalStatus = RentalStatus.RENTAL_REQUESTED;\n        rental.rentalData.isCautionDeposed = true;\n        rental.renter = msg.sender;\n\n         emit RentalRequested(rental.collection.owner, msg.sender,  rental.collection.collection, rental.tokenID, block.timestamp);\n     }\n\n   /**\n     * @notice renter delegate the NFT in order to validate the rental asking\n     * - the caution and location is still secured\n     * @dev renter validate the delagation of the NFT\n     */\n     function validateNFTDelegationForRental(uint _rentalID, uint _tokenID) ownerMustExist(msg.sender)  external{\n         require(rentalIds.current() >= _rentalID, \"Tool does not exist\");\n         require(_tokenID > 0, \"token ID must be valid\");\n\n\n        uint found = getRentalIndexByOwnerAddressAndRentalID(msg.sender, _rentalID);\n        Rental storage rental = rentersRentals[msg.sender][found];\n        require(rental.rentalID == _rentalID, \"The rental is not available.\");\n        require(rental.tokenID == _tokenID, \"Error... the tokenId isn't the correct one.\");\n        require(rental.rentalStatus == RentalStatus.RENTAL_REQUESTED, \"The rental status is incorrect.\");\n        \n        rental.rentalStatus = RentalStatus.RENTAL_ACCEPTED_NFT_SENT;\n        rental.rentalData.isNFTDelegated = true;\n        \n        emit RentalAccepted(rental.collection.owner, rental.renter,  rental.collection.collection, rental.tokenID, block.timestamp);\n     }   \n\n\n    /**\n     * @notice user get the tool in real life, has the NFT and valiate the transaction\n     * - the caution is still secured, the location is payed\n     * @dev user validate having the NFT, annd receipt the tool\n     */\n     function validateNFTandToolReception(address _renter, uint _rentalID) ownerMustExist(_renter)  external{\n         require(rentalIds.current() >= _rentalID, \"Tool does not exist\");\n \n        uint found = getRentalIndexByOwnerAddressAndRentalID(_renter, _rentalID);\n        Rental storage rental = rentersRentals[_renter][found];\n        require(rental.rentalID == _rentalID, \"The rental is not available.\");\n        require(rental.renter==msg.sender, \"Problem on the renter and the one who asks\");\n        require(rental.rentalStatus == RentalStatus.RENTAL_ACCEPTED_NFT_SENT, \"The rental status is incorrect.\");\n        \n        rental.rentalStatus = RentalStatus.VALIDATE_RECEIPT_PAYMENT;\n\n        //TODO mettre le tool is availabe a false dans Collection\n        \n        emit RentalNFTToolDelegated(rental.collection.owner, rental.renter,  rental.collection.collection, rental.tokenID, block.timestamp);\n\n     }\n\n    /**\n     * @notice user give back the toool at the end of renting\n     * - the caution is still secured, the location is already payed\n     * @dev user give bak th etool\n     */\n     function giveBackToolAfterRental(address _renter, uint _rentalID) ownerMustExist(_renter) external{\n        require(rentalIds.current() >= _rentalID, \"Tool does not exist\");\n\n        uint found = getRentalIndexByOwnerAddressAndRentalID(_renter, _rentalID);\n        Rental storage rental = rentersRentals[_renter][found];\n        require(rental.rentalID == _rentalID, \"The rental is not available.\");\n        require(rental.renter==msg.sender, \"Problem on the renter and the one who asks\");\n        require(rental.rentalStatus == RentalStatus.VALIDATE_RECEIPT_PAYMENT, \"The rental status is incorrect.\");\n        \n        rental.rentalStatus = RentalStatus.COMPLETED_USER;\n        rental.rentalData.isToolReturned = true;\n\n        //TODO mettre le tool is availabe a truue dans Collection\n        \n        emit RentalCompletedByUser(rental.collection.owner, msg.sender,  rental.collection.collection, rental.tokenID, block.timestamp);\n\n     }  \n     \n    /**\n     * @notice renter validate the return of the tool\n     * - the caution is given back\n     * @dev renter validae the return of the tool\n     */\n     function validateReturnToolAfterRental(uint _rentalID) ownerMustExist(msg.sender)  external{\n        require(rentalIds.current() >= _rentalID, \"Tool does not exist\");\n\n        uint found = getRentalIndexByOwnerAddressAndRentalID(msg.sender, _rentalID);\n        Rental storage rental = rentersRentals[msg.sender][found];\n        require(rental.rentalID == _rentalID, \"The rental is not available.\");\n        require(rental.rentalStatus == RentalStatus.COMPLETED_USER, \"The rental status is incorrect.\");\n        \n        rental.rentalStatus = RentalStatus.RETURN_ACCEPTED_BY_OWNER;\n        rental.rentalData.isReturnValidated = true;\n        \n        emit RentalCompletedByRenter(rental.collection.owner, rental.renter,  rental.collection.collection, rental.tokenID, block.timestamp);\n\n     } \n\n    /**\n     * @notice renter doens't validate the return of the tool. Problem. dispute creation\n     * - the caution still secured\n     * @dev renter doesn't validate the return of the tool, because of a problem\n     */\n     function refuseReturnToolAfterRental(uint _rentalID, string memory message)ownerMustExist(msg.sender)  external{\n        require(rentalIds.current() >= _rentalID, \"Tool does not exist\");\n\n        uint found = getRentalIndexByOwnerAddressAndRentalID(msg.sender, _rentalID);\n        Rental storage rental = rentersRentals[msg.sender][found];\n        require(rental.rentalID == _rentalID, \"The rental is not available.\");\n        require(rental.rentalStatus == RentalStatus.COMPLETED_USER, \"The rental status is incorrect.\");\n        \n        rental.rentalStatus = RentalStatus.DISPUTE;\n        rental.rentalData.isToolReturned = true;\n        rental.rentalData.isDispute = true;\n        \n        emit RentalDisputeCreated(rental.collection.owner, rental.renter,  rental.collection.collection, rental.tokenID, message, block.timestamp);\n\n     }\n\n    /**\n     * @notice user confirm dispute and expose its point of view\n     * - the caution still secured\n     * @dev user confirm dispute and expose its point of view\n     */\n     function confirmDisputeAfterRental(address _renter, uint _rentalID, string memory message)ownerMustExist(_renter)  external{\n         require(rentalIds.current() >= _rentalID, \"Tool does not exist\");\n\n        uint found = getRentalIndexByOwnerAddressAndRentalID(_renter, _rentalID);\n        Rental storage rental = rentersRentals[_renter][found];\n        require(rental.rentalID == _rentalID, \"The rental is not available.\");\n        require(rental.renter==msg.sender, \"Problem on the renter and thr one who asks\");\n        require(rental.rentalStatus == RentalStatus.DISPUTE, \"The rental status is incorrect.\");\n               \n        rental.rentalData.isDisputeConfirmed = true;\n\n        emit RentalDisputelConfirmedByUser(rental.collection.owner, msg.sender,  rental.collection.collection, rental.tokenID, message, block.timestamp);\n\n     }\n\n    /**\n     * @notice user redeem its caution or caution and location\n     * - the caution is given back at the end of rental or because the renter refuse the rental\n     * @dev user redeem its caution\n     */\n     function redeemPaymentForRental(address _renter, uint _rentalID) external{\n         require(rentalIds.current() >= _rentalID, \"Tool does not exist\");\n\n        uint found = getRentalIndexByOwnerAddressAndRentalID(_renter, _rentalID);\n        Rental storage rental = rentersRentals[_renter][found];\n        require(rental.rentalID == _rentalID, \"The rental is not available.\");\n        require(rental.rentalStatus == RentalStatus.RETURN_ACCEPTED_BY_OWNER, \"The rental status is incorrect.\");\n        \n        // recuperer sa caution\n       \n\n        rental.rentalStatus = RentalStatus.RENTAL_ENDED;\n        rental.rentalData.isRedeemed = true;\n        rental.rentalData.isCautionDeposed = false;\n        \n        emit RentalEnded(rental.collection.owner, msg.sender,  rental.collection.collection, rental.tokenID, block.timestamp);\n\n     }  \n\n\n  \n  \n}\n",
  "sourcePath": "/Users/gbesset/wks/learning/web3/alyra_projetFinal_LocaTool_AnythingNearYou/truffle/contracts/AnyRental.sol",
  "compiler": {
    "name": "solc",
    "version": "0.8.19+commit.7dd6d404.Emscripten.clang"
  },
  "schemaVersion": "3.4.11",
  "updatedAt": "2023-04-06T08:53:22.456Z",
  "networkType": "ethereum",
  "devdoc": {
    "author": "https://github.com/gbesset",
    "details": "Implements NFT gneration, and rental process",
    "events": {
      "NFTCollectionCreated(address,string,address,uint256)": {
        "details": "Emitted when a renter create its NFT Collection. give RenterAddress, CollectionName, CollectionAddress, timestamp"
      },
      "NFTCollectionDeleted(address,address,uint256)": {
        "details": "Emitted when a renter delete its NFT Collection. give RenterAddress, CollectionName, CollectionAddress, timestamp"
      },
      "NFTToolAddedToCollection(address,address,uint256,uint256)": {
        "details": "Emitted when a renter add a tool to its NFT Collection."
      },
      "RentalAccepted(address,address,address,uint256,uint256)": {
        "details": "Emitted when a renter accept to rent its tool"
      },
      "RentalCompletedByRenter(address,address,address,uint256,uint256)": {
        "details": "Emitted when a renter accept thereturn of the tool"
      },
      "RentalCompletedByUser(address,address,address,uint256,uint256)": {
        "details": "Emitted when a user give back the tool"
      },
      "RentalDisputeCreated(address,address,address,uint256,string,uint256)": {
        "details": "Emitted when a renter doensn't accept the return of the tool"
      },
      "RentalDisputeSolved(address,address,address,uint256,string,uint256)": {
        "details": "Emitted when a renter doensn't accept the return of the tool"
      },
      "RentalDisputelConfirmedByUser(address,address,address,uint256,string,uint256)": {
        "details": "Emitted when a renter doensn't accept the return of the tool"
      },
      "RentalEnded(address,address,address,uint256,uint256)": {
        "details": "Emitted when a renter redeem its causion and end the rental of the tool"
      },
      "RentalExtended(address,address,address,uint256,uint256,uint256)": {
        "details": "Emitted when a user ask to extznd the rental duration"
      },
      "RentalRejected(address,address,address,uint256,uint256)": {
        "details": "Emitted when a renter doesn't accept to rent its tool"
      },
      "RentalRequested(address,address,address,uint256,uint256)": {
        "details": "Emitted when a user ask to rent a tool from a collection"
      },
      "ToolAddedToRentals(address,uint256,uint256,uint256)": {
        "details": "Emitted when a renter add a tool to its NFT Collection."
      },
      "ToolDeletedFromRentals(address,uint256,uint256)": {
        "details": "Emitted when a renter delete a tool into its NFT Collection."
      },
      "ToolUpdatedFromRentals(address,uint256,uint256)": {
        "details": "Emitted when a renter aduptate a tool to its NFT Collection."
      }
    },
    "kind": "dev",
    "methods": {
      "addToolToCollection(string,uint256,string,string)": {
        "details": "add a tool to collection . onlyRenter"
      },
      "addToolToRentals(string,uint64,uint64,uint256)": {
        "details": "add a tool to collection . onlyRenter"
      },
      "confirmDisputeAfterRental(address,uint256,string)": {
        "details": "user confirm dispute and expose its point of view"
      },
      "createCollection(string,string)": {
        "returns": {
          "_0": "collectionCreated : colletion address deployed"
        }
      },
      "delegateNFT(uint256,address,uint64)": {
        "details": "delegate the NFT to a user . onlyRentalOwner"
      },
      "deleteToolIntoRentals(uint256)": {
        "details": "delete a tool into collection . onlyRentalOwner"
      },
      "getRentalByOwnerAddressAndRentalID(address,uint256)": {
        "details": "return a rental from an address and a rentalID",
        "returns": {
          "_0": "Rental "
        }
      },
      "getRentalsByOwner(address)": {
        "details": "get rentals array from an owner address",
        "returns": {
          "_0": "Rental[]"
        }
      },
      "getToolsCollection(address)": {
        "details": "get collection from renter Address",
        "returns": {
          "_0": "Tool[]  (NFT attributes)"
        }
      },
      "getToolsCollectionAddress(address)": {
        "details": "get collection address a from owner Address",
        "returns": {
          "_0": "address of the collection NFT"
        }
      },
      "giveBackToolAfterRental(address,uint256)": {
        "details": "user give bak th etool"
      },
      "isAddressOwner(address)": {
        "details": "return it th address is an entry in the map"
      },
      "isAddressRenter(address)": {
        "details": "return it the address has some rentals in the map"
      },
      "owner()": {
        "details": "Returns the address of the current owner."
      },
      "redeemPaymentForRental(address,uint256)": {
        "details": "user redeem its caution"
      },
      "refuseReturnToolAfterRental(uint256,string)": {
        "details": "renter doesn't validate the return of the tool, because of a problem"
      },
      "renounceOwnership()": {
        "details": "Leaves the contract without owner. It will not be possible to call `onlyOwner` functions anymore. Can only be called by the current owner. NOTE: Renouncing ownership will leave the contract without an owner, thereby removing any functionality that is only available to the owner."
      },
      "sendPaiementForRental(address,uint256,uint64,uint64)": {
        "details": "user send caution and location price for rent a Rental"
      },
      "transferOwnership(address)": {
        "details": "Transfers ownership of the contract to a new account (`newOwner`). Can only be called by the current owner."
      },
      "updateToolIntoRentals(uint256,uint64,uint64)": {
        "details": "update a tool into collection . onlyRentalOwner"
      },
      "validateNFTDelegationForRental(uint256,uint256)": {
        "details": "renter validate the delagation of the NFT"
      },
      "validateNFTandToolReception(address,uint256)": {
        "details": "user validate having the NFT, annd receipt the tool"
      },
      "validateReturnToolAfterRental(uint256)": {
        "details": "renter validae the return of the tool"
      }
    },
    "title": "Rental Any  contract ",
    "version": 1
  },
  "userdoc": {
    "kind": "user",
    "methods": {
      "confirmDisputeAfterRental(address,uint256,string)": {
        "notice": "user confirm dispute and expose its point of view - the caution still secured"
      },
      "createCollection(string,string)": {
        "notice": "Create the NFT Collection of a renter"
      },
      "deleteCollection()": {
        "notice": "renter delete its NFT Collection of a"
      },
      "getRentalByOwnerAddressAndRentalID(address,uint256)": {
        "notice": "return the Rental by the owner address and rentalId"
      },
      "getRentalsByOwner(address)": {
        "notice": "return the Rentals from a owner address"
      },
      "getToolsCollection(address)": {
        "notice": "return the NFT Tools from a owner address"
      },
      "getToolsCollectionAddress(address)": {
        "notice": "return the NFT Collection address from a owner address"
      },
      "giveBackToolAfterRental(address,uint256)": {
        "notice": "user give back the toool at the end of renting - the caution is still secured, the location is already payed"
      },
      "isAddressOwner(address)": {
        "notice": "return if the address is defined as an owner"
      },
      "isAddressRenter(address)": {
        "notice": "return if the address is defined as an renter"
      },
      "redeemPaymentForRental(address,uint256)": {
        "notice": "user redeem its caution or caution and location - the caution is given back at the end of rental or because the renter refuse the rental"
      },
      "refuseReturnToolAfterRental(uint256,string)": {
        "notice": "renter doens't validate the return of the tool. Problem. dispute creation - the caution still secured"
      },
      "sendPaiementForRental(address,uint256,uint64,uint64)": {
        "notice": "user send the location and caution which in order to ask for the rental of a Rental - the caution and location is secured until"
      },
      "validateNFTDelegationForRental(uint256,uint256)": {
        "notice": "renter delegate the NFT in order to validate the rental asking - the caution and location is still secured"
      },
      "validateNFTandToolReception(address,uint256)": {
        "notice": "user get the tool in real life, has the NFT and valiate the transaction - the caution is still secured, the location is payed"
      },
      "validateReturnToolAfterRental(uint256)": {
        "notice": "renter validate the return of the tool - the caution is given back"
      }
    },
    "notice": "contract to generate NFT of tool to locate, and manage the rental",
    "version": 1
  }
}