{
  "contractName": "AnyRental",
  "abi": [
    {
      "inputs": [
        {
          "internalType": "address",
          "name": "_anyNFTFactory",
          "type": "address"
        }
      ],
      "stateMutability": "nonpayable",
      "type": "constructor"
    },
    {
      "anonymous": false,
      "inputs": [
        {
          "indexed": false,
          "internalType": "address",
          "name": "renter",
          "type": "address"
        },
        {
          "indexed": false,
          "internalType": "string",
          "name": "renterCollectionName",
          "type": "string"
        },
        {
          "indexed": false,
          "internalType": "address",
          "name": "renterCollectionAddress",
          "type": "address"
        },
        {
          "indexed": false,
          "internalType": "uint256",
          "name": "timestamp",
          "type": "uint256"
        }
      ],
      "name": "NFTCollectionCreated",
      "type": "event"
    },
    {
      "anonymous": false,
      "inputs": [
        {
          "indexed": false,
          "internalType": "address",
          "name": "renter",
          "type": "address"
        },
        {
          "indexed": false,
          "internalType": "address",
          "name": "renterCollectionAddress",
          "type": "address"
        },
        {
          "indexed": false,
          "internalType": "uint256",
          "name": "timestamp",
          "type": "uint256"
        }
      ],
      "name": "NFTCollectionDeleted",
      "type": "event"
    },
    {
      "anonymous": false,
      "inputs": [
        {
          "indexed": false,
          "internalType": "address",
          "name": "renter",
          "type": "address"
        },
        {
          "indexed": false,
          "internalType": "address",
          "name": "renterCollectionAddress",
          "type": "address"
        },
        {
          "indexed": false,
          "internalType": "uint256",
          "name": "tokenId",
          "type": "uint256"
        },
        {
          "indexed": false,
          "internalType": "uint256",
          "name": "timestamp",
          "type": "uint256"
        }
      ],
      "name": "NFTToolAddedToCollection",
      "type": "event"
    },
    {
      "anonymous": false,
      "inputs": [
        {
          "indexed": true,
          "internalType": "address",
          "name": "previousOwner",
          "type": "address"
        },
        {
          "indexed": true,
          "internalType": "address",
          "name": "newOwner",
          "type": "address"
        }
      ],
      "name": "OwnershipTransferred",
      "type": "event"
    },
    {
      "anonymous": false,
      "inputs": [
        {
          "indexed": false,
          "internalType": "address",
          "name": "renter",
          "type": "address"
        },
        {
          "indexed": false,
          "internalType": "address",
          "name": "user",
          "type": "address"
        },
        {
          "indexed": false,
          "internalType": "address",
          "name": "renterCollectionAddress",
          "type": "address"
        },
        {
          "indexed": false,
          "internalType": "uint256",
          "name": "tokenId",
          "type": "uint256"
        },
        {
          "indexed": false,
          "internalType": "uint256",
          "name": "timestamp",
          "type": "uint256"
        }
      ],
      "name": "RentalAccepted",
      "type": "event"
    },
    {
      "anonymous": false,
      "inputs": [
        {
          "indexed": false,
          "internalType": "address",
          "name": "renter",
          "type": "address"
        },
        {
          "indexed": false,
          "internalType": "address",
          "name": "user",
          "type": "address"
        },
        {
          "indexed": false,
          "internalType": "address",
          "name": "renterCollectionAddress",
          "type": "address"
        },
        {
          "indexed": false,
          "internalType": "uint256",
          "name": "tokenId",
          "type": "uint256"
        },
        {
          "indexed": false,
          "internalType": "uint256",
          "name": "timestamp",
          "type": "uint256"
        }
      ],
      "name": "RentalCompletedByRenter",
      "type": "event"
    },
    {
      "anonymous": false,
      "inputs": [
        {
          "indexed": false,
          "internalType": "address",
          "name": "renter",
          "type": "address"
        },
        {
          "indexed": false,
          "internalType": "address",
          "name": "user",
          "type": "address"
        },
        {
          "indexed": false,
          "internalType": "address",
          "name": "renterCollectionAddress",
          "type": "address"
        },
        {
          "indexed": false,
          "internalType": "uint256",
          "name": "tokenId",
          "type": "uint256"
        },
        {
          "indexed": false,
          "internalType": "uint256",
          "name": "timestamp",
          "type": "uint256"
        }
      ],
      "name": "RentalCompletedByUser",
      "type": "event"
    },
    {
      "anonymous": false,
      "inputs": [
        {
          "indexed": false,
          "internalType": "address",
          "name": "renter",
          "type": "address"
        },
        {
          "indexed": false,
          "internalType": "address",
          "name": "user",
          "type": "address"
        },
        {
          "indexed": false,
          "internalType": "address",
          "name": "renterCollectionAddress",
          "type": "address"
        },
        {
          "indexed": false,
          "internalType": "uint256",
          "name": "tokenId",
          "type": "uint256"
        },
        {
          "indexed": false,
          "internalType": "string",
          "name": "dispute",
          "type": "string"
        },
        {
          "indexed": false,
          "internalType": "uint256",
          "name": "timestamp",
          "type": "uint256"
        }
      ],
      "name": "RentalDisputeCreated",
      "type": "event"
    },
    {
      "anonymous": false,
      "inputs": [
        {
          "indexed": false,
          "internalType": "address",
          "name": "renter",
          "type": "address"
        },
        {
          "indexed": false,
          "internalType": "address",
          "name": "user",
          "type": "address"
        },
        {
          "indexed": false,
          "internalType": "address",
          "name": "renterCollectionAddress",
          "type": "address"
        },
        {
          "indexed": false,
          "internalType": "uint256",
          "name": "tokenId",
          "type": "uint256"
        },
        {
          "indexed": false,
          "internalType": "string",
          "name": "disputeSolution",
          "type": "string"
        },
        {
          "indexed": false,
          "internalType": "uint256",
          "name": "timestamp",
          "type": "uint256"
        }
      ],
      "name": "RentalDisputeSolved",
      "type": "event"
    },
    {
      "anonymous": false,
      "inputs": [
        {
          "indexed": false,
          "internalType": "address",
          "name": "renter",
          "type": "address"
        },
        {
          "indexed": false,
          "internalType": "address",
          "name": "user",
          "type": "address"
        },
        {
          "indexed": false,
          "internalType": "address",
          "name": "renterCollectionAddress",
          "type": "address"
        },
        {
          "indexed": false,
          "internalType": "uint256",
          "name": "tokenId",
          "type": "uint256"
        },
        {
          "indexed": false,
          "internalType": "string",
          "name": "dispute",
          "type": "string"
        },
        {
          "indexed": false,
          "internalType": "uint256",
          "name": "timestamp",
          "type": "uint256"
        }
      ],
      "name": "RentalDisputelConfirmedByUser",
      "type": "event"
    },
    {
      "anonymous": false,
      "inputs": [
        {
          "indexed": false,
          "internalType": "address",
          "name": "renter",
          "type": "address"
        },
        {
          "indexed": false,
          "internalType": "address",
          "name": "user",
          "type": "address"
        },
        {
          "indexed": false,
          "internalType": "address",
          "name": "renterCollectionAddress",
          "type": "address"
        },
        {
          "indexed": false,
          "internalType": "uint256",
          "name": "tokenId",
          "type": "uint256"
        },
        {
          "indexed": false,
          "internalType": "uint256",
          "name": "timestamp",
          "type": "uint256"
        }
      ],
      "name": "RentalEnded",
      "type": "event"
    },
    {
      "anonymous": false,
      "inputs": [
        {
          "indexed": false,
          "internalType": "address",
          "name": "renter",
          "type": "address"
        },
        {
          "indexed": false,
          "internalType": "address",
          "name": "user",
          "type": "address"
        },
        {
          "indexed": false,
          "internalType": "address",
          "name": "renterCollectionAddress",
          "type": "address"
        },
        {
          "indexed": false,
          "internalType": "uint256",
          "name": "tokenId",
          "type": "uint256"
        },
        {
          "indexed": false,
          "internalType": "uint256",
          "name": "duration",
          "type": "uint256"
        },
        {
          "indexed": false,
          "internalType": "uint256",
          "name": "timestamp",
          "type": "uint256"
        }
      ],
      "name": "RentalExtended",
      "type": "event"
    },
    {
      "anonymous": false,
      "inputs": [
        {
          "indexed": false,
          "internalType": "address",
          "name": "renter",
          "type": "address"
        },
        {
          "indexed": false,
          "internalType": "address",
          "name": "user",
          "type": "address"
        },
        {
          "indexed": false,
          "internalType": "address",
          "name": "renterCollectionAddress",
          "type": "address"
        },
        {
          "indexed": false,
          "internalType": "uint256",
          "name": "tokenId",
          "type": "uint256"
        },
        {
          "indexed": false,
          "internalType": "uint256",
          "name": "timestamp",
          "type": "uint256"
        }
      ],
      "name": "RentalNFTToolDelegated",
      "type": "event"
    },
    {
      "anonymous": false,
      "inputs": [
        {
          "indexed": false,
          "internalType": "address",
          "name": "renter",
          "type": "address"
        },
        {
          "indexed": false,
          "internalType": "address",
          "name": "user",
          "type": "address"
        },
        {
          "indexed": false,
          "internalType": "address",
          "name": "renterCollectionAddress",
          "type": "address"
        },
        {
          "indexed": false,
          "internalType": "uint256",
          "name": "tokenId",
          "type": "uint256"
        },
        {
          "indexed": false,
          "internalType": "uint256",
          "name": "timestamp",
          "type": "uint256"
        }
      ],
      "name": "RentalRejected",
      "type": "event"
    },
    {
      "anonymous": false,
      "inputs": [
        {
          "indexed": false,
          "internalType": "address",
          "name": "renter",
          "type": "address"
        },
        {
          "indexed": false,
          "internalType": "address",
          "name": "user",
          "type": "address"
        },
        {
          "indexed": false,
          "internalType": "address",
          "name": "renterCollectionAddress",
          "type": "address"
        },
        {
          "indexed": false,
          "internalType": "uint256",
          "name": "tokenId",
          "type": "uint256"
        },
        {
          "indexed": false,
          "internalType": "uint256",
          "name": "timestamp",
          "type": "uint256"
        }
      ],
      "name": "RentalRequested",
      "type": "event"
    },
    {
      "anonymous": false,
      "inputs": [
        {
          "indexed": false,
          "internalType": "address",
          "name": "renter",
          "type": "address"
        },
        {
          "indexed": false,
          "internalType": "uint256",
          "name": "rentalID",
          "type": "uint256"
        },
        {
          "indexed": false,
          "internalType": "uint256",
          "name": "tokenID",
          "type": "uint256"
        },
        {
          "indexed": false,
          "internalType": "string",
          "name": "title",
          "type": "string"
        },
        {
          "indexed": false,
          "internalType": "string",
          "name": "description",
          "type": "string"
        },
        {
          "indexed": false,
          "internalType": "string",
          "name": "tokenImgURI",
          "type": "string"
        },
        {
          "indexed": false,
          "internalType": "uint256",
          "name": "dayPrice",
          "type": "uint256"
        },
        {
          "indexed": false,
          "internalType": "uint256",
          "name": "caution",
          "type": "uint256"
        },
        {
          "indexed": false,
          "internalType": "uint256",
          "name": "timestamp",
          "type": "uint256"
        }
      ],
      "name": "ToolAddedToRentals",
      "type": "event"
    },
    {
      "anonymous": false,
      "inputs": [
        {
          "indexed": false,
          "internalType": "address",
          "name": "renter",
          "type": "address"
        },
        {
          "indexed": false,
          "internalType": "uint256",
          "name": "toolID",
          "type": "uint256"
        },
        {
          "indexed": false,
          "internalType": "uint256",
          "name": "timestamp",
          "type": "uint256"
        }
      ],
      "name": "ToolDeletedFromRentals",
      "type": "event"
    },
    {
      "anonymous": false,
      "inputs": [
        {
          "indexed": false,
          "internalType": "address",
          "name": "renter",
          "type": "address"
        },
        {
          "indexed": false,
          "internalType": "uint256",
          "name": "toolID",
          "type": "uint256"
        },
        {
          "indexed": false,
          "internalType": "uint256",
          "name": "timestamp",
          "type": "uint256"
        }
      ],
      "name": "ToolUpdatedFromRentals",
      "type": "event"
    },
    {
      "inputs": [],
      "name": "factory",
      "outputs": [
        {
          "internalType": "contract AnyNFTCollectionFactory",
          "name": "",
          "type": "address"
        }
      ],
      "stateMutability": "view",
      "type": "function",
      "constant": true
    },
    {
      "inputs": [],
      "name": "nbRentalMax",
      "outputs": [
        {
          "internalType": "uint256",
          "name": "",
          "type": "uint256"
        }
      ],
      "stateMutability": "view",
      "type": "function",
      "constant": true
    },
    {
      "inputs": [],
      "name": "owner",
      "outputs": [
        {
          "internalType": "address",
          "name": "",
          "type": "address"
        }
      ],
      "stateMutability": "view",
      "type": "function",
      "constant": true
    },
    {
      "inputs": [],
      "name": "renounceOwnership",
      "outputs": [],
      "stateMutability": "nonpayable",
      "type": "function"
    },
    {
      "inputs": [
        {
          "internalType": "address",
          "name": "",
          "type": "address"
        },
        {
          "internalType": "uint256",
          "name": "",
          "type": "uint256"
        }
      ],
      "name": "rentersRentals",
      "outputs": [
        {
          "internalType": "uint256",
          "name": "rentalID",
          "type": "uint256"
        },
        {
          "internalType": "string",
          "name": "title",
          "type": "string"
        },
        {
          "internalType": "string",
          "name": "description",
          "type": "string"
        },
        {
          "internalType": "uint64",
          "name": "dayPrice",
          "type": "uint64"
        },
        {
          "internalType": "uint64",
          "name": "caution",
          "type": "uint64"
        },
        {
          "internalType": "uint64",
          "name": "start",
          "type": "uint64"
        },
        {
          "internalType": "uint64",
          "name": "end",
          "type": "uint64"
        },
        {
          "internalType": "enum IAnyRental.RentalStatus",
          "name": "rentalStatus",
          "type": "uint8"
        },
        {
          "components": [
            {
              "internalType": "bool",
              "name": "isCautionDeposed",
              "type": "bool"
            },
            {
              "internalType": "bool",
              "name": "isNFTDelegated",
              "type": "bool"
            },
            {
              "internalType": "bool",
              "name": "isToolReturned",
              "type": "bool"
            },
            {
              "internalType": "bool",
              "name": "isReturnValidated",
              "type": "bool"
            },
            {
              "internalType": "bool",
              "name": "isDispute",
              "type": "bool"
            },
            {
              "internalType": "bool",
              "name": "isDisputeConfirmed",
              "type": "bool"
            },
            {
              "internalType": "bool",
              "name": "isRedeemed",
              "type": "bool"
            }
          ],
          "internalType": "struct IAnyRental.RentalData",
          "name": "rentalData",
          "type": "tuple"
        },
        {
          "internalType": "address",
          "name": "renter",
          "type": "address"
        },
        {
          "components": [
            {
              "internalType": "address",
              "name": "collection",
              "type": "address"
            },
            {
              "internalType": "address",
              "name": "owner",
              "type": "address"
            },
            {
              "internalType": "string",
              "name": "name",
              "type": "string"
            },
            {
              "internalType": "string",
              "name": "symbol",
              "type": "string"
            }
          ],
          "internalType": "struct IAnyRental.CollectionNFT",
          "name": "collection",
          "type": "tuple"
        },
        {
          "internalType": "uint256",
          "name": "tokenID",
          "type": "uint256"
        },
        {
          "internalType": "string",
          "name": "tokenImgURI",
          "type": "string"
        }
      ],
      "stateMutability": "view",
      "type": "function",
      "constant": true
    },
    {
      "inputs": [
        {
          "internalType": "address",
          "name": "newOwner",
          "type": "address"
        }
      ],
      "name": "transferOwnership",
      "outputs": [],
      "stateMutability": "nonpayable",
      "type": "function"
    },
    {
      "inputs": [
        {
          "internalType": "uint256",
          "name": "_nb",
          "type": "uint256"
        }
      ],
      "name": "setNbRentalMax",
      "outputs": [],
      "stateMutability": "nonpayable",
      "type": "function"
    },
    {
      "inputs": [
        {
          "internalType": "address",
          "name": "_owner",
          "type": "address"
        }
      ],
      "name": "getToolsCollection",
      "outputs": [
        {
          "components": [
            {
              "internalType": "uint256",
              "name": "tokenID",
              "type": "uint256"
            },
            {
              "internalType": "uint256",
              "name": "serialID",
              "type": "uint256"
            },
            {
              "internalType": "string",
              "name": "title",
              "type": "string"
            },
            {
              "internalType": "string",
              "name": "description",
              "type": "string"
            },
            {
              "internalType": "string",
              "name": "tokenURI",
              "type": "string"
            },
            {
              "internalType": "bool",
              "name": "isAvailable",
              "type": "bool"
            }
          ],
          "internalType": "struct Utils.Tool[]",
          "name": "",
          "type": "tuple[]"
        }
      ],
      "stateMutability": "view",
      "type": "function",
      "constant": true
    },
    {
      "inputs": [
        {
          "internalType": "address",
          "name": "_owner",
          "type": "address"
        }
      ],
      "name": "getToolsCollectionAddress",
      "outputs": [
        {
          "internalType": "address",
          "name": "",
          "type": "address"
        }
      ],
      "stateMutability": "view",
      "type": "function",
      "constant": true
    },
    {
      "inputs": [],
      "name": "getRentalsOwner",
      "outputs": [
        {
          "internalType": "address[]",
          "name": "",
          "type": "address[]"
        }
      ],
      "stateMutability": "view",
      "type": "function",
      "constant": true
    },
    {
      "inputs": [
        {
          "internalType": "address",
          "name": "_owner",
          "type": "address"
        }
      ],
      "name": "getRentalsByOwner",
      "outputs": [
        {
          "components": [
            {
              "internalType": "uint256",
              "name": "rentalID",
              "type": "uint256"
            },
            {
              "internalType": "string",
              "name": "title",
              "type": "string"
            },
            {
              "internalType": "string",
              "name": "description",
              "type": "string"
            },
            {
              "internalType": "uint64",
              "name": "dayPrice",
              "type": "uint64"
            },
            {
              "internalType": "uint64",
              "name": "caution",
              "type": "uint64"
            },
            {
              "internalType": "uint64",
              "name": "start",
              "type": "uint64"
            },
            {
              "internalType": "uint64",
              "name": "end",
              "type": "uint64"
            },
            {
              "internalType": "enum IAnyRental.RentalStatus",
              "name": "rentalStatus",
              "type": "uint8"
            },
            {
              "components": [
                {
                  "internalType": "bool",
                  "name": "isCautionDeposed",
                  "type": "bool"
                },
                {
                  "internalType": "bool",
                  "name": "isNFTDelegated",
                  "type": "bool"
                },
                {
                  "internalType": "bool",
                  "name": "isToolReturned",
                  "type": "bool"
                },
                {
                  "internalType": "bool",
                  "name": "isReturnValidated",
                  "type": "bool"
                },
                {
                  "internalType": "bool",
                  "name": "isDispute",
                  "type": "bool"
                },
                {
                  "internalType": "bool",
                  "name": "isDisputeConfirmed",
                  "type": "bool"
                },
                {
                  "internalType": "bool",
                  "name": "isRedeemed",
                  "type": "bool"
                }
              ],
              "internalType": "struct IAnyRental.RentalData",
              "name": "rentalData",
              "type": "tuple"
            },
            {
              "internalType": "address",
              "name": "renter",
              "type": "address"
            },
            {
              "components": [
                {
                  "internalType": "address",
                  "name": "collection",
                  "type": "address"
                },
                {
                  "internalType": "address",
                  "name": "owner",
                  "type": "address"
                },
                {
                  "internalType": "string",
                  "name": "name",
                  "type": "string"
                },
                {
                  "internalType": "string",
                  "name": "symbol",
                  "type": "string"
                }
              ],
              "internalType": "struct IAnyRental.CollectionNFT",
              "name": "collection",
              "type": "tuple"
            },
            {
              "internalType": "uint256",
              "name": "tokenID",
              "type": "uint256"
            },
            {
              "internalType": "string",
              "name": "tokenImgURI",
              "type": "string"
            }
          ],
          "internalType": "struct IAnyRental.Rental[]",
          "name": "",
          "type": "tuple[]"
        }
      ],
      "stateMutability": "view",
      "type": "function",
      "constant": true
    },
    {
      "inputs": [
        {
          "internalType": "address",
          "name": "_owner",
          "type": "address"
        },
        {
          "internalType": "uint256",
          "name": "_rentalId",
          "type": "uint256"
        }
      ],
      "name": "getRentalByOwnerAddressAndRentalID",
      "outputs": [
        {
          "components": [
            {
              "internalType": "uint256",
              "name": "rentalID",
              "type": "uint256"
            },
            {
              "internalType": "string",
              "name": "title",
              "type": "string"
            },
            {
              "internalType": "string",
              "name": "description",
              "type": "string"
            },
            {
              "internalType": "uint64",
              "name": "dayPrice",
              "type": "uint64"
            },
            {
              "internalType": "uint64",
              "name": "caution",
              "type": "uint64"
            },
            {
              "internalType": "uint64",
              "name": "start",
              "type": "uint64"
            },
            {
              "internalType": "uint64",
              "name": "end",
              "type": "uint64"
            },
            {
              "internalType": "enum IAnyRental.RentalStatus",
              "name": "rentalStatus",
              "type": "uint8"
            },
            {
              "components": [
                {
                  "internalType": "bool",
                  "name": "isCautionDeposed",
                  "type": "bool"
                },
                {
                  "internalType": "bool",
                  "name": "isNFTDelegated",
                  "type": "bool"
                },
                {
                  "internalType": "bool",
                  "name": "isToolReturned",
                  "type": "bool"
                },
                {
                  "internalType": "bool",
                  "name": "isReturnValidated",
                  "type": "bool"
                },
                {
                  "internalType": "bool",
                  "name": "isDispute",
                  "type": "bool"
                },
                {
                  "internalType": "bool",
                  "name": "isDisputeConfirmed",
                  "type": "bool"
                },
                {
                  "internalType": "bool",
                  "name": "isRedeemed",
                  "type": "bool"
                }
              ],
              "internalType": "struct IAnyRental.RentalData",
              "name": "rentalData",
              "type": "tuple"
            },
            {
              "internalType": "address",
              "name": "renter",
              "type": "address"
            },
            {
              "components": [
                {
                  "internalType": "address",
                  "name": "collection",
                  "type": "address"
                },
                {
                  "internalType": "address",
                  "name": "owner",
                  "type": "address"
                },
                {
                  "internalType": "string",
                  "name": "name",
                  "type": "string"
                },
                {
                  "internalType": "string",
                  "name": "symbol",
                  "type": "string"
                }
              ],
              "internalType": "struct IAnyRental.CollectionNFT",
              "name": "collection",
              "type": "tuple"
            },
            {
              "internalType": "uint256",
              "name": "tokenID",
              "type": "uint256"
            },
            {
              "internalType": "string",
              "name": "tokenImgURI",
              "type": "string"
            }
          ],
          "internalType": "struct IAnyRental.Rental",
          "name": "",
          "type": "tuple"
        }
      ],
      "stateMutability": "view",
      "type": "function",
      "constant": true
    },
    {
      "inputs": [
        {
          "internalType": "address",
          "name": "_renter",
          "type": "address"
        }
      ],
      "name": "isAddressOwner",
      "outputs": [
        {
          "internalType": "bool",
          "name": "",
          "type": "bool"
        }
      ],
      "stateMutability": "view",
      "type": "function",
      "constant": true
    },
    {
      "inputs": [
        {
          "internalType": "address",
          "name": "_renter",
          "type": "address"
        }
      ],
      "name": "isAddressRenter",
      "outputs": [
        {
          "internalType": "bool",
          "name": "",
          "type": "bool"
        }
      ],
      "stateMutability": "view",
      "type": "function",
      "constant": true
    },
    {
      "inputs": [
        {
          "internalType": "string",
          "name": "_collectionName",
          "type": "string"
        },
        {
          "internalType": "string",
          "name": "_collectionSymbol",
          "type": "string"
        }
      ],
      "name": "createCollection",
      "outputs": [
        {
          "internalType": "address",
          "name": "",
          "type": "address"
        }
      ],
      "stateMutability": "nonpayable",
      "type": "function"
    },
    {
      "inputs": [],
      "name": "deleteCollection",
      "outputs": [],
      "stateMutability": "nonpayable",
      "type": "function"
    },
    {
      "inputs": [
        {
          "internalType": "string",
          "name": "_tokenURI",
          "type": "string"
        },
        {
          "internalType": "uint256",
          "name": "_serialId",
          "type": "uint256"
        },
        {
          "internalType": "string",
          "name": "_title",
          "type": "string"
        },
        {
          "internalType": "string",
          "name": "_description",
          "type": "string"
        }
      ],
      "name": "addToolToCollection",
      "outputs": [
        {
          "internalType": "uint256",
          "name": "tokenId",
          "type": "uint256"
        }
      ],
      "stateMutability": "nonpayable",
      "type": "function"
    },
    {
      "inputs": [
        {
          "internalType": "uint256",
          "name": "_tokenId",
          "type": "uint256"
        },
        {
          "internalType": "address",
          "name": "_to",
          "type": "address"
        },
        {
          "internalType": "uint64",
          "name": "_expires",
          "type": "uint64"
        }
      ],
      "name": "delegateNFT",
      "outputs": [],
      "stateMutability": "nonpayable",
      "type": "function"
    },
    {
      "inputs": [
        {
          "internalType": "string",
          "name": "_tokenImgURI",
          "type": "string"
        },
        {
          "internalType": "uint64",
          "name": "_dayPrice",
          "type": "uint64"
        },
        {
          "internalType": "uint64",
          "name": "_caution",
          "type": "uint64"
        },
        {
          "internalType": "uint256",
          "name": "_tokenID",
          "type": "uint256"
        }
      ],
      "name": "addToolToRentals",
      "outputs": [],
      "stateMutability": "nonpayable",
      "type": "function"
    },
    {
      "inputs": [
        {
          "internalType": "uint256",
          "name": "_rentalID",
          "type": "uint256"
        },
        {
          "internalType": "uint64",
          "name": "_dayPrice",
          "type": "uint64"
        },
        {
          "internalType": "uint64",
          "name": "_caution",
          "type": "uint64"
        }
      ],
      "name": "updateToolIntoRentals",
      "outputs": [],
      "stateMutability": "nonpayable",
      "type": "function"
    },
    {
      "inputs": [
        {
          "internalType": "uint256",
          "name": "_rentalID",
          "type": "uint256"
        }
      ],
      "name": "deleteToolIntoRentals",
      "outputs": [],
      "stateMutability": "nonpayable",
      "type": "function"
    },
    {
      "inputs": [
        {
          "internalType": "address",
          "name": "_owner",
          "type": "address"
        },
        {
          "internalType": "uint256",
          "name": "_rentalID",
          "type": "uint256"
        },
        {
          "internalType": "uint64",
          "name": "_begin",
          "type": "uint64"
        },
        {
          "internalType": "uint64",
          "name": "_end",
          "type": "uint64"
        }
      ],
      "name": "sendPaiementForRental",
      "outputs": [],
      "stateMutability": "nonpayable",
      "type": "function"
    },
    {
      "inputs": [
        {
          "internalType": "uint256",
          "name": "_rentalID",
          "type": "uint256"
        },
        {
          "internalType": "uint256",
          "name": "_tokenID",
          "type": "uint256"
        }
      ],
      "name": "validateNFTDelegationForRental",
      "outputs": [],
      "stateMutability": "nonpayable",
      "type": "function"
    },
    {
      "inputs": [
        {
          "internalType": "address",
          "name": "_renter",
          "type": "address"
        },
        {
          "internalType": "uint256",
          "name": "_rentalID",
          "type": "uint256"
        }
      ],
      "name": "validateNFTandToolReception",
      "outputs": [],
      "stateMutability": "nonpayable",
      "type": "function"
    },
    {
      "inputs": [
        {
          "internalType": "address",
          "name": "_renter",
          "type": "address"
        },
        {
          "internalType": "uint256",
          "name": "_rentalID",
          "type": "uint256"
        }
      ],
      "name": "giveBackToolAfterRental",
      "outputs": [],
      "stateMutability": "nonpayable",
      "type": "function"
    },
    {
      "inputs": [
        {
          "internalType": "uint256",
          "name": "_rentalID",
          "type": "uint256"
        }
      ],
      "name": "validateReturnToolAfterRental",
      "outputs": [],
      "stateMutability": "nonpayable",
      "type": "function"
    },
    {
      "inputs": [
        {
          "internalType": "uint256",
          "name": "_rentalID",
          "type": "uint256"
        },
        {
          "internalType": "string",
          "name": "message",
          "type": "string"
        }
      ],
      "name": "refuseReturnToolAfterRental",
      "outputs": [],
      "stateMutability": "nonpayable",
      "type": "function"
    },
    {
      "inputs": [
        {
          "internalType": "address",
          "name": "_renter",
          "type": "address"
        },
        {
          "internalType": "uint256",
          "name": "_rentalID",
          "type": "uint256"
        },
        {
          "internalType": "string",
          "name": "message",
          "type": "string"
        }
      ],
      "name": "confirmDisputeAfterRental",
      "outputs": [],
      "stateMutability": "nonpayable",
      "type": "function"
    },
    {
      "inputs": [
        {
          "internalType": "address",
          "name": "_renter",
          "type": "address"
        },
        {
          "internalType": "uint256",
          "name": "_rentalID",
          "type": "uint256"
        }
      ],
      "name": "redeemPaymentForRental",
      "outputs": [],
      "stateMutability": "nonpayable",
      "type": "function"
    }
  ],
  "bytecode": "0x608060405260146007553480156200001657600080fd5b5060405162005022380380620050228339810160408190526200003991620000ba565b62000044336200006a565b600180546001600160a01b0319166001600160a01b0392909216919091179055620000ec565b600080546001600160a01b038381166001600160a01b0319831681178455604051919092169283917f8be0079c531659141344cd1fd0a4f28419497f9722a3daafe3b4186f6b6457e09190a35050565b600060208284031215620000cd57600080fd5b81516001600160a01b0381168114620000e557600080fd5b9392505050565b614f2680620000fc6000396000f3fe608060405234801561001057600080fd5b50600436106101cf5760003560e01c806384fb413611610104578063c45a0155116100a2578063d66d736611610071578063d66d736614610436578063e12ab2161461044b578063f2fde38b1461045e578063f5df00541461047157600080fd5b8063c45a0155146103d9578063cfa54ca8146103ec578063d50ca7631461041a578063d5672deb1461042357600080fd5b8063a8c8018e116100de578063a8c8018e14610380578063b5139f3414610393578063c135426a146103b3578063c222ba0a146103c657600080fd5b806384fb4136146103305780638da5cb5b1461035c5780639d76b1bc1461036d57600080fd5b80633e8d19fe1161017157806359087a941161014b57806359087a94146102ef578063715018a6146103025780637f7fcf111461030a57806382edd1d51461031d57600080fd5b80633e8d19fe146102a95780634cd4e3e0146102c95780634ce7979e146102dc57600080fd5b80631f728a1a116101ad5780631f728a1a146102215780632c62afc1146102345780633511de41146102555780633e4c89e91461029657600080fd5b806301ee4e2f146101d4578063176b9b75146101e95780631ebf7c5014610219575b600080fd5b6101e76101e2366004613c02565b610491565b005b6101fc6101f7366004613d19565b6105f1565b6040516001600160a01b0390911681526020015b60405180910390f35b6101e76108a0565b6101e761022f366004613d7c565b610b0e565b610247610242366004613ddd565b611037565b604051908152602001610210565b610286610263366004613e74565b6001600160a01b0390811660009081526005602052604090206001015416151590565b6040519015158152602001610210565b6101e76102a4366004613eb4565b6114a5565b6102bc6102b7366004613e74565b611627565b604051610210919061414a565b6101e76102d7366004613d7c565b611b00565b6101e76102ea3660046141ac565b611c76565b6101e76102fd366004614204565b611e66565b6101e7611ff0565b6101e7610318366004613c02565b612004565b6101e761032b366004614240565b6121ac565b61034361033e366004613c02565b612474565b6040516102109d9c9b9a999897969594939291906142ac565b6000546001600160a01b03166101fc565b6101e761037b366004614386565b612877565b6101fc61038e366004613e74565b612b77565b6103a66103a1366004613c02565b612bd2565b60405161021091906143d5565b6101e76103c13660046143e8565b61310e565b6101e76103d4366004613c02565b613331565b6001546101fc906001600160a01b031681565b6102866103fa366004613e74565b6001600160a01b0390811660009081526003602052604090205416151590565b61024760075481565b6101e761043136600461440a565b6134ca565b61043e613700565b604051610210919061442f565b6101e7610459366004613d7c565b613762565b6101e761046c366004613e74565b61376f565b61048461047f366004613e74565b6137e8565b604051610210919061447c565b8061049b60025490565b10156104c25760405162461bcd60e51b81526004016104b990614540565b60405180910390fd5b60006104ce83836138a8565b6001600160a01b038416600090815260066020526040812080549293509091839081106104fd576104fd61456d565b90600052602060002090600d02019050828160000154146105305760405162461bcd60e51b81526004016104b990614583565b6005600482015460ff16600881111561054b5761054b613f42565b146105685760405162461bcd60e51b81526004016104b9906145ba565b600481018054600860ff19909116811790915560058201805466ff0000000000ff1916600160301b1790558101546007820154600b8301546040517f3439199983bc67c84242710ffe8067d1454074df03cf118730de50fc5b6eb9bb936105e3936001600160a01b03918216933393929091169142906145f1565b60405180910390a150505050565b60003361063c5760405162461bcd60e51b81526020600482015260196024820152781859191c995cdcc81e995c9bc81a5cc81b9bdd081d985b1a59603a1b60448201526064016104b9565b336000908152600560205260409020546001600160a01b0316156106b35760405162461bcd60e51b815260206004820152602860248201527f596f7520616c72656164792068617665206372656174656420796f757220636f604482015267363632b1ba34b7b760c11b60648201526084016104b9565b604080516020808201909252600090528351908401207fc5d2460186f7233c927e7db2dcc703c0e500b653ca82273b7bfad8045d85a470036107375760405162461bcd60e51b815260206004820152601e60248201527f636f6c6c656374696f6e206e616d652063616e277420626520656d707479000060448201526064016104b9565b600154604051633cccf6e960e11b81526000916001600160a01b031690637999edd29061076c90339088908890600401614625565b6020604051808303816000875af115801561078b573d6000803e3d6000fd5b505050506040513d601f19601f820116820180604052508101906107af9190614665565b33600081815260056020526040902080546001600160a01b0384166001600160a01b03199182161782556001820180549091169092179091559091506002016107f8858261471a565b50336000908152600560205260409020600301610815848261471a565b50600480546001810182556000919091527f8a35acfbc15ff81a39ae7d344fd709f28e8600b4aa8c65c6b64bfe7fe36bd19b0180546001600160a01b031916339081179091556040517f88d25790273b8c367ee270bf60b22ad4aada95ecda75d3d82710534a73ce277a9161088f918790859042906147d3565b60405180910390a190505b92915050565b336000818152600560205260409020600101546001600160a01b0316146108d95760405162461bcd60e51b81526004016104b990614807565b336109225760405162461bcd60e51b81526020600482015260196024820152781859191c995cdcc81e995c9bc81a5cc81b9bdd081d985b1a59603a1b60448201526064016104b9565b336000908152600560205260409020546001600160a01b03166109575760405162461bcd60e51b81526004016104b99061484e565b336000908152600560205260408120546001600160a01b031690805b6004548110156109ce57336001600160a01b03166004828154811061099a5761099a61456d565b6000918252602090912001546001600160a01b0316036109bc578091506109ce565b806109c68161489b565b915050610973565b50600480546109df906001906148b4565b815481106109ef576109ef61456d565b600091825260209091200154600480546001600160a01b039092169183908110610a1b57610a1b61456d565b9060005260206000200160006101000a8154816001600160a01b0302191690836001600160a01b031602179055506004805480610a5a57610a5a6148c7565b60008281526020808220830160001990810180546001600160a01b0319908116909155930190935533815260059092526040822080548216815560018101805490921690915590610aae6002830182613ad5565b610abc600383016000613ad5565b5050604080513381526001600160a01b038416602082015242918101919091527fce084e945d8eacece908740a7dbf5178848ef8331e87941732f09c5c964b6c4c906060015b60405180910390a15050565b336000818152600560205260409020600101546001600160a01b031614610b475760405162461bcd60e51b81526004016104b990614807565b336000908152600560205260409020546001600160a01b0316610b7c5760405162461bcd60e51b81526004016104b99061484e565b6007543360009081526006602052604090205410610bac5760405162461bcd60e51b81526004016104b9906148dd565b6000805b33600090815260066020526040902054811015610c1c57336000908152600660205260409020805484919083908110610beb57610beb61456d565b90600052602060002090600d02016000015403610c0a57809150610c1c565b80610c148161489b565b915050610bb0565b503360009081526006602052604090208054610c3a906001906148b4565b81548110610c4a57610c4a61456d565b90600052602060002090600d020160066000336001600160a01b03166001600160a01b031681526020019081526020016000208281548110610c8e57610c8e61456d565b600091825260209091208254600d90920201908155600180820190610cb590840182614914565b50600281810190610cc890840182614914565b5060038281018054918301805467ffffffffffffffff1981166001600160401b0394851690811783558354600160401b908190048616026001600160801b031990921617178082558254600160801b9081900485160267ffffffffffffffff60801b198216811783559254600160c01b908190049094169093026001600160c01b039092166001600160801b0390931692909217179055600480830154908201805460ff9092169160ff19166001836008811115610d8857610d88613f42565b021790555060058281018054918301805460ff938416151560ff19821681178355835461010090819004861615150261ff001990911661ffff19909216919091171780825582546201000090819004851615150262ff0000198216811783558354630100000090819004861615150263ff0000001990911663ffff0000199092169190911717808255825464010000000090819004851615150264ff00000000198216811783558354600160281b90819004861615150260ff60281b1990911665ffff000000001990921691909117178082559154600160301b90819004909316151590920260ff60301b1990911617905560068083015490820180546001600160a01b03199081166001600160a01b039384161790915560078085018054918501805484169285169290921782556008808701549086018054909416941693909317909155600980840190610ee090860182614914565b50600381810190610ef390840182614914565b505050600b82015481600b0155600c820181600c019081610f149190614914565b5050336000908152600660205260409020805490915080610f3757610f376148c7565b600082815260208120600d6000199093019283020181815590610f5d6001830182613ad5565b610f6b600283016000613ad5565b60006003830181905560048301805460ff1916905560058301805466ffffffffffffff191690556006830180546001600160a01b03199081169091556007840180548216815560088501805490921690915590610fcb6009850182613ad5565b610fd9600383016000613ad5565b5050600b820160009055600c82016000610ff39190613ad5565b50509055604080513381526020810184905242918101919091527ff46058662129ffc1407e831e43472941c33828326b7a935de2a9f60925baec6790606001610b02565b3360008181526005602052604081206001015490916001600160a01b03909116146110745760405162461bcd60e51b81526004016104b990614807565b336000908152600560205260409020546001600160a01b03166110a95760405162461bcd60e51b81526004016104b99061484e565b60075433600090815260066020526040902054106110d95760405162461bcd60e51b81526004016104b9906148dd565b33600081815260056020526040808220549051635448142b60e11b81526001600160a01b0390911692839163a890285691611121918c918c918c918c918c9190600401614a11565b6020604051808303816000875af1158015611140573d6000803e3d6000fd5b505050506040513d601f19601f820116820180604052508101906111649190614a6d565b9050600061117160025490565b905061117b613b0f565b6040805160808101825260008082526020808301828152606084860181905280850152338084526005835285842080546001600160a01b039081168752600191820154169092528787528683018d81528787018d9052610140880186905261016088018a905260028054840190559084526006835294832080548083018255908452919092208551600d909202019081559251919284929091820190611221908261471a565b5060408201516002820190611236908261471a565b506060820151600382018054608085015160a086015160c08701516001600160401b03908116600160c01b026001600160c01b03928216600160801b02929092166001600160801b03938216600160401b026001600160801b0319909516919096161792909217169290921791909117905560e082015160048201805460ff191660018360088111156112cb576112cb613f42565b02179055506101008281015180516005840180546020808501516040808701516060880151608089015160a08a015160c0909a015161ffff1990971698151561ff001916989098179315159099029290921763ffff00001916620100009215159290920263ff0000001916919091176301000000971515979097029690961765ffff0000000019166401000000009415159490940260ff60281b191693909317600160281b941515949094029390931760ff60301b1916600160301b93151593909302929092179091556101208401516006840180546001600160a01b03199081166001600160a01b0393841617909155610140860151805160078701805484169185169190911781559381015160088701805490931693169290921790559182015160098401906113fd908261471a565b5060608201516003820190611412908261471a565b505050610160820151600b820155610180820151600c820190611435908261471a565b5050336000818152600560209081526040918290205482519384526001600160a01b03169083015281018690524260608201527fe029e29fa8a3bb786f69f9c8700882d80138e278db591e45bd8bbfa22682bd84915060800160405180910390a150919998505050505050505050565b336000818152600560205260409020600101546001600160a01b0316146114de5760405162461bcd60e51b81526004016104b990614807565b336000908152600560205260409020546001600160a01b03166115135760405162461bcd60e51b81526004016104b99061484e565b336000818152600560205260409020600101546001600160a01b03161461154c5760405162461bcd60e51b81526004016104b990614807565b33600081815260056020526040908190205490516333b57b5760e21b8152600481018690526001600160a01b0385811660248301526001600160401b03851660448301526064820193909352911690819063ced5ed5c90608401600060405180830381600087803b1580156115c057600080fd5b505af11580156115d4573d6000803e3d6000fd5b505033600081815260056020526040908190205490517f38ca09c302caf0446908a1a3f31a72897e907fc242c9a7990d7c0937ac128b1494506105e3935087916001600160a01b031690899042906145f1565b6001600160a01b038082166000908152600560205260409020546060918391166116635760405162461bcd60e51b81526004016104b990614a86565b6001600160a01b038316600090815260066020908152604080832080548251818502810185019093528083529193909284015b82821015611af357838290600052602060002090600d0201604051806101a0016040529081600082015481526020016001820180546116d490614682565b80601f016020809104026020016040519081016040528092919081815260200182805461170090614682565b801561174d5780601f106117225761010080835404028352916020019161174d565b820191906000526020600020905b81548152906001019060200180831161173057829003601f168201915b5050505050815260200160028201805461176690614682565b80601f016020809104026020016040519081016040528092919081815260200182805461179290614682565b80156117df5780601f106117b4576101008083540402835291602001916117df565b820191906000526020600020905b8154815290600101906020018083116117c257829003601f168201915b505050918352505060038201546001600160401b038082166020840152600160401b820481166040840152600160801b820481166060840152600160c01b909104166080820152600482015460a09091019060ff16600881111561184557611845613f42565b600881111561185657611856613f42565b81526040805160e081018252600584015460ff8082161515835261010082048116151560208481019190915262010000830482161515848601526301000000830482161515606080860191909152640100000000840483161515608080870191909152600160281b85048416151560a0870152600160301b909404909216151560c08501528086019390935260068601546001600160a01b03908116858701528451928301855260078701805482168452600888015490911693830193909352600986018054919095019491938401919061193090614682565b80601f016020809104026020016040519081016040528092919081815260200182805461195c90614682565b80156119a95780601f1061197e576101008083540402835291602001916119a9565b820191906000526020600020905b81548152906001019060200180831161198c57829003601f168201915b505050505081526020016003820180546119c290614682565b80601f01602080910402602001604051908101604052809291908181526020018280546119ee90614682565b8015611a3b5780601f10611a1057610100808354040283529160200191611a3b565b820191906000526020600020905b815481529060010190602001808311611a1e57829003601f168201915b5050505050815250508152602001600b8201548152602001600c82018054611a6290614682565b80601f0160208091040260200160405190810160405280929190818152602001828054611a8e90614682565b8015611adb5780601f10611ab057610100808354040283529160200191611adb565b820191906000526020600020905b815481529060010190602001808311611abe57829003601f168201915b50505050508152505081526020019060010190611696565b5050505091505b50919050565b336000818152600560205260409020546001600160a01b0316611b355760405162461bcd60e51b81526004016104b990614a86565b81611b3f60025490565b1015611b5d5760405162461bcd60e51b81526004016104b990614540565b6000611b6933846138a8565b3360009081526006602052604081208054929350909183908110611b8f57611b8f61456d565b90600052602060002090600d0201905083816000015414611bc25760405162461bcd60e51b81526004016104b990614583565b60048082015460ff166008811115611bdc57611bdc613f42565b14611bf95760405162461bcd60e51b81526004016104b9906145ba565b600481018054600560ff1990911681179091558101805463ff00000019166301000000179055600881015460068201546007830154600b8401546040517f52d8c02cb4414644b59c67b225228ebebf995dbae27daeb68c1b08db68a57769946105e3946001600160a01b03918216949082169391169142906145f1565b6001600160a01b03808416600090815260056020526040902054849116611caf5760405162461bcd60e51b81526004016104b990614a86565b82611cb960025490565b1015611cd75760405162461bcd60e51b81526004016104b990614540565b6000611ce385856138a8565b6001600160a01b03861660009081526006602052604081208054929350909183908110611d1257611d1261456d565b90600052602060002090600d0201905084816000015414611d455760405162461bcd60e51b81526004016104b990614583565b60068101546001600160a01b03163314611db45760405162461bcd60e51b815260206004820152602a60248201527f50726f626c656d206f6e207468652072656e74657220616e6420746872206f6e604482015269652077686f2061736b7360b01b60648201526084016104b9565b6006600482015460ff166008811115611dcf57611dcf613f42565b14611dec5760405162461bcd60e51b81526004016104b9906145ba565b60058101805460ff60281b1916600160281b17905560088101546007820154600b8301546040517fe88351cb5c14d4759ce2e8ab2b155c3123aa3f6d075a5093ec397c69531316e993611e56936001600160a01b039182169333939190921691908a904290614ab4565b60405180910390a1505050505050565b336000818152600560205260409020546001600160a01b0316611e9b5760405162461bcd60e51b81526004016104b990614a86565b82611ea560025490565b1015611ec35760405162461bcd60e51b81526004016104b990614540565b6000611ecf33856138a8565b3360009081526006602052604081208054929350909183908110611ef557611ef561456d565b90600052602060002090600d0201905084816000015414611f285760405162461bcd60e51b81526004016104b990614583565b60048082015460ff166008811115611f4257611f42613f42565b14611f5f5760405162461bcd60e51b81526004016104b9906145ba565b600481018054600660ff19909116811790915560058201805464ff00ff000019166401000100001790556008820154908201546007830154600b8401546040517fa0468e9e1b4d1e35562d8986f9ffabe60d38f204b1b21aca613b454ea7d968d494611fe1946001600160a01b0391821694908216939116918a904290614ab4565b60405180910390a15050505050565b611ff861396e565b61200260006139c8565b565b6001600160a01b0380831660009081526005602052604090205483911661203d5760405162461bcd60e51b81526004016104b990614a86565b8161204760025490565b10156120655760405162461bcd60e51b81526004016104b990614540565b600061207184846138a8565b6001600160a01b038516600090815260066020526040812080549293509091839081106120a0576120a061456d565b90600052602060002090600d02019050838160000154146120d35760405162461bcd60e51b81526004016104b990614583565b60068101546001600160a01b031633146120ff5760405162461bcd60e51b81526004016104b990614b02565b6003600482015460ff16600881111561211a5761211a613f42565b146121375760405162461bcd60e51b81526004016104b9906145ba565b6004818101805460ff1916909117905560058101805462ff000019166201000017905560088101546007820154600b8301546040517f148ece29b6c432d68b486ce63886d31120fe9c4ec4cf0dbed28a0944ff693df493611fe1936001600160a01b03918216933393929091169142906145f1565b336000818152600560205260409020600101546001600160a01b0316146121e55760405162461bcd60e51b81526004016104b990614807565b336000908152600560205260409020546001600160a01b031661221a5760405162461bcd60e51b81526004016104b99061484e565b600754336000908152600660205260409020541061224a5760405162461bcd60e51b81526004016104b9906148dd565b6000836001600160401b0316116122735760405162461bcd60e51b81526004016104b990614b4c565b6000826001600160401b03161161229c5760405162461bcd60e51b81526004016104b990614b4c565b6040805160e081018252600080825260208201819052918101829052606081018290526080810182905260a0810182905260c08101829052906122df3384613a18565b33600090815260066020526040812080549293509091839081106123055761230561456d565b60009182526020909120600d909102019050600c8101612326888a83614b78565b506003810180546001600160401b03878116600160401b026001600160801b03199092169089161717905560048101805460ff1916905582516005820180546020860151604080880151606089015160808a015160a08b015160c08c01511515600160301b0260ff60301b19911515600160281b0260ff60281b19931515640100000000029390931665ffff000000001994151563010000000263ff0000001996151562010000029690961663ffff0000199815156101000261ff00199c15159c909c1661ffff19909a16999099179a909a17969096169690961792909217169590951794909417919091161790558154600b83015491517fd5810d828d3236216c1ea8fa243575cea71c06804476063f4feef5205a652e3a92612462923392909190600187019060028801908f908f908f908f904290614cae565b60405180910390a15050505050505050565b6006602052816000526040600020818154811061249057600080fd5b90600052602060002090600d0201600091509150508060000154908060010180546124ba90614682565b80601f01602080910402602001604051908101604052809291908181526020018280546124e690614682565b80156125335780601f1061250857610100808354040283529160200191612533565b820191906000526020600020905b81548152906001019060200180831161251657829003601f168201915b50505050509080600201805461254890614682565b80601f016020809104026020016040519081016040528092919081815260200182805461257490614682565b80156125c15780601f10612596576101008083540402835291602001916125c1565b820191906000526020600020905b8154815290600101906020018083116125a457829003601f168201915b505050600384015460048501546040805160e081018252600588015460ff81811615158352610100820481161515602080850191909152620100008304821615158486015263010000008304821615156060850152640100000000830482161515608080860191909152600160281b84048316151560a0860152600160301b9093048216151560c085015260068b01548551938401865260078c0180546001600160a01b03908116865260088e015481169386019390935260098d0180549c9d6001600160401b03808c169e600160401b8d0482169e50600160801b8d0482169d50600160c01b909c04169a95909916989697939092169594939092840191906126ca90614682565b80601f01602080910402602001604051908101604052809291908181526020018280546126f690614682565b80156127435780601f1061271857610100808354040283529160200191612743565b820191906000526020600020905b81548152906001019060200180831161272657829003601f168201915b5050505050815260200160038201805461275c90614682565b80601f016020809104026020016040519081016040528092919081815260200182805461278890614682565b80156127d55780601f106127aa576101008083540402835291602001916127d5565b820191906000526020600020905b8154815290600101906020018083116127b857829003601f168201915b5050505050815250509080600b01549080600c0180546127f490614682565b80601f016020809104026020016040519081016040528092919081815260200182805461282090614682565b801561286d5780601f106128425761010080835404028352916020019161286d565b820191906000526020600020905b81548152906001019060200180831161285057829003601f168201915b505050505090508d565b6001600160a01b038085166000908152600560205260409020548591166128b05760405162461bcd60e51b81526004016104b990614a86565b836128ba60025490565b10156128d85760405162461bcd60e51b81526004016104b990614540565b6000836001600160401b0316116129315760405162461bcd60e51b815260206004820152601a60248201527f626567696e206d75737420626520612076616c6964206461746500000000000060448201526064016104b9565b6000826001600160401b03161161298a5760405162461bcd60e51b815260206004820152601860248201527f656e64206d75737420626520612076616c69642064617465000000000000000060448201526064016104b9565b816001600160401b0316836001600160401b0316106129f75760405162461bcd60e51b815260206004820152602360248201527f456e64206f662072656e74616c2063616e2774206265206265666f726520626560448201526233b4b760e91b60648201526084016104b9565b6000612a0386866138a8565b6001600160a01b03871660009081526006602052604081208054929350909183908110612a3257612a3261456d565b90600052602060002090600d0201905085816000015414612a655760405162461bcd60e51b81526004016104b990614583565b6000600482015460ff166008811115612a8057612a80613f42565b14612a9d5760405162461bcd60e51b81526004016104b9906145ba565b6003810180546001600160401b03868116600160c01b026001600160c01b03918916600160801b02919091166001600160801b03909216919091171790556004810180546001919060ff19168280021790555060058101805460ff191660011790556006810180546001600160a01b0319163390811790915560088201546007830154600b8401546040517f82c81679d53af0a29474e2aa759267691f702b26b09b0ebac62d0394c9eaadb094612b66946001600160a01b0390811694919391169142906145f1565b60405180910390a150505050505050565b6001600160a01b038082166000908152600560205260408120549091839116612bb25760405162461bcd60e51b81526004016104b990614a86565b50506001600160a01b039081166000908152600560205260409020541690565b612bda613b0f565b6001600160a01b03808416600090815260056020526040902054849116612c135760405162461bcd60e51b81526004016104b990614a86565b6000805b6001600160a01b038616600090815260066020526040902054811015612c95576001600160a01b0386166000908152600660205260409020805486919083908110612c6457612c6461456d565b90600052602060002090600d02016000015403612c8357809150612c95565b80612c8d8161489b565b915050612c17565b506001600160a01b0385166000908152600660205260409020805482908110612cc057612cc061456d565b90600052602060002090600d0201604051806101a001604052908160008201548152602001600182018054612cf490614682565b80601f0160208091040260200160405190810160405280929190818152602001828054612d2090614682565b8015612d6d5780601f10612d4257610100808354040283529160200191612d6d565b820191906000526020600020905b815481529060010190602001808311612d5057829003601f168201915b50505050508152602001600282018054612d8690614682565b80601f0160208091040260200160405190810160405280929190818152602001828054612db290614682565b8015612dff5780601f10612dd457610100808354040283529160200191612dff565b820191906000526020600020905b815481529060010190602001808311612de257829003601f168201915b505050918352505060038201546001600160401b038082166020840152600160401b820481166040840152600160801b820481166060840152600160c01b909104166080820152600482015460a09091019060ff166008811115612e6557612e65613f42565b6008811115612e7657612e76613f42565b81526040805160e081018252600584015460ff8082161515835261010082048116151560208481019190915262010000830482161515848601526301000000830482161515606080860191909152640100000000840483161515608080870191909152600160281b85048416151560a0870152600160301b909404909216151560c08501528086019390935260068601546001600160a01b039081168587015284519283018552600787018054821684526008880154909116938301939093526009860180549190950194919384019190612f5090614682565b80601f0160208091040260200160405190810160405280929190818152602001828054612f7c90614682565b8015612fc95780601f10612f9e57610100808354040283529160200191612fc9565b820191906000526020600020905b815481529060010190602001808311612fac57829003601f168201915b50505050508152602001600382018054612fe290614682565b80601f016020809104026020016040519081016040528092919081815260200182805461300e90614682565b801561305b5780601f106130305761010080835404028352916020019161305b565b820191906000526020600020905b81548152906001019060200180831161303e57829003601f168201915b5050505050815250508152602001600b8201548152602001600c8201805461308290614682565b80601f01602080910402602001604051908101604052809291908181526020018280546130ae90614682565b80156130fb5780601f106130d0576101008083540402835291602001916130fb565b820191906000526020600020905b8154815290600101906020018083116130de57829003601f168201915b5050505050815250509250505092915050565b336000818152600560205260409020546001600160a01b03166131435760405162461bcd60e51b81526004016104b990614a86565b8261314d60025490565b101561316b5760405162461bcd60e51b81526004016104b990614540565b600082116131b45760405162461bcd60e51b81526020600482015260166024820152751d1bdad95b881251081b5d5cdd081899481d985b1a5960521b60448201526064016104b9565b60006131c033856138a8565b33600090815260066020526040812080549293509091839081106131e6576131e661456d565b90600052602060002090600d02019050848160000154146132195760405162461bcd60e51b81526004016104b990614583565b8381600b0154146132805760405162461bcd60e51b815260206004820152602b60248201527f4572726f722e2e2e2074686520746f6b656e49642069736e277420746865206360448201526a37b93932b1ba1037b7329760a91b60648201526084016104b9565b6001600482015460ff16600881111561329b5761329b613f42565b146132b85760405162461bcd60e51b81526004016104b9906145ba565b60048101805460ff1916600217905560058101805461010061ff0019909116179055600881015460068201546007830154600b8401546040517f398075ddfcb370e855cd3a01f6ac8b404f3e1899de6c406baf4148098c9f738494611fe1946001600160a01b03918216949082169391169142906145f1565b6001600160a01b0380831660009081526005602052604090205483911661336a5760405162461bcd60e51b81526004016104b990614a86565b8161337460025490565b10156133925760405162461bcd60e51b81526004016104b990614540565b600061339e84846138a8565b6001600160a01b038516600090815260066020526040812080549293509091839081106133cd576133cd61456d565b90600052602060002090600d02019050838160000154146134005760405162461bcd60e51b81526004016104b990614583565b60068101546001600160a01b0316331461342c5760405162461bcd60e51b81526004016104b990614b02565b6002600482015460ff16600881111561344757613447613f42565b146134645760405162461bcd60e51b81526004016104b9906145ba565b60048101805460ff19166003179055600881015460068201546007830154600b8401546040517f38ca09c302caf0446908a1a3f31a72897e907fc242c9a7990d7c0937ac128b1494611fe1946001600160a01b03918216949082169391169142906145f1565b336000818152600560205260409020600101546001600160a01b0316146135035760405162461bcd60e51b81526004016104b990614807565b336000908152600560205260409020546001600160a01b03166135385760405162461bcd60e51b81526004016104b99061484e565b6000826001600160401b0316116135615760405162461bcd60e51b81526004016104b990614b4c565b6000816001600160401b03161161358a5760405162461bcd60e51b81526004016104b990614b4c565b60005b336000908152600660205260409020548110156136bb573360009081526006602052604090208054859190839081106135c8576135c861456d565b90600052602060002090600d020160000154036136a9573360009081526006602052604090208054849190839081106136035761360361456d565b90600052602060002090600d020160030160006101000a8154816001600160401b0302191690836001600160401b031602179055508160066000336001600160a01b03166001600160a01b03168152602001908152602001600020828154811061366f5761366f61456d565b90600052602060002090600d020160030160086101000a8154816001600160401b0302191690836001600160401b031602179055506136bb565b806136b38161489b565b91505061358d565b506040805133815260208101859052428183015290517f01cc60dde87167776063bf9d5243d54a5f50296291346123485ec0eaeffb17f49181900360600190a1505050565b6060600480548060200260200160405190810160405280929190818152602001828054801561375857602002820191906000526020600020905b81546001600160a01b0316815260019091019060200180831161373a575b5050505050905090565b61376a61396e565b600755565b61377761396e565b6001600160a01b0381166137dc5760405162461bcd60e51b815260206004820152602660248201527f4f776e61626c653a206e6577206f776e657220697320746865207a65726f206160448201526564647265737360d01b60648201526084016104b9565b6137e5816139c8565b50565b6001600160a01b038082166000908152600560205260409020546060918391166138245760405162461bcd60e51b81526004016104b990614a86565b6001600160a01b03808416600090815260056020526040808220548151637c455b8b60e01b815291519316928392637c455b8b92600480820193918290030181865afa158015613878573d6000803e3d6000fd5b505050506040513d6000823e601f3d908101601f191682016040526138a09190810190614d85565b949350505050565b6001600160a01b0380831660009081526005602052604081205490918491166138e35760405162461bcd60e51b81526004016104b990614a86565b6000805b6001600160a01b038616600090815260066020526040902054811015613965576001600160a01b03861660009081526006602052604090208054869190839081106139345761393461456d565b90600052602060002090600d0201600001540361395357809150613965565b8061395d8161489b565b9150506138e7565b50949350505050565b6000546001600160a01b031633146120025760405162461bcd60e51b815260206004820181905260248201527f4f776e61626c653a2063616c6c6572206973206e6f7420746865206f776e657260448201526064016104b9565b600080546001600160a01b038381166001600160a01b0319831681178455604051919092169283917f8be0079c531659141344cd1fd0a4f28419497f9722a3daafe3b4186f6b6457e09190a35050565b6001600160a01b038083166000908152600560205260408120549091849116613a535760405162461bcd60e51b81526004016104b990614a86565b6000805b6001600160a01b038616600090815260066020526040902054811015613965576001600160a01b0386166000908152600660205260409020805486919083908110613aa457613aa461456d565b90600052602060002090600d0201600b015403613ac357809150613965565b80613acd8161489b565b915050613a57565b508054613ae190614682565b6000825580601f10613af1575050565b601f0160209004906000526020600020908101906137e59190613bd4565b604080516101a08101825260008082526060602083018190529282018390529181018290526080810182905260a0810182905260c081018290529060e082019081526040805160e08101825260008082526020828101829052928201819052606082018190526080820181905260a0820181905260c0820152910190815260006020820152604001613bc0604080516080810182526000808252602082015260609181018290528181019190915290565b815260200160008152602001606081525090565b5b80821115613be95760008155600101613bd5565b5090565b6001600160a01b03811681146137e557600080fd5b60008060408385031215613c1557600080fd5b8235613c2081613bed565b946020939093013593505050565b634e487b7160e01b600052604160045260246000fd5b60405160c081016001600160401b0381118282101715613c6657613c66613c2e565b60405290565b604051601f8201601f191681016001600160401b0381118282101715613c9457613c94613c2e565b604052919050565b60006001600160401b03821115613cb557613cb5613c2e565b50601f01601f191660200190565b600082601f830112613cd457600080fd5b8135613ce7613ce282613c9c565b613c6c565b818152846020838601011115613cfc57600080fd5b816020850160208301376000918101602001919091529392505050565b60008060408385031215613d2c57600080fd5b82356001600160401b0380821115613d4357600080fd5b613d4f86838701613cc3565b93506020850135915080821115613d6557600080fd5b50613d7285828601613cc3565b9150509250929050565b600060208284031215613d8e57600080fd5b5035919050565b60008083601f840112613da757600080fd5b5081356001600160401b03811115613dbe57600080fd5b602083019150836020828501011115613dd657600080fd5b9250929050565b600080600080600060808688031215613df557600080fd5b85356001600160401b0380821115613e0c57600080fd5b613e1889838a01613d95565b9097509550602088013594506040880135915080821115613e3857600080fd5b613e4489838a01613cc3565b93506060880135915080821115613e5a57600080fd5b50613e6788828901613cc3565b9150509295509295909350565b600060208284031215613e8657600080fd5b8135613e9181613bed565b9392505050565b80356001600160401b0381168114613eaf57600080fd5b919050565b600080600060608486031215613ec957600080fd5b833592506020840135613edb81613bed565b9150613ee960408501613e98565b90509250925092565b60005b83811015613f0d578181015183820152602001613ef5565b50506000910152565b60008151808452613f2e816020860160208601613ef2565b601f01601f19169290920160200192915050565b634e487b7160e01b600052602160045260246000fd5b60098110613f7657634e487b7160e01b600052602160045260246000fd5b9052565b80511515825260208101511515602083015260408101511515604083015260608101511515606083015260808101511515608083015260a0810151151560a083015260c0810151151560c08301525050565b600060018060a01b03808351168452806020840151166020850152506040820151608060408501526140016080850182613f16565b90506060830151848203606086015261401a8282613f16565b95945050505050565b600061026082518452602083015181602086015261404382860182613f16565b9150506040830151848203604086015261405d8282613f16565b915050606083015161407a60608601826001600160401b03169052565b50608083015161409560808601826001600160401b03169052565b5060a08301516140b060a08601826001600160401b03169052565b5060c08301516140cb60c08601826001600160401b03169052565b5060e08301516140de60e0860182613f58565b50610100808401516140f282870182613f7a565b50506101208301516001600160a01b03166101e08501526101408301518482036102008601526141228282613fcc565b91505061016083015161022085015261018083015184820361024086015261401a8282613f16565b6000602080830181845280855180835260408601915060408160051b870101925083870160005b8281101561419f57603f1988860301845261418d858351614023565b94509285019290850190600101614171565b5092979650505050505050565b6000806000606084860312156141c157600080fd5b83356141cc81613bed565b92506020840135915060408401356001600160401b038111156141ee57600080fd5b6141fa86828701613cc3565b9150509250925092565b6000806040838503121561421757600080fd5b8235915060208301356001600160401b0381111561423457600080fd5b613d7285828601613cc3565b60008060008060006080868803121561425857600080fd5b85356001600160401b0381111561426e57600080fd5b61427a88828901613d95565b909650945061428d905060208701613e98565b925061429b60408701613e98565b949793965091946060013592915050565b8d8152610260602082015260006142c761026083018f613f16565b82810360408401526142d9818f613f16565b6001600160401b038e16606085015290506001600160401b038c1660808401526001600160401b038b1660a08401526001600160401b038a1660c084015261432460e084018a613f58565b614332610100840189613f7a565b6001600160a01b0387166101e08401528281036102008401526143558187613fcc565b9050846102208401528281036102408401526143718185613f16565b9150509e9d5050505050505050505050505050565b6000806000806080858703121561439c57600080fd5b84356143a781613bed565b9350602085013592506143bc60408601613e98565b91506143ca60608601613e98565b905092959194509250565b602081526000613e916020830184614023565b600080604083850312156143fb57600080fd5b50508035926020909101359150565b60008060006060848603121561441f57600080fd5b83359250613edb60208501613e98565b6020808252825182820181905260009190848201906040850190845b818110156144705783516001600160a01b03168352928401929184019160010161444b565b50909695505050505050565b60006020808301818452808551808352604092508286019150828160051b87010184880160005b8381101561453257603f19898403018552815160c08151855288820151898601528782015181898701526144d982870182613f16565b915050606080830151868303828801526144f38382613f16565b925050506080808301518683038288015261450e8382613f16565b60a094850151151597909401969096525050948701949250908601906001016144a3565b509098975050505050505050565b602080825260139082015272151bdbdb08191bd95cc81b9bdd08195e1a5cdd606a1b604082015260600190565b634e487b7160e01b600052603260045260246000fd5b6020808252601c908201527f5468652072656e74616c206973206e6f7420617661696c61626c652e00000000604082015260600190565b6020808252601f908201527f5468652072656e74616c2073746174757320697320696e636f72726563742e00604082015260600190565b6001600160a01b03958616815293851660208501529190931660408301526060820192909252608081019190915260a00190565b6001600160a01b038416815260606020820181905260009061464990830185613f16565b828103604084015261465b8185613f16565b9695505050505050565b60006020828403121561467757600080fd5b8151613e9181613bed565b600181811c9082168061469657607f821691505b602082108103611afa57634e487b7160e01b600052602260045260246000fd5b601f82111561470057600081815260208120601f850160051c810160208610156146dd5750805b601f850160051c820191505b818110156146fc578281556001016146e9565b5050505b505050565b600019600383901b1c191660019190911b1790565b81516001600160401b0381111561473357614733613c2e565b614747816147418454614682565b846146b6565b602080601f83116001811461477657600084156147645750858301515b61476e8582614705565b8655506146fc565b600085815260208120601f198616915b828110156147a557888601518255948401946001909101908401614786565b50858210156147c35787850151600019600388901b60f8161c191681555b5050505050600190811b01905550565b600060018060a01b038087168352608060208401526147f56080840187613f16565b94166040830152506060015292915050565b60208082526027908201527f596f7520617265206e6f7420746865206f776e6572206f662074686520636f6c6040820152663632b1ba34b7b760c91b606082015260800190565b6020808252601d908201527f596f7520646f6e2774206861766520616e7920636f6c6c656374696f6e000000604082015260600190565b634e487b7160e01b600052601160045260246000fd5b6000600182016148ad576148ad614885565b5060010190565b8181038181111561089a5761089a614885565b634e487b7160e01b600052603160045260246000fd5b6020808252601f908201527f4d6178696d756d206e756d626572206f6620746f6f6c73207265616368656400604082015260600190565b81810361491f575050565b6149298254614682565b6001600160401b0381111561494057614940613c2e565b61494e816147418454614682565b6000601f82116001811461497c576000831561496a5750848201545b6149748482614705565b8555506149e1565b600085815260209020601f19841690600086815260209020845b838110156149b65782860154825560019586019590910190602001614996565b50858310156149d45781850154600019600388901b60f8161c191681555b50505060018360011b0184555b5050505050565b81835281816020850137506000828201602090810191909152601f909101601f19169091010190565b60a081526000614a2560a08301888a6149e8565b8660208401528281036040840152614a3d8187613f16565b90508281036060840152614a518186613f16565b91505060018060a01b0383166080830152979650505050505050565b600060208284031215614a7f57600080fd5b5051919050565b60208082526014908201527313dddb995c88191bd95cc81b9bdd08195e1a5cdd60621b604082015260600190565b6001600160a01b0387811682528681166020830152851660408201526060810184905260c060808201819052600090614aef90830185613f16565b90508260a0830152979650505050505050565b6020808252602a908201527f50726f626c656d206f6e207468652072656e74657220616e6420746865206f6e604082015269652077686f2061736b7360b01b606082015260800190565b60208082526012908201527106e756d626572206d757374206265203e20360741b604082015260600190565b6001600160401b03831115614b8f57614b8f613c2e565b614ba383614b9d8354614682565b836146b6565b6000601f841160018114614bd15760008515614bbf5750838201355b614bc98682614705565b8455506149e1565b600083815260209020601f19861690835b82811015614c025786850135825560209485019460019092019101614be2565b5086821015614c1f5760001960f88860031b161c19848701351681555b505060018560011b0183555050505050565b60008154614c3e81614682565b808552602060018381168015614c5b5760018114614c7557614ca3565b60ff1985168884015283151560051b880183019550614ca3565b866000528260002060005b85811015614c9b5781548a8201860152908301908401614c80565b890184019650505b505050505092915050565b600061012060018060a01b038d1683528b60208401528a6040840152806060840152614cdc8184018b614c31565b90508281036080840152614cf0818a614c31565b905082810360a0840152614d0581888a6149e8565b6001600160401b0396871660c08501529490951660e083015250610100015298975050505050505050565b600082601f830112614d4157600080fd5b8151614d4f613ce282613c9c565b818152846020838601011115614d6457600080fd5b6138a0826020830160208701613ef2565b80518015158114613eaf57600080fd5b60006020808385031215614d9857600080fd5b82516001600160401b0380821115614daf57600080fd5b818501915085601f830112614dc357600080fd5b815181811115614dd557614dd5613c2e565b8060051b614de4858201613c6c565b9182528381018501918581019089841115614dfe57600080fd5b86860192505b83831015614ee357825185811115614e1b57600080fd5b860160c0818c03601f19011215614e325760008081fd5b614e3a613c44565b8882015181526040808301518a83015260608084015189811115614e5e5760008081fd5b614e6c8f8d83880101614d30565b8385015250608091508184015189811115614e875760008081fd5b614e958f8d83880101614d30565b82850152505060a08084015189811115614eaf5760008081fd5b614ebd8f8d83880101614d30565b8385015250614ece60c08501614d75565b90830152508352509186019190860190614e04565b999850505050505050505056fea2646970667358221220a7d3889cf2eea23a90f6bbb8aaadb1766b7eacb02df8e3347e41c050a735dfd264736f6c63430008130033",
  "immutableReferences": {},
  "source": "// SPDX-License-Identifier: MIT\npragma solidity 0.8.19;\n\nimport \"./IAnyRental.sol\";\nimport \"./IAnyNFTCollection.sol\";\nimport \"./AnyNFTCollection.sol\";\nimport \"./AnyNFTCollectionFactory.sol\";\nimport \"../node_modules/@openzeppelin/contracts/access/Ownable.sol\";\nimport \"./Utils.sol\";\n//import \"../node_modules/@ganache/console.log/console.sol\";\n\n/**\n * @title Rental Any  contract \n * @author https://github.com/gbesset\n * @notice contract to generate NFT of tool to locate, and manage the rental\n * @dev Implements NFT gneration, and rental process\n */\ncontract AnyRental is Ownable, IAnyRental{\n\n   using Counters for Counters.Counter;\n\n    AnyNFTCollectionFactory public factory;\n\n    Counters.Counter private rentalIds;\n\n\n    // mapping of  a user address to the rented tools\n    mapping (address => RentalReference) private userRentals;\n\n\n\n    // list of all the renters address\n    address[] rentersList;\n\n    // mapping of a renter address to its collection\n    mapping (address => CollectionNFT) private rentersCollection;\n    \n    // mapping of a renter address to its rentals\n    mapping (address => Rental[]) public rentersRentals;\n    uint256 public nbRentalMax = 20;\n\n\n\n    constructor(address _anyNFTFactory){\n        // Instantiate the Any NFT Factory from its address\n        factory = AnyNFTCollectionFactory(_anyNFTFactory);\n    }\n\n\n    /* ***********************************************\n    *   Modifiers \n    *********************************************** */\n\n    /**\n    * @dev Only renter can call\n    */\n\n    modifier onlyRentalOwner() {\n        require(rentersCollection[msg.sender].owner==msg.sender, \"You are not the owner of the collection\");\n        _;\n    }\n    \n    /**\n     * Owner exist if exist in mapping NFT or mapping rental \n    * @dev MUST exist int the both.... Except for creationCollection      \n     */\n    modifier ownerMustExist(address _owner) {\n        require(rentersCollection[_owner].collection != address(0), \"Owner does not exist\");\n        //require(rentersRentals[_owner].length>0, \"Owner does not exist\");\n        _;\n    }\n             \n\n\n\n    /* ***********************************************\n    *   Setters \n    *********************************************** */\n\n    function setNbRentalMax(uint _nb) external onlyOwner{\n        nbRentalMax = _nb;\n    }\n\n   \n\n    /* ***********************************************\n    *   Getters \n    *********************************************** */\n     /** \n     * @notice return the NFT Tools from a owner address\n     * @dev get collection from renter Address\n     * @return Tool[]  (NFT attributes)\n     */\n    function getToolsCollection(address _owner) ownerMustExist(_owner) external view returns(Utils.Tool[] memory){\n        //return factory._rentersCollection().tools();\n        IAnyNFTCollection collec = IAnyNFTCollection(rentersCollection[_owner].collection);\n        return collec.getTools();\n    }\n    /** \n     * @notice return the NFT Collection address from a owner address\n     * @dev get collection address a from owner Address\n     * @return address of the collection NFT\n     */\n    function getToolsCollectionAddress(address _owner) ownerMustExist(_owner) external view returns(address){\n        return rentersCollection[_owner].collection;\n    }\n    \n    /*function getCollections()external view returns(Utils.Tool[] memory){\n        // pour toutes les addresses\n        // concatener les collections\n        // renvoyer l'ensemble\n        //ou en js appeler les differentes collections pour les addresses..?\n    }*/\n\n\n    /** \n     * @notice return the Rentals Owners\n     * @dev get owners \n     * @return address[]\n     */\n    function getRentalsOwner() external view returns(address[] memory){\n        return rentersList;\n    }\n\n    /** \n     * @notice return the Rentals from a owner address\n     * @dev get rentals array from an owner address\n     * @return Rental[]\n     */\n    function getRentalsByOwner(address _owner) ownerMustExist(_owner) external view returns(Rental[] memory){\n        return rentersRentals[_owner];\n    }\n\n    /** \n     * @notice return the Rental by the owner address and rentalId\n     * @dev return a rental from an address and a rentalID\n     * @return Rental \n     */\n    function getRentalByOwnerAddressAndRentalID(address _owner, uint _rentalId) ownerMustExist(_owner) external view returns(Rental memory){\n        uint found;\n         for(uint i; i< rentersRentals[_owner].length; i++){\n            if(rentersRentals[_owner][i].rentalID == _rentalId){\n                 found=i;\n                 break;\n            }   \n        }\n        return rentersRentals[_owner][found];\n    }\n        function getRentalIndexByOwnerAddressAndRentalID(address _owner, uint _rentalId) ownerMustExist(_owner) internal view returns(uint){\n        uint found;\n         for(uint i; i< rentersRentals[_owner].length; i++){\n            if(rentersRentals[_owner][i].rentalID == _rentalId){\n                 found=i;\n                 break;\n            }   \n        }\n        return found;\n    }\n\n    function getRentalIndexByOwnerAddressAndTokenID(address _owner, uint _tokenId) ownerMustExist(_owner) internal view returns(uint){\n        uint found;\n         for(uint i; i< rentersRentals[_owner].length; i++){\n            if(rentersRentals[_owner][i].tokenID == _tokenId){\n                 found=i;\n                 break;\n            }   \n        }\n        return found;\n    }\n\n    /** \n     * @notice return a Rental by the  rentalId\n     * @dev Internal ! very bad complexity.... don't use often !\n     * @return Rental \n     */\n    /* function getRentalByRentalId(uint _rentalId) internal view returns(Rental memory){\n        Rental memory rentalFound;\n         for(uint i; i< rentersList.length; i++){\n            Rental[] memory rentalsTmp = rentersRentals[rentersList[i]];\n            for(uint j; j<rentalsTmp.length; j++){\n                if(rentalsTmp[j].rentalID == _rentalId){\n                     rentalFound=rentalsTmp[j];\n                    break;\n                }\n            }   \n        }\n        return rentalFound;\n     }*/\n    \n    /**\n    * @notice return if the address is defined as an owner\n    * @dev return it th address is an entry in the map\n     */\n    function isAddressOwner(address _renter) public view returns(bool) {\n        return rentersCollection[_renter].owner != address(0);\n    }\n\n    /**\n    * @notice return if the address is defined as an renter\n    * @dev return it the address has some rentals in the map\n     */\n    function isAddressRenter(address _renter) public view returns(bool) {\n        return userRentals[_renter].collection != address(0);\n    }\n\n\n\n    /* ***********************************************\n    *   Functions  - NFT Managment\n    *********************************************** */\n    /**\n     * @notice Create the NFT Collection of a renter\n     * @return collectionCreated : colletion address deployed\n     */\n    function createCollection(string memory _collectionName, string memory _collectionSymbol) external returns(address){\n        require(msg.sender != address(0), \"address zero is not valid\");\n        require(rentersCollection[msg.sender].collection==address(0), \"You already have created your collection\");\n        require(!Utils.isEqualString(_collectionName,\"\"), \"collection name can't be empty\");\n\n         address collectionAddress = factory.createAnyNFTCollection(msg.sender, _collectionName, _collectionSymbol);\n         //AnyNFTCollection collectionCreated = AnyNFTCollection(collectionAddress);\n\n        // update Renters Collection\n        rentersCollection[msg.sender].collection = collectionAddress;\n        rentersCollection[msg.sender].owner =  msg.sender;\n        rentersCollection[msg.sender].name=_collectionName;\n        rentersCollection[msg.sender].symbol=_collectionSymbol;\n\n        //update the list of renters\n        rentersList.push(msg.sender);\n\n        emit NFTCollectionCreated(msg.sender, _collectionName , collectionAddress, block.timestamp);\n        \n        return collectionAddress;\n    }\n\n    /**\n     * @notice renter delete its NFT Collection of a\n     */\n    function deleteCollection() external onlyRentalOwner{\n        require(msg.sender != address(0), \"address zero is not valid\");\n        require(rentersCollection[msg.sender].collection!=address(0), \"You don't have any collection\");\n      \n        AnyNFTCollection collec = AnyNFTCollection(rentersCollection[msg.sender].collection);\n\n        uint id;\n         for (uint i; i < rentersList.length; i++) {\n            if(rentersList[i] == msg.sender){\n                id=i;\n                break;\n            }\n        }\n\n        //delete element in list of renters\n        rentersList[id] = rentersList[rentersList.length-1];\n        rentersList.pop();\n\n        //delete rentals in mapping \n        delete rentersCollection[msg.sender];\n        /*\n        //TODO supprimer l'instance en transfrant au pralbale les fonds prsents....\n        selfdestruct(collec);\n       */\n        emit NFTCollectionDeleted(msg.sender , address(collec), block.timestamp);\n\n    }\n\n\n    function addToolToCollection(string calldata _tokenURI, uint _serialId, string memory _title, string memory _description ) external onlyRentalOwner returns(uint tokenId){\n        require(rentersCollection[msg.sender].collection!=address(0), \"You don't have any collection\");\n        require(rentersRentals[msg.sender].length < nbRentalMax, \"Maximum number of tools reached\");\n        \n        IAnyNFTCollection collec = IAnyNFTCollection(rentersCollection[msg.sender].collection);\n        uint256 tokenID = collec.mint(_tokenURI, _serialId, _title, _description, msg.sender);\n\n        uint newRentalIds = rentalIds.current();\n        Rental memory rental;\n        CollectionNFT memory collecNFT;\n        collecNFT.collection = rentersCollection[msg.sender].collection;\n        collecNFT.owner = rentersCollection[msg.sender].owner;\n\n        rental.rentalID = newRentalIds;\n        rental.title=_title;\n        rental.description=_description;\n        rental.collection = collecNFT;\n\n        rental.tokenID = tokenID;\n        rentalIds.increment();\n\n        rentersRentals[msg.sender].push(rental);\n\n        emit NFTToolAddedToCollection(msg.sender, rentersCollection[msg.sender].collection, tokenID, block.timestamp);\n        return tokenID;\n    }\n\n      /**\n     * @dev delegate the NFT to a user . onlyRentalOwner\n     */\n    function delegateNFT(uint _tokenId, address _to, uint64 _expires) external onlyRentalOwner {\n        require(rentersCollection[msg.sender].collection!=address(0), \"You don't have any collection\");\n        require(rentersCollection[msg.sender].owner==msg.sender, \"You are not the owner of the collection\");\n\n        \n        //Si pas de approve passer par I\n         AnyNFTCollection collec = AnyNFTCollection(rentersCollection[msg.sender].collection);\n        \n        //collec.approve(msg.sender, _tokenId);\n         collec.rentTool(_tokenId, _to, _expires, msg.sender);\n\n        emit RentalNFTToolDelegated(msg.sender, _to, rentersCollection[msg.sender].collection, _tokenId, block.timestamp);\n    }\n\n\n    /* ***********************************************\n    *   Functions  - Rental Managment\n    *********************************************** */\n\n    function addToolToRentals(string calldata _tokenImgURI, uint64 _dayPrice, uint64 _caution, uint _tokenID) external onlyRentalOwner {\n        require(rentersCollection[msg.sender].collection!=address(0), \"You don't have any collection\");\n        require(rentersRentals[msg.sender].length < nbRentalMax, \"Maximum number of tools reached\");\n        require(_dayPrice > 0, \"number must be > 0\");\n        require(_caution > 0, \"number must be > 0\");\n\n\n        //All rentalData.is* false by default\n        RentalData memory rentalData;\n\n        uint found = getRentalIndexByOwnerAddressAndTokenID(msg.sender, _tokenID);\n        Rental storage rental = rentersRentals[msg.sender][found];\n  \n        rental.tokenImgURI = _tokenImgURI;\n        rental.dayPrice =_dayPrice;\n        rental.caution = _caution;\n        rental.rentalStatus = RentalStatus.AVAILABLE;\n        rental.rentalData = rentalData;\n                \n        emit ToolAddedToRentals(msg.sender, rental.rentalID , rental.tokenID, rental.title, rental.description, _tokenImgURI, _dayPrice, _caution, block.timestamp);\n    }\n\n     /**\n     * @dev update a tool into collection . onlyRentalOwner\n     */\n     function updateToolIntoRentals(uint _rentalID, uint64 _dayPrice, uint64 _caution) external onlyRentalOwner{\n        require(rentersCollection[msg.sender].collection!=address(0), \"You don't have any collection\");\n        require(_dayPrice > 0, \"number must be > 0\");\n        require(_caution > 0, \"number must be > 0\");\n\n        for(uint i; i< rentersRentals[msg.sender].length; i++){\n            if(rentersRentals[msg.sender][i].rentalID == _rentalID){\n                 rentersRentals[msg.sender][i].dayPrice = _dayPrice;\n                 rentersRentals[msg.sender][i].caution = _caution;\n                 break;\n            }   \n        }\n\n        emit ToolUpdatedFromRentals(msg.sender, _rentalID, block.timestamp);\n     }\n      /**\n     * @dev delete a tool into collection . onlyRentalOwner\n     */\n     function deleteToolIntoRentals(uint _rentalID) external onlyRentalOwner{\n         require(rentersCollection[msg.sender].collection!=address(0), \"You don't have any collection\");\n        require(rentersRentals[msg.sender].length < nbRentalMax, \"Maximum number of tools reached\");\n        \n        uint id;\n        for(uint i; i< rentersRentals[msg.sender].length; i++){\n            if(rentersRentals[msg.sender][i].rentalID == _rentalID){\n                id = i;\n                 break;\n            }   \n        }\n        rentersRentals[msg.sender][id] = rentersRentals[msg.sender][rentersRentals[msg.sender].length-1];\n        rentersRentals[msg.sender].pop();\n         \n        emit ToolDeletedFromRentals(msg.sender, _rentalID, block.timestamp);\n     }\n\n\n /**\n     * @notice user send the location and caution which in order to ask for the rental of a Rental\n     * - the caution and location is secured until\n     * @dev user send caution and location price for rent a Rental\n     */\n     function sendPaiementForRental(address _owner, uint _rentalID, uint64 _begin, uint64 _end) ownerMustExist(_owner) external{\n         require(rentalIds.current() >= _rentalID, \"Tool does not exist\");\n         require(_begin > 0, \"begin must be a valid date\");\n         require(_end > 0, \"end must be a valid date\");\n         require(_begin < _end, \"End of rental can't be before begin\");\n\n         uint found = getRentalIndexByOwnerAddressAndRentalID(_owner, _rentalID);\n         Rental storage rental = rentersRentals[_owner][found];\n         require(rental.rentalID == _rentalID, \"The rental is not available.\");\n         require(rental.rentalStatus == RentalStatus.AVAILABLE, \"The rental status is incorrect.\");\n        \n        //gestion caution et paiement\n     \n        rental.start = _begin;\n        rental.end = _end;\n        rental.rentalStatus = RentalStatus.RENTAL_REQUESTED;\n        rental.rentalData.isCautionDeposed = true;\n        rental.renter = msg.sender;\n\n         emit RentalRequested(rental.collection.owner, msg.sender,  rental.collection.collection, rental.tokenID, block.timestamp);\n     }\n\n   /**\n     * @notice renter delegate the NFT in order to validate the rental asking\n     * - the caution and location is still secured\n     * @dev renter validate the delagation of the NFT\n     */\n     function validateNFTDelegationForRental(uint _rentalID, uint _tokenID) ownerMustExist(msg.sender)  external{\n         require(rentalIds.current() >= _rentalID, \"Tool does not exist\");\n         require(_tokenID > 0, \"token ID must be valid\");\n\n\n        uint found = getRentalIndexByOwnerAddressAndRentalID(msg.sender, _rentalID);\n        Rental storage rental = rentersRentals[msg.sender][found];\n        require(rental.rentalID == _rentalID, \"The rental is not available.\");\n        require(rental.tokenID == _tokenID, \"Error... the tokenId isn't the correct one.\");\n        require(rental.rentalStatus == RentalStatus.RENTAL_REQUESTED, \"The rental status is incorrect.\");\n        \n        rental.rentalStatus = RentalStatus.RENTAL_ACCEPTED_NFT_SENT;\n        rental.rentalData.isNFTDelegated = true;\n        \n        emit RentalAccepted(rental.collection.owner, rental.renter,  rental.collection.collection, rental.tokenID, block.timestamp);\n     }   \n\n\n    /**\n     * @notice user get the tool in real life, has the NFT and valiate the transaction\n     * - the caution is still secured, the location is payed\n     * @dev user validate having the NFT, annd receipt the tool\n     */\n     function validateNFTandToolReception(address _renter, uint _rentalID) ownerMustExist(_renter)  external{\n         require(rentalIds.current() >= _rentalID, \"Tool does not exist\");\n \n        uint found = getRentalIndexByOwnerAddressAndRentalID(_renter, _rentalID);\n        Rental storage rental = rentersRentals[_renter][found];\n        require(rental.rentalID == _rentalID, \"The rental is not available.\");\n        require(rental.renter==msg.sender, \"Problem on the renter and the one who asks\");\n        require(rental.rentalStatus == RentalStatus.RENTAL_ACCEPTED_NFT_SENT, \"The rental status is incorrect.\");\n        \n        rental.rentalStatus = RentalStatus.VALIDATE_RECEIPT_PAYMENT;\n\n        //TODO mettre le tool is availabe a false dans Collection\n        \n        emit RentalNFTToolDelegated(rental.collection.owner, rental.renter,  rental.collection.collection, rental.tokenID, block.timestamp);\n\n     }\n\n    /**\n     * @notice user give back the toool at the end of renting\n     * - the caution is still secured, the location is already payed\n     * @dev user give bak th etool\n     */\n     function giveBackToolAfterRental(address _renter, uint _rentalID) ownerMustExist(_renter) external{\n        require(rentalIds.current() >= _rentalID, \"Tool does not exist\");\n\n        uint found = getRentalIndexByOwnerAddressAndRentalID(_renter, _rentalID);\n        Rental storage rental = rentersRentals[_renter][found];\n        require(rental.rentalID == _rentalID, \"The rental is not available.\");\n        require(rental.renter==msg.sender, \"Problem on the renter and the one who asks\");\n        require(rental.rentalStatus == RentalStatus.VALIDATE_RECEIPT_PAYMENT, \"The rental status is incorrect.\");\n        \n        rental.rentalStatus = RentalStatus.COMPLETED_USER;\n        rental.rentalData.isToolReturned = true;\n\n        //TODO mettre le tool is availabe a truue dans Collection\n        \n        emit RentalCompletedByUser(rental.collection.owner, msg.sender,  rental.collection.collection, rental.tokenID, block.timestamp);\n\n     }  \n     \n    /**\n     * @notice renter validate the return of the tool\n     * - the caution is given back\n     * @dev renter validae the return of the tool\n     */\n     function validateReturnToolAfterRental(uint _rentalID) ownerMustExist(msg.sender)  external{\n        require(rentalIds.current() >= _rentalID, \"Tool does not exist\");\n\n        uint found = getRentalIndexByOwnerAddressAndRentalID(msg.sender, _rentalID);\n        Rental storage rental = rentersRentals[msg.sender][found];\n        require(rental.rentalID == _rentalID, \"The rental is not available.\");\n        require(rental.rentalStatus == RentalStatus.COMPLETED_USER, \"The rental status is incorrect.\");\n        \n        rental.rentalStatus = RentalStatus.RETURN_ACCEPTED_BY_OWNER;\n        rental.rentalData.isReturnValidated = true;\n        \n        emit RentalCompletedByRenter(rental.collection.owner, rental.renter,  rental.collection.collection, rental.tokenID, block.timestamp);\n\n     } \n\n    /**\n     * @notice renter doens't validate the return of the tool. Problem. dispute creation\n     * - the caution still secured\n     * @dev renter doesn't validate the return of the tool, because of a problem\n     */\n     function refuseReturnToolAfterRental(uint _rentalID, string memory message)ownerMustExist(msg.sender)  external{\n        require(rentalIds.current() >= _rentalID, \"Tool does not exist\");\n\n        uint found = getRentalIndexByOwnerAddressAndRentalID(msg.sender, _rentalID);\n        Rental storage rental = rentersRentals[msg.sender][found];\n        require(rental.rentalID == _rentalID, \"The rental is not available.\");\n        require(rental.rentalStatus == RentalStatus.COMPLETED_USER, \"The rental status is incorrect.\");\n        \n        rental.rentalStatus = RentalStatus.DISPUTE;\n        rental.rentalData.isToolReturned = true;\n        rental.rentalData.isDispute = true;\n        \n        emit RentalDisputeCreated(rental.collection.owner, rental.renter,  rental.collection.collection, rental.tokenID, message, block.timestamp);\n\n     }\n\n    /**\n     * @notice user confirm dispute and expose its point of view\n     * - the caution still secured\n     * @dev user confirm dispute and expose its point of view\n     */\n     function confirmDisputeAfterRental(address _renter, uint _rentalID, string memory message)ownerMustExist(_renter)  external{\n         require(rentalIds.current() >= _rentalID, \"Tool does not exist\");\n\n        uint found = getRentalIndexByOwnerAddressAndRentalID(_renter, _rentalID);\n        Rental storage rental = rentersRentals[_renter][found];\n        require(rental.rentalID == _rentalID, \"The rental is not available.\");\n        require(rental.renter==msg.sender, \"Problem on the renter and thr one who asks\");\n        require(rental.rentalStatus == RentalStatus.DISPUTE, \"The rental status is incorrect.\");\n               \n        rental.rentalData.isDisputeConfirmed = true;\n\n        emit RentalDisputelConfirmedByUser(rental.collection.owner, msg.sender,  rental.collection.collection, rental.tokenID, message, block.timestamp);\n\n     }\n\n    /**\n     * @notice user redeem its caution or caution and location\n     * - the caution is given back at the end of rental or because the renter refuse the rental\n     * @dev user redeem its caution\n     */\n     function redeemPaymentForRental(address _renter, uint _rentalID) external{\n         require(rentalIds.current() >= _rentalID, \"Tool does not exist\");\n\n        uint found = getRentalIndexByOwnerAddressAndRentalID(_renter, _rentalID);\n        Rental storage rental = rentersRentals[_renter][found];\n        require(rental.rentalID == _rentalID, \"The rental is not available.\");\n        require(rental.rentalStatus == RentalStatus.RETURN_ACCEPTED_BY_OWNER, \"The rental status is incorrect.\");\n        \n        // recuperer sa caution\n       \n\n        rental.rentalStatus = RentalStatus.RENTAL_ENDED;\n        rental.rentalData.isRedeemed = true;\n        rental.rentalData.isCautionDeposed = false;\n        \n        emit RentalEnded(rental.collection.owner, msg.sender,  rental.collection.collection, rental.tokenID, block.timestamp);\n\n     }  \n\n\n  \n  \n}\n",
  "sourcePath": "/Users/gbesset/wks/learning/web3/alyra_projetFinal_LocaTool_AnythingNearYou/truffle/contracts/AnyRental.sol",
  "compiler": {
    "name": "solc",
    "version": "0.8.19+commit.7dd6d404.Emscripten.clang"
  },
  "schemaVersion": "3.4.11",
  "updatedAt": "2023-04-06T18:56:29.500Z",
  "networkType": "ethereum",
  "devdoc": {
    "author": "https://github.com/gbesset",
    "details": "Implements NFT gneration, and rental process",
    "events": {
      "NFTCollectionCreated(address,string,address,uint256)": {
        "details": "Emitted when a renter create its NFT Collection. give RenterAddress, CollectionName, CollectionAddress, timestamp"
      },
      "NFTCollectionDeleted(address,address,uint256)": {
        "details": "Emitted when a renter delete its NFT Collection. give RenterAddress, CollectionName, CollectionAddress, timestamp"
      },
      "NFTToolAddedToCollection(address,address,uint256,uint256)": {
        "details": "Emitted when a renter add a tool to its NFT Collection."
      },
      "RentalAccepted(address,address,address,uint256,uint256)": {
        "details": "Emitted when a renter accept to rent its tool"
      },
      "RentalCompletedByRenter(address,address,address,uint256,uint256)": {
        "details": "Emitted when a renter accept thereturn of the tool"
      },
      "RentalCompletedByUser(address,address,address,uint256,uint256)": {
        "details": "Emitted when a user give back the tool"
      },
      "RentalDisputeCreated(address,address,address,uint256,string,uint256)": {
        "details": "Emitted when a renter doensn't accept the return of the tool"
      },
      "RentalDisputeSolved(address,address,address,uint256,string,uint256)": {
        "details": "Emitted when a renter doensn't accept the return of the tool"
      },
      "RentalDisputelConfirmedByUser(address,address,address,uint256,string,uint256)": {
        "details": "Emitted when a renter doensn't accept the return of the tool"
      },
      "RentalEnded(address,address,address,uint256,uint256)": {
        "details": "Emitted when a renter redeem its causion and end the rental of the tool"
      },
      "RentalExtended(address,address,address,uint256,uint256,uint256)": {
        "details": "Emitted when a user ask to extznd the rental duration"
      },
      "RentalRejected(address,address,address,uint256,uint256)": {
        "details": "Emitted when a renter doesn't accept to rent its tool"
      },
      "RentalRequested(address,address,address,uint256,uint256)": {
        "details": "Emitted when a user ask to rent a tool from a collection"
      },
      "ToolAddedToRentals(address,uint256,uint256,string,string,string,uint256,uint256,uint256)": {
        "details": "Emitted when a renter add a tool to its NFT Collection."
      },
      "ToolDeletedFromRentals(address,uint256,uint256)": {
        "details": "Emitted when a renter delete a tool into its NFT Collection."
      },
      "ToolUpdatedFromRentals(address,uint256,uint256)": {
        "details": "Emitted when a renter aduptate a tool to its NFT Collection."
      }
    },
    "kind": "dev",
    "methods": {
      "addToolToCollection(string,uint256,string,string)": {
        "details": "add a tool to collection . onlyRenter"
      },
      "addToolToRentals(string,uint64,uint64,uint256)": {
        "details": "add a tool to collection . onlyRenter"
      },
      "confirmDisputeAfterRental(address,uint256,string)": {
        "details": "user confirm dispute and expose its point of view"
      },
      "createCollection(string,string)": {
        "returns": {
          "_0": "collectionCreated : colletion address deployed"
        }
      },
      "delegateNFT(uint256,address,uint64)": {
        "details": "delegate the NFT to a user . onlyRentalOwner"
      },
      "deleteToolIntoRentals(uint256)": {
        "details": "delete a tool into collection . onlyRentalOwner"
      },
      "getRentalByOwnerAddressAndRentalID(address,uint256)": {
        "details": "return a rental from an address and a rentalID",
        "returns": {
          "_0": "Rental "
        }
      },
      "getRentalsByOwner(address)": {
        "details": "get rentals array from an owner address",
        "returns": {
          "_0": "Rental[]"
        }
      },
      "getRentalsOwner()": {
        "details": "get owners ",
        "returns": {
          "_0": "address[]"
        }
      },
      "getToolsCollection(address)": {
        "details": "get collection from renter Address",
        "returns": {
          "_0": "Tool[]  (NFT attributes)"
        }
      },
      "getToolsCollectionAddress(address)": {
        "details": "get collection address a from owner Address",
        "returns": {
          "_0": "address of the collection NFT"
        }
      },
      "giveBackToolAfterRental(address,uint256)": {
        "details": "user give bak th etool"
      },
      "isAddressOwner(address)": {
        "details": "return it th address is an entry in the map"
      },
      "isAddressRenter(address)": {
        "details": "return it the address has some rentals in the map"
      },
      "owner()": {
        "details": "Returns the address of the current owner."
      },
      "redeemPaymentForRental(address,uint256)": {
        "details": "user redeem its caution"
      },
      "refuseReturnToolAfterRental(uint256,string)": {
        "details": "renter doesn't validate the return of the tool, because of a problem"
      },
      "renounceOwnership()": {
        "details": "Leaves the contract without owner. It will not be possible to call `onlyOwner` functions anymore. Can only be called by the current owner. NOTE: Renouncing ownership will leave the contract without an owner, thereby removing any functionality that is only available to the owner."
      },
      "sendPaiementForRental(address,uint256,uint64,uint64)": {
        "details": "user send caution and location price for rent a Rental"
      },
      "transferOwnership(address)": {
        "details": "Transfers ownership of the contract to a new account (`newOwner`). Can only be called by the current owner."
      },
      "updateToolIntoRentals(uint256,uint64,uint64)": {
        "details": "update a tool into collection . onlyRentalOwner"
      },
      "validateNFTDelegationForRental(uint256,uint256)": {
        "details": "renter validate the delagation of the NFT"
      },
      "validateNFTandToolReception(address,uint256)": {
        "details": "user validate having the NFT, annd receipt the tool"
      },
      "validateReturnToolAfterRental(uint256)": {
        "details": "renter validae the return of the tool"
      }
    },
    "title": "Rental Any  contract ",
    "version": 1
  },
  "userdoc": {
    "kind": "user",
    "methods": {
      "confirmDisputeAfterRental(address,uint256,string)": {
        "notice": "user confirm dispute and expose its point of view - the caution still secured"
      },
      "createCollection(string,string)": {
        "notice": "Create the NFT Collection of a renter"
      },
      "deleteCollection()": {
        "notice": "renter delete its NFT Collection of a"
      },
      "getRentalByOwnerAddressAndRentalID(address,uint256)": {
        "notice": "return the Rental by the owner address and rentalId"
      },
      "getRentalsByOwner(address)": {
        "notice": "return the Rentals from a owner address"
      },
      "getRentalsOwner()": {
        "notice": "return the Rentals Owners"
      },
      "getToolsCollection(address)": {
        "notice": "return the NFT Tools from a owner address"
      },
      "getToolsCollectionAddress(address)": {
        "notice": "return the NFT Collection address from a owner address"
      },
      "giveBackToolAfterRental(address,uint256)": {
        "notice": "user give back the toool at the end of renting - the caution is still secured, the location is already payed"
      },
      "isAddressOwner(address)": {
        "notice": "return if the address is defined as an owner"
      },
      "isAddressRenter(address)": {
        "notice": "return if the address is defined as an renter"
      },
      "redeemPaymentForRental(address,uint256)": {
        "notice": "user redeem its caution or caution and location - the caution is given back at the end of rental or because the renter refuse the rental"
      },
      "refuseReturnToolAfterRental(uint256,string)": {
        "notice": "renter doens't validate the return of the tool. Problem. dispute creation - the caution still secured"
      },
      "sendPaiementForRental(address,uint256,uint64,uint64)": {
        "notice": "user send the location and caution which in order to ask for the rental of a Rental - the caution and location is secured until"
      },
      "validateNFTDelegationForRental(uint256,uint256)": {
        "notice": "renter delegate the NFT in order to validate the rental asking - the caution and location is still secured"
      },
      "validateNFTandToolReception(address,uint256)": {
        "notice": "user get the tool in real life, has the NFT and valiate the transaction - the caution is still secured, the location is payed"
      },
      "validateReturnToolAfterRental(uint256)": {
        "notice": "renter validate the return of the tool - the caution is given back"
      }
    },
    "notice": "contract to generate NFT of tool to locate, and manage the rental",
    "version": 1
  }
}