{
  "contractName": "AnyRental",
  "abi": [
    {
      "inputs": [
        {
          "internalType": "address",
          "name": "_anyNFTFactory",
          "type": "address"
        }
      ],
      "stateMutability": "nonpayable",
      "type": "constructor"
    },
    {
      "anonymous": false,
      "inputs": [
        {
          "indexed": false,
          "internalType": "address",
          "name": "renter",
          "type": "address"
        },
        {
          "indexed": false,
          "internalType": "string",
          "name": "renterCollectionName",
          "type": "string"
        },
        {
          "indexed": false,
          "internalType": "address",
          "name": "renterCollectionAddress",
          "type": "address"
        },
        {
          "indexed": false,
          "internalType": "uint256",
          "name": "timestamp",
          "type": "uint256"
        }
      ],
      "name": "NFTCollectionCreated",
      "type": "event"
    },
    {
      "anonymous": false,
      "inputs": [
        {
          "indexed": false,
          "internalType": "address",
          "name": "renter",
          "type": "address"
        },
        {
          "indexed": false,
          "internalType": "address",
          "name": "renterCollectionAddress",
          "type": "address"
        },
        {
          "indexed": false,
          "internalType": "uint256",
          "name": "timestamp",
          "type": "uint256"
        }
      ],
      "name": "NFTCollectionDeleted",
      "type": "event"
    },
    {
      "anonymous": false,
      "inputs": [
        {
          "indexed": false,
          "internalType": "address",
          "name": "renter",
          "type": "address"
        },
        {
          "indexed": false,
          "internalType": "address",
          "name": "renterCollectionAddress",
          "type": "address"
        },
        {
          "indexed": false,
          "internalType": "uint256",
          "name": "tokenId",
          "type": "uint256"
        },
        {
          "indexed": false,
          "internalType": "uint256",
          "name": "timestamp",
          "type": "uint256"
        }
      ],
      "name": "NFTToolAddedToCollection",
      "type": "event"
    },
    {
      "anonymous": false,
      "inputs": [
        {
          "indexed": true,
          "internalType": "address",
          "name": "previousOwner",
          "type": "address"
        },
        {
          "indexed": true,
          "internalType": "address",
          "name": "newOwner",
          "type": "address"
        }
      ],
      "name": "OwnershipTransferred",
      "type": "event"
    },
    {
      "anonymous": false,
      "inputs": [
        {
          "indexed": false,
          "internalType": "address",
          "name": "renter",
          "type": "address"
        },
        {
          "indexed": false,
          "internalType": "address",
          "name": "user",
          "type": "address"
        },
        {
          "indexed": false,
          "internalType": "address",
          "name": "renterCollectionAddress",
          "type": "address"
        },
        {
          "indexed": false,
          "internalType": "uint256",
          "name": "tokenId",
          "type": "uint256"
        },
        {
          "indexed": false,
          "internalType": "uint256",
          "name": "timestamp",
          "type": "uint256"
        }
      ],
      "name": "RentalAccepted",
      "type": "event"
    },
    {
      "anonymous": false,
      "inputs": [
        {
          "indexed": false,
          "internalType": "address",
          "name": "renter",
          "type": "address"
        },
        {
          "indexed": false,
          "internalType": "address",
          "name": "user",
          "type": "address"
        },
        {
          "indexed": false,
          "internalType": "address",
          "name": "renterCollectionAddress",
          "type": "address"
        },
        {
          "indexed": false,
          "internalType": "uint256",
          "name": "tokenId",
          "type": "uint256"
        },
        {
          "indexed": false,
          "internalType": "uint256",
          "name": "timestamp",
          "type": "uint256"
        }
      ],
      "name": "RentalCompletedByRenter",
      "type": "event"
    },
    {
      "anonymous": false,
      "inputs": [
        {
          "indexed": false,
          "internalType": "address",
          "name": "renter",
          "type": "address"
        },
        {
          "indexed": false,
          "internalType": "address",
          "name": "user",
          "type": "address"
        },
        {
          "indexed": false,
          "internalType": "address",
          "name": "renterCollectionAddress",
          "type": "address"
        },
        {
          "indexed": false,
          "internalType": "uint256",
          "name": "tokenId",
          "type": "uint256"
        },
        {
          "indexed": false,
          "internalType": "uint256",
          "name": "timestamp",
          "type": "uint256"
        }
      ],
      "name": "RentalCompletedByUser",
      "type": "event"
    },
    {
      "anonymous": false,
      "inputs": [
        {
          "indexed": false,
          "internalType": "address",
          "name": "renter",
          "type": "address"
        },
        {
          "indexed": false,
          "internalType": "address",
          "name": "user",
          "type": "address"
        },
        {
          "indexed": false,
          "internalType": "address",
          "name": "renterCollectionAddress",
          "type": "address"
        },
        {
          "indexed": false,
          "internalType": "uint256",
          "name": "tokenId",
          "type": "uint256"
        },
        {
          "indexed": false,
          "internalType": "string",
          "name": "dispute",
          "type": "string"
        },
        {
          "indexed": false,
          "internalType": "uint256",
          "name": "timestamp",
          "type": "uint256"
        }
      ],
      "name": "RentalDisputeCreated",
      "type": "event"
    },
    {
      "anonymous": false,
      "inputs": [
        {
          "indexed": false,
          "internalType": "address",
          "name": "renter",
          "type": "address"
        },
        {
          "indexed": false,
          "internalType": "address",
          "name": "user",
          "type": "address"
        },
        {
          "indexed": false,
          "internalType": "address",
          "name": "renterCollectionAddress",
          "type": "address"
        },
        {
          "indexed": false,
          "internalType": "uint256",
          "name": "tokenId",
          "type": "uint256"
        },
        {
          "indexed": false,
          "internalType": "string",
          "name": "disputeSolution",
          "type": "string"
        },
        {
          "indexed": false,
          "internalType": "uint256",
          "name": "timestamp",
          "type": "uint256"
        }
      ],
      "name": "RentalDisputeSolved",
      "type": "event"
    },
    {
      "anonymous": false,
      "inputs": [
        {
          "indexed": false,
          "internalType": "address",
          "name": "renter",
          "type": "address"
        },
        {
          "indexed": false,
          "internalType": "address",
          "name": "user",
          "type": "address"
        },
        {
          "indexed": false,
          "internalType": "address",
          "name": "renterCollectionAddress",
          "type": "address"
        },
        {
          "indexed": false,
          "internalType": "uint256",
          "name": "tokenId",
          "type": "uint256"
        },
        {
          "indexed": false,
          "internalType": "string",
          "name": "dispute",
          "type": "string"
        },
        {
          "indexed": false,
          "internalType": "uint256",
          "name": "timestamp",
          "type": "uint256"
        }
      ],
      "name": "RentalDisputelConfirmedByUser",
      "type": "event"
    },
    {
      "anonymous": false,
      "inputs": [
        {
          "indexed": false,
          "internalType": "address",
          "name": "renter",
          "type": "address"
        },
        {
          "indexed": false,
          "internalType": "address",
          "name": "user",
          "type": "address"
        },
        {
          "indexed": false,
          "internalType": "address",
          "name": "renterCollectionAddress",
          "type": "address"
        },
        {
          "indexed": false,
          "internalType": "uint256",
          "name": "tokenId",
          "type": "uint256"
        },
        {
          "indexed": false,
          "internalType": "uint256",
          "name": "timestamp",
          "type": "uint256"
        }
      ],
      "name": "RentalEnded",
      "type": "event"
    },
    {
      "anonymous": false,
      "inputs": [
        {
          "indexed": false,
          "internalType": "address",
          "name": "renter",
          "type": "address"
        },
        {
          "indexed": false,
          "internalType": "address",
          "name": "user",
          "type": "address"
        },
        {
          "indexed": false,
          "internalType": "address",
          "name": "renterCollectionAddress",
          "type": "address"
        },
        {
          "indexed": false,
          "internalType": "uint256",
          "name": "tokenId",
          "type": "uint256"
        },
        {
          "indexed": false,
          "internalType": "uint256",
          "name": "duration",
          "type": "uint256"
        },
        {
          "indexed": false,
          "internalType": "uint256",
          "name": "timestamp",
          "type": "uint256"
        }
      ],
      "name": "RentalExtended",
      "type": "event"
    },
    {
      "anonymous": false,
      "inputs": [
        {
          "indexed": false,
          "internalType": "address",
          "name": "renter",
          "type": "address"
        },
        {
          "indexed": false,
          "internalType": "address",
          "name": "user",
          "type": "address"
        },
        {
          "indexed": false,
          "internalType": "address",
          "name": "renterCollectionAddress",
          "type": "address"
        },
        {
          "indexed": false,
          "internalType": "uint256",
          "name": "tokenId",
          "type": "uint256"
        },
        {
          "indexed": false,
          "internalType": "uint256",
          "name": "timestamp",
          "type": "uint256"
        }
      ],
      "name": "RentalNFTToolDelegated",
      "type": "event"
    },
    {
      "anonymous": false,
      "inputs": [
        {
          "indexed": false,
          "internalType": "address",
          "name": "renter",
          "type": "address"
        },
        {
          "indexed": false,
          "internalType": "address",
          "name": "user",
          "type": "address"
        },
        {
          "indexed": false,
          "internalType": "address",
          "name": "renterCollectionAddress",
          "type": "address"
        },
        {
          "indexed": false,
          "internalType": "uint256",
          "name": "tokenId",
          "type": "uint256"
        },
        {
          "indexed": false,
          "internalType": "uint256",
          "name": "timestamp",
          "type": "uint256"
        }
      ],
      "name": "RentalRejected",
      "type": "event"
    },
    {
      "anonymous": false,
      "inputs": [
        {
          "indexed": false,
          "internalType": "address",
          "name": "renter",
          "type": "address"
        },
        {
          "indexed": false,
          "internalType": "address",
          "name": "user",
          "type": "address"
        },
        {
          "indexed": false,
          "internalType": "address",
          "name": "renterCollectionAddress",
          "type": "address"
        },
        {
          "indexed": false,
          "internalType": "uint256",
          "name": "tokenId",
          "type": "uint256"
        },
        {
          "indexed": false,
          "internalType": "uint256",
          "name": "timestamp",
          "type": "uint256"
        }
      ],
      "name": "RentalRequested",
      "type": "event"
    },
    {
      "anonymous": false,
      "inputs": [
        {
          "indexed": false,
          "internalType": "address",
          "name": "renter",
          "type": "address"
        },
        {
          "indexed": false,
          "internalType": "uint256",
          "name": "rentalID",
          "type": "uint256"
        },
        {
          "indexed": false,
          "internalType": "uint256",
          "name": "tokenID",
          "type": "uint256"
        },
        {
          "indexed": false,
          "internalType": "string",
          "name": "title",
          "type": "string"
        },
        {
          "indexed": false,
          "internalType": "string",
          "name": "description",
          "type": "string"
        },
        {
          "indexed": false,
          "internalType": "string",
          "name": "tokenImgURI",
          "type": "string"
        },
        {
          "indexed": false,
          "internalType": "uint256",
          "name": "dayPrice",
          "type": "uint256"
        },
        {
          "indexed": false,
          "internalType": "uint256",
          "name": "caution",
          "type": "uint256"
        },
        {
          "indexed": false,
          "internalType": "uint256",
          "name": "timestamp",
          "type": "uint256"
        }
      ],
      "name": "ToolAddedToRentals",
      "type": "event"
    },
    {
      "anonymous": false,
      "inputs": [
        {
          "indexed": false,
          "internalType": "address",
          "name": "renter",
          "type": "address"
        },
        {
          "indexed": false,
          "internalType": "uint256",
          "name": "toolID",
          "type": "uint256"
        },
        {
          "indexed": false,
          "internalType": "uint256",
          "name": "timestamp",
          "type": "uint256"
        }
      ],
      "name": "ToolDeletedFromRentals",
      "type": "event"
    },
    {
      "anonymous": false,
      "inputs": [
        {
          "indexed": false,
          "internalType": "address",
          "name": "renter",
          "type": "address"
        },
        {
          "indexed": false,
          "internalType": "uint256",
          "name": "toolID",
          "type": "uint256"
        },
        {
          "indexed": false,
          "internalType": "uint256",
          "name": "timestamp",
          "type": "uint256"
        }
      ],
      "name": "ToolUpdatedFromRentals",
      "type": "event"
    },
    {
      "inputs": [],
      "name": "factory",
      "outputs": [
        {
          "internalType": "contract AnyNFTCollectionFactory",
          "name": "",
          "type": "address"
        }
      ],
      "stateMutability": "view",
      "type": "function",
      "constant": true
    },
    {
      "inputs": [],
      "name": "nbRentalMax",
      "outputs": [
        {
          "internalType": "uint256",
          "name": "",
          "type": "uint256"
        }
      ],
      "stateMutability": "view",
      "type": "function",
      "constant": true
    },
    {
      "inputs": [],
      "name": "owner",
      "outputs": [
        {
          "internalType": "address",
          "name": "",
          "type": "address"
        }
      ],
      "stateMutability": "view",
      "type": "function",
      "constant": true
    },
    {
      "inputs": [],
      "name": "renounceOwnership",
      "outputs": [],
      "stateMutability": "nonpayable",
      "type": "function"
    },
    {
      "inputs": [
        {
          "internalType": "address",
          "name": "",
          "type": "address"
        },
        {
          "internalType": "uint256",
          "name": "",
          "type": "uint256"
        }
      ],
      "name": "rentersRentals",
      "outputs": [
        {
          "internalType": "uint256",
          "name": "rentalID",
          "type": "uint256"
        },
        {
          "internalType": "string",
          "name": "title",
          "type": "string"
        },
        {
          "internalType": "string",
          "name": "description",
          "type": "string"
        },
        {
          "internalType": "uint64",
          "name": "dayPrice",
          "type": "uint64"
        },
        {
          "internalType": "uint64",
          "name": "caution",
          "type": "uint64"
        },
        {
          "internalType": "uint64",
          "name": "start",
          "type": "uint64"
        },
        {
          "internalType": "uint64",
          "name": "end",
          "type": "uint64"
        },
        {
          "internalType": "enum IAnyRental.RentalStatus",
          "name": "rentalStatus",
          "type": "uint8"
        },
        {
          "components": [
            {
              "internalType": "bool",
              "name": "isCautionDeposed",
              "type": "bool"
            },
            {
              "internalType": "bool",
              "name": "isNFTDelegated",
              "type": "bool"
            },
            {
              "internalType": "bool",
              "name": "isToolReturned",
              "type": "bool"
            },
            {
              "internalType": "bool",
              "name": "isReturnValidated",
              "type": "bool"
            },
            {
              "internalType": "bool",
              "name": "isDispute",
              "type": "bool"
            },
            {
              "internalType": "bool",
              "name": "isDisputeConfirmed",
              "type": "bool"
            },
            {
              "internalType": "bool",
              "name": "isRedeemed",
              "type": "bool"
            }
          ],
          "internalType": "struct IAnyRental.RentalData",
          "name": "rentalData",
          "type": "tuple"
        },
        {
          "internalType": "address",
          "name": "renter",
          "type": "address"
        },
        {
          "components": [
            {
              "internalType": "address",
              "name": "collection",
              "type": "address"
            },
            {
              "internalType": "address",
              "name": "owner",
              "type": "address"
            },
            {
              "internalType": "string",
              "name": "name",
              "type": "string"
            },
            {
              "internalType": "string",
              "name": "symbol",
              "type": "string"
            }
          ],
          "internalType": "struct IAnyRental.CollectionNFT",
          "name": "collection",
          "type": "tuple"
        },
        {
          "internalType": "uint256",
          "name": "tokenID",
          "type": "uint256"
        },
        {
          "internalType": "string",
          "name": "tokenImgURI",
          "type": "string"
        }
      ],
      "stateMutability": "view",
      "type": "function",
      "constant": true
    },
    {
      "inputs": [
        {
          "internalType": "address",
          "name": "newOwner",
          "type": "address"
        }
      ],
      "name": "transferOwnership",
      "outputs": [],
      "stateMutability": "nonpayable",
      "type": "function"
    },
    {
      "inputs": [
        {
          "internalType": "uint256",
          "name": "_nb",
          "type": "uint256"
        }
      ],
      "name": "setNbRentalMax",
      "outputs": [],
      "stateMutability": "nonpayable",
      "type": "function"
    },
    {
      "inputs": [
        {
          "internalType": "address",
          "name": "_owner",
          "type": "address"
        }
      ],
      "name": "getToolsCollection",
      "outputs": [
        {
          "components": [
            {
              "internalType": "uint256",
              "name": "tokenID",
              "type": "uint256"
            },
            {
              "internalType": "uint256",
              "name": "serialID",
              "type": "uint256"
            },
            {
              "internalType": "string",
              "name": "title",
              "type": "string"
            },
            {
              "internalType": "string",
              "name": "description",
              "type": "string"
            },
            {
              "internalType": "string",
              "name": "tokenURI",
              "type": "string"
            },
            {
              "internalType": "bool",
              "name": "isAvailable",
              "type": "bool"
            }
          ],
          "internalType": "struct Utils.Tool[]",
          "name": "",
          "type": "tuple[]"
        }
      ],
      "stateMutability": "view",
      "type": "function",
      "constant": true
    },
    {
      "inputs": [
        {
          "internalType": "address",
          "name": "_owner",
          "type": "address"
        }
      ],
      "name": "getToolsCollectionAddress",
      "outputs": [
        {
          "internalType": "address",
          "name": "",
          "type": "address"
        }
      ],
      "stateMutability": "view",
      "type": "function",
      "constant": true
    },
    {
      "inputs": [],
      "name": "getRentalsOwner",
      "outputs": [
        {
          "internalType": "address[]",
          "name": "",
          "type": "address[]"
        }
      ],
      "stateMutability": "view",
      "type": "function",
      "constant": true
    },
    {
      "inputs": [
        {
          "internalType": "address",
          "name": "_owner",
          "type": "address"
        }
      ],
      "name": "getRentalsByOwner",
      "outputs": [
        {
          "components": [
            {
              "internalType": "uint256",
              "name": "rentalID",
              "type": "uint256"
            },
            {
              "internalType": "string",
              "name": "title",
              "type": "string"
            },
            {
              "internalType": "string",
              "name": "description",
              "type": "string"
            },
            {
              "internalType": "uint64",
              "name": "dayPrice",
              "type": "uint64"
            },
            {
              "internalType": "uint64",
              "name": "caution",
              "type": "uint64"
            },
            {
              "internalType": "uint64",
              "name": "start",
              "type": "uint64"
            },
            {
              "internalType": "uint64",
              "name": "end",
              "type": "uint64"
            },
            {
              "internalType": "enum IAnyRental.RentalStatus",
              "name": "rentalStatus",
              "type": "uint8"
            },
            {
              "components": [
                {
                  "internalType": "bool",
                  "name": "isCautionDeposed",
                  "type": "bool"
                },
                {
                  "internalType": "bool",
                  "name": "isNFTDelegated",
                  "type": "bool"
                },
                {
                  "internalType": "bool",
                  "name": "isToolReturned",
                  "type": "bool"
                },
                {
                  "internalType": "bool",
                  "name": "isReturnValidated",
                  "type": "bool"
                },
                {
                  "internalType": "bool",
                  "name": "isDispute",
                  "type": "bool"
                },
                {
                  "internalType": "bool",
                  "name": "isDisputeConfirmed",
                  "type": "bool"
                },
                {
                  "internalType": "bool",
                  "name": "isRedeemed",
                  "type": "bool"
                }
              ],
              "internalType": "struct IAnyRental.RentalData",
              "name": "rentalData",
              "type": "tuple"
            },
            {
              "internalType": "address",
              "name": "renter",
              "type": "address"
            },
            {
              "components": [
                {
                  "internalType": "address",
                  "name": "collection",
                  "type": "address"
                },
                {
                  "internalType": "address",
                  "name": "owner",
                  "type": "address"
                },
                {
                  "internalType": "string",
                  "name": "name",
                  "type": "string"
                },
                {
                  "internalType": "string",
                  "name": "symbol",
                  "type": "string"
                }
              ],
              "internalType": "struct IAnyRental.CollectionNFT",
              "name": "collection",
              "type": "tuple"
            },
            {
              "internalType": "uint256",
              "name": "tokenID",
              "type": "uint256"
            },
            {
              "internalType": "string",
              "name": "tokenImgURI",
              "type": "string"
            }
          ],
          "internalType": "struct IAnyRental.Rental[]",
          "name": "",
          "type": "tuple[]"
        }
      ],
      "stateMutability": "view",
      "type": "function",
      "constant": true
    },
    {
      "inputs": [
        {
          "internalType": "address",
          "name": "_owner",
          "type": "address"
        },
        {
          "internalType": "uint256",
          "name": "_rentalId",
          "type": "uint256"
        }
      ],
      "name": "getRentalByOwnerAddressAndRentalID",
      "outputs": [
        {
          "components": [
            {
              "internalType": "uint256",
              "name": "rentalID",
              "type": "uint256"
            },
            {
              "internalType": "string",
              "name": "title",
              "type": "string"
            },
            {
              "internalType": "string",
              "name": "description",
              "type": "string"
            },
            {
              "internalType": "uint64",
              "name": "dayPrice",
              "type": "uint64"
            },
            {
              "internalType": "uint64",
              "name": "caution",
              "type": "uint64"
            },
            {
              "internalType": "uint64",
              "name": "start",
              "type": "uint64"
            },
            {
              "internalType": "uint64",
              "name": "end",
              "type": "uint64"
            },
            {
              "internalType": "enum IAnyRental.RentalStatus",
              "name": "rentalStatus",
              "type": "uint8"
            },
            {
              "components": [
                {
                  "internalType": "bool",
                  "name": "isCautionDeposed",
                  "type": "bool"
                },
                {
                  "internalType": "bool",
                  "name": "isNFTDelegated",
                  "type": "bool"
                },
                {
                  "internalType": "bool",
                  "name": "isToolReturned",
                  "type": "bool"
                },
                {
                  "internalType": "bool",
                  "name": "isReturnValidated",
                  "type": "bool"
                },
                {
                  "internalType": "bool",
                  "name": "isDispute",
                  "type": "bool"
                },
                {
                  "internalType": "bool",
                  "name": "isDisputeConfirmed",
                  "type": "bool"
                },
                {
                  "internalType": "bool",
                  "name": "isRedeemed",
                  "type": "bool"
                }
              ],
              "internalType": "struct IAnyRental.RentalData",
              "name": "rentalData",
              "type": "tuple"
            },
            {
              "internalType": "address",
              "name": "renter",
              "type": "address"
            },
            {
              "components": [
                {
                  "internalType": "address",
                  "name": "collection",
                  "type": "address"
                },
                {
                  "internalType": "address",
                  "name": "owner",
                  "type": "address"
                },
                {
                  "internalType": "string",
                  "name": "name",
                  "type": "string"
                },
                {
                  "internalType": "string",
                  "name": "symbol",
                  "type": "string"
                }
              ],
              "internalType": "struct IAnyRental.CollectionNFT",
              "name": "collection",
              "type": "tuple"
            },
            {
              "internalType": "uint256",
              "name": "tokenID",
              "type": "uint256"
            },
            {
              "internalType": "string",
              "name": "tokenImgURI",
              "type": "string"
            }
          ],
          "internalType": "struct IAnyRental.Rental",
          "name": "",
          "type": "tuple"
        }
      ],
      "stateMutability": "view",
      "type": "function",
      "constant": true
    },
    {
      "inputs": [
        {
          "internalType": "uint256",
          "name": "_rentalId",
          "type": "uint256"
        }
      ],
      "name": "getRentalByRentalID",
      "outputs": [
        {
          "components": [
            {
              "internalType": "uint256",
              "name": "rentalID",
              "type": "uint256"
            },
            {
              "internalType": "string",
              "name": "title",
              "type": "string"
            },
            {
              "internalType": "string",
              "name": "description",
              "type": "string"
            },
            {
              "internalType": "uint64",
              "name": "dayPrice",
              "type": "uint64"
            },
            {
              "internalType": "uint64",
              "name": "caution",
              "type": "uint64"
            },
            {
              "internalType": "uint64",
              "name": "start",
              "type": "uint64"
            },
            {
              "internalType": "uint64",
              "name": "end",
              "type": "uint64"
            },
            {
              "internalType": "enum IAnyRental.RentalStatus",
              "name": "rentalStatus",
              "type": "uint8"
            },
            {
              "components": [
                {
                  "internalType": "bool",
                  "name": "isCautionDeposed",
                  "type": "bool"
                },
                {
                  "internalType": "bool",
                  "name": "isNFTDelegated",
                  "type": "bool"
                },
                {
                  "internalType": "bool",
                  "name": "isToolReturned",
                  "type": "bool"
                },
                {
                  "internalType": "bool",
                  "name": "isReturnValidated",
                  "type": "bool"
                },
                {
                  "internalType": "bool",
                  "name": "isDispute",
                  "type": "bool"
                },
                {
                  "internalType": "bool",
                  "name": "isDisputeConfirmed",
                  "type": "bool"
                },
                {
                  "internalType": "bool",
                  "name": "isRedeemed",
                  "type": "bool"
                }
              ],
              "internalType": "struct IAnyRental.RentalData",
              "name": "rentalData",
              "type": "tuple"
            },
            {
              "internalType": "address",
              "name": "renter",
              "type": "address"
            },
            {
              "components": [
                {
                  "internalType": "address",
                  "name": "collection",
                  "type": "address"
                },
                {
                  "internalType": "address",
                  "name": "owner",
                  "type": "address"
                },
                {
                  "internalType": "string",
                  "name": "name",
                  "type": "string"
                },
                {
                  "internalType": "string",
                  "name": "symbol",
                  "type": "string"
                }
              ],
              "internalType": "struct IAnyRental.CollectionNFT",
              "name": "collection",
              "type": "tuple"
            },
            {
              "internalType": "uint256",
              "name": "tokenID",
              "type": "uint256"
            },
            {
              "internalType": "string",
              "name": "tokenImgURI",
              "type": "string"
            }
          ],
          "internalType": "struct IAnyRental.Rental",
          "name": "",
          "type": "tuple"
        }
      ],
      "stateMutability": "view",
      "type": "function",
      "constant": true
    },
    {
      "inputs": [
        {
          "internalType": "address",
          "name": "_renter",
          "type": "address"
        }
      ],
      "name": "isAddressOwner",
      "outputs": [
        {
          "internalType": "bool",
          "name": "",
          "type": "bool"
        }
      ],
      "stateMutability": "view",
      "type": "function",
      "constant": true
    },
    {
      "inputs": [
        {
          "internalType": "address",
          "name": "_renter",
          "type": "address"
        }
      ],
      "name": "isAddressRenter",
      "outputs": [
        {
          "internalType": "bool",
          "name": "",
          "type": "bool"
        }
      ],
      "stateMutability": "view",
      "type": "function",
      "constant": true
    },
    {
      "inputs": [
        {
          "internalType": "string",
          "name": "_collectionName",
          "type": "string"
        },
        {
          "internalType": "string",
          "name": "_collectionSymbol",
          "type": "string"
        }
      ],
      "name": "createCollection",
      "outputs": [
        {
          "internalType": "address",
          "name": "",
          "type": "address"
        }
      ],
      "stateMutability": "nonpayable",
      "type": "function"
    },
    {
      "inputs": [],
      "name": "deleteCollection",
      "outputs": [],
      "stateMutability": "nonpayable",
      "type": "function"
    },
    {
      "inputs": [
        {
          "internalType": "string",
          "name": "_tokenURI",
          "type": "string"
        },
        {
          "internalType": "uint256",
          "name": "_serialId",
          "type": "uint256"
        },
        {
          "internalType": "string",
          "name": "_title",
          "type": "string"
        },
        {
          "internalType": "string",
          "name": "_description",
          "type": "string"
        }
      ],
      "name": "addToolToCollection",
      "outputs": [
        {
          "internalType": "uint256",
          "name": "tokenId",
          "type": "uint256"
        }
      ],
      "stateMutability": "nonpayable",
      "type": "function"
    },
    {
      "inputs": [
        {
          "internalType": "uint256",
          "name": "_tokenId",
          "type": "uint256"
        },
        {
          "internalType": "address",
          "name": "_to",
          "type": "address"
        },
        {
          "internalType": "uint64",
          "name": "_expires",
          "type": "uint64"
        }
      ],
      "name": "delegateNFT",
      "outputs": [],
      "stateMutability": "nonpayable",
      "type": "function"
    },
    {
      "inputs": [
        {
          "internalType": "string",
          "name": "_tokenImgURI",
          "type": "string"
        },
        {
          "internalType": "uint64",
          "name": "_dayPrice",
          "type": "uint64"
        },
        {
          "internalType": "uint64",
          "name": "_caution",
          "type": "uint64"
        },
        {
          "internalType": "uint256",
          "name": "_tokenID",
          "type": "uint256"
        }
      ],
      "name": "addToolToRentals",
      "outputs": [],
      "stateMutability": "nonpayable",
      "type": "function"
    },
    {
      "inputs": [
        {
          "internalType": "uint256",
          "name": "_rentalID",
          "type": "uint256"
        },
        {
          "internalType": "uint64",
          "name": "_dayPrice",
          "type": "uint64"
        },
        {
          "internalType": "uint64",
          "name": "_caution",
          "type": "uint64"
        }
      ],
      "name": "updateToolIntoRentals",
      "outputs": [],
      "stateMutability": "nonpayable",
      "type": "function"
    },
    {
      "inputs": [
        {
          "internalType": "uint256",
          "name": "_rentalID",
          "type": "uint256"
        }
      ],
      "name": "deleteToolIntoRentals",
      "outputs": [],
      "stateMutability": "nonpayable",
      "type": "function"
    },
    {
      "inputs": [
        {
          "internalType": "address",
          "name": "_owner",
          "type": "address"
        },
        {
          "internalType": "uint256",
          "name": "_rentalID",
          "type": "uint256"
        },
        {
          "internalType": "uint64",
          "name": "_begin",
          "type": "uint64"
        },
        {
          "internalType": "uint64",
          "name": "_end",
          "type": "uint64"
        }
      ],
      "name": "sendPaiementForRental",
      "outputs": [],
      "stateMutability": "nonpayable",
      "type": "function"
    },
    {
      "inputs": [
        {
          "internalType": "uint256",
          "name": "_rentalID",
          "type": "uint256"
        },
        {
          "internalType": "uint256",
          "name": "_tokenID",
          "type": "uint256"
        }
      ],
      "name": "validateNFTDelegationForRental",
      "outputs": [],
      "stateMutability": "nonpayable",
      "type": "function"
    },
    {
      "inputs": [
        {
          "internalType": "address",
          "name": "_owner",
          "type": "address"
        },
        {
          "internalType": "uint256",
          "name": "_rentalID",
          "type": "uint256"
        }
      ],
      "name": "validateNFTandToolReception",
      "outputs": [],
      "stateMutability": "nonpayable",
      "type": "function"
    },
    {
      "inputs": [
        {
          "internalType": "address",
          "name": "_owner",
          "type": "address"
        },
        {
          "internalType": "uint256",
          "name": "_rentalID",
          "type": "uint256"
        }
      ],
      "name": "giveBackToolAfterRental",
      "outputs": [],
      "stateMutability": "nonpayable",
      "type": "function"
    },
    {
      "inputs": [
        {
          "internalType": "uint256",
          "name": "_rentalID",
          "type": "uint256"
        }
      ],
      "name": "validateReturnToolAfterRental",
      "outputs": [],
      "stateMutability": "nonpayable",
      "type": "function"
    },
    {
      "inputs": [
        {
          "internalType": "uint256",
          "name": "_rentalID",
          "type": "uint256"
        },
        {
          "internalType": "string",
          "name": "message",
          "type": "string"
        }
      ],
      "name": "refuseReturnToolAfterRental",
      "outputs": [],
      "stateMutability": "nonpayable",
      "type": "function"
    },
    {
      "inputs": [
        {
          "internalType": "address",
          "name": "_renter",
          "type": "address"
        },
        {
          "internalType": "uint256",
          "name": "_rentalID",
          "type": "uint256"
        },
        {
          "internalType": "string",
          "name": "message",
          "type": "string"
        }
      ],
      "name": "confirmDisputeAfterRental",
      "outputs": [],
      "stateMutability": "nonpayable",
      "type": "function"
    },
    {
      "inputs": [
        {
          "internalType": "address",
          "name": "_renter",
          "type": "address"
        },
        {
          "internalType": "uint256",
          "name": "_rentalID",
          "type": "uint256"
        }
      ],
      "name": "redeemPaymentForRental",
      "outputs": [],
      "stateMutability": "nonpayable",
      "type": "function"
    }
  ],
  "bytecode": "0x608060405260146007553480156200001657600080fd5b506040516200558b3803806200558b8339810160408190526200003991620000ba565b62000044336200006a565b600180546001600160a01b0319166001600160a01b0392909216919091179055620000ec565b600080546001600160a01b038381166001600160a01b0319831681178455604051919092169283917f8be0079c531659141344cd1fd0a4f28419497f9722a3daafe3b4186f6b6457e09190a35050565b600060208284031215620000cd57600080fd5b81516001600160a01b0381168114620000e557600080fd5b9392505050565b61548f80620000fc6000396000f3fe608060405234801561001057600080fd5b50600436106101da5760003560e01c806384fb413611610104578063c45a0155116100a2578063d66d736611610071578063d66d736614610454578063e12ab21614610469578063f2fde38b1461047c578063f5df00541461048f57600080fd5b8063c45a0155146103f7578063cfa54ca81461040a578063d50ca76314610438578063d5672deb1461044157600080fd5b8063a8c8018e116100de578063a8c8018e146103ab578063b5139f34146103be578063c135426a146103d1578063c222ba0a146103e457600080fd5b806384fb41361461035b5780638da5cb5b146103875780639d76b1bc1461039857600080fd5b80633e8d19fe1161017c57806365676e501161014b57806365676e501461030d578063715018a61461032d5780637f7fcf111461033557806382edd1d51461034857600080fd5b80633e8d19fe146102b45780634cd4e3e0146102d45780634ce7979e146102e757806359087a94146102fa57600080fd5b80631f728a1a116101b85780631f728a1a1461022c5780632c62afc11461023f5780633511de41146102605780633e4c89e9146102a157600080fd5b806301ee4e2f146101df578063176b9b75146101f45780631ebf7c5014610224575b600080fd5b6101f26101ed36600461416b565b6104af565b005b610207610202366004614282565b61060f565b6040516001600160a01b0390911681526020015b60405180910390f35b6101f26108be565b6101f261023a3660046142e5565b610b2c565b61025261024d366004614346565b611054565b60405190815260200161021b565b61029161026e3660046143dd565b6001600160a01b0390811660009081526005602052604090206001015416151590565b604051901515815260200161021b565b6101f26102af36600461441d565b6114c1565b6102c76102c23660046143dd565b611643565b60405161021b91906146b3565b6101f26102e23660046142e5565b611b1b565b6101f26102f5366004614715565b611c91565b6101f261030836600461476d565b611e81565b61032061031b3660046142e5565b61200b565b60405161021b91906147a9565b6101f261255c565b6101f261034336600461416b565b612570565b6101f26103563660046147bc565b612718565b61036e61036936600461416b565b6129df565b60405161021b9d9c9b9a99989796959493929190614828565b6000546001600160a01b0316610207565b6101f26103a6366004614902565b612de1565b6102076103b93660046143dd565b6130e1565b6103206103cc36600461416b565b61313c565b6101f26103df366004614951565b613677565b6101f26103f236600461416b565b61389a565b600154610207906001600160a01b031681565b6102916104183660046143dd565b6001600160a01b0390811660009081526003602052604090205416151590565b61025260075481565b6101f261044f366004614973565b613a33565b61045c613c69565b60405161021b9190614998565b6101f26104773660046142e5565b613ccb565b6101f261048a3660046143dd565b613cd8565b6104a261049d3660046143dd565b613d51565b60405161021b91906149e5565b806104b960025490565b10156104e05760405162461bcd60e51b81526004016104d790614aa9565b60405180910390fd5b60006104ec8383613e11565b6001600160a01b0384166000908152600660205260408120805492935090918390811061051b5761051b614ad6565b90600052602060002090600d020190508281600001541461054e5760405162461bcd60e51b81526004016104d790614aec565b6005600482015460ff166008811115610569576105696144ab565b146105865760405162461bcd60e51b81526004016104d790614b23565b600481018054600860ff19909116811790915560058201805466ff0000000000ff1916600160301b1790558101546007820154600b8301546040517f3439199983bc67c84242710ffe8067d1454074df03cf118730de50fc5b6eb9bb93610601936001600160a01b0391821693339392909116914290614b5a565b60405180910390a150505050565b60003361065a5760405162461bcd60e51b81526020600482015260196024820152781859191c995cdcc81e995c9bc81a5cc81b9bdd081d985b1a59603a1b60448201526064016104d7565b336000908152600560205260409020546001600160a01b0316156106d15760405162461bcd60e51b815260206004820152602860248201527f596f7520616c72656164792068617665206372656174656420796f757220636f604482015267363632b1ba34b7b760c11b60648201526084016104d7565b604080516020808201909252600090528351908401207fc5d2460186f7233c927e7db2dcc703c0e500b653ca82273b7bfad8045d85a470036107555760405162461bcd60e51b815260206004820152601e60248201527f636f6c6c656374696f6e206e616d652063616e277420626520656d707479000060448201526064016104d7565b600154604051633cccf6e960e11b81526000916001600160a01b031690637999edd29061078a90339088908890600401614b8e565b6020604051808303816000875af11580156107a9573d6000803e3d6000fd5b505050506040513d601f19601f820116820180604052508101906107cd9190614bce565b33600081815260056020526040902080546001600160a01b0384166001600160a01b03199182161782556001820180549091169092179091559091506002016108168582614c83565b503360009081526005602052604090206003016108338482614c83565b50600480546001810182556000919091527f8a35acfbc15ff81a39ae7d344fd709f28e8600b4aa8c65c6b64bfe7fe36bd19b0180546001600160a01b031916339081179091556040517f88d25790273b8c367ee270bf60b22ad4aada95ecda75d3d82710534a73ce277a916108ad91879085904290614d3c565b60405180910390a190505b92915050565b336000818152600560205260409020600101546001600160a01b0316146108f75760405162461bcd60e51b81526004016104d790614d70565b336109405760405162461bcd60e51b81526020600482015260196024820152781859191c995cdcc81e995c9bc81a5cc81b9bdd081d985b1a59603a1b60448201526064016104d7565b336000908152600560205260409020546001600160a01b03166109755760405162461bcd60e51b81526004016104d790614db7565b336000908152600560205260408120546001600160a01b031690805b6004548110156109ec57336001600160a01b0316600482815481106109b8576109b8614ad6565b6000918252602090912001546001600160a01b0316036109da578091506109ec565b806109e481614e04565b915050610991565b50600480546109fd90600190614e1d565b81548110610a0d57610a0d614ad6565b600091825260209091200154600480546001600160a01b039092169183908110610a3957610a39614ad6565b9060005260206000200160006101000a8154816001600160a01b0302191690836001600160a01b031602179055506004805480610a7857610a78614e30565b60008281526020808220830160001990810180546001600160a01b0319908116909155930190935533815260059092526040822080548216815560018101805490921690915590610acc600283018261403e565b610ada60038301600061403e565b5050604080513381526001600160a01b038416602082015242918101919091527fce084e945d8eacece908740a7dbf5178848ef8331e87941732f09c5c964b6c4c906060015b60405180910390a15050565b336000818152600560205260409020600101546001600160a01b031614610b655760405162461bcd60e51b81526004016104d790614d70565b336000908152600560205260409020546001600160a01b0316610b9a5760405162461bcd60e51b81526004016104d790614db7565b6007543360009081526006602052604090205410610bca5760405162461bcd60e51b81526004016104d790614e46565b6000805b33600090815260066020526040902054811015610c3a57336000908152600660205260409020805484919083908110610c0957610c09614ad6565b90600052602060002090600d02016000015403610c2857809150610c3a565b80610c3281614e04565b915050610bce565b503360009081526006602052604090208054610c5890600190614e1d565b81548110610c6857610c68614ad6565b90600052602060002090600d020160066000336001600160a01b03166001600160a01b031681526020019081526020016000208281548110610cac57610cac614ad6565b600091825260209091208254600d90920201908155600180820190610cd390840182614e7d565b50600281810190610ce690840182614e7d565b5060038281018054918301805467ffffffffffffffff1981166001600160401b0394851690811783558354600160401b908190048616026001600160801b031990921617178082558254600160801b9081900485160267ffffffffffffffff60801b198216811783559254600160c01b908190049094169093026001600160c01b039092166001600160801b0390931692909217179055600480830154908201805460ff9092169160ff19166001836008811115610da657610da66144ab565b021790555060058281018054918301805460ff938416151560ff19821681178355835461010090819004861615150261ff001990911661ffff19909216919091171780825582546201000090819004851615150262ff0000198216811783558354630100000090819004861615150263ff0000001990911663ffff00001990921691909117178082558254600160201b90819004851615150264ff00000000198216811783558354600160281b90819004861615150260ff60281b1990911665ffff000000001990921691909117178082559154600160301b90819004909316151590920260ff60301b1990911617905560068083015490820180546001600160a01b03199081166001600160a01b039384161790915560078085018054918501805484169285169290921782556008808701549086018054909416941693909317909155600980840190610efd90860182614e7d565b50600381810190610f1090840182614e7d565b505050600b82015481600b0155600c820181600c019081610f319190614e7d565b5050336000908152600660205260409020805490915080610f5457610f54614e30565b600082815260208120600d6000199093019283020181815590610f7a600183018261403e565b610f8860028301600061403e565b60006003830181905560048301805460ff1916905560058301805466ffffffffffffff191690556006830180546001600160a01b03199081169091556007840180548216815560088501805490921690915590610fe8600985018261403e565b610ff660038301600061403e565b5050600b820160009055600c82016000611010919061403e565b50509055604080513381526020810184905242918101919091527ff46058662129ffc1407e831e43472941c33828326b7a935de2a9f60925baec6790606001610b20565b3360008181526005602052604081206001015490916001600160a01b03909116146110915760405162461bcd60e51b81526004016104d790614d70565b336000908152600560205260409020546001600160a01b03166110c65760405162461bcd60e51b81526004016104d790614db7565b60075433600090815260066020526040902054106110f65760405162461bcd60e51b81526004016104d790614e46565b33600081815260056020526040808220549051635448142b60e11b81526001600160a01b0390911692839163a89028569161113e918c918c918c918c918c9190600401614f7a565b6020604051808303816000875af115801561115d573d6000803e3d6000fd5b505050506040513d601f19601f820116820180604052508101906111819190614fd6565b9050600061118e60025490565b9050611198614078565b6040805160808101825260008082526020808301828152606084860181905280850152338084526005835285842080546001600160a01b039081168752600191820154169092528787528683018d81528787018d9052610140880186905261016088018a905260028054840190559084526006835294832080548083018255908452919092208551600d90920201908155925191928492909182019061123e9082614c83565b50604082015160028201906112539082614c83565b506060820151600382018054608085015160a086015160c08701516001600160401b03908116600160c01b026001600160c01b03928216600160801b02929092166001600160801b03938216600160401b026001600160801b0319909516919096161792909217169290921791909117905560e082015160048201805460ff191660018360088111156112e8576112e86144ab565b02179055506101008281015180516005840180546020808501516040808701516060880151608089015160a08a015160c0909a015161ffff1990971698151561ff001916989098179315159099029290921763ffff00001916620100009215159290920263ff0000001916919091176301000000971515979097029690961765ffff000000001916600160201b9415159490940260ff60281b191693909317600160281b941515949094029390931760ff60301b1916600160301b93151593909302929092179091556101208401516006840180546001600160a01b03199081166001600160a01b0393841617909155610140860151805160078701805484169185169190911781559381015160088701805490931693169290921790559182015160098401906114199082614c83565b506060820151600382019061142e9082614c83565b505050610160820151600b820155610180820151600c8201906114519082614c83565b5050336000818152600560209081526040918290205482519384526001600160a01b03169083015281018690524260608201527fe029e29fa8a3bb786f69f9c8700882d80138e278db591e45bd8bbfa22682bd84915060800160405180910390a150919998505050505050505050565b336000818152600560205260409020600101546001600160a01b0316146114fa5760405162461bcd60e51b81526004016104d790614d70565b336000908152600560205260409020546001600160a01b031661152f5760405162461bcd60e51b81526004016104d790614db7565b336000818152600560205260409020600101546001600160a01b0316146115685760405162461bcd60e51b81526004016104d790614d70565b33600081815260056020526040908190205490516333b57b5760e21b8152600481018690526001600160a01b0385811660248301526001600160401b03851660448301526064820193909352911690819063ced5ed5c90608401600060405180830381600087803b1580156115dc57600080fd5b505af11580156115f0573d6000803e3d6000fd5b505033600081815260056020526040908190205490517f38ca09c302caf0446908a1a3f31a72897e907fc242c9a7990d7c0937ac128b149450610601935087916001600160a01b03169089904290614b5a565b6001600160a01b0380821660009081526005602052604090205460609183911661167f5760405162461bcd60e51b81526004016104d790614fef565b6001600160a01b038316600090815260066020908152604080832080548251818502810185019093528083529193909284015b82821015611b0e57838290600052602060002090600d0201604051806101a0016040529081600082015481526020016001820180546116f090614beb565b80601f016020809104026020016040519081016040528092919081815260200182805461171c90614beb565b80156117695780601f1061173e57610100808354040283529160200191611769565b820191906000526020600020905b81548152906001019060200180831161174c57829003601f168201915b5050505050815260200160028201805461178290614beb565b80601f01602080910402602001604051908101604052809291908181526020018280546117ae90614beb565b80156117fb5780601f106117d0576101008083540402835291602001916117fb565b820191906000526020600020905b8154815290600101906020018083116117de57829003601f168201915b505050918352505060038201546001600160401b038082166020840152600160401b820481166040840152600160801b820481166060840152600160c01b909104166080820152600482015460a09091019060ff166008811115611861576118616144ab565b6008811115611872576118726144ab565b81526040805160e081018252600584015460ff8082161515835261010082048116151560208481019190915262010000830482161515848601526301000000830482161515606080860191909152600160201b840483161515608080870191909152600160281b85048416151560a0870152600160301b909404909216151560c08501528086019390935260068601546001600160a01b03908116858701528451928301855260078701805482168452600888015490911693830193909352600986018054919095019491938401919061194b90614beb565b80601f016020809104026020016040519081016040528092919081815260200182805461197790614beb565b80156119c45780601f10611999576101008083540402835291602001916119c4565b820191906000526020600020905b8154815290600101906020018083116119a757829003601f168201915b505050505081526020016003820180546119dd90614beb565b80601f0160208091040260200160405190810160405280929190818152602001828054611a0990614beb565b8015611a565780601f10611a2b57610100808354040283529160200191611a56565b820191906000526020600020905b815481529060010190602001808311611a3957829003601f168201915b5050505050815250508152602001600b8201548152602001600c82018054611a7d90614beb565b80601f0160208091040260200160405190810160405280929190818152602001828054611aa990614beb565b8015611af65780601f10611acb57610100808354040283529160200191611af6565b820191906000526020600020905b815481529060010190602001808311611ad957829003601f168201915b505050505081525050815260200190600101906116b2565b5050505091505b50919050565b336000818152600560205260409020546001600160a01b0316611b505760405162461bcd60e51b81526004016104d790614fef565b81611b5a60025490565b1015611b785760405162461bcd60e51b81526004016104d790614aa9565b6000611b843384613e11565b3360009081526006602052604081208054929350909183908110611baa57611baa614ad6565b90600052602060002090600d0201905083816000015414611bdd5760405162461bcd60e51b81526004016104d790614aec565b60048082015460ff166008811115611bf757611bf76144ab565b14611c145760405162461bcd60e51b81526004016104d790614b23565b600481018054600560ff1990911681179091558101805463ff00000019166301000000179055600881015460068201546007830154600b8401546040517f52d8c02cb4414644b59c67b225228ebebf995dbae27daeb68c1b08db68a5776994610601946001600160a01b0391821694908216939116914290614b5a565b6001600160a01b03808416600090815260056020526040902054849116611cca5760405162461bcd60e51b81526004016104d790614fef565b82611cd460025490565b1015611cf25760405162461bcd60e51b81526004016104d790614aa9565b6000611cfe8585613e11565b6001600160a01b03861660009081526006602052604081208054929350909183908110611d2d57611d2d614ad6565b90600052602060002090600d0201905084816000015414611d605760405162461bcd60e51b81526004016104d790614aec565b60068101546001600160a01b03163314611dcf5760405162461bcd60e51b815260206004820152602a60248201527f50726f626c656d206f6e207468652072656e74657220616e6420746872206f6e604482015269652077686f2061736b7360b01b60648201526084016104d7565b6006600482015460ff166008811115611dea57611dea6144ab565b14611e075760405162461bcd60e51b81526004016104d790614b23565b60058101805460ff60281b1916600160281b17905560088101546007820154600b8301546040517fe88351cb5c14d4759ce2e8ab2b155c3123aa3f6d075a5093ec397c69531316e993611e71936001600160a01b039182169333939190921691908a90429061501d565b60405180910390a1505050505050565b336000818152600560205260409020546001600160a01b0316611eb65760405162461bcd60e51b81526004016104d790614fef565b82611ec060025490565b1015611ede5760405162461bcd60e51b81526004016104d790614aa9565b6000611eea3385613e11565b3360009081526006602052604081208054929350909183908110611f1057611f10614ad6565b90600052602060002090600d0201905084816000015414611f435760405162461bcd60e51b81526004016104d790614aec565b60048082015460ff166008811115611f5d57611f5d6144ab565b14611f7a5760405162461bcd60e51b81526004016104d790614b23565b600481018054600660ff19909116811790915560058201805464ff00ff000019166401000100001790556008820154908201546007830154600b8401546040517fa0468e9e1b4d1e35562d8986f9ffabe60d38f204b1b21aca613b454ea7d968d494611ffc946001600160a01b0391821694908216939116918a90429061501d565b60405180910390a15050505050565b612013614078565b60008060005b6004548110156120e55760006004828154811061203857612038614ad6565b60009182526020822001546001600160a01b031691505b6001600160a01b0382166000908152600660205260409020548110156120d0576001600160a01b038216600090815260066020526040902080548891908390811061209c5761209c614ad6565b90600052602060002090600d020160000154036120be578094508193506120d0565b806120c881614e04565b91505061204f565b505080806120dd90614e04565b915050612019565b506001600160a01b038116600090815260066020526040902080548390811061211057612110614ad6565b90600052602060002090600d0201604051806101a00160405290816000820154815260200160018201805461214490614beb565b80601f016020809104026020016040519081016040528092919081815260200182805461217090614beb565b80156121bd5780601f10612192576101008083540402835291602001916121bd565b820191906000526020600020905b8154815290600101906020018083116121a057829003601f168201915b505050505081526020016002820180546121d690614beb565b80601f016020809104026020016040519081016040528092919081815260200182805461220290614beb565b801561224f5780601f106122245761010080835404028352916020019161224f565b820191906000526020600020905b81548152906001019060200180831161223257829003601f168201915b505050918352505060038201546001600160401b038082166020840152600160401b820481166040840152600160801b820481166060840152600160c01b909104166080820152600482015460a09091019060ff1660088111156122b5576122b56144ab565b60088111156122c6576122c66144ab565b81526040805160e081018252600584015460ff8082161515835261010082048116151560208481019190915262010000830482161515848601526301000000830482161515606080860191909152600160201b840483161515608080870191909152600160281b85048416151560a0870152600160301b909404909216151560c08501528086019390935260068601546001600160a01b03908116858701528451928301855260078701805482168452600888015490911693830193909352600986018054919095019491938401919061239f90614beb565b80601f01602080910402602001604051908101604052809291908181526020018280546123cb90614beb565b80156124185780601f106123ed57610100808354040283529160200191612418565b820191906000526020600020905b8154815290600101906020018083116123fb57829003601f168201915b5050505050815260200160038201805461243190614beb565b80601f016020809104026020016040519081016040528092919081815260200182805461245d90614beb565b80156124aa5780601f1061247f576101008083540402835291602001916124aa565b820191906000526020600020905b81548152906001019060200180831161248d57829003601f168201915b5050505050815250508152602001600b8201548152602001600c820180546124d190614beb565b80601f01602080910402602001604051908101604052809291908181526020018280546124fd90614beb565b801561254a5780601f1061251f5761010080835404028352916020019161254a565b820191906000526020600020905b81548152906001019060200180831161252d57829003601f168201915b50505050508152505092505050919050565b612564613ed7565b61256e6000613f31565b565b6001600160a01b038083166000908152600560205260409020548391166125a95760405162461bcd60e51b81526004016104d790614fef565b816125b360025490565b10156125d15760405162461bcd60e51b81526004016104d790614aa9565b60006125dd8484613e11565b6001600160a01b0385166000908152600660205260408120805492935090918390811061260c5761260c614ad6565b90600052602060002090600d020190508381600001541461263f5760405162461bcd60e51b81526004016104d790614aec565b60068101546001600160a01b0316331461266b5760405162461bcd60e51b81526004016104d79061506b565b6003600482015460ff166008811115612686576126866144ab565b146126a35760405162461bcd60e51b81526004016104d790614b23565b6004818101805460ff1916909117905560058101805462ff000019166201000017905560088101546007820154600b8301546040517f148ece29b6c432d68b486ce63886d31120fe9c4ec4cf0dbed28a0944ff693df493611ffc936001600160a01b0391821693339392909116914290614b5a565b336000818152600560205260409020600101546001600160a01b0316146127515760405162461bcd60e51b81526004016104d790614d70565b336000908152600560205260409020546001600160a01b03166127865760405162461bcd60e51b81526004016104d790614db7565b60075433600090815260066020526040902054106127b65760405162461bcd60e51b81526004016104d790614e46565b6000836001600160401b0316116127df5760405162461bcd60e51b81526004016104d7906150b5565b6000826001600160401b0316116128085760405162461bcd60e51b81526004016104d7906150b5565b6040805160e081018252600080825260208201819052918101829052606081018290526080810182905260a0810182905260c081018290529061284b3384613f81565b336000908152600660205260408120805492935090918390811061287157612871614ad6565b60009182526020909120600d909102019050600c8101612892888a836150e1565b506003810180546001600160401b03878116600160401b026001600160801b03199092169089161717905560048101805460ff1916905582516005820180546020860151604080880151606089015160808a015160a08b015160c08c01511515600160301b0260ff60301b19911515600160281b0260ff60281b19931515600160201b029390931665ffff000000001994151563010000000263ff0000001996151562010000029690961663ffff0000199815156101000261ff00199c15159c909c1661ffff19909a16999099179a909a17969096169690961792909217169590951794909417919091161790558154600b83015491517fd5810d828d3236216c1ea8fa243575cea71c06804476063f4feef5205a652e3a926129cd923392909190600187019060028801908f908f908f908f904290615217565b60405180910390a15050505050505050565b600660205281600052604060002081815481106129fb57600080fd5b90600052602060002090600d020160009150915050806000015490806001018054612a2590614beb565b80601f0160208091040260200160405190810160405280929190818152602001828054612a5190614beb565b8015612a9e5780601f10612a7357610100808354040283529160200191612a9e565b820191906000526020600020905b815481529060010190602001808311612a8157829003601f168201915b505050505090806002018054612ab390614beb565b80601f0160208091040260200160405190810160405280929190818152602001828054612adf90614beb565b8015612b2c5780601f10612b0157610100808354040283529160200191612b2c565b820191906000526020600020905b815481529060010190602001808311612b0f57829003601f168201915b505050600384015460048501546040805160e081018252600588015460ff81811615158352610100820481161515602080850191909152620100008304821615158486015263010000008304821615156060850152600160201b830482161515608080860191909152600160281b84048316151560a0860152600160301b9093048216151560c085015260068b01548551938401865260078c0180546001600160a01b03908116865260088e015481169386019390935260098d0180549c9d6001600160401b03808c169e600160401b8d0482169e50600160801b8d0482169d50600160c01b909c04169a9590991698969793909216959493909284019190612c3490614beb565b80601f0160208091040260200160405190810160405280929190818152602001828054612c6090614beb565b8015612cad5780601f10612c8257610100808354040283529160200191612cad565b820191906000526020600020905b815481529060010190602001808311612c9057829003601f168201915b50505050508152602001600382018054612cc690614beb565b80601f0160208091040260200160405190810160405280929190818152602001828054612cf290614beb565b8015612d3f5780601f10612d1457610100808354040283529160200191612d3f565b820191906000526020600020905b815481529060010190602001808311612d2257829003601f168201915b5050505050815250509080600b01549080600c018054612d5e90614beb565b80601f0160208091040260200160405190810160405280929190818152602001828054612d8a90614beb565b8015612dd75780601f10612dac57610100808354040283529160200191612dd7565b820191906000526020600020905b815481529060010190602001808311612dba57829003601f168201915b505050505090508d565b6001600160a01b03808516600090815260056020526040902054859116612e1a5760405162461bcd60e51b81526004016104d790614fef565b83612e2460025490565b1015612e425760405162461bcd60e51b81526004016104d790614aa9565b6000836001600160401b031611612e9b5760405162461bcd60e51b815260206004820152601a60248201527f626567696e206d75737420626520612076616c6964206461746500000000000060448201526064016104d7565b6000826001600160401b031611612ef45760405162461bcd60e51b815260206004820152601860248201527f656e64206d75737420626520612076616c69642064617465000000000000000060448201526064016104d7565b816001600160401b0316836001600160401b031610612f615760405162461bcd60e51b815260206004820152602360248201527f456e64206f662072656e74616c2063616e2774206265206265666f726520626560448201526233b4b760e91b60648201526084016104d7565b6000612f6d8686613e11565b6001600160a01b03871660009081526006602052604081208054929350909183908110612f9c57612f9c614ad6565b90600052602060002090600d0201905085816000015414612fcf5760405162461bcd60e51b81526004016104d790614aec565b6000600482015460ff166008811115612fea57612fea6144ab565b146130075760405162461bcd60e51b81526004016104d790614b23565b6003810180546001600160401b03868116600160c01b026001600160c01b03918916600160801b02919091166001600160801b03909216919091171790556004810180546001919060ff19168280021790555060058101805460ff191660011790556006810180546001600160a01b0319163390811790915560088201546007830154600b8401546040517f82c81679d53af0a29474e2aa759267691f702b26b09b0ebac62d0394c9eaadb0946130d0946001600160a01b039081169491939116914290614b5a565b60405180910390a150505050505050565b6001600160a01b03808216600090815260056020526040812054909183911661311c5760405162461bcd60e51b81526004016104d790614fef565b50506001600160a01b039081166000908152600560205260409020541690565b613144614078565b6001600160a01b0380841660009081526005602052604090205484911661317d5760405162461bcd60e51b81526004016104d790614fef565b6000805b6001600160a01b0386166000908152600660205260409020548110156131ff576001600160a01b03861660009081526006602052604090208054869190839081106131ce576131ce614ad6565b90600052602060002090600d020160000154036131ed578091506131ff565b806131f781614e04565b915050613181565b506001600160a01b038516600090815260066020526040902080548290811061322a5761322a614ad6565b90600052602060002090600d0201604051806101a00160405290816000820154815260200160018201805461325e90614beb565b80601f016020809104026020016040519081016040528092919081815260200182805461328a90614beb565b80156132d75780601f106132ac576101008083540402835291602001916132d7565b820191906000526020600020905b8154815290600101906020018083116132ba57829003601f168201915b505050505081526020016002820180546132f090614beb565b80601f016020809104026020016040519081016040528092919081815260200182805461331c90614beb565b80156133695780601f1061333e57610100808354040283529160200191613369565b820191906000526020600020905b81548152906001019060200180831161334c57829003601f168201915b505050918352505060038201546001600160401b038082166020840152600160401b820481166040840152600160801b820481166060840152600160c01b909104166080820152600482015460a09091019060ff1660088111156133cf576133cf6144ab565b60088111156133e0576133e06144ab565b81526040805160e081018252600584015460ff8082161515835261010082048116151560208481019190915262010000830482161515848601526301000000830482161515606080860191909152600160201b840483161515608080870191909152600160281b85048416151560a0870152600160301b909404909216151560c08501528086019390935260068601546001600160a01b0390811685870152845192830185526007870180548216845260088801549091169383019390935260098601805491909501949193840191906134b990614beb565b80601f01602080910402602001604051908101604052809291908181526020018280546134e590614beb565b80156135325780601f1061350757610100808354040283529160200191613532565b820191906000526020600020905b81548152906001019060200180831161351557829003601f168201915b5050505050815260200160038201805461354b90614beb565b80601f016020809104026020016040519081016040528092919081815260200182805461357790614beb565b80156135c45780601f10613599576101008083540402835291602001916135c4565b820191906000526020600020905b8154815290600101906020018083116135a757829003601f168201915b5050505050815250508152602001600b8201548152602001600c820180546135eb90614beb565b80601f016020809104026020016040519081016040528092919081815260200182805461361790614beb565b80156136645780601f1061363957610100808354040283529160200191613664565b820191906000526020600020905b81548152906001019060200180831161364757829003601f168201915b5050505050815250509250505092915050565b336000818152600560205260409020546001600160a01b03166136ac5760405162461bcd60e51b81526004016104d790614fef565b826136b660025490565b10156136d45760405162461bcd60e51b81526004016104d790614aa9565b6000821161371d5760405162461bcd60e51b81526020600482015260166024820152751d1bdad95b881251081b5d5cdd081899481d985b1a5960521b60448201526064016104d7565b60006137293385613e11565b336000908152600660205260408120805492935090918390811061374f5761374f614ad6565b90600052602060002090600d02019050848160000154146137825760405162461bcd60e51b81526004016104d790614aec565b8381600b0154146137e95760405162461bcd60e51b815260206004820152602b60248201527f4572726f722e2e2e2074686520746f6b656e49642069736e277420746865206360448201526a37b93932b1ba1037b7329760a91b60648201526084016104d7565b6001600482015460ff166008811115613804576138046144ab565b146138215760405162461bcd60e51b81526004016104d790614b23565b60048101805460ff1916600217905560058101805461010061ff0019909116179055600881015460068201546007830154600b8401546040517f398075ddfcb370e855cd3a01f6ac8b404f3e1899de6c406baf4148098c9f738494611ffc946001600160a01b0391821694908216939116914290614b5a565b6001600160a01b038083166000908152600560205260409020548391166138d35760405162461bcd60e51b81526004016104d790614fef565b816138dd60025490565b10156138fb5760405162461bcd60e51b81526004016104d790614aa9565b60006139078484613e11565b6001600160a01b0385166000908152600660205260408120805492935090918390811061393657613936614ad6565b90600052602060002090600d02019050838160000154146139695760405162461bcd60e51b81526004016104d790614aec565b60068101546001600160a01b031633146139955760405162461bcd60e51b81526004016104d79061506b565b6002600482015460ff1660088111156139b0576139b06144ab565b146139cd5760405162461bcd60e51b81526004016104d790614b23565b60048101805460ff19166003179055600881015460068201546007830154600b8401546040517f38ca09c302caf0446908a1a3f31a72897e907fc242c9a7990d7c0937ac128b1494611ffc946001600160a01b0391821694908216939116914290614b5a565b336000818152600560205260409020600101546001600160a01b031614613a6c5760405162461bcd60e51b81526004016104d790614d70565b336000908152600560205260409020546001600160a01b0316613aa15760405162461bcd60e51b81526004016104d790614db7565b6000826001600160401b031611613aca5760405162461bcd60e51b81526004016104d7906150b5565b6000816001600160401b031611613af35760405162461bcd60e51b81526004016104d7906150b5565b60005b33600090815260066020526040902054811015613c2457336000908152600660205260409020805485919083908110613b3157613b31614ad6565b90600052602060002090600d02016000015403613c1257336000908152600660205260409020805484919083908110613b6c57613b6c614ad6565b90600052602060002090600d020160030160006101000a8154816001600160401b0302191690836001600160401b031602179055508160066000336001600160a01b03166001600160a01b031681526020019081526020016000208281548110613bd857613bd8614ad6565b90600052602060002090600d020160030160086101000a8154816001600160401b0302191690836001600160401b03160217905550613c24565b80613c1c81614e04565b915050613af6565b506040805133815260208101859052428183015290517f01cc60dde87167776063bf9d5243d54a5f50296291346123485ec0eaeffb17f49181900360600190a1505050565b60606004805480602002602001604051908101604052809291908181526020018280548015613cc157602002820191906000526020600020905b81546001600160a01b03168152600190910190602001808311613ca3575b5050505050905090565b613cd3613ed7565b600755565b613ce0613ed7565b6001600160a01b038116613d455760405162461bcd60e51b815260206004820152602660248201527f4f776e61626c653a206e6577206f776e657220697320746865207a65726f206160448201526564647265737360d01b60648201526084016104d7565b613d4e81613f31565b50565b6001600160a01b03808216600090815260056020526040902054606091839116613d8d5760405162461bcd60e51b81526004016104d790614fef565b6001600160a01b03808416600090815260056020526040808220548151637c455b8b60e01b815291519316928392637c455b8b92600480820193918290030181865afa158015613de1573d6000803e3d6000fd5b505050506040513d6000823e601f3d908101601f19168201604052613e0991908101906152ee565b949350505050565b6001600160a01b038083166000908152600560205260408120549091849116613e4c5760405162461bcd60e51b81526004016104d790614fef565b6000805b6001600160a01b038616600090815260066020526040902054811015613ece576001600160a01b0386166000908152600660205260409020805486919083908110613e9d57613e9d614ad6565b90600052602060002090600d02016000015403613ebc57809150613ece565b80613ec681614e04565b915050613e50565b50949350505050565b6000546001600160a01b0316331461256e5760405162461bcd60e51b815260206004820181905260248201527f4f776e61626c653a2063616c6c6572206973206e6f7420746865206f776e657260448201526064016104d7565b600080546001600160a01b038381166001600160a01b0319831681178455604051919092169283917f8be0079c531659141344cd1fd0a4f28419497f9722a3daafe3b4186f6b6457e09190a35050565b6001600160a01b038083166000908152600560205260408120549091849116613fbc5760405162461bcd60e51b81526004016104d790614fef565b6000805b6001600160a01b038616600090815260066020526040902054811015613ece576001600160a01b038616600090815260066020526040902080548691908390811061400d5761400d614ad6565b90600052602060002090600d0201600b01540361402c57809150613ece565b8061403681614e04565b915050613fc0565b50805461404a90614beb565b6000825580601f1061405a575050565b601f016020900490600052602060002090810190613d4e919061413d565b604080516101a08101825260008082526060602083018190529282018390529181018290526080810182905260a0810182905260c081018290529060e082019081526040805160e08101825260008082526020828101829052928201819052606082018190526080820181905260a0820181905260c0820152910190815260006020820152604001614129604080516080810182526000808252602082015260609181018290528181019190915290565b815260200160008152602001606081525090565b5b80821115614152576000815560010161413e565b5090565b6001600160a01b0381168114613d4e57600080fd5b6000806040838503121561417e57600080fd5b823561418981614156565b946020939093013593505050565b634e487b7160e01b600052604160045260246000fd5b60405160c081016001600160401b03811182821017156141cf576141cf614197565b60405290565b604051601f8201601f191681016001600160401b03811182821017156141fd576141fd614197565b604052919050565b60006001600160401b0382111561421e5761421e614197565b50601f01601f191660200190565b600082601f83011261423d57600080fd5b813561425061424b82614205565b6141d5565b81815284602083860101111561426557600080fd5b816020850160208301376000918101602001919091529392505050565b6000806040838503121561429557600080fd5b82356001600160401b03808211156142ac57600080fd5b6142b88683870161422c565b935060208501359150808211156142ce57600080fd5b506142db8582860161422c565b9150509250929050565b6000602082840312156142f757600080fd5b5035919050565b60008083601f84011261431057600080fd5b5081356001600160401b0381111561432757600080fd5b60208301915083602082850101111561433f57600080fd5b9250929050565b60008060008060006080868803121561435e57600080fd5b85356001600160401b038082111561437557600080fd5b61438189838a016142fe565b90975095506020880135945060408801359150808211156143a157600080fd5b6143ad89838a0161422c565b935060608801359150808211156143c357600080fd5b506143d08882890161422c565b9150509295509295909350565b6000602082840312156143ef57600080fd5b81356143fa81614156565b9392505050565b80356001600160401b038116811461441857600080fd5b919050565b60008060006060848603121561443257600080fd5b83359250602084013561444481614156565b915061445260408501614401565b90509250925092565b60005b8381101561447657818101518382015260200161445e565b50506000910152565b6000815180845261449781602086016020860161445b565b601f01601f19169290920160200192915050565b634e487b7160e01b600052602160045260246000fd5b600981106144df57634e487b7160e01b600052602160045260246000fd5b9052565b80511515825260208101511515602083015260408101511515604083015260608101511515606083015260808101511515608083015260a0810151151560a083015260c0810151151560c08301525050565b600060018060a01b038083511684528060208401511660208501525060408201516080604085015261456a608085018261447f565b905060608301518482036060860152614583828261447f565b95945050505050565b60006102608251845260208301518160208601526145ac8286018261447f565b915050604083015184820360408601526145c6828261447f565b91505060608301516145e360608601826001600160401b03169052565b5060808301516145fe60808601826001600160401b03169052565b5060a083015161461960a08601826001600160401b03169052565b5060c083015161463460c08601826001600160401b03169052565b5060e083015161464760e08601826144c1565b506101008084015161465b828701826144e3565b50506101208301516001600160a01b03166101e085015261014083015184820361020086015261468b8282614535565b915050610160830151610220850152610180830151848203610240860152614583828261447f565b6000602080830181845280855180835260408601915060408160051b870101925083870160005b8281101561470857603f198886030184526146f685835161458c565b945092850192908501906001016146da565b5092979650505050505050565b60008060006060848603121561472a57600080fd5b833561473581614156565b92506020840135915060408401356001600160401b0381111561475757600080fd5b6147638682870161422c565b9150509250925092565b6000806040838503121561478057600080fd5b8235915060208301356001600160401b0381111561479d57600080fd5b6142db8582860161422c565b6020815260006143fa602083018461458c565b6000806000806000608086880312156147d457600080fd5b85356001600160401b038111156147ea57600080fd5b6147f6888289016142fe565b9096509450614809905060208701614401565b925061481760408701614401565b949793965091946060013592915050565b8d81526102606020820152600061484361026083018f61447f565b8281036040840152614855818f61447f565b6001600160401b038e16606085015290506001600160401b038c1660808401526001600160401b038b1660a08401526001600160401b038a1660c08401526148a060e084018a6144c1565b6148ae6101008401896144e3565b6001600160a01b0387166101e08401528281036102008401526148d18187614535565b9050846102208401528281036102408401526148ed818561447f565b9150509e9d5050505050505050505050505050565b6000806000806080858703121561491857600080fd5b843561492381614156565b93506020850135925061493860408601614401565b915061494660608601614401565b905092959194509250565b6000806040838503121561496457600080fd5b50508035926020909101359150565b60008060006060848603121561498857600080fd5b8335925061444460208501614401565b6020808252825182820181905260009190848201906040850190845b818110156149d95783516001600160a01b0316835292840192918401916001016149b4565b50909695505050505050565b60006020808301818452808551808352604092508286019150828160051b87010184880160005b83811015614a9b57603f19898403018552815160c0815185528882015189860152878201518189870152614a428287018261447f565b91505060608083015186830382880152614a5c838261447f565b9250505060808083015186830382880152614a77838261447f565b60a09485015115159790940196909652505094870194925090860190600101614a0c565b509098975050505050505050565b602080825260139082015272151bdbdb08191bd95cc81b9bdd08195e1a5cdd606a1b604082015260600190565b634e487b7160e01b600052603260045260246000fd5b6020808252601c908201527f5468652072656e74616c206973206e6f7420617661696c61626c652e00000000604082015260600190565b6020808252601f908201527f5468652072656e74616c2073746174757320697320696e636f72726563742e00604082015260600190565b6001600160a01b03958616815293851660208501529190931660408301526060820192909252608081019190915260a00190565b6001600160a01b0384168152606060208201819052600090614bb29083018561447f565b8281036040840152614bc4818561447f565b9695505050505050565b600060208284031215614be057600080fd5b81516143fa81614156565b600181811c90821680614bff57607f821691505b602082108103611b1557634e487b7160e01b600052602260045260246000fd5b601f821115614c6957600081815260208120601f850160051c81016020861015614c465750805b601f850160051c820191505b81811015614c6557828155600101614c52565b5050505b505050565b600019600383901b1c191660019190911b1790565b81516001600160401b03811115614c9c57614c9c614197565b614cb081614caa8454614beb565b84614c1f565b602080601f831160018114614cdf5760008415614ccd5750858301515b614cd78582614c6e565b865550614c65565b600085815260208120601f198616915b82811015614d0e57888601518255948401946001909101908401614cef565b5085821015614d2c5787850151600019600388901b60f8161c191681555b5050505050600190811b01905550565b600060018060a01b03808716835260806020840152614d5e608084018761447f565b94166040830152506060015292915050565b60208082526027908201527f596f7520617265206e6f7420746865206f776e6572206f662074686520636f6c6040820152663632b1ba34b7b760c91b606082015260800190565b6020808252601d908201527f596f7520646f6e2774206861766520616e7920636f6c6c656374696f6e000000604082015260600190565b634e487b7160e01b600052601160045260246000fd5b600060018201614e1657614e16614dee565b5060010190565b818103818111156108b8576108b8614dee565b634e487b7160e01b600052603160045260246000fd5b6020808252601f908201527f4d6178696d756d206e756d626572206f6620746f6f6c73207265616368656400604082015260600190565b818103614e88575050565b614e928254614beb565b6001600160401b03811115614ea957614ea9614197565b614eb781614caa8454614beb565b6000601f821160018114614ee55760008315614ed35750848201545b614edd8482614c6e565b855550614f4a565b600085815260209020601f19841690600086815260209020845b83811015614f1f5782860154825560019586019590910190602001614eff565b5085831015614f3d5781850154600019600388901b60f8161c191681555b50505060018360011b0184555b5050505050565b81835281816020850137506000828201602090810191909152601f909101601f19169091010190565b60a081526000614f8e60a08301888a614f51565b8660208401528281036040840152614fa6818761447f565b90508281036060840152614fba818661447f565b91505060018060a01b0383166080830152979650505050505050565b600060208284031215614fe857600080fd5b5051919050565b60208082526014908201527313dddb995c88191bd95cc81b9bdd08195e1a5cdd60621b604082015260600190565b6001600160a01b0387811682528681166020830152851660408201526060810184905260c0608082018190526000906150589083018561447f565b90508260a0830152979650505050505050565b6020808252602a908201527f50726f626c656d206f6e207468652072656e74657220616e6420746865206f6e604082015269652077686f2061736b7360b01b606082015260800190565b60208082526012908201527106e756d626572206d757374206265203e20360741b604082015260600190565b6001600160401b038311156150f8576150f8614197565b61510c836151068354614beb565b83614c1f565b6000601f84116001811461513a57600085156151285750838201355b6151328682614c6e565b845550614f4a565b600083815260209020601f19861690835b8281101561516b578685013582556020948501946001909201910161514b565b50868210156151885760001960f88860031b161c19848701351681555b505060018560011b0183555050505050565b600081546151a781614beb565b8085526020600183811680156151c457600181146151de5761520c565b60ff1985168884015283151560051b88018301955061520c565b866000528260002060005b858110156152045781548a82018601529083019084016151e9565b890184019650505b505050505092915050565b600061012060018060a01b038d1683528b60208401528a60408401528060608401526152458184018b61519a565b90508281036080840152615259818a61519a565b905082810360a084015261526e81888a614f51565b6001600160401b0396871660c08501529490951660e083015250610100015298975050505050505050565b600082601f8301126152aa57600080fd5b81516152b861424b82614205565b8181528460208386010111156152cd57600080fd5b613e0982602083016020870161445b565b8051801515811461441857600080fd5b6000602080838503121561530157600080fd5b82516001600160401b038082111561531857600080fd5b818501915085601f83011261532c57600080fd5b81518181111561533e5761533e614197565b8060051b61534d8582016141d5565b918252838101850191858101908984111561536757600080fd5b86860192505b8383101561544c5782518581111561538457600080fd5b860160c0818c03601f1901121561539b5760008081fd5b6153a36141ad565b8882015181526040808301518a830152606080840151898111156153c75760008081fd5b6153d58f8d83880101615299565b83850152506080915081840151898111156153f05760008081fd5b6153fe8f8d83880101615299565b82850152505060a080840151898111156154185760008081fd5b6154268f8d83880101615299565b838501525061543760c085016152de565b9083015250835250918601919086019061536d565b999850505050505050505056fea26469706673582212205eefd823caeda1d94209ce6e48f23c3a9f531ee97acf3f78b2f1d2268f4f6ecb64736f6c63430008130033",
  "immutableReferences": {},
  "source": "// SPDX-License-Identifier: MIT\npragma solidity 0.8.19;\n\nimport \"./IAnyRental.sol\";\nimport \"./IAnyNFTCollection.sol\";\nimport \"./AnyNFTCollection.sol\";\nimport \"./AnyNFTCollectionFactory.sol\";\nimport \"../node_modules/@openzeppelin/contracts/access/Ownable.sol\";\nimport \"./Utils.sol\";\n//import \"../node_modules/@ganache/console.log/console.sol\";\n\n/**\n * @title Rental Any  contract \n * @author https://github.com/gbesset\n * @notice contract to generate NFT of tool to locate, and manage the rental\n * @dev Implements NFT gneration, and rental process\n */\ncontract AnyRental is Ownable, IAnyRental{\n\n   using Counters for Counters.Counter;\n\n    AnyNFTCollectionFactory public factory;\n\n    Counters.Counter private rentalIds;\n\n\n    // mapping of  a user address to the rented tools\n    mapping (address => RentalReference) private userRentals;\n\n\n\n    // list of all the renters address\n    address[] rentersList;\n\n    // mapping of a renter address to its collection\n    mapping (address => CollectionNFT) private rentersCollection;\n    \n    // mapping of a renter address to its rentals\n    mapping (address => Rental[]) public rentersRentals;\n    uint256 public nbRentalMax = 20;\n\n\n\n    constructor(address _anyNFTFactory){\n        // Instantiate the Any NFT Factory from its address\n        factory = AnyNFTCollectionFactory(_anyNFTFactory);\n    }\n\n\n    /* ***********************************************\n    *   Modifiers \n    *********************************************** */\n\n    /**\n    * @dev Only renter can call\n    */\n\n    modifier onlyRentalOwner() {\n        require(rentersCollection[msg.sender].owner==msg.sender, \"You are not the owner of the collection\");\n        _;\n    }\n    \n    /**\n     * Owner exist if exist in mapping NFT or mapping rental \n    * @dev MUST exist int the both.... Except for creationCollection      \n     */\n    modifier ownerMustExist(address _owner) {\n        require(rentersCollection[_owner].collection != address(0), \"Owner does not exist\");\n        //require(rentersRentals[_owner].length>0, \"Owner does not exist\");\n        _;\n    }\n             \n\n\n\n    /* ***********************************************\n    *   Setters \n    *********************************************** */\n\n    function setNbRentalMax(uint _nb) external onlyOwner{\n        nbRentalMax = _nb;\n    }\n\n   \n\n    /* ***********************************************\n    *   Getters \n    *********************************************** */\n     /** \n     * @notice return the NFT Tools from a owner address\n     * @dev get collection from renter Address\n     * @return Tool[]  (NFT attributes)\n     */\n    function getToolsCollection(address _owner) ownerMustExist(_owner) external view returns(Utils.Tool[] memory){\n        //return factory._rentersCollection().tools();\n        IAnyNFTCollection collec = IAnyNFTCollection(rentersCollection[_owner].collection);\n        return collec.getTools();\n    }\n    /** \n     * @notice return the NFT Collection address from a owner address\n     * @dev get collection address a from owner Address\n     * @return address of the collection NFT\n     */\n    function getToolsCollectionAddress(address _owner) ownerMustExist(_owner) external view returns(address){\n        return rentersCollection[_owner].collection;\n    }\n    \n    /*function getCollections()external view returns(Utils.Tool[] memory){\n        // pour toutes les addresses\n        // concatener les collections\n        // renvoyer l'ensemble\n        //ou en js appeler les differentes collections pour les addresses..?\n    }*/\n\n\n    /** \n     * @notice return the Rentals Owners\n     * @dev get owners \n     * @return address[]\n     */\n    function getRentalsOwner() external view returns(address[] memory){\n        return rentersList;\n    }\n\n    /** \n     * @notice return the Rentals from a owner address\n     * @dev get rentals array from an owner address\n     * @return Rental[]\n     */\n    function getRentalsByOwner(address _owner) ownerMustExist(_owner) external view returns(Rental[] memory){\n        return rentersRentals[_owner];\n    }\n\n    /** \n     * @notice return the Rental by the owner address and rentalId\n     * @dev return a rental from an address and a rentalID\n     * @return Rental \n     */\n    function getRentalByOwnerAddressAndRentalID(address _owner, uint _rentalId) ownerMustExist(_owner) external view returns(Rental memory){\n        uint found;\n         for(uint i; i< rentersRentals[_owner].length; i++){\n            if(rentersRentals[_owner][i].rentalID == _rentalId){\n                 found=i;\n                 break;\n            }   \n        }\n        return rentersRentals[_owner][found];\n    }\n        function getRentalIndexByOwnerAddressAndRentalID(address _owner, uint _rentalId) ownerMustExist(_owner) internal view returns(uint){\n        uint found;\n         for(uint i; i< rentersRentals[_owner].length; i++){\n            if(rentersRentals[_owner][i].rentalID == _rentalId){\n                 found=i;\n                 break;\n            }   \n        }\n        return found;\n    }\n\n        /** \n     * @notice return the Rental by rentalId\n     * @dev Compexity not good. Added because trouble for the front in the last day...\n     * @return Rental \n     */\n    function getRentalByRentalID( uint _rentalId) external view returns(Rental memory){\n        uint found;\n        address foundOw;\n        for(uint r; r<rentersList.length; r++){\n            address ow = rentersList[r];\n            for(uint i; i< rentersRentals[ow].length; i++){\n                if(rentersRentals[ow][i].rentalID == _rentalId){\n                     found=i;\n                     foundOw=ow;\n                    break;\n                }   \n            }\n        }\n        return rentersRentals[foundOw][found];\n    }\n\n    function getRentalIndexByOwnerAddressAndTokenID(address _owner, uint _tokenId) ownerMustExist(_owner) internal view returns(uint){\n        uint found;\n         for(uint i; i< rentersRentals[_owner].length; i++){\n            if(rentersRentals[_owner][i].tokenID == _tokenId){\n                 found=i;\n                 break;\n            }   \n        }\n        return found;\n    }\n\n    /** \n     * @notice return a Rental by the  rentalId\n     * @dev Internal ! very bad complexity.... don't use often !\n     * @return Rental \n     */\n    /* function getRentalByRentalId(uint _rentalId) internal view returns(Rental memory){\n        Rental memory rentalFound;\n         for(uint i; i< rentersList.length; i++){\n            Rental[] memory rentalsTmp = rentersRentals[rentersList[i]];\n            for(uint j; j<rentalsTmp.length; j++){\n                if(rentalsTmp[j].rentalID == _rentalId){\n                     rentalFound=rentalsTmp[j];\n                    break;\n                }\n            }   \n        }\n        return rentalFound;\n     }*/\n    \n    /**\n    * @notice return if the address is defined as an owner\n    * @dev return it th address is an entry in the map\n     */\n    function isAddressOwner(address _renter) public view returns(bool) {\n        return rentersCollection[_renter].owner != address(0);\n    }\n\n    /**\n    * @notice return if the address is defined as an renter\n    * @dev return it the address has some rentals in the map\n     */\n    function isAddressRenter(address _renter) public view returns(bool) {\n        return userRentals[_renter].collection != address(0);\n    }\n\n\n\n    /* ***********************************************\n    *   Functions  - NFT Managment\n    *********************************************** */\n    /**\n     * @notice Create the NFT Collection of a renter\n     * @return collectionCreated : colletion address deployed\n     */\n    function createCollection(string memory _collectionName, string memory _collectionSymbol) external returns(address){\n        require(msg.sender != address(0), \"address zero is not valid\");\n        require(rentersCollection[msg.sender].collection==address(0), \"You already have created your collection\");\n        require(!Utils.isEqualString(_collectionName,\"\"), \"collection name can't be empty\");\n\n         address collectionAddress = factory.createAnyNFTCollection(msg.sender, _collectionName, _collectionSymbol);\n         //AnyNFTCollection collectionCreated = AnyNFTCollection(collectionAddress);\n\n        // update Renters Collection\n        rentersCollection[msg.sender].collection = collectionAddress;\n        rentersCollection[msg.sender].owner =  msg.sender;\n        rentersCollection[msg.sender].name=_collectionName;\n        rentersCollection[msg.sender].symbol=_collectionSymbol;\n\n        //update the list of renters\n        rentersList.push(msg.sender);\n\n        emit NFTCollectionCreated(msg.sender, _collectionName , collectionAddress, block.timestamp);\n        \n        return collectionAddress;\n    }\n\n    /**\n     * @notice renter delete its NFT Collection of a\n     */\n    function deleteCollection() external onlyRentalOwner{\n        require(msg.sender != address(0), \"address zero is not valid\");\n        require(rentersCollection[msg.sender].collection!=address(0), \"You don't have any collection\");\n      \n        AnyNFTCollection collec = AnyNFTCollection(rentersCollection[msg.sender].collection);\n\n        uint id;\n         for (uint i; i < rentersList.length; i++) {\n            if(rentersList[i] == msg.sender){\n                id=i;\n                break;\n            }\n        }\n\n        //delete element in list of renters\n        rentersList[id] = rentersList[rentersList.length-1];\n        rentersList.pop();\n\n        //delete rentals in mapping \n        delete rentersCollection[msg.sender];\n        /*\n        //TODO supprimer l'instance en transfrant au pralbale les fonds prsents....\n        selfdestruct(collec);\n       */\n        emit NFTCollectionDeleted(msg.sender , address(collec), block.timestamp);\n\n    }\n\n\n    function addToolToCollection(string calldata _tokenURI, uint _serialId, string memory _title, string memory _description ) external onlyRentalOwner returns(uint tokenId){\n        require(rentersCollection[msg.sender].collection!=address(0), \"You don't have any collection\");\n        require(rentersRentals[msg.sender].length < nbRentalMax, \"Maximum number of tools reached\");\n        \n        IAnyNFTCollection collec = IAnyNFTCollection(rentersCollection[msg.sender].collection);\n        uint256 tokenID = collec.mint(_tokenURI, _serialId, _title, _description, msg.sender);\n\n        uint newRentalIds = rentalIds.current();\n        Rental memory rental;\n        CollectionNFT memory collecNFT;\n        collecNFT.collection = rentersCollection[msg.sender].collection;\n        collecNFT.owner = rentersCollection[msg.sender].owner;\n\n        rental.rentalID = newRentalIds;\n        rental.title=_title;\n        rental.description=_description;\n        rental.collection = collecNFT;\n\n        rental.tokenID = tokenID;\n        rentalIds.increment();\n\n        rentersRentals[msg.sender].push(rental);\n\n        emit NFTToolAddedToCollection(msg.sender, rentersCollection[msg.sender].collection, tokenID, block.timestamp);\n        return tokenID;\n    }\n\n      /**\n     * @dev delegate the NFT to a user . onlyRentalOwner\n     */\n    function delegateNFT(uint _tokenId, address _to, uint64 _expires) external onlyRentalOwner {\n        require(rentersCollection[msg.sender].collection!=address(0), \"You don't have any collection\");\n        require(rentersCollection[msg.sender].owner==msg.sender, \"You are not the owner of the collection\");\n\n        \n        //Si pas de approve passer par I\n         AnyNFTCollection collec = AnyNFTCollection(rentersCollection[msg.sender].collection);\n        \n        //collec.approve(msg.sender, _tokenId);\n         collec.rentTool(_tokenId, _to, _expires, msg.sender);\n\n        emit RentalNFTToolDelegated(msg.sender, _to, rentersCollection[msg.sender].collection, _tokenId, block.timestamp);\n    }\n\n\n    /* ***********************************************\n    *   Functions  - Rental Managment\n    *********************************************** */\n\n    function addToolToRentals(string calldata _tokenImgURI, uint64 _dayPrice, uint64 _caution, uint _tokenID) external onlyRentalOwner {\n        require(rentersCollection[msg.sender].collection!=address(0), \"You don't have any collection\");\n        require(rentersRentals[msg.sender].length < nbRentalMax, \"Maximum number of tools reached\");\n        require(_dayPrice > 0, \"number must be > 0\");\n        require(_caution > 0, \"number must be > 0\");\n\n\n        //All rentalData.is* false by default\n        RentalData memory rentalData;\n\n        uint found = getRentalIndexByOwnerAddressAndTokenID(msg.sender, _tokenID);\n        Rental storage rental = rentersRentals[msg.sender][found];\n  \n        rental.tokenImgURI = _tokenImgURI;\n        rental.dayPrice =_dayPrice;\n        rental.caution = _caution;\n        rental.rentalStatus = RentalStatus.AVAILABLE;\n        rental.rentalData = rentalData;\n                \n        emit ToolAddedToRentals(msg.sender, rental.rentalID , rental.tokenID, rental.title, rental.description, _tokenImgURI, _dayPrice, _caution, block.timestamp);\n    }\n\n     /**\n     * @dev update a tool into collection . onlyRentalOwner\n     */\n     function updateToolIntoRentals(uint _rentalID, uint64 _dayPrice, uint64 _caution) external onlyRentalOwner{\n        require(rentersCollection[msg.sender].collection!=address(0), \"You don't have any collection\");\n        require(_dayPrice > 0, \"number must be > 0\");\n        require(_caution > 0, \"number must be > 0\");\n\n        for(uint i; i< rentersRentals[msg.sender].length; i++){\n            if(rentersRentals[msg.sender][i].rentalID == _rentalID){\n                 rentersRentals[msg.sender][i].dayPrice = _dayPrice;\n                 rentersRentals[msg.sender][i].caution = _caution;\n                 break;\n            }   \n        }\n\n        emit ToolUpdatedFromRentals(msg.sender, _rentalID, block.timestamp);\n     }\n      /**\n     * @dev delete a tool into collection . onlyRentalOwner\n     */\n     function deleteToolIntoRentals(uint _rentalID) external onlyRentalOwner{\n         require(rentersCollection[msg.sender].collection!=address(0), \"You don't have any collection\");\n        require(rentersRentals[msg.sender].length < nbRentalMax, \"Maximum number of tools reached\");\n        \n        uint id;\n        for(uint i; i< rentersRentals[msg.sender].length; i++){\n            if(rentersRentals[msg.sender][i].rentalID == _rentalID){\n                id = i;\n                 break;\n            }   \n        }\n        rentersRentals[msg.sender][id] = rentersRentals[msg.sender][rentersRentals[msg.sender].length-1];\n        rentersRentals[msg.sender].pop();\n         \n        emit ToolDeletedFromRentals(msg.sender, _rentalID, block.timestamp);\n     }\n\n\n /**\n     * @notice user send the location and caution which in order to ask for the rental of a Rental\n     * - the caution and location is secured until\n     * @dev user send caution and location price for rent a Rental\n     */\n     function sendPaiementForRental(address _owner, uint _rentalID, uint64 _begin, uint64 _end) ownerMustExist(_owner) external{\n         require(rentalIds.current() >= _rentalID, \"Tool does not exist\");\n         require(_begin > 0, \"begin must be a valid date\");\n         require(_end > 0, \"end must be a valid date\");\n         require(_begin < _end, \"End of rental can't be before begin\");\n\n         uint found = getRentalIndexByOwnerAddressAndRentalID(_owner, _rentalID);\n         Rental storage rental = rentersRentals[_owner][found];\n         require(rental.rentalID == _rentalID, \"The rental is not available.\");\n         require(rental.rentalStatus == RentalStatus.AVAILABLE, \"The rental status is incorrect.\");\n        \n        //gestion caution et paiement\n     \n        rental.start = _begin;\n        rental.end = _end;\n        rental.rentalStatus = RentalStatus.RENTAL_REQUESTED;\n        rental.rentalData.isCautionDeposed = true;\n        rental.renter = msg.sender;\n\n         emit RentalRequested(rental.collection.owner, msg.sender,  rental.collection.collection, rental.tokenID, block.timestamp);\n     }\n\n   /**\n     * @notice renter delegate the NFT in order to validate the rental asking\n     * - the caution and location is still secured\n     * @dev renter validate the delagation of the NFT\n     */\n     function validateNFTDelegationForRental(uint _rentalID, uint _tokenID) ownerMustExist(msg.sender)  external{\n         require(rentalIds.current() >= _rentalID, \"Tool does not exist\");\n         require(_tokenID > 0, \"token ID must be valid\");\n\n\n        uint found = getRentalIndexByOwnerAddressAndRentalID(msg.sender, _rentalID);\n        Rental storage rental = rentersRentals[msg.sender][found];\n        require(rental.rentalID == _rentalID, \"The rental is not available.\");\n        require(rental.tokenID == _tokenID, \"Error... the tokenId isn't the correct one.\");\n        require(rental.rentalStatus == RentalStatus.RENTAL_REQUESTED, \"The rental status is incorrect.\");\n        \n        rental.rentalStatus = RentalStatus.RENTAL_ACCEPTED_NFT_SENT;\n        rental.rentalData.isNFTDelegated = true;\n        \n        emit RentalAccepted(rental.collection.owner, rental.renter,  rental.collection.collection, rental.tokenID, block.timestamp);\n     }   \n\n\n    /**\n     * @notice user get the tool in real life, has the NFT and valiate the transaction\n     * - the caution is still secured, the location is payed\n     * @dev user validate having the NFT, annd receipt the tool\n     */\n     function validateNFTandToolReception(address _owner, uint _rentalID) ownerMustExist(_owner)  external{\n         require(rentalIds.current() >= _rentalID, \"Tool does not exist\");\n \n        uint found = getRentalIndexByOwnerAddressAndRentalID(_owner, _rentalID);\n        Rental storage rental = rentersRentals[_owner][found];\n        require(rental.rentalID == _rentalID, \"The rental is not available.\");\n        require(rental.renter==msg.sender, \"Problem on the renter and the one who asks\");\n        require(rental.rentalStatus == RentalStatus.RENTAL_ACCEPTED_NFT_SENT, \"The rental status is incorrect.\");\n        \n        rental.rentalStatus = RentalStatus.VALIDATE_RECEIPT_PAYMENT;\n\n        //TODO mettre le tool is availabe a false dans Collection\n        \n        emit RentalNFTToolDelegated(rental.collection.owner, rental.renter,  rental.collection.collection, rental.tokenID, block.timestamp);\n\n     }\n\n    /**\n     * @notice user give back the tool at the end of renting\n     * - the caution is still secured, the location is already payed\n     * @dev user give bak the tool\n     */\n     function giveBackToolAfterRental(address _owner, uint _rentalID) ownerMustExist(_owner) external{\n        require(rentalIds.current() >= _rentalID, \"Tool does not exist\");\n\n        uint found = getRentalIndexByOwnerAddressAndRentalID(_owner, _rentalID);\n        Rental storage rental = rentersRentals[_owner][found];\n        require(rental.rentalID == _rentalID, \"The rental is not available.\");\n        require(rental.renter==msg.sender, \"Problem on the renter and the one who asks\");\n        require(rental.rentalStatus == RentalStatus.VALIDATE_RECEIPT_PAYMENT, \"The rental status is incorrect.\");\n        \n        rental.rentalStatus = RentalStatus.COMPLETED_USER;\n        rental.rentalData.isToolReturned = true;\n\n        //TODO mettre le tool is availabe a truue dans Collection\n        \n        emit RentalCompletedByUser(rental.collection.owner, msg.sender,  rental.collection.collection, rental.tokenID, block.timestamp);\n\n     }  \n     \n    /**\n     * @notice renter validate the return of the tool\n     * - the caution is given back\n     * @dev renter validae the return of the tool\n     */\n     function validateReturnToolAfterRental(uint _rentalID) ownerMustExist(msg.sender)  external{\n        require(rentalIds.current() >= _rentalID, \"Tool does not exist\");\n\n        uint found = getRentalIndexByOwnerAddressAndRentalID(msg.sender, _rentalID);\n        Rental storage rental = rentersRentals[msg.sender][found];\n        require(rental.rentalID == _rentalID, \"The rental is not available.\");\n        require(rental.rentalStatus == RentalStatus.COMPLETED_USER, \"The rental status is incorrect.\");\n        \n        rental.rentalStatus = RentalStatus.RETURN_ACCEPTED_BY_OWNER;\n        rental.rentalData.isReturnValidated = true;\n        \n        emit RentalCompletedByRenter(rental.collection.owner, rental.renter,  rental.collection.collection, rental.tokenID, block.timestamp);\n\n     } \n\n    /**\n     * @notice renter doens't validate the return of the tool. Problem. dispute creation\n     * - the caution still secured\n     * @dev renter doesn't validate the return of the tool, because of a problem\n     */\n     function refuseReturnToolAfterRental(uint _rentalID, string memory message)ownerMustExist(msg.sender)  external{\n        require(rentalIds.current() >= _rentalID, \"Tool does not exist\");\n\n        uint found = getRentalIndexByOwnerAddressAndRentalID(msg.sender, _rentalID);\n        Rental storage rental = rentersRentals[msg.sender][found];\n        require(rental.rentalID == _rentalID, \"The rental is not available.\");\n        require(rental.rentalStatus == RentalStatus.COMPLETED_USER, \"The rental status is incorrect.\");\n        \n        rental.rentalStatus = RentalStatus.DISPUTE;\n        rental.rentalData.isToolReturned = true;\n        rental.rentalData.isDispute = true;\n        \n        emit RentalDisputeCreated(rental.collection.owner, rental.renter,  rental.collection.collection, rental.tokenID, message, block.timestamp);\n\n     }\n\n    /**\n     * @notice user confirm dispute and expose its point of view\n     * - the caution still secured\n     * @dev user confirm dispute and expose its point of view\n     */\n     function confirmDisputeAfterRental(address _renter, uint _rentalID, string memory message)ownerMustExist(_renter)  external{\n         require(rentalIds.current() >= _rentalID, \"Tool does not exist\");\n\n        uint found = getRentalIndexByOwnerAddressAndRentalID(_renter, _rentalID);\n        Rental storage rental = rentersRentals[_renter][found];\n        require(rental.rentalID == _rentalID, \"The rental is not available.\");\n        require(rental.renter==msg.sender, \"Problem on the renter and thr one who asks\");\n        require(rental.rentalStatus == RentalStatus.DISPUTE, \"The rental status is incorrect.\");\n               \n        rental.rentalData.isDisputeConfirmed = true;\n\n        emit RentalDisputelConfirmedByUser(rental.collection.owner, msg.sender,  rental.collection.collection, rental.tokenID, message, block.timestamp);\n\n     }\n\n    /**\n     * @notice user redeem its caution or caution and location\n     * - the caution is given back at the end of rental or because the renter refuse the rental\n     * @dev user redeem its caution\n     */\n     function redeemPaymentForRental(address _renter, uint _rentalID) external{\n         require(rentalIds.current() >= _rentalID, \"Tool does not exist\");\n\n        uint found = getRentalIndexByOwnerAddressAndRentalID(_renter, _rentalID);\n        Rental storage rental = rentersRentals[_renter][found];\n        require(rental.rentalID == _rentalID, \"The rental is not available.\");\n        require(rental.rentalStatus == RentalStatus.RETURN_ACCEPTED_BY_OWNER, \"The rental status is incorrect.\");\n        \n        // recuperer sa caution\n       \n\n        rental.rentalStatus = RentalStatus.RENTAL_ENDED;\n        rental.rentalData.isRedeemed = true;\n        rental.rentalData.isCautionDeposed = false;\n        \n        emit RentalEnded(rental.collection.owner, msg.sender,  rental.collection.collection, rental.tokenID, block.timestamp);\n\n     }  \n\n\n  \n  \n}\n",
  "sourcePath": "/Users/gbesset/wks/learning/web3/alyra_projetFinal_LocaTool_AnythingNearYou/truffle/contracts/AnyRental.sol",
  "compiler": {
    "name": "solc",
    "version": "0.8.19+commit.7dd6d404.Emscripten.clang"
  },
  "schemaVersion": "3.4.11",
  "updatedAt": "2023-04-07T19:47:08.060Z",
  "networkType": "ethereum",
  "devdoc": {
    "author": "https://github.com/gbesset",
    "details": "Implements NFT gneration, and rental process",
    "events": {
      "NFTCollectionCreated(address,string,address,uint256)": {
        "details": "Emitted when a renter create its NFT Collection. give RenterAddress, CollectionName, CollectionAddress, timestamp"
      },
      "NFTCollectionDeleted(address,address,uint256)": {
        "details": "Emitted when a renter delete its NFT Collection. give RenterAddress, CollectionName, CollectionAddress, timestamp"
      },
      "NFTToolAddedToCollection(address,address,uint256,uint256)": {
        "details": "Emitted when a renter add a tool to its NFT Collection."
      },
      "RentalAccepted(address,address,address,uint256,uint256)": {
        "details": "Emitted when a renter accept to rent its tool"
      },
      "RentalCompletedByRenter(address,address,address,uint256,uint256)": {
        "details": "Emitted when a renter accept thereturn of the tool"
      },
      "RentalCompletedByUser(address,address,address,uint256,uint256)": {
        "details": "Emitted when a user give back the tool"
      },
      "RentalDisputeCreated(address,address,address,uint256,string,uint256)": {
        "details": "Emitted when a renter doensn't accept the return of the tool"
      },
      "RentalDisputeSolved(address,address,address,uint256,string,uint256)": {
        "details": "Emitted when a renter doensn't accept the return of the tool"
      },
      "RentalDisputelConfirmedByUser(address,address,address,uint256,string,uint256)": {
        "details": "Emitted when a renter doensn't accept the return of the tool"
      },
      "RentalEnded(address,address,address,uint256,uint256)": {
        "details": "Emitted when a renter redeem its causion and end the rental of the tool"
      },
      "RentalExtended(address,address,address,uint256,uint256,uint256)": {
        "details": "Emitted when a user ask to extznd the rental duration"
      },
      "RentalRejected(address,address,address,uint256,uint256)": {
        "details": "Emitted when a renter doesn't accept to rent its tool"
      },
      "RentalRequested(address,address,address,uint256,uint256)": {
        "details": "Emitted when a user ask to rent a tool from a collection"
      },
      "ToolAddedToRentals(address,uint256,uint256,string,string,string,uint256,uint256,uint256)": {
        "details": "Emitted when a renter add a tool to its NFT Collection."
      },
      "ToolDeletedFromRentals(address,uint256,uint256)": {
        "details": "Emitted when a renter delete a tool into its NFT Collection."
      },
      "ToolUpdatedFromRentals(address,uint256,uint256)": {
        "details": "Emitted when a renter aduptate a tool to its NFT Collection."
      }
    },
    "kind": "dev",
    "methods": {
      "addToolToCollection(string,uint256,string,string)": {
        "details": "add a tool to collection . onlyRenter"
      },
      "addToolToRentals(string,uint64,uint64,uint256)": {
        "details": "add a tool to collection . onlyRenter"
      },
      "confirmDisputeAfterRental(address,uint256,string)": {
        "details": "user confirm dispute and expose its point of view"
      },
      "createCollection(string,string)": {
        "returns": {
          "_0": "collectionCreated : colletion address deployed"
        }
      },
      "delegateNFT(uint256,address,uint64)": {
        "details": "delegate the NFT to a user . onlyRentalOwner"
      },
      "deleteToolIntoRentals(uint256)": {
        "details": "delete a tool into collection . onlyRentalOwner"
      },
      "getRentalByOwnerAddressAndRentalID(address,uint256)": {
        "details": "return a rental from an address and a rentalID",
        "returns": {
          "_0": "Rental "
        }
      },
      "getRentalByRentalID(uint256)": {
        "details": "Compexity not good. Added because trouble for the front in the last day...",
        "returns": {
          "_0": "Rental "
        }
      },
      "getRentalsByOwner(address)": {
        "details": "get rentals array from an owner address",
        "returns": {
          "_0": "Rental[]"
        }
      },
      "getRentalsOwner()": {
        "details": "get owners ",
        "returns": {
          "_0": "address[]"
        }
      },
      "getToolsCollection(address)": {
        "details": "get collection from renter Address",
        "returns": {
          "_0": "Tool[]  (NFT attributes)"
        }
      },
      "getToolsCollectionAddress(address)": {
        "details": "get collection address a from owner Address",
        "returns": {
          "_0": "address of the collection NFT"
        }
      },
      "giveBackToolAfterRental(address,uint256)": {
        "details": "user give bak the tool"
      },
      "isAddressOwner(address)": {
        "details": "return it th address is an entry in the map"
      },
      "isAddressRenter(address)": {
        "details": "return it the address has some rentals in the map"
      },
      "owner()": {
        "details": "Returns the address of the current owner."
      },
      "redeemPaymentForRental(address,uint256)": {
        "details": "user redeem its caution"
      },
      "refuseReturnToolAfterRental(uint256,string)": {
        "details": "renter doesn't validate the return of the tool, because of a problem"
      },
      "renounceOwnership()": {
        "details": "Leaves the contract without owner. It will not be possible to call `onlyOwner` functions anymore. Can only be called by the current owner. NOTE: Renouncing ownership will leave the contract without an owner, thereby removing any functionality that is only available to the owner."
      },
      "sendPaiementForRental(address,uint256,uint64,uint64)": {
        "details": "user send caution and location price for rent a Rental"
      },
      "transferOwnership(address)": {
        "details": "Transfers ownership of the contract to a new account (`newOwner`). Can only be called by the current owner."
      },
      "updateToolIntoRentals(uint256,uint64,uint64)": {
        "details": "update a tool into collection . onlyRentalOwner"
      },
      "validateNFTDelegationForRental(uint256,uint256)": {
        "details": "renter validate the delagation of the NFT"
      },
      "validateNFTandToolReception(address,uint256)": {
        "details": "user validate having the NFT, annd receipt the tool"
      },
      "validateReturnToolAfterRental(uint256)": {
        "details": "renter validae the return of the tool"
      }
    },
    "title": "Rental Any  contract ",
    "version": 1
  },
  "userdoc": {
    "kind": "user",
    "methods": {
      "confirmDisputeAfterRental(address,uint256,string)": {
        "notice": "user confirm dispute and expose its point of view - the caution still secured"
      },
      "createCollection(string,string)": {
        "notice": "Create the NFT Collection of a renter"
      },
      "deleteCollection()": {
        "notice": "renter delete its NFT Collection of a"
      },
      "getRentalByOwnerAddressAndRentalID(address,uint256)": {
        "notice": "return the Rental by the owner address and rentalId"
      },
      "getRentalByRentalID(uint256)": {
        "notice": "return the Rental by rentalId"
      },
      "getRentalsByOwner(address)": {
        "notice": "return the Rentals from a owner address"
      },
      "getRentalsOwner()": {
        "notice": "return the Rentals Owners"
      },
      "getToolsCollection(address)": {
        "notice": "return the NFT Tools from a owner address"
      },
      "getToolsCollectionAddress(address)": {
        "notice": "return the NFT Collection address from a owner address"
      },
      "giveBackToolAfterRental(address,uint256)": {
        "notice": "user give back the tool at the end of renting - the caution is still secured, the location is already payed"
      },
      "isAddressOwner(address)": {
        "notice": "return if the address is defined as an owner"
      },
      "isAddressRenter(address)": {
        "notice": "return if the address is defined as an renter"
      },
      "redeemPaymentForRental(address,uint256)": {
        "notice": "user redeem its caution or caution and location - the caution is given back at the end of rental or because the renter refuse the rental"
      },
      "refuseReturnToolAfterRental(uint256,string)": {
        "notice": "renter doens't validate the return of the tool. Problem. dispute creation - the caution still secured"
      },
      "sendPaiementForRental(address,uint256,uint64,uint64)": {
        "notice": "user send the location and caution which in order to ask for the rental of a Rental - the caution and location is secured until"
      },
      "validateNFTDelegationForRental(uint256,uint256)": {
        "notice": "renter delegate the NFT in order to validate the rental asking - the caution and location is still secured"
      },
      "validateNFTandToolReception(address,uint256)": {
        "notice": "user get the tool in real life, has the NFT and valiate the transaction - the caution is still secured, the location is payed"
      },
      "validateReturnToolAfterRental(uint256)": {
        "notice": "renter validate the return of the tool - the caution is given back"
      }
    },
    "notice": "contract to generate NFT of tool to locate, and manage the rental",
    "version": 1
  }
}