{
  "contractName": "ERC4907",
  "abi": [
    {
      "inputs": [
        {
          "internalType": "string",
          "name": "name_",
          "type": "string"
        },
        {
          "internalType": "string",
          "name": "symbol_",
          "type": "string"
        }
      ],
      "stateMutability": "nonpayable",
      "type": "constructor"
    },
    {
      "anonymous": false,
      "inputs": [
        {
          "indexed": true,
          "internalType": "address",
          "name": "owner",
          "type": "address"
        },
        {
          "indexed": true,
          "internalType": "address",
          "name": "approved",
          "type": "address"
        },
        {
          "indexed": true,
          "internalType": "uint256",
          "name": "tokenId",
          "type": "uint256"
        }
      ],
      "name": "Approval",
      "type": "event"
    },
    {
      "anonymous": false,
      "inputs": [
        {
          "indexed": true,
          "internalType": "address",
          "name": "owner",
          "type": "address"
        },
        {
          "indexed": true,
          "internalType": "address",
          "name": "operator",
          "type": "address"
        },
        {
          "indexed": false,
          "internalType": "bool",
          "name": "approved",
          "type": "bool"
        }
      ],
      "name": "ApprovalForAll",
      "type": "event"
    },
    {
      "anonymous": false,
      "inputs": [
        {
          "indexed": true,
          "internalType": "address",
          "name": "from",
          "type": "address"
        },
        {
          "indexed": true,
          "internalType": "address",
          "name": "to",
          "type": "address"
        },
        {
          "indexed": true,
          "internalType": "uint256",
          "name": "tokenId",
          "type": "uint256"
        }
      ],
      "name": "Transfer",
      "type": "event"
    },
    {
      "anonymous": false,
      "inputs": [
        {
          "indexed": true,
          "internalType": "uint256",
          "name": "tokenId",
          "type": "uint256"
        },
        {
          "indexed": true,
          "internalType": "address",
          "name": "user",
          "type": "address"
        },
        {
          "indexed": false,
          "internalType": "uint64",
          "name": "expires",
          "type": "uint64"
        }
      ],
      "name": "UpdateDelegation",
      "type": "event"
    },
    {
      "inputs": [
        {
          "internalType": "address",
          "name": "to",
          "type": "address"
        },
        {
          "internalType": "uint256",
          "name": "tokenId",
          "type": "uint256"
        }
      ],
      "name": "approve",
      "outputs": [],
      "stateMutability": "nonpayable",
      "type": "function"
    },
    {
      "inputs": [
        {
          "internalType": "address",
          "name": "owner",
          "type": "address"
        }
      ],
      "name": "balanceOf",
      "outputs": [
        {
          "internalType": "uint256",
          "name": "",
          "type": "uint256"
        }
      ],
      "stateMutability": "view",
      "type": "function"
    },
    {
      "inputs": [
        {
          "internalType": "uint256",
          "name": "tokenId",
          "type": "uint256"
        }
      ],
      "name": "getApproved",
      "outputs": [
        {
          "internalType": "address",
          "name": "",
          "type": "address"
        }
      ],
      "stateMutability": "view",
      "type": "function"
    },
    {
      "inputs": [
        {
          "internalType": "address",
          "name": "owner",
          "type": "address"
        },
        {
          "internalType": "address",
          "name": "operator",
          "type": "address"
        }
      ],
      "name": "isApprovedForAll",
      "outputs": [
        {
          "internalType": "bool",
          "name": "",
          "type": "bool"
        }
      ],
      "stateMutability": "view",
      "type": "function"
    },
    {
      "inputs": [],
      "name": "name",
      "outputs": [
        {
          "internalType": "string",
          "name": "",
          "type": "string"
        }
      ],
      "stateMutability": "view",
      "type": "function"
    },
    {
      "inputs": [
        {
          "internalType": "uint256",
          "name": "tokenId",
          "type": "uint256"
        }
      ],
      "name": "ownerOf",
      "outputs": [
        {
          "internalType": "address",
          "name": "",
          "type": "address"
        }
      ],
      "stateMutability": "view",
      "type": "function"
    },
    {
      "inputs": [
        {
          "internalType": "address",
          "name": "from",
          "type": "address"
        },
        {
          "internalType": "address",
          "name": "to",
          "type": "address"
        },
        {
          "internalType": "uint256",
          "name": "tokenId",
          "type": "uint256"
        }
      ],
      "name": "safeTransferFrom",
      "outputs": [],
      "stateMutability": "nonpayable",
      "type": "function"
    },
    {
      "inputs": [
        {
          "internalType": "address",
          "name": "from",
          "type": "address"
        },
        {
          "internalType": "address",
          "name": "to",
          "type": "address"
        },
        {
          "internalType": "uint256",
          "name": "tokenId",
          "type": "uint256"
        },
        {
          "internalType": "bytes",
          "name": "data",
          "type": "bytes"
        }
      ],
      "name": "safeTransferFrom",
      "outputs": [],
      "stateMutability": "nonpayable",
      "type": "function"
    },
    {
      "inputs": [
        {
          "internalType": "address",
          "name": "operator",
          "type": "address"
        },
        {
          "internalType": "bool",
          "name": "approved",
          "type": "bool"
        }
      ],
      "name": "setApprovalForAll",
      "outputs": [],
      "stateMutability": "nonpayable",
      "type": "function"
    },
    {
      "inputs": [],
      "name": "symbol",
      "outputs": [
        {
          "internalType": "string",
          "name": "",
          "type": "string"
        }
      ],
      "stateMutability": "view",
      "type": "function"
    },
    {
      "inputs": [
        {
          "internalType": "uint256",
          "name": "tokenId",
          "type": "uint256"
        }
      ],
      "name": "tokenURI",
      "outputs": [
        {
          "internalType": "string",
          "name": "",
          "type": "string"
        }
      ],
      "stateMutability": "view",
      "type": "function"
    },
    {
      "inputs": [
        {
          "internalType": "address",
          "name": "from",
          "type": "address"
        },
        {
          "internalType": "address",
          "name": "to",
          "type": "address"
        },
        {
          "internalType": "uint256",
          "name": "tokenId",
          "type": "uint256"
        }
      ],
      "name": "transferFrom",
      "outputs": [],
      "stateMutability": "nonpayable",
      "type": "function"
    },
    {
      "inputs": [
        {
          "internalType": "uint256",
          "name": "tokenId",
          "type": "uint256"
        },
        {
          "internalType": "address",
          "name": "user",
          "type": "address"
        },
        {
          "internalType": "uint64",
          "name": "expires",
          "type": "uint64"
        }
      ],
      "name": "setUser",
      "outputs": [],
      "stateMutability": "nonpayable",
      "type": "function"
    },
    {
      "inputs": [
        {
          "internalType": "uint256",
          "name": "tokenId",
          "type": "uint256"
        }
      ],
      "name": "userOf",
      "outputs": [
        {
          "internalType": "address",
          "name": "",
          "type": "address"
        }
      ],
      "stateMutability": "view",
      "type": "function"
    },
    {
      "inputs": [
        {
          "internalType": "uint256",
          "name": "tokenId",
          "type": "uint256"
        }
      ],
      "name": "userExpires",
      "outputs": [
        {
          "internalType": "uint256",
          "name": "",
          "type": "uint256"
        }
      ],
      "stateMutability": "view",
      "type": "function"
    },
    {
      "inputs": [
        {
          "internalType": "bytes4",
          "name": "interfaceId",
          "type": "bytes4"
        }
      ],
      "name": "supportsInterface",
      "outputs": [
        {
          "internalType": "bool",
          "name": "",
          "type": "bool"
        }
      ],
      "stateMutability": "view",
      "type": "function"
    }
  ],
  "bytecode": "0x60806040523480156200001157600080fd5b50604051620017cd380380620017cd833981016040819052620000349162000123565b818160006200004483826200021c565b5060016200005382826200021c565b5050505050620002e8565b634e487b7160e01b600052604160045260246000fd5b600082601f8301126200008657600080fd5b81516001600160401b0380821115620000a357620000a36200005e565b604051601f8301601f19908116603f01168101908282118183101715620000ce57620000ce6200005e565b81604052838152602092508683858801011115620000eb57600080fd5b600091505b838210156200010f5785820183015181830184015290820190620000f0565b600093810190920192909252949350505050565b600080604083850312156200013757600080fd5b82516001600160401b03808211156200014f57600080fd5b6200015d8683870162000074565b935060208501519150808211156200017457600080fd5b50620001838582860162000074565b9150509250929050565b600181811c90821680620001a257607f821691505b602082108103620001c357634e487b7160e01b600052602260045260246000fd5b50919050565b601f8211156200021757600081815260208120601f850160051c81016020861015620001f25750805b601f850160051c820191505b818110156200021357828155600101620001fe565b5050505b505050565b81516001600160401b038111156200023857620002386200005e565b62000250816200024984546200018d565b84620001c9565b602080601f8311600181146200028857600084156200026f5750858301515b600019600386901b1c1916600185901b17855562000213565b600085815260208120601f198616915b82811015620002b95788860151825594840194600190910190840162000298565b5085821015620002d85787850151600019600388901b60f8161c191681555b5050505050600190811b01905550565b6114d580620002f86000396000f3fe608060405234801561001057600080fd5b50600436106101005760003560e01c80638fc88c4811610097578063c2f1f14a11610066578063c2f1f14a1461023b578063c87b56dd1461024e578063e030565e14610261578063e985e9c51461027457600080fd5b80638fc88c48146101dc57806395d89b411461020d578063a22cb46514610215578063b88d4fde1461022857600080fd5b806323b872dd116100d357806323b872dd1461018257806342842e0e146101955780636352211e146101a857806370a08231146101bb57600080fd5b806301ffc9a71461010557806306fdde031461012d578063081812fc14610142578063095ea7b31461016d575b600080fd5b610118610113366004611019565b6102b0565b60405190151581526020015b60405180910390f35b6101356102db565b6040516101249190611086565b610155610150366004611099565b61036d565b6040516001600160a01b039091168152602001610124565b61018061017b3660046110c9565b610394565b005b6101806101903660046110f3565b6104ae565b6101806101a33660046110f3565b6104df565b6101556101b6366004611099565b6104fa565b6101ce6101c936600461112f565b61055a565b604051908152602001610124565b6101ce6101ea366004611099565b600090815260076020526040902054600160a01b900467ffffffffffffffff1690565b6101356105e0565b61018061022336600461114a565b6105ef565b61018061023636600461119c565b6105fe565b610155610249366004611099565b610636565b61013561025c366004611099565b610686565b61018061026f366004611278565b610796565b6101186102823660046112c5565b6001600160a01b03918216600090815260056020908152604080832093909416825291909152205460ff1690565b60006001600160e01b03198216632b424ad760e21b14806102d557506102d582610889565b92915050565b6060600080546102ea906112f8565b80601f0160208091040260200160405190810160405280929190818152602001828054610316906112f8565b80156103635780601f1061033857610100808354040283529160200191610363565b820191906000526020600020905b81548152906001019060200180831161034657829003601f168201915b5050505050905090565b6000610378826108d9565b506000908152600460205260409020546001600160a01b031690565b600061039f826104fa565b9050806001600160a01b0316836001600160a01b0316036104115760405162461bcd60e51b815260206004820152602160248201527f4552433732313a20617070726f76616c20746f2063757272656e74206f776e656044820152603960f91b60648201526084015b60405180910390fd5b336001600160a01b038216148061042d575061042d8133610282565b61049f5760405162461bcd60e51b815260206004820152603d60248201527f4552433732313a20617070726f76652063616c6c6572206973206e6f7420746f60448201527f6b656e206f776e6572206f7220617070726f76656420666f7220616c6c0000006064820152608401610408565b6104a9838361093b565b505050565b6104b833826109a9565b6104d45760405162461bcd60e51b815260040161040890611332565b6104a9838383610a27565b6104a9838383604051806020016040528060008152506105fe565b6000818152600260205260408120546001600160a01b0316806102d55760405162461bcd60e51b8152602060048201526018602482015277115490cdcc8c4e881a5b9d985b1a59081d1bdad95b88125160421b6044820152606401610408565b60006001600160a01b0382166105c45760405162461bcd60e51b815260206004820152602960248201527f4552433732313a2061646472657373207a65726f206973206e6f7420612076616044820152683634b21037bbb732b960b91b6064820152608401610408565b506001600160a01b031660009081526003602052604090205490565b6060600180546102ea906112f8565b6105fa338383610b98565b5050565b61060833836109a9565b6106245760405162461bcd60e51b815260040161040890611332565b61063084848484610c66565b50505050565b60008181526007602052604081205442600160a01b90910467ffffffffffffffff161061067957506000908152600760205260409020546001600160a01b031690565b506000919050565b919050565b6060610691826108d9565b600082815260066020526040812080546106aa906112f8565b80601f01602080910402602001604051908101604052809291908181526020018280546106d6906112f8565b80156107235780601f106106f857610100808354040283529160200191610723565b820191906000526020600020905b81548152906001019060200180831161070657829003601f168201915b50505050509050600061074160408051602081019091526000815290565b90508051600003610753575092915050565b81511561078557808260405160200161076d92919061137f565b60405160208183030381529060405292505050919050565b61078e84610c99565b949350505050565b6107a033846109a9565b6108075760405162461bcd60e51b815260206004820152603260248201527f455243343930373a207472616e736665722063616c6c6572206973206e6f74206044820152711bdddb995c881b9bdc88185c1c1c9bdd995960721b6064820152608401610408565b60008381526007602090815260409182902080546001600160a01b0386166001600160e01b03199091168117600160a01b67ffffffffffffffff871690810291909117835593519384529092909186917f85d68432e09ec91928b8ec8b2c2337e2c9870d2268132024c8ea65c46eefeef891015b60405180910390a350505050565b60006001600160e01b031982166380ac58cd60e01b14806108ba57506001600160e01b03198216635b5e139f60e01b145b806102d557506301ffc9a760e01b6001600160e01b03198316146102d5565b6000818152600260205260409020546001600160a01b03166109385760405162461bcd60e51b8152602060048201526018602482015277115490cdcc8c4e881a5b9d985b1a59081d1bdad95b88125160421b6044820152606401610408565b50565b600081815260046020526040902080546001600160a01b0319166001600160a01b0384169081179091558190610970826104fa565b6001600160a01b03167f8c5be1e5ebec7d5bd14f71427d1e84f3dd0314c0f7b2291e5b200ac8c7c3b92560405160405180910390a45050565b6000806109b5836104fa565b9050806001600160a01b0316846001600160a01b031614806109fc57506001600160a01b0380821660009081526005602090815260408083209388168352929052205460ff165b8061078e5750836001600160a01b0316610a158461036d565b6001600160a01b031614949350505050565b826001600160a01b0316610a3a826104fa565b6001600160a01b031614610a605760405162461bcd60e51b8152600401610408906113ae565b6001600160a01b038216610ac25760405162461bcd60e51b8152602060048201526024808201527f4552433732313a207472616e7366657220746f20746865207a65726f206164646044820152637265737360e01b6064820152608401610408565b610acf8383836001610d0d565b826001600160a01b0316610ae2826104fa565b6001600160a01b031614610b085760405162461bcd60e51b8152600401610408906113ae565b600081815260046020908152604080832080546001600160a01b03199081169091556001600160a01b0387811680865260038552838620805460001901905590871680865283862080546001019055868652600290945282852080549092168417909155905184937fddf252ad1be2c89b69c2b068fc378daa952ba7f163c4a11628f55a4df523b3ef91a4505050565b816001600160a01b0316836001600160a01b031603610bf95760405162461bcd60e51b815260206004820152601960248201527f4552433732313a20617070726f766520746f2063616c6c6572000000000000006044820152606401610408565b6001600160a01b03838116600081815260056020908152604080832094871680845294825291829020805460ff191686151590811790915591519182527f17307eab39ab6107e8899845ad3d59bd9653f200f220920489ca2b5937696c31910160405180910390a3505050565b610c71848484610a27565b610c7d84848484610d97565b6106305760405162461bcd60e51b8152600401610408906113f3565b6060610ca4826108d9565b6000610cbb60408051602081019091526000815290565b90506000815111610cdb5760405180602001604052806000815250610d06565b80610ce584610e98565b604051602001610cf692919061137f565b6040516020818303038152906040525b9392505050565b826001600160a01b0316846001600160a01b031614158015610d4557506000828152600760205260409020546001600160a01b031615155b1561063057600082815260076020908152604080832080546001600160e01b03191690555182815284917f85d68432e09ec91928b8ec8b2c2337e2c9870d2268132024c8ea65c46eefeef8910161087b565b60006001600160a01b0384163b15610e8d57604051630a85bd0160e11b81526001600160a01b0385169063150b7a0290610ddb903390899088908890600401611445565b6020604051808303816000875af1925050508015610e16575060408051601f3d908101601f19168201909252610e1391810190611482565b60015b610e73573d808015610e44576040519150601f19603f3d011682016040523d82523d6000602084013e610e49565b606091505b508051600003610e6b5760405162461bcd60e51b8152600401610408906113f3565b805181602001fd5b6001600160e01b031916630a85bd0160e11b14905061078e565b506001949350505050565b60606000610ea583610f2b565b600101905060008167ffffffffffffffff811115610ec557610ec5611186565b6040519080825280601f01601f191660200182016040528015610eef576020820181803683370190505b5090508181016020015b600019016f181899199a1a9b1b9c1cb0b131b232b360811b600a86061a8153600a8504945084610ef957509392505050565b60008072184f03e93ff9f4daa797ed6e38ed64bf6a1f0160401b8310610f6a5772184f03e93ff9f4daa797ed6e38ed64bf6a1f0160401b830492506040015b6d04ee2d6d415b85acef81000000008310610f96576d04ee2d6d415b85acef8100000000830492506020015b662386f26fc100008310610fb457662386f26fc10000830492506010015b6305f5e1008310610fcc576305f5e100830492506008015b6127108310610fe057612710830492506004015b60648310610ff2576064830492506002015b600a83106102d55760010192915050565b6001600160e01b03198116811461093857600080fd5b60006020828403121561102b57600080fd5b8135610d0681611003565b60005b83811015611051578181015183820152602001611039565b50506000910152565b60008151808452611072816020860160208601611036565b601f01601f19169290920160200192915050565b602081526000610d06602083018461105a565b6000602082840312156110ab57600080fd5b5035919050565b80356001600160a01b038116811461068157600080fd5b600080604083850312156110dc57600080fd5b6110e5836110b2565b946020939093013593505050565b60008060006060848603121561110857600080fd5b611111846110b2565b925061111f602085016110b2565b9150604084013590509250925092565b60006020828403121561114157600080fd5b610d06826110b2565b6000806040838503121561115d57600080fd5b611166836110b2565b91506020830135801515811461117b57600080fd5b809150509250929050565b634e487b7160e01b600052604160045260246000fd5b600080600080608085870312156111b257600080fd5b6111bb856110b2565b93506111c9602086016110b2565b925060408501359150606085013567ffffffffffffffff808211156111ed57600080fd5b818701915087601f83011261120157600080fd5b81358181111561121357611213611186565b604051601f8201601f19908116603f0116810190838211818310171561123b5761123b611186565b816040528281528a602084870101111561125457600080fd5b82602086016020830137600060208483010152809550505050505092959194509250565b60008060006060848603121561128d57600080fd5b8335925061129d602085016110b2565b9150604084013567ffffffffffffffff811681146112ba57600080fd5b809150509250925092565b600080604083850312156112d857600080fd5b6112e1836110b2565b91506112ef602084016110b2565b90509250929050565b600181811c9082168061130c57607f821691505b60208210810361132c57634e487b7160e01b600052602260045260246000fd5b50919050565b6020808252602d908201527f4552433732313a2063616c6c6572206973206e6f7420746f6b656e206f776e6560408201526c1c881bdc88185c1c1c9bdd9959609a1b606082015260800190565b60008351611391818460208801611036565b8351908301906113a5818360208801611036565b01949350505050565b60208082526025908201527f4552433732313a207472616e736665722066726f6d20696e636f72726563742060408201526437bbb732b960d91b606082015260800190565b60208082526032908201527f4552433732313a207472616e7366657220746f206e6f6e20455243373231526560408201527131b2b4bb32b91034b6b83632b6b2b73a32b960711b606082015260800190565b6001600160a01b03858116825284166020820152604081018390526080606082018190526000906114789083018461105a565b9695505050505050565b60006020828403121561149457600080fd5b8151610d068161100356fea2646970667358221220d657891b33d421cb800cc3d995de5ce7b7ce069534fec11db8697a03374181d664736f6c63430008130033",
  "immutableReferences": {},
  "source": "// SPDX-License-Identifier: MIT\npragma solidity 0.8.19;\n\nimport \"../node_modules/@openzeppelin/contracts/token/ERC721/extensions/ERC721URIStorage.sol\"; \nimport \"./IERC4907.sol\";\n\n/// @author https://github.com/gbesset based on EIP-4907 https://eips.ethereum.org/EIPS/eip-4907\ncontract ERC4907 is ERC721URIStorage, IERC4907 {\n\n  struct UserInfo \n    {\n        address user;   // address of user role\n        uint64 expires; // unix timestamp, user expires\n    }\n\n    mapping (uint256  => UserInfo) internal _users;\n\n\n    constructor(string memory name_, string memory symbol_) ERC721(name_, symbol_) { }\n\n    ///beforeTransferToken hook (safeTransferFrom, tansferFrom, approve, setApprovalForAll)\n    /// @dev delete delegation and emit event\n    function _beforeTokenTransfer(address from, address to, uint256 tokenId, uint256 batchSize) internal virtual override{\n        super._beforeTokenTransfer(from, to, tokenId, batchSize);\n\n        if (from != to && _users[tokenId].user != address(0)) {\n            delete _users[tokenId];\n            emit UpdateDelegation(tokenId, address(0), 0);\n        }\n    }\n\n\n    // Event when the owner of a NFT delegate NFT to a new user or updates expires\n    /// @dev Emitted when the owner of an NFT change the expires or the user.\n    event UpdateDelegation(uint256 indexed tokenId, address indexed user, uint64 expires);\n\n\n    /// @notice set the user and expires of an NFT\n    /// @dev The zero address indicates there is no user\n    /// Throws if `tokenId` is not valid NFT\n    /// @param user  The new user of the NFT\n    /// @param expires  UNIX timestamp, The new user could use the NFT before expires\n    function setUser(uint256 tokenId, address user, uint64 expires) public virtual override {\n        require(_isApprovedOrOwner(msg.sender, tokenId), \"ERC4907: transfer caller is not owner nor approved\");\n        UserInfo storage info =  _users[tokenId];\n        info.user = user;\n        info.expires = expires;\n        emit UpdateDelegation(tokenId, user, expires);\n    }\n\n    /// @notice Get the user address of an NFT\n    /// @dev The zero address indicates that there is no user or the user is expired\n    /// @param tokenId The NFT to get the user address for\n    /// @return The user address for this NFT\n    function userOf(uint256 tokenId) public view virtual override returns(address){\n        if( uint256(_users[tokenId].expires) >=  block.timestamp){\n            return  _users[tokenId].user;\n        }\n        else{\n            return address(0);\n        }\n    }\n\n    /// @notice Get the user expires of an NFT\n    /// @dev The zero value indicates that there is no user\n    /// @param tokenId The NFT to get the user expires for\n    /// @return The user expires for this NFT\n    function userExpires(uint256 tokenId) public view virtual override returns(uint256){\n        return _users[tokenId].expires;\n    }\n\n    /// @dev See {IERC165-supportsInterface}.\n    function supportsInterface(bytes4 interfaceId) public view virtual override returns (bool) {\n        return interfaceId == type(IERC4907).interfaceId || super.supportsInterface(interfaceId);\n    }\n} ",
  "sourcePath": "/Users/gbesset/wks/learning/web3/alyra_projetFinal_LocaTool_AnythingNearYou/truffle/contracts/ERC4907.sol",
  "compiler": {
    "name": "solc",
    "version": "0.8.19+commit.7dd6d404.Emscripten.clang"
  },
  "schemaVersion": "3.4.11",
  "updatedAt": "2023-04-03T18:53:34.573Z",
  "devdoc": {
    "author": "https://github.com/gbesset based on EIP-4907 https://eips.ethereum.org/EIPS/eip-4907",
    "events": {
      "Approval(address,address,uint256)": {
        "details": "Emitted when `owner` enables `approved` to manage the `tokenId` token."
      },
      "ApprovalForAll(address,address,bool)": {
        "details": "Emitted when `owner` enables or disables (`approved`) `operator` to manage all of its assets."
      },
      "Transfer(address,address,uint256)": {
        "details": "Emitted when `tokenId` token is transferred from `from` to `to`."
      },
      "UpdateDelegation(uint256,address,uint64)": {
        "details": "Emitted when the owner of an NFT change the expires or the user."
      }
    },
    "kind": "dev",
    "methods": {
      "approve(address,uint256)": {
        "details": "See {IERC721-approve}."
      },
      "balanceOf(address)": {
        "details": "See {IERC721-balanceOf}."
      },
      "getApproved(uint256)": {
        "details": "See {IERC721-getApproved}."
      },
      "isApprovedForAll(address,address)": {
        "details": "See {IERC721-isApprovedForAll}."
      },
      "name()": {
        "details": "See {IERC721Metadata-name}."
      },
      "ownerOf(uint256)": {
        "details": "See {IERC721-ownerOf}."
      },
      "safeTransferFrom(address,address,uint256)": {
        "details": "See {IERC721-safeTransferFrom}."
      },
      "safeTransferFrom(address,address,uint256,bytes)": {
        "details": "See {IERC721-safeTransferFrom}."
      },
      "setApprovalForAll(address,bool)": {
        "details": "See {IERC721-setApprovalForAll}."
      },
      "setUser(uint256,address,uint64)": {
        "details": "The zero address indicates there is no user Throws if `tokenId` is not valid NFT",
        "params": {
          "expires": "UNIX timestamp, The new user could use the NFT before expires",
          "user": "The new user of the NFT"
        }
      },
      "supportsInterface(bytes4)": {
        "details": "See {IERC165-supportsInterface}."
      },
      "symbol()": {
        "details": "See {IERC721Metadata-symbol}."
      },
      "tokenURI(uint256)": {
        "details": "See {IERC721Metadata-tokenURI}."
      },
      "transferFrom(address,address,uint256)": {
        "details": "See {IERC721-transferFrom}."
      },
      "userExpires(uint256)": {
        "details": "The zero value indicates that there is no user",
        "params": {
          "tokenId": "The NFT to get the user expires for"
        },
        "returns": {
          "_0": "The user expires for this NFT"
        }
      },
      "userOf(uint256)": {
        "details": "The zero address indicates that there is no user or the user is expired",
        "params": {
          "tokenId": "The NFT to get the user address for"
        },
        "returns": {
          "_0": "The user address for this NFT"
        }
      }
    },
    "version": 1
  },
  "userdoc": {
    "kind": "user",
    "methods": {
      "setUser(uint256,address,uint64)": {
        "notice": "set the user and expires of an NFT"
      },
      "userExpires(uint256)": {
        "notice": "Get the user expires of an NFT"
      },
      "userOf(uint256)": {
        "notice": "Get the user address of an NFT"
      }
    },
    "version": 1
  }
}