{
  "contractName": "ERC4907Demo",
  "abi": [
    {
      "inputs": [
        {
          "internalType": "string",
          "name": "name_",
          "type": "string"
        },
        {
          "internalType": "string",
          "name": "symbol_",
          "type": "string"
        }
      ],
      "stateMutability": "nonpayable",
      "type": "constructor"
    },
    {
      "anonymous": false,
      "inputs": [
        {
          "indexed": true,
          "internalType": "address",
          "name": "owner",
          "type": "address"
        },
        {
          "indexed": true,
          "internalType": "address",
          "name": "approved",
          "type": "address"
        },
        {
          "indexed": true,
          "internalType": "uint256",
          "name": "tokenId",
          "type": "uint256"
        }
      ],
      "name": "Approval",
      "type": "event"
    },
    {
      "anonymous": false,
      "inputs": [
        {
          "indexed": true,
          "internalType": "address",
          "name": "owner",
          "type": "address"
        },
        {
          "indexed": true,
          "internalType": "address",
          "name": "operator",
          "type": "address"
        },
        {
          "indexed": false,
          "internalType": "bool",
          "name": "approved",
          "type": "bool"
        }
      ],
      "name": "ApprovalForAll",
      "type": "event"
    },
    {
      "anonymous": false,
      "inputs": [
        {
          "indexed": true,
          "internalType": "address",
          "name": "from",
          "type": "address"
        },
        {
          "indexed": true,
          "internalType": "address",
          "name": "to",
          "type": "address"
        },
        {
          "indexed": true,
          "internalType": "uint256",
          "name": "tokenId",
          "type": "uint256"
        }
      ],
      "name": "Transfer",
      "type": "event"
    },
    {
      "anonymous": false,
      "inputs": [
        {
          "indexed": true,
          "internalType": "uint256",
          "name": "tokenId",
          "type": "uint256"
        },
        {
          "indexed": true,
          "internalType": "address",
          "name": "user",
          "type": "address"
        },
        {
          "indexed": false,
          "internalType": "uint64",
          "name": "expires",
          "type": "uint64"
        }
      ],
      "name": "UpdateDelegation",
      "type": "event"
    },
    {
      "inputs": [
        {
          "internalType": "address",
          "name": "to",
          "type": "address"
        },
        {
          "internalType": "uint256",
          "name": "tokenId",
          "type": "uint256"
        }
      ],
      "name": "approve",
      "outputs": [],
      "stateMutability": "nonpayable",
      "type": "function"
    },
    {
      "inputs": [
        {
          "internalType": "address",
          "name": "owner",
          "type": "address"
        }
      ],
      "name": "balanceOf",
      "outputs": [
        {
          "internalType": "uint256",
          "name": "",
          "type": "uint256"
        }
      ],
      "stateMutability": "view",
      "type": "function"
    },
    {
      "inputs": [
        {
          "internalType": "uint256",
          "name": "tokenId",
          "type": "uint256"
        }
      ],
      "name": "getApproved",
      "outputs": [
        {
          "internalType": "address",
          "name": "",
          "type": "address"
        }
      ],
      "stateMutability": "view",
      "type": "function"
    },
    {
      "inputs": [
        {
          "internalType": "address",
          "name": "owner",
          "type": "address"
        },
        {
          "internalType": "address",
          "name": "operator",
          "type": "address"
        }
      ],
      "name": "isApprovedForAll",
      "outputs": [
        {
          "internalType": "bool",
          "name": "",
          "type": "bool"
        }
      ],
      "stateMutability": "view",
      "type": "function"
    },
    {
      "inputs": [],
      "name": "name",
      "outputs": [
        {
          "internalType": "string",
          "name": "",
          "type": "string"
        }
      ],
      "stateMutability": "view",
      "type": "function"
    },
    {
      "inputs": [
        {
          "internalType": "uint256",
          "name": "tokenId",
          "type": "uint256"
        }
      ],
      "name": "ownerOf",
      "outputs": [
        {
          "internalType": "address",
          "name": "",
          "type": "address"
        }
      ],
      "stateMutability": "view",
      "type": "function"
    },
    {
      "inputs": [
        {
          "internalType": "address",
          "name": "from",
          "type": "address"
        },
        {
          "internalType": "address",
          "name": "to",
          "type": "address"
        },
        {
          "internalType": "uint256",
          "name": "tokenId",
          "type": "uint256"
        }
      ],
      "name": "safeTransferFrom",
      "outputs": [],
      "stateMutability": "nonpayable",
      "type": "function"
    },
    {
      "inputs": [
        {
          "internalType": "address",
          "name": "from",
          "type": "address"
        },
        {
          "internalType": "address",
          "name": "to",
          "type": "address"
        },
        {
          "internalType": "uint256",
          "name": "tokenId",
          "type": "uint256"
        },
        {
          "internalType": "bytes",
          "name": "data",
          "type": "bytes"
        }
      ],
      "name": "safeTransferFrom",
      "outputs": [],
      "stateMutability": "nonpayable",
      "type": "function"
    },
    {
      "inputs": [
        {
          "internalType": "address",
          "name": "operator",
          "type": "address"
        },
        {
          "internalType": "bool",
          "name": "approved",
          "type": "bool"
        }
      ],
      "name": "setApprovalForAll",
      "outputs": [],
      "stateMutability": "nonpayable",
      "type": "function"
    },
    {
      "inputs": [
        {
          "internalType": "uint256",
          "name": "tokenId",
          "type": "uint256"
        },
        {
          "internalType": "address",
          "name": "user",
          "type": "address"
        },
        {
          "internalType": "uint64",
          "name": "expires",
          "type": "uint64"
        }
      ],
      "name": "setUser",
      "outputs": [],
      "stateMutability": "nonpayable",
      "type": "function"
    },
    {
      "inputs": [
        {
          "internalType": "bytes4",
          "name": "interfaceId",
          "type": "bytes4"
        }
      ],
      "name": "supportsInterface",
      "outputs": [
        {
          "internalType": "bool",
          "name": "",
          "type": "bool"
        }
      ],
      "stateMutability": "view",
      "type": "function"
    },
    {
      "inputs": [],
      "name": "symbol",
      "outputs": [
        {
          "internalType": "string",
          "name": "",
          "type": "string"
        }
      ],
      "stateMutability": "view",
      "type": "function"
    },
    {
      "inputs": [
        {
          "internalType": "uint256",
          "name": "tokenId",
          "type": "uint256"
        }
      ],
      "name": "tokenURI",
      "outputs": [
        {
          "internalType": "string",
          "name": "",
          "type": "string"
        }
      ],
      "stateMutability": "view",
      "type": "function"
    },
    {
      "inputs": [
        {
          "internalType": "address",
          "name": "from",
          "type": "address"
        },
        {
          "internalType": "address",
          "name": "to",
          "type": "address"
        },
        {
          "internalType": "uint256",
          "name": "tokenId",
          "type": "uint256"
        }
      ],
      "name": "transferFrom",
      "outputs": [],
      "stateMutability": "nonpayable",
      "type": "function"
    },
    {
      "inputs": [
        {
          "internalType": "uint256",
          "name": "tokenId",
          "type": "uint256"
        }
      ],
      "name": "userExpires",
      "outputs": [
        {
          "internalType": "uint256",
          "name": "",
          "type": "uint256"
        }
      ],
      "stateMutability": "view",
      "type": "function"
    },
    {
      "inputs": [
        {
          "internalType": "uint256",
          "name": "tokenId",
          "type": "uint256"
        }
      ],
      "name": "userOf",
      "outputs": [
        {
          "internalType": "address",
          "name": "",
          "type": "address"
        }
      ],
      "stateMutability": "view",
      "type": "function"
    },
    {
      "inputs": [
        {
          "internalType": "uint256",
          "name": "tokenId",
          "type": "uint256"
        },
        {
          "internalType": "address",
          "name": "to",
          "type": "address"
        }
      ],
      "name": "mint",
      "outputs": [],
      "stateMutability": "nonpayable",
      "type": "function"
    }
  ],
  "bytecode": "0x60806040523480156200001157600080fd5b50604051620019b5380380620019b5833981016040819052620000349162000127565b81818181600062000046838262000220565b50600162000055828262000220565b50505050505050620002ec565b634e487b7160e01b600052604160045260246000fd5b600082601f8301126200008a57600080fd5b81516001600160401b0380821115620000a757620000a762000062565b604051601f8301601f19908116603f01168101908282118183101715620000d257620000d262000062565b81604052838152602092508683858801011115620000ef57600080fd5b600091505b83821015620001135785820183015181830184015290820190620000f4565b600093810190920192909252949350505050565b600080604083850312156200013b57600080fd5b82516001600160401b03808211156200015357600080fd5b620001618683870162000078565b935060208501519150808211156200017857600080fd5b50620001878582860162000078565b9150509250929050565b600181811c90821680620001a657607f821691505b602082108103620001c757634e487b7160e01b600052602260045260246000fd5b50919050565b601f8211156200021b57600081815260208120601f850160051c81016020861015620001f65750805b601f850160051c820191505b81811015620002175782815560010162000202565b5050505b505050565b81516001600160401b038111156200023c576200023c62000062565b62000254816200024d845462000191565b84620001cd565b602080601f8311600181146200028c5760008415620002735750858301515b600019600386901b1c1916600185901b17855562000217565b600085815260208120601f198616915b82811015620002bd578886015182559484019460019091019084016200029c565b5085821015620002dc5787850151600019600388901b60f8161c191681555b5050505050600190811b01905550565b6116b980620002fc6000396000f3fe608060405234801561001057600080fd5b506004361061010b5760003560e01c80638fc88c48116100a2578063b88d4fde11610071578063b88d4fde14610246578063c2f1f14a14610259578063c87b56dd1461026c578063e030565e1461027f578063e985e9c51461029257600080fd5b80638fc88c48146101e757806394bf804d1461021857806395d89b411461022b578063a22cb4651461023357600080fd5b806323b872dd116100de57806323b872dd1461018d57806342842e0e146101a05780636352211e146101b357806370a08231146101c657600080fd5b806301ffc9a71461011057806306fdde0314610138578063081812fc1461014d578063095ea7b314610178575b600080fd5b61012361011e3660046111da565b6102ce565b60405190151581526020015b60405180910390f35b6101406102f9565b60405161012f9190611247565b61016061015b36600461125a565b61038b565b6040516001600160a01b03909116815260200161012f565b61018b61018636600461128a565b6103b2565b005b61018b61019b3660046112b4565b6104cc565b61018b6101ae3660046112b4565b6104fd565b6101606101c136600461125a565b610518565b6101d96101d43660046112f0565b610578565b60405190815260200161012f565b6101d96101f536600461125a565b600090815260076020526040902054600160a01b900467ffffffffffffffff1690565b61018b61022636600461130b565b6105fe565b61014061060c565b61018b610241366004611337565b61061b565b61018b610254366004611389565b610626565b61016061026736600461125a565b61065e565b61014061027a36600461125a565b6106ae565b61018b61028d366004611465565b6107be565b6101236102a03660046114b2565b6001600160a01b03918216600090815260056020908152604080832093909416825291909152205460ff1690565b60006001600160e01b03198216632b424ad760e21b14806102f357506102f3826108b1565b92915050565b606060008054610308906114dc565b80601f0160208091040260200160405190810160405280929190818152602001828054610334906114dc565b80156103815780601f1061035657610100808354040283529160200191610381565b820191906000526020600020905b81548152906001019060200180831161036457829003601f168201915b5050505050905090565b600061039682610901565b506000908152600460205260409020546001600160a01b031690565b60006103bd82610518565b9050806001600160a01b0316836001600160a01b03160361042f5760405162461bcd60e51b815260206004820152602160248201527f4552433732313a20617070726f76616c20746f2063757272656e74206f776e656044820152603960f91b60648201526084015b60405180910390fd5b336001600160a01b038216148061044b575061044b81336102a0565b6104bd5760405162461bcd60e51b815260206004820152603d60248201527f4552433732313a20617070726f76652063616c6c6572206973206e6f7420746f60448201527f6b656e206f776e6572206f7220617070726f76656420666f7220616c6c0000006064820152608401610426565b6104c78383610963565b505050565b6104d633826109d1565b6104f25760405162461bcd60e51b815260040161042690611516565b6104c7838383610a4f565b6104c783838360405180602001604052806000815250610626565b6000818152600260205260408120546001600160a01b0316806102f35760405162461bcd60e51b8152602060048201526018602482015277115490cdcc8c4e881a5b9d985b1a59081d1bdad95b88125160421b6044820152606401610426565b60006001600160a01b0382166105e25760405162461bcd60e51b815260206004820152602960248201527f4552433732313a2061646472657373207a65726f206973206e6f7420612076616044820152683634b21037bbb732b960b91b6064820152608401610426565b506001600160a01b031660009081526003602052604090205490565b6106088183610bc0565b5050565b606060018054610308906114dc565b610608338383610d59565b61063033836109d1565b61064c5760405162461bcd60e51b815260040161042690611516565b61065884848484610e27565b50505050565b60008181526007602052604081205442600160a01b90910467ffffffffffffffff16106106a157506000908152600760205260409020546001600160a01b031690565b506000919050565b919050565b60606106b982610901565b600082815260066020526040812080546106d2906114dc565b80601f01602080910402602001604051908101604052809291908181526020018280546106fe906114dc565b801561074b5780601f106107205761010080835404028352916020019161074b565b820191906000526020600020905b81548152906001019060200180831161072e57829003601f168201915b50505050509050600061076960408051602081019091526000815290565b9050805160000361077b575092915050565b8151156107ad578082604051602001610795929190611563565b60405160208183030381529060405292505050919050565b6107b684610e5a565b949350505050565b6107c833846109d1565b61082f5760405162461bcd60e51b815260206004820152603260248201527f455243343930373a207472616e736665722063616c6c6572206973206e6f74206044820152711bdddb995c881b9bdc88185c1c1c9bdd995960721b6064820152608401610426565b60008381526007602090815260409182902080546001600160a01b0386166001600160e01b03199091168117600160a01b67ffffffffffffffff871690810291909117835593519384529092909186917f85d68432e09ec91928b8ec8b2c2337e2c9870d2268132024c8ea65c46eefeef891015b60405180910390a350505050565b60006001600160e01b031982166380ac58cd60e01b14806108e257506001600160e01b03198216635b5e139f60e01b145b806102f357506301ffc9a760e01b6001600160e01b03198316146102f3565b6000818152600260205260409020546001600160a01b03166109605760405162461bcd60e51b8152602060048201526018602482015277115490cdcc8c4e881a5b9d985b1a59081d1bdad95b88125160421b6044820152606401610426565b50565b600081815260046020526040902080546001600160a01b0319166001600160a01b038416908117909155819061099882610518565b6001600160a01b03167f8c5be1e5ebec7d5bd14f71427d1e84f3dd0314c0f7b2291e5b200ac8c7c3b92560405160405180910390a45050565b6000806109dd83610518565b9050806001600160a01b0316846001600160a01b03161480610a2457506001600160a01b0380821660009081526005602090815260408083209388168352929052205460ff165b806107b65750836001600160a01b0316610a3d8461038b565b6001600160a01b031614949350505050565b826001600160a01b0316610a6282610518565b6001600160a01b031614610a885760405162461bcd60e51b815260040161042690611592565b6001600160a01b038216610aea5760405162461bcd60e51b8152602060048201526024808201527f4552433732313a207472616e7366657220746f20746865207a65726f206164646044820152637265737360e01b6064820152608401610426565b610af78383836001610ece565b826001600160a01b0316610b0a82610518565b6001600160a01b031614610b305760405162461bcd60e51b815260040161042690611592565b600081815260046020908152604080832080546001600160a01b03199081169091556001600160a01b0387811680865260038552838620805460001901905590871680865283862080546001019055868652600290945282852080549092168417909155905184937fddf252ad1be2c89b69c2b068fc378daa952ba7f163c4a11628f55a4df523b3ef91a4505050565b6001600160a01b038216610c165760405162461bcd60e51b815260206004820181905260248201527f4552433732313a206d696e7420746f20746865207a65726f20616464726573736044820152606401610426565b6000818152600260205260409020546001600160a01b031615610c7b5760405162461bcd60e51b815260206004820152601c60248201527f4552433732313a20746f6b656e20616c7265616479206d696e746564000000006044820152606401610426565b610c89600083836001610ece565b6000818152600260205260409020546001600160a01b031615610cee5760405162461bcd60e51b815260206004820152601c60248201527f4552433732313a20746f6b656e20616c7265616479206d696e746564000000006044820152606401610426565b6001600160a01b038216600081815260036020908152604080832080546001019055848352600290915280822080546001600160a01b0319168417905551839291907fddf252ad1be2c89b69c2b068fc378daa952ba7f163c4a11628f55a4df523b3ef908290a45050565b816001600160a01b0316836001600160a01b031603610dba5760405162461bcd60e51b815260206004820152601960248201527f4552433732313a20617070726f766520746f2063616c6c6572000000000000006044820152606401610426565b6001600160a01b03838116600081815260056020908152604080832094871680845294825291829020805460ff191686151590811790915591519182527f17307eab39ab6107e8899845ad3d59bd9653f200f220920489ca2b5937696c31910160405180910390a3505050565b610e32848484610a4f565b610e3e84848484610f58565b6106585760405162461bcd60e51b8152600401610426906115d7565b6060610e6582610901565b6000610e7c60408051602081019091526000815290565b90506000815111610e9c5760405180602001604052806000815250610ec7565b80610ea684611059565b604051602001610eb7929190611563565b6040516020818303038152906040525b9392505050565b826001600160a01b0316846001600160a01b031614158015610f0657506000828152600760205260409020546001600160a01b031615155b1561065857600082815260076020908152604080832080546001600160e01b03191690555182815284917f85d68432e09ec91928b8ec8b2c2337e2c9870d2268132024c8ea65c46eefeef891016108a3565b60006001600160a01b0384163b1561104e57604051630a85bd0160e11b81526001600160a01b0385169063150b7a0290610f9c903390899088908890600401611629565b6020604051808303816000875af1925050508015610fd7575060408051601f3d908101601f19168201909252610fd491810190611666565b60015b611034573d808015611005576040519150601f19603f3d011682016040523d82523d6000602084013e61100a565b606091505b50805160000361102c5760405162461bcd60e51b8152600401610426906115d7565b805181602001fd5b6001600160e01b031916630a85bd0160e11b1490506107b6565b506001949350505050565b60606000611066836110ec565b600101905060008167ffffffffffffffff81111561108657611086611373565b6040519080825280601f01601f1916602001820160405280156110b0576020820181803683370190505b5090508181016020015b600019016f181899199a1a9b1b9c1cb0b131b232b360811b600a86061a8153600a85049450846110ba57509392505050565b60008072184f03e93ff9f4daa797ed6e38ed64bf6a1f0160401b831061112b5772184f03e93ff9f4daa797ed6e38ed64bf6a1f0160401b830492506040015b6d04ee2d6d415b85acef81000000008310611157576d04ee2d6d415b85acef8100000000830492506020015b662386f26fc10000831061117557662386f26fc10000830492506010015b6305f5e100831061118d576305f5e100830492506008015b61271083106111a157612710830492506004015b606483106111b3576064830492506002015b600a83106102f35760010192915050565b6001600160e01b03198116811461096057600080fd5b6000602082840312156111ec57600080fd5b8135610ec7816111c4565b60005b838110156112125781810151838201526020016111fa565b50506000910152565b600081518084526112338160208601602086016111f7565b601f01601f19169290920160200192915050565b602081526000610ec7602083018461121b565b60006020828403121561126c57600080fd5b5035919050565b80356001600160a01b03811681146106a957600080fd5b6000806040838503121561129d57600080fd5b6112a683611273565b946020939093013593505050565b6000806000606084860312156112c957600080fd5b6112d284611273565b92506112e060208501611273565b9150604084013590509250925092565b60006020828403121561130257600080fd5b610ec782611273565b6000806040838503121561131e57600080fd5b8235915061132e60208401611273565b90509250929050565b6000806040838503121561134a57600080fd5b61135383611273565b91506020830135801515811461136857600080fd5b809150509250929050565b634e487b7160e01b600052604160045260246000fd5b6000806000806080858703121561139f57600080fd5b6113a885611273565b93506113b660208601611273565b925060408501359150606085013567ffffffffffffffff808211156113da57600080fd5b818701915087601f8301126113ee57600080fd5b81358181111561140057611400611373565b604051601f8201601f19908116603f0116810190838211818310171561142857611428611373565b816040528281528a602084870101111561144157600080fd5b82602086016020830137600060208483010152809550505050505092959194509250565b60008060006060848603121561147a57600080fd5b8335925061148a60208501611273565b9150604084013567ffffffffffffffff811681146114a757600080fd5b809150509250925092565b600080604083850312156114c557600080fd5b6114ce83611273565b915061132e60208401611273565b600181811c908216806114f057607f821691505b60208210810361151057634e487b7160e01b600052602260045260246000fd5b50919050565b6020808252602d908201527f4552433732313a2063616c6c6572206973206e6f7420746f6b656e206f776e6560408201526c1c881bdc88185c1c1c9bdd9959609a1b606082015260800190565b600083516115758184602088016111f7565b8351908301906115898183602088016111f7565b01949350505050565b60208082526025908201527f4552433732313a207472616e736665722066726f6d20696e636f72726563742060408201526437bbb732b960d91b606082015260800190565b60208082526032908201527f4552433732313a207472616e7366657220746f206e6f6e20455243373231526560408201527131b2b4bb32b91034b6b83632b6b2b73a32b960711b606082015260800190565b6001600160a01b038581168252841660208201526040810183905260806060820181905260009061165c9083018461121b565b9695505050505050565b60006020828403121561167857600080fd5b8151610ec7816111c456fea2646970667358221220b15bb578232e00ee9c914eaff77f7e85369b9d3e56adcf7fc0a1b16ee6a81fe964736f6c63430008130033",
  "immutableReferences": {},
  "source": "// SPDX-License-Identifier: MIT\npragma solidity 0.8.19;\n\nimport \"./ERC4907.sol\";\n\ncontract ERC4907Demo is ERC4907 {\n\n    constructor(string memory name_, string memory symbol_)\n     ERC4907(name_,symbol_)\n     {         \n     }\n\n    function mint(uint256 tokenId, address to) public {\n        _mint(to, tokenId);\n    }\n\n} \n",
  "sourcePath": "/Users/gbesset/wks/learning/web3/alyra_projetFinal_LocaTool_AnythingNearYou/truffle/contracts/ERC4907Demo.sol",
  "compiler": {
    "name": "solc",
    "version": "0.8.19+commit.7dd6d404.Emscripten.clang"
  },
  "schemaVersion": "3.4.11",
  "updatedAt": "2023-04-09T09:46:29.313Z",
  "devdoc": {
    "events": {
      "Approval(address,address,uint256)": {
        "details": "Emitted when `owner` enables `approved` to manage the `tokenId` token."
      },
      "ApprovalForAll(address,address,bool)": {
        "details": "Emitted when `owner` enables or disables (`approved`) `operator` to manage all of its assets."
      },
      "Transfer(address,address,uint256)": {
        "details": "Emitted when `tokenId` token is transferred from `from` to `to`."
      },
      "UpdateDelegation(uint256,address,uint64)": {
        "details": "Emitted when the owner of an NFT change the expires or the user."
      }
    },
    "kind": "dev",
    "methods": {
      "approve(address,uint256)": {
        "details": "See {IERC721-approve}."
      },
      "balanceOf(address)": {
        "details": "See {IERC721-balanceOf}."
      },
      "getApproved(uint256)": {
        "details": "See {IERC721-getApproved}."
      },
      "isApprovedForAll(address,address)": {
        "details": "See {IERC721-isApprovedForAll}."
      },
      "name()": {
        "details": "See {IERC721Metadata-name}."
      },
      "ownerOf(uint256)": {
        "details": "See {IERC721-ownerOf}."
      },
      "safeTransferFrom(address,address,uint256)": {
        "details": "See {IERC721-safeTransferFrom}."
      },
      "safeTransferFrom(address,address,uint256,bytes)": {
        "details": "See {IERC721-safeTransferFrom}."
      },
      "setApprovalForAll(address,bool)": {
        "details": "See {IERC721-setApprovalForAll}."
      },
      "setUser(uint256,address,uint64)": {
        "details": "The zero address indicates there is no user Throws if `tokenId` is not valid NFT",
        "params": {
          "expires": "UNIX timestamp, The new user could use the NFT before expires",
          "user": "The new user of the NFT"
        }
      },
      "supportsInterface(bytes4)": {
        "details": "See {IERC165-supportsInterface}."
      },
      "symbol()": {
        "details": "See {IERC721Metadata-symbol}."
      },
      "tokenURI(uint256)": {
        "details": "See {IERC721Metadata-tokenURI}."
      },
      "transferFrom(address,address,uint256)": {
        "details": "See {IERC721-transferFrom}."
      },
      "userExpires(uint256)": {
        "details": "The zero value indicates that there is no user",
        "params": {
          "tokenId": "The NFT to get the user expires for"
        },
        "returns": {
          "_0": "The user expires for this NFT"
        }
      },
      "userOf(uint256)": {
        "details": "The zero address indicates that there is no user or the user is expired",
        "params": {
          "tokenId": "The NFT to get the user address for"
        },
        "returns": {
          "_0": "The user address for this NFT"
        }
      }
    },
    "version": 1
  },
  "userdoc": {
    "kind": "user",
    "methods": {
      "setUser(uint256,address,uint64)": {
        "notice": "set the user and expires of an NFT"
      },
      "userExpires(uint256)": {
        "notice": "Get the user expires of an NFT"
      },
      "userOf(uint256)": {
        "notice": "Get the user address of an NFT"
      }
    },
    "version": 1
  }
}